{"contracts/RooCasino.sol":{"RooCasino":{"abi":[{"inputs":[{"internalType":"address","name":"_platformWallet","type":"address"}],"stateMutability":"nonpayable","type":"constructor"},{"inputs":[],"name":"EnforcedPause","type":"error"},{"inputs":[],"name":"ExpectedPause","type":"error"},{"inputs":[{"internalType":"address","name":"owner","type":"address"}],"name":"OwnableInvalidOwner","type":"error"},{"inputs":[{"internalType":"address","name":"account","type":"address"}],"name":"OwnableUnauthorizedAccount","type":"error"},{"inputs":[],"name":"ReentrancyGuardReentrantCall","type":"error"},{"inputs":[{"internalType":"address","name":"token","type":"address"}],"name":"SafeERC20FailedOperation","type":"error"},{"anonymous":false,"inputs":[{"indexed":true,"internalType":"address","name":"token","type":"address"},{"indexed":false,"internalType":"uint256","name":"betAmount","type":"uint256"},{"indexed":false,"internalType":"uint256","name":"profitAmount","type":"uint256"},{"indexed":false,"internalType":"bool","name":"win","type":"bool"}],"name":"GameResult","type":"event"},{"anonymous":false,"inputs":[{"indexed":true,"internalType":"address","name":"previousOwner","type":"address"},{"indexed":true,"internalType":"address","name":"newOwner","type":"address"}],"name":"OwnershipTransferred","type":"event"},{"anonymous":false,"inputs":[{"indexed":false,"internalType":"address","name":"account","type":"address"}],"name":"Paused","type":"event"},{"anonymous":false,"inputs":[{"indexed":true,"internalType":"address","name":"newWallet","type":"address"}],"name":"PlatformWalletUpdated","type":"event"},{"anonymous":false,"inputs":[{"indexed":true,"internalType":"address","name":"token","type":"address"},{"indexed":true,"internalType":"address","name":"user","type":"address"},{"indexed":false,"internalType":"uint256","name":"amount","type":"uint256"},{"indexed":false,"internalType":"uint256","name":"shares","type":"uint256"}],"name":"PoolDeposit","type":"event"},{"anonymous":false,"inputs":[{"indexed":true,"internalType":"address","name":"token","type":"address"},{"indexed":true,"internalType":"address","name":"user","type":"address"},{"indexed":false,"internalType":"uint256","name":"amount","type":"uint256"},{"indexed":false,"internalType":"uint256","name":"shares","type":"uint256"}],"name":"PoolWithdrawal","type":"event"},{"anonymous":false,"inputs":[{"indexed":true,"internalType":"address","name":"token","type":"address"},{"indexed":true,"internalType":"address","name":"user","type":"address"},{"indexed":false,"internalType":"uint256","name":"amount","type":"uint256"}],"name":"RewardClaimed","type":"event"},{"anonymous":false,"inputs":[{"indexed":true,"internalType":"address","name":"token","type":"address"},{"indexed":false,"internalType":"uint256","name":"amount","type":"uint256"}],"name":"RewardDistributed","type":"event"},{"anonymous":false,"inputs":[{"indexed":true,"internalType":"address","name":"token","type":"address"},{"indexed":false,"internalType":"bool","name":"status","type":"bool"}],"name":"TokenWhitelisted","type":"event"},{"anonymous":false,"inputs":[{"indexed":true,"internalType":"address","name":"source","type":"address"},{"indexed":false,"internalType":"bool","name":"status","type":"bool"}],"name":"TrustedSourceUpdated","type":"event"},{"anonymous":false,"inputs":[{"indexed":false,"internalType":"address","name":"account","type":"address"}],"name":"Unpaused","type":"event"},{"inputs":[{"internalType":"address","name":"token","type":"address"}],"name":"claimRewards","outputs":[],"stateMutability":"nonpayable","type":"function"},{"inputs":[{"internalType":"address","name":"token","type":"address"},{"internalType":"uint256","name":"amount","type":"uint256"}],"name":"deposit","outputs":[],"stateMutability":"nonpayable","type":"function"},{"inputs":[{"internalType":"address","name":"token","type":"address"}],"name":"getMaxBet","outputs":[{"internalType":"uint256","name":"","type":"uint256"}],"stateMutability":"view","type":"function"},{"inputs":[{"internalType":"address","name":"token","type":"address"}],"name":"getPoolInfo","outputs":[{"internalType":"uint256","name":"totalDeposits","type":"uint256"},{"internalType":"uint256","name":"totalShares","type":"uint256"}],"stateMutability":"view","type":"function"},{"inputs":[{"internalType":"address","name":"token","type":"address"}],"name":"getPoolParticipants","outputs":[{"internalType":"address[]","name":"","type":"address[]"}],"stateMutability":"view","type":"function"},{"inputs":[{"internalType":"address","name":"token","type":"address"},{"internalType":"address","name":"user","type":"address"}],"name":"getUserRewards","outputs":[{"internalType":"uint256","name":"","type":"uint256"}],"stateMutability":"view","type":"function"},{"inputs":[{"internalType":"address","name":"token","type":"address"},{"internalType":"address","name":"user","type":"address"}],"name":"getUserShares","outputs":[{"internalType":"uint256","name":"","type":"uint256"}],"stateMutability":"view","type":"function"},{"inputs":[{"internalType":"address","name":"","type":"address"}],"name":"housePools","outputs":[{"internalType":"uint256","name":"totalDeposits","type":"uint256"},{"internalType":"uint256","name":"totalShares","type":"uint256"}],"stateMutability":"view","type":"function"},{"inputs":[],"name":"owner","outputs":[{"internalType":"address","name":"","type":"address"}],"stateMutability":"view","type":"function"},{"inputs":[],"name":"pause","outputs":[],"stateMutability":"nonpayable","type":"function"},{"inputs":[],"name":"paused","outputs":[{"internalType":"bool","name":"","type":"bool"}],"stateMutability":"view","type":"function"},{"inputs":[],"name":"platformWallet","outputs":[{"internalType":"address","name":"","type":"address"}],"stateMutability":"view","type":"function"},{"inputs":[{"internalType":"address","name":"token","type":"address"},{"internalType":"uint256","name":"betAmount","type":"uint256"},{"internalType":"uint256","name":"profitAmount","type":"uint256"},{"internalType":"bool","name":"playerWon","type":"bool"}],"name":"processGameResult","outputs":[],"stateMutability":"nonpayable","type":"function"},{"inputs":[],"name":"renounceOwnership","outputs":[],"stateMutability":"nonpayable","type":"function"},{"inputs":[{"internalType":"address","name":"newWallet","type":"address"}],"name":"setPlatformWallet","outputs":[],"stateMutability":"nonpayable","type":"function"},{"inputs":[{"internalType":"address","name":"source","type":"address"},{"internalType":"bool","name":"status","type":"bool"}],"name":"setTrustedSource","outputs":[],"stateMutability":"nonpayable","type":"function"},{"inputs":[{"internalType":"address","name":"newOwner","type":"address"}],"name":"transferOwnership","outputs":[],"stateMutability":"nonpayable","type":"function"},{"inputs":[{"internalType":"address","name":"","type":"address"}],"name":"trustedSources","outputs":[{"internalType":"bool","name":"","type":"bool"}],"stateMutability":"view","type":"function"},{"inputs":[],"name":"unpause","outputs":[],"stateMutability":"nonpayable","type":"function"},{"inputs":[{"internalType":"address","name":"token","type":"address"},{"internalType":"bool","name":"status","type":"bool"}],"name":"whitelistToken","outputs":[],"stateMutability":"nonpayable","type":"function"},{"inputs":[{"internalType":"address","name":"","type":"address"}],"name":"whitelistedTokens","outputs":[{"internalType":"bool","name":"","type":"bool"}],"stateMutability":"view","type":"function"},{"inputs":[{"internalType":"address","name":"token","type":"address"},{"internalType":"uint256","name":"shares","type":"uint256"}],"name":"withdraw","outputs":[],"stateMutability":"nonpayable","type":"function"}],"evm":{"bytecode":{"linkReferences":{},"object":"608060405234801561000f575f80fd5b50604051620016da380380620016da83398101604081905261003091610140565b5f805460ff19169055338061005f57604051631e4fbdf760e01b81525f60048201526024015b60405180910390fd5b610068816100e8565b50600180556001600160a01b0381166100c35760405162461bcd60e51b815260206004820152601760248201527f496e76616c696420706c6174666f726d2077616c6c65740000000000000000006044820152606401610056565b600280546001600160a01b0319166001600160a01b039290921691909117905561016d565b5f80546001600160a01b03838116610100818102610100600160a81b0319851617855560405193049190911692909183917f8be0079c531659141344cd1fd0a4f28419497f9722a3daafe3b4186f6b6457e091a35050565b5f60208284031215610150575f80fd5b81516001600160a01b0381168114610166575f80fd5b9392505050565b61155f806200017b5f395ff3fe608060405234801561000f575f80fd5b506004361061013d575f3560e01c80638da5cb5b116100b4578063cd636b1f11610079578063cd636b1f146102e3578063daf9c2101461031f578063ef5cfb8c14610341578063f2fde38b14610354578063f3fef3a314610367578063fa2af9da1461037a575f80fd5b80638da5cb5b146102405780638edd367c14610269578063a362d7821461028f578063bb1de9dc146102b0578063c9cc3d96146102c3575f80fd5b8063522a54bd11610105578063522a54bd146101ed5780635c975abb14610200578063715018a61461020a5780638456cb59146102125780638831e9cf1461021a5780638ad059921461022d575f80fd5b806306bfa938146101415780630ffb1d8b1461018b5780633f4ba83a146101a057806347e7ef24146101a85780634c31957f146101bb575b5f80fd5b61017161014f36600461132a565b6001600160a01b03165f90815260056020526040902080546001909101549091565b604080519283526020830191909152015b60405180910390f35b61019e610199366004611352565b61038d565b005b61019e610447565b61019e6101b6366004611383565b610459565b6101dd6101c936600461132a565b60046020525f908152604090205460ff1681565b6040519015158152602001610182565b61019e6101fb3660046113ab565b61069c565b5f5460ff166101dd565b61019e610903565b61019e610914565b61019e61022836600461132a565b610924565b61019e61023b366004611352565b6109c4565b5f5461010090046001600160a01b03165b6040516001600160a01b039091168152602001610182565b61017161027736600461132a565b60056020525f90815260409020805460019091015482565b6102a261029d3660046113ee565b610a72565b604051908152602001610182565b6102a26102be36600461132a565b610aa2565b6102d66102d136600461132a565b610adc565b6040516101829190611416565b6102a26102f13660046113ee565b6001600160a01b039182165f9081526005602090815260408083209390941682526003909201909152205490565b6101dd61032d36600461132a565b60036020525f908152604090205460ff1681565b61019e61034f36600461132a565b610b4f565b61019e61036236600461132a565b610c3e565b61019e610375366004611383565b610c78565b600254610251906001600160a01b031681565b610395610e5a565b6001600160a01b0382166103e85760405162461bcd60e51b8152602060048201526015602482015274496e76616c696420746f6b656e206164647265737360581b60448201526064015b60405180910390fd5b6001600160a01b0382165f81815260036020908152604091829020805460ff191685151590811790915591519182527fef81a9943b96c8df4ef243401c9bf5159146166211356898b52d382086168d9291015b60405180910390a25050565b61044f610e5a565b610457610e8c565b565b610461610edd565b610469610f07565b6001600160a01b0382165f9081526003602052604090205460ff166104a05760405162461bcd60e51b81526004016103df90611462565b5f81116104ef5760405162461bcd60e51b815260206004820152601d60248201527f416d6f756e74206d7573742062652067726561746572207468616e203000000060448201526064016103df565b6001600160a01b0382165f908152600560205260408120906127106105166101f4856114a5565b61052091906114bc565b90505f61052d82856114db565b90505f83600101545f1461055b578354600185015461054c90846114a5565b61055691906114bc565b61055d565b815b90505f81116105ae5760405162461bcd60e51b815260206004820152601860248201527f4465706f73697420616d6f756e7420746f6f20736d616c6c000000000000000060448201526064016103df565b6105c36001600160a01b038716333088610f2a565b82156105e3576002546105e3906001600160a01b03888116911685610f97565b81845f015f8282546105f591906114ee565b9250508190555080846001015f82825461060f91906114ee565b9091555050335f908152600285016020526040812080548392906106349084906114ee565b9091555061064490508633610fcd565b604080518681526020810183905233916001600160a01b038916917f92ecde4d5be1846d86a7b7f1126046797d9f71c3f3c42f715d4ab102976e655591015b60405180910390a35050505061069860018055565b5050565b6106a4610f07565b335f9081526004602052604090205460ff166106f35760405162461bcd60e51b815260206004820152600e60248201526d139bdd08185d5d1a1bdc9a5e995960921b60448201526064016103df565b6001600160a01b0384165f9081526003602052604090205460ff1661072a5760405162461bcd60e51b81526004016103df90611462565b6001600160a01b0384165f908152600560205260409020805461077f5760405162461bcd60e51b815260206004820152600d60248201526c506f6f6c20697320656d70747960981b60448201526064016103df565b5f6127106064835f015461079391906114a5565b61079d91906114bc565b9050808511156107e55760405162461bcd60e51b81526020600482015260136024820152724265742065786365656473206d6178696d756d60681b60448201526064016103df565b5f6127106107f56101f4886114a5565b6107ff91906114bc565b9050831561088757825461081386886114ee565b11156108615760405162461bcd60e51b815260206004820152601760248201527f496e73756666696369656e7420706f6f6c2066756e647300000000000000000060448201526064016103df565b61086b85876114ee565b835f015f82825461087c91906114db565b909155506108ad9050565b5f61089282886114db565b905080845f015f8282546108a691906114ee565b9091555050505b60408051878152602081018790528515158183015290516001600160a01b038916917f8e82347896581433cca91c098c421523af006d1424c4bdf715615d8811007ad8919081900360600190a250505050505050565b61090b610e5a565b6104575f611058565b61091c610e5a565b6104576110b0565b61092c610e5a565b6001600160a01b03811661097b5760405162461bcd60e51b8152602060048201526016602482015275496e76616c69642077616c6c6574206164647265737360501b60448201526064016103df565b600280546001600160a01b0319166001600160a01b0383169081179091556040517f73238e3ae0a71b401b31ae67204506d074de41bd5c084082fba9b64b1c7fa28f905f90a250565b6109cc610e5a565b6001600160a01b038216610a1b5760405162461bcd60e51b8152602060048201526016602482015275496e76616c696420736f75726365206164647265737360501b60448201526064016103df565b6001600160a01b0382165f81815260046020908152604091829020805460ff191685151590811790915591519182527f5c9fec07e81e2c2e5ba42de269750a0b4722d606198061de398b5aab24aea7e5910161043b565b6001600160a01b038083165f90815260056020908152604080832093851683526002909301905220545b92915050565b6001600160a01b0381165f908152600560205260408120805461271090610acb906064906114a5565b610ad591906114bc565b9392505050565b6001600160a01b0381165f90815260076020908152604091829020805483518184028101840190945280845260609392830182828015610b4357602002820191905f5260205f20905b81546001600160a01b03168152600190910190602001808311610b25575b50505050509050919050565b610b57610edd565b610b5f610f07565b6001600160a01b0381165f908152600560209081526040808320338452600381019092529091205480610bca5760405162461bcd60e51b81526020600482015260136024820152724e6f207265776172647320746f20636c61696d60681b60448201526064016103df565b335f818152600384016020526040812055610bf0906001600160a01b0385169083610f97565b60405181815233906001600160a01b038516907f0aa4d283470c904c551d18bb894d37e17674920f3261a7f854be501e25f421b79060200160405180910390a35050610c3b60018055565b50565b610c46610e5a565b6001600160a01b038116610c6f57604051631e4fbdf760e01b81525f60048201526024016103df565b610c3b81611058565b610c80610edd565b610c88610f07565b6001600160a01b0382165f9081526003602052604090205460ff16610cbf5760405162461bcd60e51b81526004016103df90611462565b6001600160a01b0382165f9081526005602052604090208115801590610cf55750335f9081526002820160205260409020548211155b610d395760405162461bcd60e51b8152602060048201526015602482015274125b9d985b1a59081cda185c995cc8185b5bdd5b9d605a1b60448201526064016103df565b600181015481545f9190610d4d90856114a5565b610d5791906114bc565b90505f612710610d696101f4846114a5565b610d7391906114bc565b90505f610d8082846114db565b905082845f015f828254610d9491906114db565b9250508190555084846001015f828254610dae91906114db565b9091555050335f90815260028501602052604081208054879290610dd39084906114db565b90915550610de3905086336110ec565b8115610e0357600254610e03906001600160a01b03888116911684610f97565b610e176001600160a01b0387163383610f97565b604080518481526020810187905233916001600160a01b038916917fdccfb7b4ed97b796b8798d555f7365ad8e2998c97883f5b46bfeaad8c518e08a9101610683565b5f546001600160a01b036101009091041633146104575760405163118cdaa760e01b81523360048201526024016103df565b610e94611281565b5f805460ff191690557f5db9ee0a495bf2e6ff9c91a7834c1ba4fdd244a5e8aa4e537bd38aeae4b073aa335b6040516001600160a01b03909116815260200160405180910390a1565b600260015403610f0057604051633ee5aeb560e01b815260040160405180910390fd5b6002600155565b5f5460ff16156104575760405163d93c066560e01b815260040160405180910390fd5b6040516001600160a01b038481166024830152838116604483015260648201839052610f919186918216906323b872dd906084015b604051602081830303815290604052915060e01b6020820180516001600160e01b0383818316178352505050506112a3565b50505050565b6040516001600160a01b03838116602483015260448201839052610fc891859182169063a9059cbb90606401610f5f565b505050565b6001600160a01b038083165f9081526006602090815260408083209385168352929052205460ff16610698576001600160a01b038083165f818152600660209081526040808320948616808452948252808320805460ff1916600190811790915593835260078252822080549384018155825290200180546001600160a01b03191690911790555050565b5f80546001600160a01b03838116610100818102610100600160a81b0319851617855560405193049190911692909183917f8be0079c531659141344cd1fd0a4f28419497f9722a3daafe3b4186f6b6457e091a35050565b6110b8610f07565b5f805460ff191660011790557f62e78cea01bee320cd4e420270b5ea74000d11b0c9f74754ebdbfc544b05a258610ec03390565b6001600160a01b038083165f90815260056020908152604080832093851683526002840190915290205415801561114757506001600160a01b038084165f9081526006602090815260408083209386168352929052205460ff165b15610fc8576001600160a01b038084165f8181526006602090815260408083209487168352938152838220805460ff191690559181526007909152908120905b815481101561127a57836001600160a01b03168282815481106111ac576111ac611501565b5f918252602090912001546001600160a01b03160361127257815482906111d5906001906114db565b815481106111e5576111e5611501565b905f5260205f20015f9054906101000a90046001600160a01b031682828154811061121257611212611501565b905f5260205f20015f6101000a8154816001600160a01b0302191690836001600160a01b031602179055508180548061124d5761124d611515565b5f8281526020902081015f1990810180546001600160a01b031916905501905561127a565b600101611187565b5050505050565b5f5460ff1661045757604051638dfc202b60e01b815260040160405180910390fd5b5f8060205f8451602086015f885af1806112c2576040513d5f823e3d81fd5b50505f513d915081156112d95780600114156112e6565b6001600160a01b0384163b155b15610f9157604051635274afe760e01b81526001600160a01b03851660048201526024016103df565b80356001600160a01b0381168114611325575f80fd5b919050565b5f6020828403121561133a575f80fd5b610ad58261130f565b80358015158114611325575f80fd5b5f8060408385031215611363575f80fd5b61136c8361130f565b915061137a60208401611343565b90509250929050565b5f8060408385031215611394575f80fd5b61139d8361130f565b946020939093013593505050565b5f805f80608085870312156113be575f80fd5b6113c78561130f565b935060208501359250604085013591506113e360608601611343565b905092959194509250565b5f80604083850312156113ff575f80fd5b6114088361130f565b915061137a6020840161130f565b602080825282518282018190525f9190848201906040850190845b818110156114565783516001600160a01b031683529284019291840191600101611431565b50909695505050505050565b602080825260159082015274151bdad95b881b9bdd081dda1a5d195b1a5cdd1959605a1b604082015260600190565b634e487b7160e01b5f52601160045260245ffd5b8082028115828204841417610a9c57610a9c611491565b5f826114d657634e487b7160e01b5f52601260045260245ffd5b500490565b81810381811115610a9c57610a9c611491565b80820180821115610a9c57610a9c611491565b634e487b7160e01b5f52603260045260245ffd5b634e487b7160e01b5f52603160045260245ffdfea2646970667358221220150f33d8ebf57a18b1c6901ea17376129b4bef22d5a1676da6bc39d395ed7afd64736f6c63430008180033","opcodes":"PUSH1 0x80 PUSH1 0x40 MSTORE CALLVALUE DUP1 ISZERO PUSH2 0xF JUMPI PUSH0 DUP1 REVERT JUMPDEST POP PUSH1 0x40 MLOAD PUSH3 0x16DA CODESIZE SUB DUP1 PUSH3 0x16DA DUP4 CODECOPY DUP2 ADD PUSH1 0x40 DUP2 SWAP1 MSTORE PUSH2 0x30 SWAP2 PUSH2 0x140 JUMP JUMPDEST PUSH0 DUP1 SLOAD PUSH1 0xFF NOT AND SWAP1 SSTORE CALLER DUP1 PUSH2 0x5F JUMPI PUSH1 0x40 MLOAD PUSH4 0x1E4FBDF7 PUSH1 0xE0 SHL DUP2 MSTORE PUSH0 PUSH1 0x4 DUP3 ADD MSTORE PUSH1 0x24 ADD JUMPDEST PUSH1 0x40 MLOAD DUP1 SWAP2 SUB SWAP1 REVERT JUMPDEST PUSH2 0x68 DUP2 PUSH2 0xE8 JUMP JUMPDEST POP PUSH1 0x1 DUP1 SSTORE PUSH1 0x1 PUSH1 0x1 PUSH1 0xA0 SHL SUB DUP2 AND PUSH2 0xC3 JUMPI PUSH1 0x40 MLOAD PUSH3 0x461BCD PUSH1 0xE5 SHL DUP2 MSTORE PUSH1 0x20 PUSH1 0x4 DUP3 ADD MSTORE PUSH1 0x17 PUSH1 0x24 DUP3 ADD MSTORE PUSH32 0x496E76616C696420706C6174666F726D2077616C6C6574000000000000000000 PUSH1 0x44 DUP3 ADD MSTORE PUSH1 0x64 ADD PUSH2 0x56 JUMP JUMPDEST PUSH1 0x2 DUP1 SLOAD PUSH1 0x1 PUSH1 0x1 PUSH1 0xA0 SHL SUB NOT AND PUSH1 0x1 PUSH1 0x1 PUSH1 0xA0 SHL SUB SWAP3 SWAP1 SWAP3 AND SWAP2 SWAP1 SWAP2 OR SWAP1 SSTORE PUSH2 0x16D JUMP JUMPDEST PUSH0 DUP1 SLOAD PUSH1 0x1 PUSH1 0x1 PUSH1 0xA0 SHL SUB DUP4 DUP2 AND PUSH2 0x100 DUP2 DUP2 MUL PUSH2 0x100 PUSH1 0x1 PUSH1 0xA8 SHL SUB NOT DUP6 AND OR DUP6 SSTORE PUSH1 0x40 MLOAD SWAP4 DIV SWAP2 SWAP1 SWAP2 AND SWAP3 SWAP1 SWAP2 DUP4 SWAP2 PUSH32 0x8BE0079C531659141344CD1FD0A4F28419497F9722A3DAAFE3B4186F6B6457E0 SWAP2 LOG3 POP POP JUMP JUMPDEST PUSH0 PUSH1 0x20 DUP3 DUP5 SUB SLT ISZERO PUSH2 0x150 JUMPI PUSH0 DUP1 REVERT JUMPDEST DUP2 MLOAD PUSH1 0x1 PUSH1 0x1 PUSH1 0xA0 SHL SUB DUP2 AND DUP2 EQ PUSH2 0x166 JUMPI PUSH0 DUP1 REVERT JUMPDEST SWAP4 SWAP3 POP POP POP JUMP JUMPDEST PUSH2 0x155F DUP1 PUSH3 0x17B PUSH0 CODECOPY PUSH0 RETURN INVALID PUSH1 0x80 PUSH1 0x40 MSTORE CALLVALUE DUP1 ISZERO PUSH2 0xF JUMPI PUSH0 DUP1 REVERT JUMPDEST POP PUSH1 0x4 CALLDATASIZE LT PUSH2 0x13D JUMPI PUSH0 CALLDATALOAD PUSH1 0xE0 SHR DUP1 PUSH4 0x8DA5CB5B GT PUSH2 0xB4 JUMPI DUP1 PUSH4 0xCD636B1F GT PUSH2 0x79 JUMPI DUP1 PUSH4 0xCD636B1F EQ PUSH2 0x2E3 JUMPI DUP1 PUSH4 0xDAF9C210 EQ PUSH2 0x31F JUMPI DUP1 PUSH4 0xEF5CFB8C EQ PUSH2 0x341 JUMPI DUP1 PUSH4 0xF2FDE38B EQ PUSH2 0x354 JUMPI DUP1 PUSH4 0xF3FEF3A3 EQ PUSH2 0x367 JUMPI DUP1 PUSH4 0xFA2AF9DA EQ PUSH2 0x37A JUMPI PUSH0 DUP1 REVERT JUMPDEST DUP1 PUSH4 0x8DA5CB5B EQ PUSH2 0x240 JUMPI DUP1 PUSH4 0x8EDD367C EQ PUSH2 0x269 JUMPI DUP1 PUSH4 0xA362D782 EQ PUSH2 0x28F JUMPI DUP1 PUSH4 0xBB1DE9DC EQ PUSH2 0x2B0 JUMPI DUP1 PUSH4 0xC9CC3D96 EQ PUSH2 0x2C3 JUMPI PUSH0 DUP1 REVERT JUMPDEST DUP1 PUSH4 0x522A54BD GT PUSH2 0x105 JUMPI DUP1 PUSH4 0x522A54BD EQ PUSH2 0x1ED JUMPI DUP1 PUSH4 0x5C975ABB EQ PUSH2 0x200 JUMPI DUP1 PUSH4 0x715018A6 EQ PUSH2 0x20A JUMPI DUP1 PUSH4 0x8456CB59 EQ PUSH2 0x212 JUMPI DUP1 PUSH4 0x8831E9CF EQ PUSH2 0x21A JUMPI DUP1 PUSH4 0x8AD05992 EQ PUSH2 0x22D JUMPI PUSH0 DUP1 REVERT JUMPDEST DUP1 PUSH4 0x6BFA938 EQ PUSH2 0x141 JUMPI DUP1 PUSH4 0xFFB1D8B EQ PUSH2 0x18B JUMPI DUP1 PUSH4 0x3F4BA83A EQ PUSH2 0x1A0 JUMPI DUP1 PUSH4 0x47E7EF24 EQ PUSH2 0x1A8 JUMPI DUP1 PUSH4 0x4C31957F EQ PUSH2 0x1BB JUMPI JUMPDEST PUSH0 DUP1 REVERT JUMPDEST PUSH2 0x171 PUSH2 0x14F CALLDATASIZE PUSH1 0x4 PUSH2 0x132A JUMP JUMPDEST PUSH1 0x1 PUSH1 0x1 PUSH1 0xA0 SHL SUB AND PUSH0 SWAP1 DUP2 MSTORE PUSH1 0x5 PUSH1 0x20 MSTORE PUSH1 0x40 SWAP1 KECCAK256 DUP1 SLOAD PUSH1 0x1 SWAP1 SWAP2 ADD SLOAD SWAP1 SWAP2 JUMP JUMPDEST PUSH1 0x40 DUP1 MLOAD SWAP3 DUP4 MSTORE PUSH1 0x20 DUP4 ADD SWAP2 SWAP1 SWAP2 MSTORE ADD JUMPDEST PUSH1 0x40 MLOAD DUP1 SWAP2 SUB SWAP1 RETURN JUMPDEST PUSH2 0x19E PUSH2 0x199 CALLDATASIZE PUSH1 0x4 PUSH2 0x1352 JUMP JUMPDEST PUSH2 0x38D JUMP JUMPDEST STOP JUMPDEST PUSH2 0x19E PUSH2 0x447 JUMP JUMPDEST PUSH2 0x19E PUSH2 0x1B6 CALLDATASIZE PUSH1 0x4 PUSH2 0x1383 JUMP JUMPDEST PUSH2 0x459 JUMP JUMPDEST PUSH2 0x1DD PUSH2 0x1C9 CALLDATASIZE PUSH1 0x4 PUSH2 0x132A JUMP JUMPDEST PUSH1 0x4 PUSH1 0x20 MSTORE PUSH0 SWAP1 DUP2 MSTORE PUSH1 0x40 SWAP1 KECCAK256 SLOAD PUSH1 0xFF AND DUP2 JUMP JUMPDEST PUSH1 0x40 MLOAD SWAP1 ISZERO ISZERO DUP2 MSTORE PUSH1 0x20 ADD PUSH2 0x182 JUMP JUMPDEST PUSH2 0x19E PUSH2 0x1FB CALLDATASIZE PUSH1 0x4 PUSH2 0x13AB JUMP JUMPDEST PUSH2 0x69C JUMP JUMPDEST PUSH0 SLOAD PUSH1 0xFF AND PUSH2 0x1DD JUMP JUMPDEST PUSH2 0x19E PUSH2 0x903 JUMP JUMPDEST PUSH2 0x19E PUSH2 0x914 JUMP JUMPDEST PUSH2 0x19E PUSH2 0x228 CALLDATASIZE PUSH1 0x4 PUSH2 0x132A JUMP JUMPDEST PUSH2 0x924 JUMP JUMPDEST PUSH2 0x19E PUSH2 0x23B CALLDATASIZE PUSH1 0x4 PUSH2 0x1352 JUMP JUMPDEST PUSH2 0x9C4 JUMP JUMPDEST PUSH0 SLOAD PUSH2 0x100 SWAP1 DIV PUSH1 0x1 PUSH1 0x1 PUSH1 0xA0 SHL SUB AND JUMPDEST PUSH1 0x40 MLOAD PUSH1 0x1 PUSH1 0x1 PUSH1 0xA0 SHL SUB SWAP1 SWAP2 AND DUP2 MSTORE PUSH1 0x20 ADD PUSH2 0x182 JUMP JUMPDEST PUSH2 0x171 PUSH2 0x277 CALLDATASIZE PUSH1 0x4 PUSH2 0x132A JUMP JUMPDEST PUSH1 0x5 PUSH1 0x20 MSTORE PUSH0 SWAP1 DUP2 MSTORE PUSH1 0x40 SWAP1 KECCAK256 DUP1 SLOAD PUSH1 0x1 SWAP1 SWAP2 ADD SLOAD DUP3 JUMP JUMPDEST PUSH2 0x2A2 PUSH2 0x29D CALLDATASIZE PUSH1 0x4 PUSH2 0x13EE JUMP JUMPDEST PUSH2 0xA72 JUMP JUMPDEST PUSH1 0x40 MLOAD SWAP1 DUP2 MSTORE PUSH1 0x20 ADD PUSH2 0x182 JUMP JUMPDEST PUSH2 0x2A2 PUSH2 0x2BE CALLDATASIZE PUSH1 0x4 PUSH2 0x132A JUMP JUMPDEST PUSH2 0xAA2 JUMP JUMPDEST PUSH2 0x2D6 PUSH2 0x2D1 CALLDATASIZE PUSH1 0x4 PUSH2 0x132A JUMP JUMPDEST PUSH2 0xADC JUMP JUMPDEST PUSH1 0x40 MLOAD PUSH2 0x182 SWAP2 SWAP1 PUSH2 0x1416 JUMP JUMPDEST PUSH2 0x2A2 PUSH2 0x2F1 CALLDATASIZE PUSH1 0x4 PUSH2 0x13EE JUMP JUMPDEST PUSH1 0x1 PUSH1 0x1 PUSH1 0xA0 SHL SUB SWAP2 DUP3 AND PUSH0 SWAP1 DUP2 MSTORE PUSH1 0x5 PUSH1 0x20 SWAP1 DUP2 MSTORE PUSH1 0x40 DUP1 DUP4 KECCAK256 SWAP4 SWAP1 SWAP5 AND DUP3 MSTORE PUSH1 0x3 SWAP1 SWAP3 ADD SWAP1 SWAP2 MSTORE KECCAK256 SLOAD SWAP1 JUMP JUMPDEST PUSH2 0x1DD PUSH2 0x32D CALLDATASIZE PUSH1 0x4 PUSH2 0x132A JUMP JUMPDEST PUSH1 0x3 PUSH1 0x20 MSTORE PUSH0 SWAP1 DUP2 MSTORE PUSH1 0x40 SWAP1 KECCAK256 SLOAD PUSH1 0xFF AND DUP2 JUMP JUMPDEST PUSH2 0x19E PUSH2 0x34F CALLDATASIZE PUSH1 0x4 PUSH2 0x132A JUMP JUMPDEST PUSH2 0xB4F JUMP JUMPDEST PUSH2 0x19E PUSH2 0x362 CALLDATASIZE PUSH1 0x4 PUSH2 0x132A JUMP JUMPDEST PUSH2 0xC3E JUMP JUMPDEST PUSH2 0x19E PUSH2 0x375 CALLDATASIZE PUSH1 0x4 PUSH2 0x1383 JUMP JUMPDEST PUSH2 0xC78 JUMP JUMPDEST PUSH1 0x2 SLOAD PUSH2 0x251 SWAP1 PUSH1 0x1 PUSH1 0x1 PUSH1 0xA0 SHL SUB AND DUP2 JUMP JUMPDEST PUSH2 0x395 PUSH2 0xE5A JUMP JUMPDEST PUSH1 0x1 PUSH1 0x1 PUSH1 0xA0 SHL SUB DUP3 AND PUSH2 0x3E8 JUMPI PUSH1 0x40 MLOAD PUSH3 0x461BCD PUSH1 0xE5 SHL DUP2 MSTORE PUSH1 0x20 PUSH1 0x4 DUP3 ADD MSTORE PUSH1 0x15 PUSH1 0x24 DUP3 ADD MSTORE PUSH21 0x496E76616C696420746F6B656E2061646472657373 PUSH1 0x58 SHL PUSH1 0x44 DUP3 ADD MSTORE PUSH1 0x64 ADD JUMPDEST PUSH1 0x40 MLOAD DUP1 SWAP2 SUB SWAP1 REVERT JUMPDEST PUSH1 0x1 PUSH1 0x1 PUSH1 0xA0 SHL SUB DUP3 AND PUSH0 DUP2 DUP2 MSTORE PUSH1 0x3 PUSH1 0x20 SWAP1 DUP2 MSTORE PUSH1 0x40 SWAP2 DUP3 SWAP1 KECCAK256 DUP1 SLOAD PUSH1 0xFF NOT AND DUP6 ISZERO ISZERO SWAP1 DUP2 OR SWAP1 SWAP2 SSTORE SWAP2 MLOAD SWAP2 DUP3 MSTORE PUSH32 0xEF81A9943B96C8DF4EF243401C9BF5159146166211356898B52D382086168D92 SWAP2 ADD JUMPDEST PUSH1 0x40 MLOAD DUP1 SWAP2 SUB SWAP1 LOG2 POP POP JUMP JUMPDEST PUSH2 0x44F PUSH2 0xE5A JUMP JUMPDEST PUSH2 0x457 PUSH2 0xE8C JUMP JUMPDEST JUMP JUMPDEST PUSH2 0x461 PUSH2 0xEDD JUMP JUMPDEST PUSH2 0x469 PUSH2 0xF07 JUMP JUMPDEST PUSH1 0x1 PUSH1 0x1 PUSH1 0xA0 SHL SUB DUP3 AND PUSH0 SWAP1 DUP2 MSTORE PUSH1 0x3 PUSH1 0x20 MSTORE PUSH1 0x40 SWAP1 KECCAK256 SLOAD PUSH1 0xFF AND PUSH2 0x4A0 JUMPI PUSH1 0x40 MLOAD PUSH3 0x461BCD PUSH1 0xE5 SHL DUP2 MSTORE PUSH1 0x4 ADD PUSH2 0x3DF SWAP1 PUSH2 0x1462 JUMP JUMPDEST PUSH0 DUP2 GT PUSH2 0x4EF JUMPI PUSH1 0x40 MLOAD PUSH3 0x461BCD PUSH1 0xE5 SHL DUP2 MSTORE PUSH1 0x20 PUSH1 0x4 DUP3 ADD MSTORE PUSH1 0x1D PUSH1 0x24 DUP3 ADD MSTORE PUSH32 0x416D6F756E74206D7573742062652067726561746572207468616E2030000000 PUSH1 0x44 DUP3 ADD MSTORE PUSH1 0x64 ADD PUSH2 0x3DF JUMP JUMPDEST PUSH1 0x1 PUSH1 0x1 PUSH1 0xA0 SHL SUB DUP3 AND PUSH0 SWAP1 DUP2 MSTORE PUSH1 0x5 PUSH1 0x20 MSTORE PUSH1 0x40 DUP2 KECCAK256 SWAP1 PUSH2 0x2710 PUSH2 0x516 PUSH2 0x1F4 DUP6 PUSH2 0x14A5 JUMP JUMPDEST PUSH2 0x520 SWAP2 SWAP1 PUSH2 0x14BC JUMP JUMPDEST SWAP1 POP PUSH0 PUSH2 0x52D DUP3 DUP6 PUSH2 0x14DB JUMP JUMPDEST SWAP1 POP PUSH0 DUP4 PUSH1 0x1 ADD SLOAD PUSH0 EQ PUSH2 0x55B JUMPI DUP4 SLOAD PUSH1 0x1 DUP6 ADD SLOAD PUSH2 0x54C SWAP1 DUP5 PUSH2 0x14A5 JUMP JUMPDEST PUSH2 0x556 SWAP2 SWAP1 PUSH2 0x14BC JUMP JUMPDEST PUSH2 0x55D JUMP JUMPDEST DUP2 JUMPDEST SWAP1 POP PUSH0 DUP2 GT PUSH2 0x5AE JUMPI PUSH1 0x40 MLOAD PUSH3 0x461BCD PUSH1 0xE5 SHL DUP2 MSTORE PUSH1 0x20 PUSH1 0x4 DUP3 ADD MSTORE PUSH1 0x18 PUSH1 0x24 DUP3 ADD MSTORE PUSH32 0x4465706F73697420616D6F756E7420746F6F20736D616C6C0000000000000000 PUSH1 0x44 DUP3 ADD MSTORE PUSH1 0x64 ADD PUSH2 0x3DF JUMP JUMPDEST PUSH2 0x5C3 PUSH1 0x1 PUSH1 0x1 PUSH1 0xA0 SHL SUB DUP8 AND CALLER ADDRESS DUP9 PUSH2 0xF2A JUMP JUMPDEST DUP3 ISZERO PUSH2 0x5E3 JUMPI PUSH1 0x2 SLOAD PUSH2 0x5E3 SWAP1 PUSH1 0x1 PUSH1 0x1 PUSH1 0xA0 SHL SUB DUP9 DUP2 AND SWAP2 AND DUP6 PUSH2 0xF97 JUMP JUMPDEST DUP2 DUP5 PUSH0 ADD PUSH0 DUP3 DUP3 SLOAD PUSH2 0x5F5 SWAP2 SWAP1 PUSH2 0x14EE JUMP JUMPDEST SWAP3 POP POP DUP2 SWAP1 SSTORE POP DUP1 DUP5 PUSH1 0x1 ADD PUSH0 DUP3 DUP3 SLOAD PUSH2 0x60F SWAP2 SWAP1 PUSH2 0x14EE JUMP JUMPDEST SWAP1 SWAP2 SSTORE POP POP CALLER PUSH0 SWAP1 DUP2 MSTORE PUSH1 0x2 DUP6 ADD PUSH1 0x20 MSTORE PUSH1 0x40 DUP2 KECCAK256 DUP1 SLOAD DUP4 SWAP3 SWAP1 PUSH2 0x634 SWAP1 DUP5 SWAP1 PUSH2 0x14EE JUMP JUMPDEST SWAP1 SWAP2 SSTORE POP PUSH2 0x644 SWAP1 POP DUP7 CALLER PUSH2 0xFCD JUMP JUMPDEST PUSH1 0x40 DUP1 MLOAD DUP7 DUP2 MSTORE PUSH1 0x20 DUP2 ADD DUP4 SWAP1 MSTORE CALLER SWAP2 PUSH1 0x1 PUSH1 0x1 PUSH1 0xA0 SHL SUB DUP10 AND SWAP2 PUSH32 0x92ECDE4D5BE1846D86A7B7F1126046797D9F71C3F3C42F715D4AB102976E6555 SWAP2 ADD JUMPDEST PUSH1 0x40 MLOAD DUP1 SWAP2 SUB SWAP1 LOG3 POP POP POP POP PUSH2 0x698 PUSH1 0x1 DUP1 SSTORE JUMP JUMPDEST POP POP JUMP JUMPDEST PUSH2 0x6A4 PUSH2 0xF07 JUMP JUMPDEST CALLER PUSH0 SWAP1 DUP2 MSTORE PUSH1 0x4 PUSH1 0x20 MSTORE PUSH1 0x40 SWAP1 KECCAK256 SLOAD PUSH1 0xFF AND PUSH2 0x6F3 JUMPI PUSH1 0x40 MLOAD PUSH3 0x461BCD PUSH1 0xE5 SHL DUP2 MSTORE PUSH1 0x20 PUSH1 0x4 DUP3 ADD MSTORE PUSH1 0xE PUSH1 0x24 DUP3 ADD MSTORE PUSH14 0x139BDD08185D5D1A1BDC9A5E9959 PUSH1 0x92 SHL PUSH1 0x44 DUP3 ADD MSTORE PUSH1 0x64 ADD PUSH2 0x3DF JUMP JUMPDEST PUSH1 0x1 PUSH1 0x1 PUSH1 0xA0 SHL SUB DUP5 AND PUSH0 SWAP1 DUP2 MSTORE PUSH1 0x3 PUSH1 0x20 MSTORE PUSH1 0x40 SWAP1 KECCAK256 SLOAD PUSH1 0xFF AND PUSH2 0x72A JUMPI PUSH1 0x40 MLOAD PUSH3 0x461BCD PUSH1 0xE5 SHL DUP2 MSTORE PUSH1 0x4 ADD PUSH2 0x3DF SWAP1 PUSH2 0x1462 JUMP JUMPDEST PUSH1 0x1 PUSH1 0x1 PUSH1 0xA0 SHL SUB DUP5 AND PUSH0 SWAP1 DUP2 MSTORE PUSH1 0x5 PUSH1 0x20 MSTORE PUSH1 0x40 SWAP1 KECCAK256 DUP1 SLOAD PUSH2 0x77F JUMPI PUSH1 0x40 MLOAD PUSH3 0x461BCD PUSH1 0xE5 SHL DUP2 MSTORE PUSH1 0x20 PUSH1 0x4 DUP3 ADD MSTORE PUSH1 0xD PUSH1 0x24 DUP3 ADD MSTORE PUSH13 0x506F6F6C20697320656D707479 PUSH1 0x98 SHL PUSH1 0x44 DUP3 ADD MSTORE PUSH1 0x64 ADD PUSH2 0x3DF JUMP JUMPDEST PUSH0 PUSH2 0x2710 PUSH1 0x64 DUP4 PUSH0 ADD SLOAD PUSH2 0x793 SWAP2 SWAP1 PUSH2 0x14A5 JUMP JUMPDEST PUSH2 0x79D SWAP2 SWAP1 PUSH2 0x14BC JUMP JUMPDEST SWAP1 POP DUP1 DUP6 GT ISZERO PUSH2 0x7E5 JUMPI PUSH1 0x40 MLOAD PUSH3 0x461BCD PUSH1 0xE5 SHL DUP2 MSTORE PUSH1 0x20 PUSH1 0x4 DUP3 ADD MSTORE PUSH1 0x13 PUSH1 0x24 DUP3 ADD MSTORE PUSH19 0x4265742065786365656473206D6178696D756D PUSH1 0x68 SHL PUSH1 0x44 DUP3 ADD MSTORE PUSH1 0x64 ADD PUSH2 0x3DF JUMP JUMPDEST PUSH0 PUSH2 0x2710 PUSH2 0x7F5 PUSH2 0x1F4 DUP9 PUSH2 0x14A5 JUMP JUMPDEST PUSH2 0x7FF SWAP2 SWAP1 PUSH2 0x14BC JUMP JUMPDEST SWAP1 POP DUP4 ISZERO PUSH2 0x887 JUMPI DUP3 SLOAD PUSH2 0x813 DUP7 DUP9 PUSH2 0x14EE JUMP JUMPDEST GT ISZERO PUSH2 0x861 JUMPI PUSH1 0x40 MLOAD PUSH3 0x461BCD PUSH1 0xE5 SHL DUP2 MSTORE PUSH1 0x20 PUSH1 0x4 DUP3 ADD MSTORE PUSH1 0x17 PUSH1 0x24 DUP3 ADD MSTORE PUSH32 0x496E73756666696369656E7420706F6F6C2066756E6473000000000000000000 PUSH1 0x44 DUP3 ADD MSTORE PUSH1 0x64 ADD PUSH2 0x3DF JUMP JUMPDEST PUSH2 0x86B DUP6 DUP8 PUSH2 0x14EE JUMP JUMPDEST DUP4 PUSH0 ADD PUSH0 DUP3 DUP3 SLOAD PUSH2 0x87C SWAP2 SWAP1 PUSH2 0x14DB JUMP JUMPDEST SWAP1 SWAP2 SSTORE POP PUSH2 0x8AD SWAP1 POP JUMP JUMPDEST PUSH0 PUSH2 0x892 DUP3 DUP9 PUSH2 0x14DB JUMP JUMPDEST SWAP1 POP DUP1 DUP5 PUSH0 ADD PUSH0 DUP3 DUP3 SLOAD PUSH2 0x8A6 SWAP2 SWAP1 PUSH2 0x14EE JUMP JUMPDEST SWAP1 SWAP2 SSTORE POP POP POP JUMPDEST PUSH1 0x40 DUP1 MLOAD DUP8 DUP2 MSTORE PUSH1 0x20 DUP2 ADD DUP8 SWAP1 MSTORE DUP6 ISZERO ISZERO DUP2 DUP4 ADD MSTORE SWAP1 MLOAD PUSH1 0x1 PUSH1 0x1 PUSH1 0xA0 SHL SUB DUP10 AND SWAP2 PUSH32 0x8E82347896581433CCA91C098C421523AF006D1424C4BDF715615D8811007AD8 SWAP2 SWAP1 DUP2 SWAP1 SUB PUSH1 0x60 ADD SWAP1 LOG2 POP POP POP POP POP POP POP JUMP JUMPDEST PUSH2 0x90B PUSH2 0xE5A JUMP JUMPDEST PUSH2 0x457 PUSH0 PUSH2 0x1058 JUMP JUMPDEST PUSH2 0x91C PUSH2 0xE5A JUMP JUMPDEST PUSH2 0x457 PUSH2 0x10B0 JUMP JUMPDEST PUSH2 0x92C PUSH2 0xE5A JUMP JUMPDEST PUSH1 0x1 PUSH1 0x1 PUSH1 0xA0 SHL SUB DUP2 AND PUSH2 0x97B JUMPI PUSH1 0x40 MLOAD PUSH3 0x461BCD PUSH1 0xE5 SHL DUP2 MSTORE PUSH1 0x20 PUSH1 0x4 DUP3 ADD MSTORE PUSH1 0x16 PUSH1 0x24 DUP3 ADD MSTORE PUSH22 0x496E76616C69642077616C6C65742061646472657373 PUSH1 0x50 SHL PUSH1 0x44 DUP3 ADD MSTORE PUSH1 0x64 ADD PUSH2 0x3DF JUMP JUMPDEST PUSH1 0x2 DUP1 SLOAD PUSH1 0x1 PUSH1 0x1 PUSH1 0xA0 SHL SUB NOT AND PUSH1 0x1 PUSH1 0x1 PUSH1 0xA0 SHL SUB DUP4 AND SWAP1 DUP2 OR SWAP1 SWAP2 SSTORE PUSH1 0x40 MLOAD PUSH32 0x73238E3AE0A71B401B31AE67204506D074DE41BD5C084082FBA9B64B1C7FA28F SWAP1 PUSH0 SWAP1 LOG2 POP JUMP JUMPDEST PUSH2 0x9CC PUSH2 0xE5A JUMP JUMPDEST PUSH1 0x1 PUSH1 0x1 PUSH1 0xA0 SHL SUB DUP3 AND PUSH2 0xA1B JUMPI PUSH1 0x40 MLOAD PUSH3 0x461BCD PUSH1 0xE5 SHL DUP2 MSTORE PUSH1 0x20 PUSH1 0x4 DUP3 ADD MSTORE PUSH1 0x16 PUSH1 0x24 DUP3 ADD MSTORE PUSH22 0x496E76616C696420736F757263652061646472657373 PUSH1 0x50 SHL PUSH1 0x44 DUP3 ADD MSTORE PUSH1 0x64 ADD PUSH2 0x3DF JUMP JUMPDEST PUSH1 0x1 PUSH1 0x1 PUSH1 0xA0 SHL SUB DUP3 AND PUSH0 DUP2 DUP2 MSTORE PUSH1 0x4 PUSH1 0x20 SWAP1 DUP2 MSTORE PUSH1 0x40 SWAP2 DUP3 SWAP1 KECCAK256 DUP1 SLOAD PUSH1 0xFF NOT AND DUP6 ISZERO ISZERO SWAP1 DUP2 OR SWAP1 SWAP2 SSTORE SWAP2 MLOAD SWAP2 DUP3 MSTORE PUSH32 0x5C9FEC07E81E2C2E5BA42DE269750A0B4722D606198061DE398B5AAB24AEA7E5 SWAP2 ADD PUSH2 0x43B JUMP JUMPDEST PUSH1 0x1 PUSH1 0x1 PUSH1 0xA0 SHL SUB DUP1 DUP4 AND PUSH0 SWAP1 DUP2 MSTORE PUSH1 0x5 PUSH1 0x20 SWAP1 DUP2 MSTORE PUSH1 0x40 DUP1 DUP4 KECCAK256 SWAP4 DUP6 AND DUP4 MSTORE PUSH1 0x2 SWAP1 SWAP4 ADD SWAP1 MSTORE KECCAK256 SLOAD JUMPDEST SWAP3 SWAP2 POP POP JUMP JUMPDEST PUSH1 0x1 PUSH1 0x1 PUSH1 0xA0 SHL SUB DUP2 AND PUSH0 SWAP1 DUP2 MSTORE PUSH1 0x5 PUSH1 0x20 MSTORE PUSH1 0x40 DUP2 KECCAK256 DUP1 SLOAD PUSH2 0x2710 SWAP1 PUSH2 0xACB SWAP1 PUSH1 0x64 SWAP1 PUSH2 0x14A5 JUMP JUMPDEST PUSH2 0xAD5 SWAP2 SWAP1 PUSH2 0x14BC JUMP JUMPDEST SWAP4 SWAP3 POP POP POP JUMP JUMPDEST PUSH1 0x1 PUSH1 0x1 PUSH1 0xA0 SHL SUB DUP2 AND PUSH0 SWAP1 DUP2 MSTORE PUSH1 0x7 PUSH1 0x20 SWAP1 DUP2 MSTORE PUSH1 0x40 SWAP2 DUP3 SWAP1 KECCAK256 DUP1 SLOAD DUP4 MLOAD DUP2 DUP5 MUL DUP2 ADD DUP5 ADD SWAP1 SWAP5 MSTORE DUP1 DUP5 MSTORE PUSH1 0x60 SWAP4 SWAP3 DUP4 ADD DUP3 DUP3 DUP1 ISZERO PUSH2 0xB43 JUMPI PUSH1 0x20 MUL DUP3 ADD SWAP2 SWAP1 PUSH0 MSTORE PUSH1 0x20 PUSH0 KECCAK256 SWAP1 JUMPDEST DUP2 SLOAD PUSH1 0x1 PUSH1 0x1 PUSH1 0xA0 SHL SUB AND DUP2 MSTORE PUSH1 0x1 SWAP1 SWAP2 ADD SWAP1 PUSH1 0x20 ADD DUP1 DUP4 GT PUSH2 0xB25 JUMPI JUMPDEST POP POP POP POP POP SWAP1 POP SWAP2 SWAP1 POP JUMP JUMPDEST PUSH2 0xB57 PUSH2 0xEDD JUMP JUMPDEST PUSH2 0xB5F PUSH2 0xF07 JUMP JUMPDEST PUSH1 0x1 PUSH1 0x1 PUSH1 0xA0 SHL SUB DUP2 AND PUSH0 SWAP1 DUP2 MSTORE PUSH1 0x5 PUSH1 0x20 SWAP1 DUP2 MSTORE PUSH1 0x40 DUP1 DUP4 KECCAK256 CALLER DUP5 MSTORE PUSH1 0x3 DUP2 ADD SWAP1 SWAP3 MSTORE SWAP1 SWAP2 KECCAK256 SLOAD DUP1 PUSH2 0xBCA JUMPI PUSH1 0x40 MLOAD PUSH3 0x461BCD PUSH1 0xE5 SHL DUP2 MSTORE PUSH1 0x20 PUSH1 0x4 DUP3 ADD MSTORE PUSH1 0x13 PUSH1 0x24 DUP3 ADD MSTORE PUSH19 0x4E6F207265776172647320746F20636C61696D PUSH1 0x68 SHL PUSH1 0x44 DUP3 ADD MSTORE PUSH1 0x64 ADD PUSH2 0x3DF JUMP JUMPDEST CALLER PUSH0 DUP2 DUP2 MSTORE PUSH1 0x3 DUP5 ADD PUSH1 0x20 MSTORE PUSH1 0x40 DUP2 KECCAK256 SSTORE PUSH2 0xBF0 SWAP1 PUSH1 0x1 PUSH1 0x1 PUSH1 0xA0 SHL SUB DUP6 AND SWAP1 DUP4 PUSH2 0xF97 JUMP JUMPDEST PUSH1 0x40 MLOAD DUP2 DUP2 MSTORE CALLER SWAP1 PUSH1 0x1 PUSH1 0x1 PUSH1 0xA0 SHL SUB DUP6 AND SWAP1 PUSH32 0xAA4D283470C904C551D18BB894D37E17674920F3261A7F854BE501E25F421B7 SWAP1 PUSH1 0x20 ADD PUSH1 0x40 MLOAD DUP1 SWAP2 SUB SWAP1 LOG3 POP POP PUSH2 0xC3B PUSH1 0x1 DUP1 SSTORE JUMP JUMPDEST POP JUMP JUMPDEST PUSH2 0xC46 PUSH2 0xE5A JUMP JUMPDEST PUSH1 0x1 PUSH1 0x1 PUSH1 0xA0 SHL SUB DUP2 AND PUSH2 0xC6F JUMPI PUSH1 0x40 MLOAD PUSH4 0x1E4FBDF7 PUSH1 0xE0 SHL DUP2 MSTORE PUSH0 PUSH1 0x4 DUP3 ADD MSTORE PUSH1 0x24 ADD PUSH2 0x3DF JUMP JUMPDEST PUSH2 0xC3B DUP2 PUSH2 0x1058 JUMP JUMPDEST PUSH2 0xC80 PUSH2 0xEDD JUMP JUMPDEST PUSH2 0xC88 PUSH2 0xF07 JUMP JUMPDEST PUSH1 0x1 PUSH1 0x1 PUSH1 0xA0 SHL SUB DUP3 AND PUSH0 SWAP1 DUP2 MSTORE PUSH1 0x3 PUSH1 0x20 MSTORE PUSH1 0x40 SWAP1 KECCAK256 SLOAD PUSH1 0xFF AND PUSH2 0xCBF JUMPI PUSH1 0x40 MLOAD PUSH3 0x461BCD PUSH1 0xE5 SHL DUP2 MSTORE PUSH1 0x4 ADD PUSH2 0x3DF SWAP1 PUSH2 0x1462 JUMP JUMPDEST PUSH1 0x1 PUSH1 0x1 PUSH1 0xA0 SHL SUB DUP3 AND PUSH0 SWAP1 DUP2 MSTORE PUSH1 0x5 PUSH1 0x20 MSTORE PUSH1 0x40 SWAP1 KECCAK256 DUP2 ISZERO DUP1 ISZERO SWAP1 PUSH2 0xCF5 JUMPI POP CALLER PUSH0 SWAP1 DUP2 MSTORE PUSH1 0x2 DUP3 ADD PUSH1 0x20 MSTORE PUSH1 0x40 SWAP1 KECCAK256 SLOAD DUP3 GT ISZERO JUMPDEST PUSH2 0xD39 JUMPI PUSH1 0x40 MLOAD PUSH3 0x461BCD PUSH1 0xE5 SHL DUP2 MSTORE PUSH1 0x20 PUSH1 0x4 DUP3 ADD MSTORE PUSH1 0x15 PUSH1 0x24 DUP3 ADD MSTORE PUSH21 0x125B9D985B1A59081CDA185C995CC8185B5BDD5B9D PUSH1 0x5A SHL PUSH1 0x44 DUP3 ADD MSTORE PUSH1 0x64 ADD PUSH2 0x3DF JUMP JUMPDEST PUSH1 0x1 DUP2 ADD SLOAD DUP2 SLOAD PUSH0 SWAP2 SWAP1 PUSH2 0xD4D SWAP1 DUP6 PUSH2 0x14A5 JUMP JUMPDEST PUSH2 0xD57 SWAP2 SWAP1 PUSH2 0x14BC JUMP JUMPDEST SWAP1 POP PUSH0 PUSH2 0x2710 PUSH2 0xD69 PUSH2 0x1F4 DUP5 PUSH2 0x14A5 JUMP JUMPDEST PUSH2 0xD73 SWAP2 SWAP1 PUSH2 0x14BC JUMP JUMPDEST SWAP1 POP PUSH0 PUSH2 0xD80 DUP3 DUP5 PUSH2 0x14DB JUMP JUMPDEST SWAP1 POP DUP3 DUP5 PUSH0 ADD PUSH0 DUP3 DUP3 SLOAD PUSH2 0xD94 SWAP2 SWAP1 PUSH2 0x14DB JUMP JUMPDEST SWAP3 POP POP DUP2 SWAP1 SSTORE POP DUP5 DUP5 PUSH1 0x1 ADD PUSH0 DUP3 DUP3 SLOAD PUSH2 0xDAE SWAP2 SWAP1 PUSH2 0x14DB JUMP JUMPDEST SWAP1 SWAP2 SSTORE POP POP CALLER PUSH0 SWAP1 DUP2 MSTORE PUSH1 0x2 DUP6 ADD PUSH1 0x20 MSTORE PUSH1 0x40 DUP2 KECCAK256 DUP1 SLOAD DUP8 SWAP3 SWAP1 PUSH2 0xDD3 SWAP1 DUP5 SWAP1 PUSH2 0x14DB JUMP JUMPDEST SWAP1 SWAP2 SSTORE POP PUSH2 0xDE3 SWAP1 POP DUP7 CALLER PUSH2 0x10EC JUMP JUMPDEST DUP2 ISZERO PUSH2 0xE03 JUMPI PUSH1 0x2 SLOAD PUSH2 0xE03 SWAP1 PUSH1 0x1 PUSH1 0x1 PUSH1 0xA0 SHL SUB DUP9 DUP2 AND SWAP2 AND DUP5 PUSH2 0xF97 JUMP JUMPDEST PUSH2 0xE17 PUSH1 0x1 PUSH1 0x1 PUSH1 0xA0 SHL SUB DUP8 AND CALLER DUP4 PUSH2 0xF97 JUMP JUMPDEST PUSH1 0x40 DUP1 MLOAD DUP5 DUP2 MSTORE PUSH1 0x20 DUP2 ADD DUP8 SWAP1 MSTORE CALLER SWAP2 PUSH1 0x1 PUSH1 0x1 PUSH1 0xA0 SHL SUB DUP10 AND SWAP2 PUSH32 0xDCCFB7B4ED97B796B8798D555F7365AD8E2998C97883F5B46BFEAAD8C518E08A SWAP2 ADD PUSH2 0x683 JUMP JUMPDEST PUSH0 SLOAD PUSH1 0x1 PUSH1 0x1 PUSH1 0xA0 SHL SUB PUSH2 0x100 SWAP1 SWAP2 DIV AND CALLER EQ PUSH2 0x457 JUMPI PUSH1 0x40 MLOAD PUSH4 0x118CDAA7 PUSH1 0xE0 SHL DUP2 MSTORE CALLER PUSH1 0x4 DUP3 ADD MSTORE PUSH1 0x24 ADD PUSH2 0x3DF JUMP JUMPDEST PUSH2 0xE94 PUSH2 0x1281 JUMP JUMPDEST PUSH0 DUP1 SLOAD PUSH1 0xFF NOT AND SWAP1 SSTORE PUSH32 0x5DB9EE0A495BF2E6FF9C91A7834C1BA4FDD244A5E8AA4E537BD38AEAE4B073AA CALLER JUMPDEST PUSH1 0x40 MLOAD PUSH1 0x1 PUSH1 0x1 PUSH1 0xA0 SHL SUB SWAP1 SWAP2 AND DUP2 MSTORE PUSH1 0x20 ADD PUSH1 0x40 MLOAD DUP1 SWAP2 SUB SWAP1 LOG1 JUMP JUMPDEST PUSH1 0x2 PUSH1 0x1 SLOAD SUB PUSH2 0xF00 JUMPI PUSH1 0x40 MLOAD PUSH4 0x3EE5AEB5 PUSH1 0xE0 SHL DUP2 MSTORE PUSH1 0x4 ADD PUSH1 0x40 MLOAD DUP1 SWAP2 SUB SWAP1 REVERT JUMPDEST PUSH1 0x2 PUSH1 0x1 SSTORE JUMP JUMPDEST PUSH0 SLOAD PUSH1 0xFF AND ISZERO PUSH2 0x457 JUMPI PUSH1 0x40 MLOAD PUSH4 0xD93C0665 PUSH1 0xE0 SHL DUP2 MSTORE PUSH1 0x4 ADD PUSH1 0x40 MLOAD DUP1 SWAP2 SUB SWAP1 REVERT JUMPDEST PUSH1 0x40 MLOAD PUSH1 0x1 PUSH1 0x1 PUSH1 0xA0 SHL SUB DUP5 DUP2 AND PUSH1 0x24 DUP4 ADD MSTORE DUP4 DUP2 AND PUSH1 0x44 DUP4 ADD MSTORE PUSH1 0x64 DUP3 ADD DUP4 SWAP1 MSTORE PUSH2 0xF91 SWAP2 DUP7 SWAP2 DUP3 AND SWAP1 PUSH4 0x23B872DD SWAP1 PUSH1 0x84 ADD JUMPDEST PUSH1 0x40 MLOAD PUSH1 0x20 DUP2 DUP4 SUB SUB DUP2 MSTORE SWAP1 PUSH1 0x40 MSTORE SWAP2 POP PUSH1 0xE0 SHL PUSH1 0x20 DUP3 ADD DUP1 MLOAD PUSH1 0x1 PUSH1 0x1 PUSH1 0xE0 SHL SUB DUP4 DUP2 DUP4 AND OR DUP4 MSTORE POP POP POP POP PUSH2 0x12A3 JUMP JUMPDEST POP POP POP POP JUMP JUMPDEST PUSH1 0x40 MLOAD PUSH1 0x1 PUSH1 0x1 PUSH1 0xA0 SHL SUB DUP4 DUP2 AND PUSH1 0x24 DUP4 ADD MSTORE PUSH1 0x44 DUP3 ADD DUP4 SWAP1 MSTORE PUSH2 0xFC8 SWAP2 DUP6 SWAP2 DUP3 AND SWAP1 PUSH4 0xA9059CBB SWAP1 PUSH1 0x64 ADD PUSH2 0xF5F JUMP JUMPDEST POP POP POP JUMP JUMPDEST PUSH1 0x1 PUSH1 0x1 PUSH1 0xA0 SHL SUB DUP1 DUP4 AND PUSH0 SWAP1 DUP2 MSTORE PUSH1 0x6 PUSH1 0x20 SWAP1 DUP2 MSTORE PUSH1 0x40 DUP1 DUP4 KECCAK256 SWAP4 DUP6 AND DUP4 MSTORE SWAP3 SWAP1 MSTORE KECCAK256 SLOAD PUSH1 0xFF AND PUSH2 0x698 JUMPI PUSH1 0x1 PUSH1 0x1 PUSH1 0xA0 SHL SUB DUP1 DUP4 AND PUSH0 DUP2 DUP2 MSTORE PUSH1 0x6 PUSH1 0x20 SWAP1 DUP2 MSTORE PUSH1 0x40 DUP1 DUP4 KECCAK256 SWAP5 DUP7 AND DUP1 DUP5 MSTORE SWAP5 DUP3 MSTORE DUP1 DUP4 KECCAK256 DUP1 SLOAD PUSH1 0xFF NOT AND PUSH1 0x1 SWAP1 DUP2 OR SWAP1 SWAP2 SSTORE SWAP4 DUP4 MSTORE PUSH1 0x7 DUP3 MSTORE DUP3 KECCAK256 DUP1 SLOAD SWAP4 DUP5 ADD DUP2 SSTORE DUP3 MSTORE SWAP1 KECCAK256 ADD DUP1 SLOAD PUSH1 0x1 PUSH1 0x1 PUSH1 0xA0 SHL SUB NOT AND SWAP1 SWAP2 OR SWAP1 SSTORE POP POP JUMP JUMPDEST PUSH0 DUP1 SLOAD PUSH1 0x1 PUSH1 0x1 PUSH1 0xA0 SHL SUB DUP4 DUP2 AND PUSH2 0x100 DUP2 DUP2 MUL PUSH2 0x100 PUSH1 0x1 PUSH1 0xA8 SHL SUB NOT DUP6 AND OR DUP6 SSTORE PUSH1 0x40 MLOAD SWAP4 DIV SWAP2 SWAP1 SWAP2 AND SWAP3 SWAP1 SWAP2 DUP4 SWAP2 PUSH32 0x8BE0079C531659141344CD1FD0A4F28419497F9722A3DAAFE3B4186F6B6457E0 SWAP2 LOG3 POP POP JUMP JUMPDEST PUSH2 0x10B8 PUSH2 0xF07 JUMP JUMPDEST PUSH0 DUP1 SLOAD PUSH1 0xFF NOT AND PUSH1 0x1 OR SWAP1 SSTORE PUSH32 0x62E78CEA01BEE320CD4E420270B5EA74000D11B0C9F74754EBDBFC544B05A258 PUSH2 0xEC0 CALLER SWAP1 JUMP JUMPDEST PUSH1 0x1 PUSH1 0x1 PUSH1 0xA0 SHL SUB DUP1 DUP4 AND PUSH0 SWAP1 DUP2 MSTORE PUSH1 0x5 PUSH1 0x20 SWAP1 DUP2 MSTORE PUSH1 0x40 DUP1 DUP4 KECCAK256 SWAP4 DUP6 AND DUP4 MSTORE PUSH1 0x2 DUP5 ADD SWAP1 SWAP2 MSTORE SWAP1 KECCAK256 SLOAD ISZERO DUP1 ISZERO PUSH2 0x1147 JUMPI POP PUSH1 0x1 PUSH1 0x1 PUSH1 0xA0 SHL SUB DUP1 DUP5 AND PUSH0 SWAP1 DUP2 MSTORE PUSH1 0x6 PUSH1 0x20 SWAP1 DUP2 MSTORE PUSH1 0x40 DUP1 DUP4 KECCAK256 SWAP4 DUP7 AND DUP4 MSTORE SWAP3 SWAP1 MSTORE KECCAK256 SLOAD PUSH1 0xFF AND JUMPDEST ISZERO PUSH2 0xFC8 JUMPI PUSH1 0x1 PUSH1 0x1 PUSH1 0xA0 SHL SUB DUP1 DUP5 AND PUSH0 DUP2 DUP2 MSTORE PUSH1 0x6 PUSH1 0x20 SWAP1 DUP2 MSTORE PUSH1 0x40 DUP1 DUP4 KECCAK256 SWAP5 DUP8 AND DUP4 MSTORE SWAP4 DUP2 MSTORE DUP4 DUP3 KECCAK256 DUP1 SLOAD PUSH1 0xFF NOT AND SWAP1 SSTORE SWAP2 DUP2 MSTORE PUSH1 0x7 SWAP1 SWAP2 MSTORE SWAP1 DUP2 KECCAK256 SWAP1 JUMPDEST DUP2 SLOAD DUP2 LT ISZERO PUSH2 0x127A JUMPI DUP4 PUSH1 0x1 PUSH1 0x1 PUSH1 0xA0 SHL SUB AND DUP3 DUP3 DUP2 SLOAD DUP2 LT PUSH2 0x11AC JUMPI PUSH2 0x11AC PUSH2 0x1501 JUMP JUMPDEST PUSH0 SWAP2 DUP3 MSTORE PUSH1 0x20 SWAP1 SWAP2 KECCAK256 ADD SLOAD PUSH1 0x1 PUSH1 0x1 PUSH1 0xA0 SHL SUB AND SUB PUSH2 0x1272 JUMPI DUP2 SLOAD DUP3 SWAP1 PUSH2 0x11D5 SWAP1 PUSH1 0x1 SWAP1 PUSH2 0x14DB JUMP JUMPDEST DUP2 SLOAD DUP2 LT PUSH2 0x11E5 JUMPI PUSH2 0x11E5 PUSH2 0x1501 JUMP JUMPDEST SWAP1 PUSH0 MSTORE PUSH1 0x20 PUSH0 KECCAK256 ADD PUSH0 SWAP1 SLOAD SWAP1 PUSH2 0x100 EXP SWAP1 DIV PUSH1 0x1 PUSH1 0x1 PUSH1 0xA0 SHL SUB AND DUP3 DUP3 DUP2 SLOAD DUP2 LT PUSH2 0x1212 JUMPI PUSH2 0x1212 PUSH2 0x1501 JUMP JUMPDEST SWAP1 PUSH0 MSTORE PUSH1 0x20 PUSH0 KECCAK256 ADD PUSH0 PUSH2 0x100 EXP DUP2 SLOAD DUP2 PUSH1 0x1 PUSH1 0x1 PUSH1 0xA0 SHL SUB MUL NOT AND SWAP1 DUP4 PUSH1 0x1 PUSH1 0x1 PUSH1 0xA0 SHL SUB AND MUL OR SWAP1 SSTORE POP DUP2 DUP1 SLOAD DUP1 PUSH2 0x124D JUMPI PUSH2 0x124D PUSH2 0x1515 JUMP JUMPDEST PUSH0 DUP3 DUP2 MSTORE PUSH1 0x20 SWAP1 KECCAK256 DUP2 ADD PUSH0 NOT SWAP1 DUP2 ADD DUP1 SLOAD PUSH1 0x1 PUSH1 0x1 PUSH1 0xA0 SHL SUB NOT AND SWAP1 SSTORE ADD SWAP1 SSTORE PUSH2 0x127A JUMP JUMPDEST PUSH1 0x1 ADD PUSH2 0x1187 JUMP JUMPDEST POP POP POP POP POP JUMP JUMPDEST PUSH0 SLOAD PUSH1 0xFF AND PUSH2 0x457 JUMPI PUSH1 0x40 MLOAD PUSH4 0x8DFC202B PUSH1 0xE0 SHL DUP2 MSTORE PUSH1 0x4 ADD PUSH1 0x40 MLOAD DUP1 SWAP2 SUB SWAP1 REVERT JUMPDEST PUSH0 DUP1 PUSH1 0x20 PUSH0 DUP5 MLOAD PUSH1 0x20 DUP7 ADD PUSH0 DUP9 GAS CALL DUP1 PUSH2 0x12C2 JUMPI PUSH1 0x40 MLOAD RETURNDATASIZE PUSH0 DUP3 RETURNDATACOPY RETURNDATASIZE DUP2 REVERT JUMPDEST POP POP PUSH0 MLOAD RETURNDATASIZE SWAP2 POP DUP2 ISZERO PUSH2 0x12D9 JUMPI DUP1 PUSH1 0x1 EQ ISZERO PUSH2 0x12E6 JUMP JUMPDEST PUSH1 0x1 PUSH1 0x1 PUSH1 0xA0 SHL SUB DUP5 AND EXTCODESIZE ISZERO JUMPDEST ISZERO PUSH2 0xF91 JUMPI PUSH1 0x40 MLOAD PUSH4 0x5274AFE7 PUSH1 0xE0 SHL DUP2 MSTORE PUSH1 0x1 PUSH1 0x1 PUSH1 0xA0 SHL SUB DUP6 AND PUSH1 0x4 DUP3 ADD MSTORE PUSH1 0x24 ADD PUSH2 0x3DF JUMP JUMPDEST DUP1 CALLDATALOAD PUSH1 0x1 PUSH1 0x1 PUSH1 0xA0 SHL SUB DUP2 AND DUP2 EQ PUSH2 0x1325 JUMPI PUSH0 DUP1 REVERT JUMPDEST SWAP2 SWAP1 POP JUMP JUMPDEST PUSH0 PUSH1 0x20 DUP3 DUP5 SUB SLT ISZERO PUSH2 0x133A JUMPI PUSH0 DUP1 REVERT JUMPDEST PUSH2 0xAD5 DUP3 PUSH2 0x130F JUMP JUMPDEST DUP1 CALLDATALOAD DUP1 ISZERO ISZERO DUP2 EQ PUSH2 0x1325 JUMPI PUSH0 DUP1 REVERT JUMPDEST PUSH0 DUP1 PUSH1 0x40 DUP4 DUP6 SUB SLT ISZERO PUSH2 0x1363 JUMPI PUSH0 DUP1 REVERT JUMPDEST PUSH2 0x136C DUP4 PUSH2 0x130F JUMP JUMPDEST SWAP2 POP PUSH2 0x137A PUSH1 0x20 DUP5 ADD PUSH2 0x1343 JUMP JUMPDEST SWAP1 POP SWAP3 POP SWAP3 SWAP1 POP JUMP JUMPDEST PUSH0 DUP1 PUSH1 0x40 DUP4 DUP6 SUB SLT ISZERO PUSH2 0x1394 JUMPI PUSH0 DUP1 REVERT JUMPDEST PUSH2 0x139D DUP4 PUSH2 0x130F JUMP JUMPDEST SWAP5 PUSH1 0x20 SWAP4 SWAP1 SWAP4 ADD CALLDATALOAD SWAP4 POP POP POP JUMP JUMPDEST PUSH0 DUP1 PUSH0 DUP1 PUSH1 0x80 DUP6 DUP8 SUB SLT ISZERO PUSH2 0x13BE JUMPI PUSH0 DUP1 REVERT JUMPDEST PUSH2 0x13C7 DUP6 PUSH2 0x130F JUMP JUMPDEST SWAP4 POP PUSH1 0x20 DUP6 ADD CALLDATALOAD SWAP3 POP PUSH1 0x40 DUP6 ADD CALLDATALOAD SWAP2 POP PUSH2 0x13E3 PUSH1 0x60 DUP7 ADD PUSH2 0x1343 JUMP JUMPDEST SWAP1 POP SWAP3 SWAP6 SWAP2 SWAP5 POP SWAP3 POP JUMP JUMPDEST PUSH0 DUP1 PUSH1 0x40 DUP4 DUP6 SUB SLT ISZERO PUSH2 0x13FF JUMPI PUSH0 DUP1 REVERT JUMPDEST PUSH2 0x1408 DUP4 PUSH2 0x130F JUMP JUMPDEST SWAP2 POP PUSH2 0x137A PUSH1 0x20 DUP5 ADD PUSH2 0x130F JUMP JUMPDEST PUSH1 0x20 DUP1 DUP3 MSTORE DUP3 MLOAD DUP3 DUP3 ADD DUP2 SWAP1 MSTORE PUSH0 SWAP2 SWAP1 DUP5 DUP3 ADD SWAP1 PUSH1 0x40 DUP6 ADD SWAP1 DUP5 JUMPDEST DUP2 DUP2 LT ISZERO PUSH2 0x1456 JUMPI DUP4 MLOAD PUSH1 0x1 PUSH1 0x1 PUSH1 0xA0 SHL SUB AND DUP4 MSTORE SWAP3 DUP5 ADD SWAP3 SWAP2 DUP5 ADD SWAP2 PUSH1 0x1 ADD PUSH2 0x1431 JUMP JUMPDEST POP SWAP1 SWAP7 SWAP6 POP POP POP POP POP POP JUMP JUMPDEST PUSH1 0x20 DUP1 DUP3 MSTORE PUSH1 0x15 SWAP1 DUP3 ADD MSTORE PUSH21 0x151BDAD95B881B9BDD081DDA1A5D195B1A5CDD1959 PUSH1 0x5A SHL PUSH1 0x40 DUP3 ADD MSTORE PUSH1 0x60 ADD SWAP1 JUMP JUMPDEST PUSH4 0x4E487B71 PUSH1 0xE0 SHL PUSH0 MSTORE PUSH1 0x11 PUSH1 0x4 MSTORE PUSH1 0x24 PUSH0 REVERT JUMPDEST DUP1 DUP3 MUL DUP2 ISZERO DUP3 DUP3 DIV DUP5 EQ OR PUSH2 0xA9C JUMPI PUSH2 0xA9C PUSH2 0x1491 JUMP JUMPDEST PUSH0 DUP3 PUSH2 0x14D6 JUMPI PUSH4 0x4E487B71 PUSH1 0xE0 SHL PUSH0 MSTORE PUSH1 0x12 PUSH1 0x4 MSTORE PUSH1 0x24 PUSH0 REVERT JUMPDEST POP DIV SWAP1 JUMP JUMPDEST DUP2 DUP2 SUB DUP2 DUP2 GT ISZERO PUSH2 0xA9C JUMPI PUSH2 0xA9C PUSH2 0x1491 JUMP JUMPDEST DUP1 DUP3 ADD DUP1 DUP3 GT ISZERO PUSH2 0xA9C JUMPI PUSH2 0xA9C PUSH2 0x1491 JUMP JUMPDEST PUSH4 0x4E487B71 PUSH1 0xE0 SHL PUSH0 MSTORE PUSH1 0x32 PUSH1 0x4 MSTORE PUSH1 0x24 PUSH0 REVERT JUMPDEST PUSH4 0x4E487B71 PUSH1 0xE0 SHL PUSH0 MSTORE PUSH1 0x31 PUSH1 0x4 MSTORE PUSH1 0x24 PUSH0 REVERT INVALID LOG2 PUSH5 0x6970667358 0x22 SLT KECCAK256 ISZERO 0xF CALLER 0xD8 0xEB CREATE2 PUSH27 0x18B1C6901EA17376129B4BEF22D5A1676DA6BC39D395ED7AFD6473 PUSH16 0x6C634300081800330000000000000000 "},"methodIdentifiers":{"claimRewards(address)":"ef5cfb8c","deposit(address,uint256)":"47e7ef24","getMaxBet(address)":"bb1de9dc","getPoolInfo(address)":"06bfa938","getPoolParticipants(address)":"c9cc3d96","getUserRewards(address,address)":"cd636b1f","getUserShares(address,address)":"a362d782","housePools(address)":"8edd367c","owner()":"8da5cb5b","pause()":"8456cb59","paused()":"5c975abb","platformWallet()":"fa2af9da","processGameResult(address,uint256,uint256,bool)":"522a54bd","renounceOwnership()":"715018a6","setPlatformWallet(address)":"8831e9cf","setTrustedSource(address,bool)":"8ad05992","transferOwnership(address)":"f2fde38b","trustedSources(address)":"4c31957f","unpause()":"3f4ba83a","whitelistToken(address,bool)":"0ffb1d8b","whitelistedTokens(address)":"daf9c210","withdraw(address,uint256)":"f3fef3a3"}}}}}