{"contracts/CasinoRouter.sol":{"CasinoRouter":{"abi":[{"inputs":[{"internalType":"address","name":"_factory","type":"address"}],"stateMutability":"nonpayable","type":"constructor"},{"inputs":[],"name":"InvalidWalletAddress","type":"error"},{"inputs":[],"name":"PoolDoesNotExist","type":"error"},{"inputs":[{"internalType":"address","name":"token","type":"address"}],"name":"SafeERC20FailedOperation","type":"error"},{"inputs":[{"internalType":"address","name":"token","type":"address"},{"internalType":"uint256","name":"amount","type":"uint256"}],"name":"depositToPool","outputs":[],"stateMutability":"nonpayable","type":"function"},{"inputs":[],"name":"factory","outputs":[{"internalType":"contract CasinoFactory","name":"","type":"address"}],"stateMutability":"view","type":"function"},{"inputs":[{"internalType":"address[]","name":"tokens","type":"address[]"}],"name":"getPoolBalances","outputs":[{"internalType":"uint256[]","name":"balances","type":"uint256[]"}],"stateMutability":"view","type":"function"},{"inputs":[{"internalType":"address[]","name":"tokens","type":"address[]"}],"name":"hasActivePools","outputs":[{"internalType":"bool","name":"hasBalance","type":"bool"}],"stateMutability":"view","type":"function"},{"inputs":[{"internalType":"address","name":"token","type":"address"},{"internalType":"uint256","name":"amount","type":"uint256"},{"internalType":"uint256","name":"nonce","type":"uint256"},{"internalType":"uint256","name":"timestamp","type":"uint256"},{"internalType":"bytes32","name":"messageHash","type":"bytes32"},{"internalType":"bytes","name":"signature","type":"bytes"}],"name":"withdrawFromPool","outputs":[],"stateMutability":"nonpayable","type":"function"}],"evm":{"bytecode":{"linkReferences":{},"object":"60a060405234801561000f575f80fd5b50604051610c45380380610c4583398101604081905261002e91610066565b6001600160a01b0381166100555760405163a5f90a1160e01b815260040160405180910390fd5b6001600160a01b0316608052610093565b5f60208284031215610076575f80fd5b81516001600160a01b038116811461008c575f80fd5b9392505050565b608051610b7f6100c65f395f818160ce0152818161012b0152818161027e0152818161043201526105b50152610b7f5ff3fe608060405234801561000f575f80fd5b5060043610610055575f3560e01c80632f6d58dc14610059578063331d71d11461006e5780636fb5e42714610096578063b04e46b5146100b6578063c45a0155146100c9575b5f80fd5b61006c610067366004610886565b610108565b005b61008161007c3660046108b0565b61026f565b60405190151581526020015b60405180910390f35b6100a96100a43660046108b0565b6103dd565b60405161008d919061091f565b61006c6100c4366004610976565b610592565b6100f07f000000000000000000000000000000000000000000000000000000000000000081565b6040516001600160a01b03909116815260200161008d565b60405163bbe4f6db60e01b81526001600160a01b0383811660048301525f9182917f0000000000000000000000000000000000000000000000000000000000000000169063bbe4f6db906024016040805180830381865afa15801561016f573d5f803e3d5ffd5b505050506040513d601f19601f820116820180604052508101906101939190610a57565b915091508115806101ab57506001600160a01b038116155b156101c9576040516302721e1f60e61b815260040160405180910390fd5b825f036101e95760405163a5f90a1160e01b815260040160405180910390fd5b836101ff6001600160a01b0382163330876106be565b6102136001600160a01b038216838661072b565b60405163b6b55f2560e01b8152600481018590526001600160a01b0383169063b6b55f25906024015f604051808303815f87803b158015610252575f80fd5b505af1158015610264573d5f803e3d5ffd5b505050505050505050565b5f805b828110156103d6575f807f00000000000000000000000000000000000000000000000000000000000000006001600160a01b031663bbe4f6db8787868181106102bd576102bd610a93565b90506020020160208101906102d29190610aa7565b6040516001600160e01b031960e084901b1681526001600160a01b0390911660048201526024016040805180830381865afa158015610313573d5f803e3d5ffd5b505050506040513d601f19601f820116820180604052508101906103379190610a57565b9150915081801561035057506001600160a01b03811615155b156103cc575f816001600160a01b031663abd70aa26040518163ffffffff1660e01b8152600401602060405180830381865afa158015610392573d5f803e3d5ffd5b505050506040513d601f19601f820116820180604052508101906103b69190610ac9565b905080156103ca57600194505050506103d6565b505b5050600101610272565b5092915050565b60608167ffffffffffffffff8111156103f8576103f8610962565b604051908082528060200260200182016040528015610421578160200160208202803683370190505b5090505f5b828110156103d6575f807f00000000000000000000000000000000000000000000000000000000000000006001600160a01b031663bbe4f6db87878681811061047157610471610a93565b90506020020160208101906104869190610aa7565b6040516001600160e01b031960e084901b1681526001600160a01b0390911660048201526024016040805180830381865afa1580156104c7573d5f803e3d5ffd5b505050506040513d601f19601f820116820180604052508101906104eb9190610a57565b9150915081801561050457506001600160a01b03811615155b1561058857806001600160a01b031663abd70aa26040518163ffffffff1660e01b8152600401602060405180830381865afa158015610545573d5f803e3d5ffd5b505050506040513d601f19601f820116820180604052508101906105699190610ac9565b84848151811061057b5761057b610a93565b6020026020010181815250505b5050600101610426565b60405163bbe4f6db60e01b81526001600160a01b0387811660048301525f9182917f0000000000000000000000000000000000000000000000000000000000000000169063bbe4f6db906024016040805180830381865afa1580156105f9573d5f803e3d5ffd5b505050506040513d601f19601f8201168201806040525081019061061d9190610a57565b9150915081158061063557506001600160a01b038116155b15610653576040516302721e1f60e61b815260040160405180910390fd5b6040516392b51e2560e01b81526001600160a01b038216906392b51e2590610687908a908a908a908a908a90600401610ae0565b5f604051808303815f87803b15801561069e575f80fd5b505af11580156106b0573d5f803e3d5ffd5b505050505050505050505050565b6040516001600160a01b0384811660248301528381166044830152606482018390526107259186918216906323b872dd906084015b604051602081830303815290604052915060e01b6020820180516001600160e01b0383818316178352505050506107b6565b50505050565b604080516001600160a01b038416602482015260448082018490528251808303909101815260649091019091526020810180516001600160e01b031663095ea7b360e01b17905261077c8482610826565b610725576040516001600160a01b0384811660248301525f60448301526107b091869182169063095ea7b3906064016106f3565b61072584825b5f8060205f8451602086015f885af1806107d5576040513d5f823e3d81fd5b50505f513d915081156107ec5780600114156107f9565b6001600160a01b0384163b155b1561072557604051635274afe760e01b81526001600160a01b038516600482015260240160405180910390fd5b5f805f8060205f8651602088015f8a5af192503d91505f519050828015610865575081156108575780600114610865565b5f866001600160a01b03163b115b9695505050505050565b6001600160a01b0381168114610883575f80fd5b50565b5f8060408385031215610897575f80fd5b82356108a28161086f565b946020939093013593505050565b5f80602083850312156108c1575f80fd5b823567ffffffffffffffff808211156108d8575f80fd5b818501915085601f8301126108eb575f80fd5b8135818111156108f9575f80fd5b8660208260051b850101111561090d575f80fd5b60209290920196919550909350505050565b602080825282518282018190525f9190848201906040850190845b818110156109565783518352928401929184019160010161093a565b50909695505050505050565b634e487b7160e01b5f52604160045260245ffd5b5f805f805f8060c0878903121561098b575f80fd5b86356109968161086f565b95506020870135945060408701359350606087013592506080870135915060a087013567ffffffffffffffff808211156109ce575f80fd5b818901915089601f8301126109e1575f80fd5b8135818111156109f3576109f3610962565b604051601f8201601f19908116603f01168101908382118183101715610a1b57610a1b610962565b816040528281528c6020848701011115610a33575f80fd5b826020860160208301375f6020848301015280955050505050509295509295509295565b5f8060408385031215610a68575f80fd5b82518015158114610a77575f80fd5b6020840151909250610a888161086f565b809150509250929050565b634e487b7160e01b5f52603260045260245ffd5b5f60208284031215610ab7575f80fd5b8135610ac28161086f565b9392505050565b5f60208284031215610ad9575f80fd5b5051919050565b8581525f602086602084015285604084015284606084015260a0608084015283518060a08501525f5b81811015610b255785810183015185820160c001528201610b09565b505f60c0828601015260c0601f19601f83011685010192505050969550505050505056fea264697066735822122035c4561d30cd5eb2c4258f2547ae23372e13ae3b0c979778d6403a3494d98f1e64736f6c63430008180033","opcodes":"PUSH1 0xA0 PUSH1 0x40 MSTORE CALLVALUE DUP1 ISZERO PUSH2 0xF JUMPI PUSH0 DUP1 REVERT JUMPDEST POP PUSH1 0x40 MLOAD PUSH2 0xC45 CODESIZE SUB DUP1 PUSH2 0xC45 DUP4 CODECOPY DUP2 ADD PUSH1 0x40 DUP2 SWAP1 MSTORE PUSH2 0x2E SWAP2 PUSH2 0x66 JUMP JUMPDEST PUSH1 0x1 PUSH1 0x1 PUSH1 0xA0 SHL SUB DUP2 AND PUSH2 0x55 JUMPI PUSH1 0x40 MLOAD PUSH4 0xA5F90A11 PUSH1 0xE0 SHL DUP2 MSTORE PUSH1 0x4 ADD PUSH1 0x40 MLOAD DUP1 SWAP2 SUB SWAP1 REVERT JUMPDEST PUSH1 0x1 PUSH1 0x1 PUSH1 0xA0 SHL SUB AND PUSH1 0x80 MSTORE PUSH2 0x93 JUMP JUMPDEST PUSH0 PUSH1 0x20 DUP3 DUP5 SUB SLT ISZERO PUSH2 0x76 JUMPI PUSH0 DUP1 REVERT JUMPDEST DUP2 MLOAD PUSH1 0x1 PUSH1 0x1 PUSH1 0xA0 SHL SUB DUP2 AND DUP2 EQ PUSH2 0x8C JUMPI PUSH0 DUP1 REVERT JUMPDEST SWAP4 SWAP3 POP POP POP JUMP JUMPDEST PUSH1 0x80 MLOAD PUSH2 0xB7F PUSH2 0xC6 PUSH0 CODECOPY PUSH0 DUP2 DUP2 PUSH1 0xCE ADD MSTORE DUP2 DUP2 PUSH2 0x12B ADD MSTORE DUP2 DUP2 PUSH2 0x27E ADD MSTORE DUP2 DUP2 PUSH2 0x432 ADD MSTORE PUSH2 0x5B5 ADD MSTORE PUSH2 0xB7F PUSH0 RETURN INVALID PUSH1 0x80 PUSH1 0x40 MSTORE CALLVALUE DUP1 ISZERO PUSH2 0xF JUMPI PUSH0 DUP1 REVERT JUMPDEST POP PUSH1 0x4 CALLDATASIZE LT PUSH2 0x55 JUMPI PUSH0 CALLDATALOAD PUSH1 0xE0 SHR DUP1 PUSH4 0x2F6D58DC EQ PUSH2 0x59 JUMPI DUP1 PUSH4 0x331D71D1 EQ PUSH2 0x6E JUMPI DUP1 PUSH4 0x6FB5E427 EQ PUSH2 0x96 JUMPI DUP1 PUSH4 0xB04E46B5 EQ PUSH2 0xB6 JUMPI DUP1 PUSH4 0xC45A0155 EQ PUSH2 0xC9 JUMPI JUMPDEST PUSH0 DUP1 REVERT JUMPDEST PUSH2 0x6C PUSH2 0x67 CALLDATASIZE PUSH1 0x4 PUSH2 0x886 JUMP JUMPDEST PUSH2 0x108 JUMP JUMPDEST STOP JUMPDEST PUSH2 0x81 PUSH2 0x7C CALLDATASIZE PUSH1 0x4 PUSH2 0x8B0 JUMP JUMPDEST PUSH2 0x26F JUMP JUMPDEST PUSH1 0x40 MLOAD SWAP1 ISZERO ISZERO DUP2 MSTORE PUSH1 0x20 ADD JUMPDEST PUSH1 0x40 MLOAD DUP1 SWAP2 SUB SWAP1 RETURN JUMPDEST PUSH2 0xA9 PUSH2 0xA4 CALLDATASIZE PUSH1 0x4 PUSH2 0x8B0 JUMP JUMPDEST PUSH2 0x3DD JUMP JUMPDEST PUSH1 0x40 MLOAD PUSH2 0x8D SWAP2 SWAP1 PUSH2 0x91F JUMP JUMPDEST PUSH2 0x6C PUSH2 0xC4 CALLDATASIZE PUSH1 0x4 PUSH2 0x976 JUMP JUMPDEST PUSH2 0x592 JUMP JUMPDEST PUSH2 0xF0 PUSH32 0x0 DUP2 JUMP JUMPDEST PUSH1 0x40 MLOAD PUSH1 0x1 PUSH1 0x1 PUSH1 0xA0 SHL SUB SWAP1 SWAP2 AND DUP2 MSTORE PUSH1 0x20 ADD PUSH2 0x8D JUMP JUMPDEST PUSH1 0x40 MLOAD PUSH4 0xBBE4F6DB PUSH1 0xE0 SHL DUP2 MSTORE PUSH1 0x1 PUSH1 0x1 PUSH1 0xA0 SHL SUB DUP4 DUP2 AND PUSH1 0x4 DUP4 ADD MSTORE PUSH0 SWAP2 DUP3 SWAP2 PUSH32 0x0 AND SWAP1 PUSH4 0xBBE4F6DB SWAP1 PUSH1 0x24 ADD PUSH1 0x40 DUP1 MLOAD DUP1 DUP4 SUB DUP2 DUP7 GAS STATICCALL ISZERO DUP1 ISZERO PUSH2 0x16F JUMPI RETURNDATASIZE PUSH0 DUP1 RETURNDATACOPY RETURNDATASIZE PUSH0 REVERT JUMPDEST POP POP POP POP PUSH1 0x40 MLOAD RETURNDATASIZE PUSH1 0x1F NOT PUSH1 0x1F DUP3 ADD AND DUP3 ADD DUP1 PUSH1 0x40 MSTORE POP DUP2 ADD SWAP1 PUSH2 0x193 SWAP2 SWAP1 PUSH2 0xA57 JUMP JUMPDEST SWAP2 POP SWAP2 POP DUP2 ISZERO DUP1 PUSH2 0x1AB JUMPI POP PUSH1 0x1 PUSH1 0x1 PUSH1 0xA0 SHL SUB DUP2 AND ISZERO JUMPDEST ISZERO PUSH2 0x1C9 JUMPI PUSH1 0x40 MLOAD PUSH4 0x2721E1F PUSH1 0xE6 SHL DUP2 MSTORE PUSH1 0x4 ADD PUSH1 0x40 MLOAD DUP1 SWAP2 SUB SWAP1 REVERT JUMPDEST DUP3 PUSH0 SUB PUSH2 0x1E9 JUMPI PUSH1 0x40 MLOAD PUSH4 0xA5F90A11 PUSH1 0xE0 SHL DUP2 MSTORE PUSH1 0x4 ADD PUSH1 0x40 MLOAD DUP1 SWAP2 SUB SWAP1 REVERT JUMPDEST DUP4 PUSH2 0x1FF PUSH1 0x1 PUSH1 0x1 PUSH1 0xA0 SHL SUB DUP3 AND CALLER ADDRESS DUP8 PUSH2 0x6BE JUMP JUMPDEST PUSH2 0x213 PUSH1 0x1 PUSH1 0x1 PUSH1 0xA0 SHL SUB DUP3 AND DUP4 DUP7 PUSH2 0x72B JUMP JUMPDEST PUSH1 0x40 MLOAD PUSH4 0xB6B55F25 PUSH1 0xE0 SHL DUP2 MSTORE PUSH1 0x4 DUP2 ADD DUP6 SWAP1 MSTORE PUSH1 0x1 PUSH1 0x1 PUSH1 0xA0 SHL SUB DUP4 AND SWAP1 PUSH4 0xB6B55F25 SWAP1 PUSH1 0x24 ADD PUSH0 PUSH1 0x40 MLOAD DUP1 DUP4 SUB DUP2 PUSH0 DUP8 DUP1 EXTCODESIZE ISZERO DUP1 ISZERO PUSH2 0x252 JUMPI PUSH0 DUP1 REVERT JUMPDEST POP GAS CALL ISZERO DUP1 ISZERO PUSH2 0x264 JUMPI RETURNDATASIZE PUSH0 DUP1 RETURNDATACOPY RETURNDATASIZE PUSH0 REVERT JUMPDEST POP POP POP POP POP POP POP POP POP JUMP JUMPDEST PUSH0 DUP1 JUMPDEST DUP3 DUP2 LT ISZERO PUSH2 0x3D6 JUMPI PUSH0 DUP1 PUSH32 0x0 PUSH1 0x1 PUSH1 0x1 PUSH1 0xA0 SHL SUB AND PUSH4 0xBBE4F6DB DUP8 DUP8 DUP7 DUP2 DUP2 LT PUSH2 0x2BD JUMPI PUSH2 0x2BD PUSH2 0xA93 JUMP JUMPDEST SWAP1 POP PUSH1 0x20 MUL ADD PUSH1 0x20 DUP2 ADD SWAP1 PUSH2 0x2D2 SWAP2 SWAP1 PUSH2 0xAA7 JUMP JUMPDEST PUSH1 0x40 MLOAD PUSH1 0x1 PUSH1 0x1 PUSH1 0xE0 SHL SUB NOT PUSH1 0xE0 DUP5 SWAP1 SHL AND DUP2 MSTORE PUSH1 0x1 PUSH1 0x1 PUSH1 0xA0 SHL SUB SWAP1 SWAP2 AND PUSH1 0x4 DUP3 ADD MSTORE PUSH1 0x24 ADD PUSH1 0x40 DUP1 MLOAD DUP1 DUP4 SUB DUP2 DUP7 GAS STATICCALL ISZERO DUP1 ISZERO PUSH2 0x313 JUMPI RETURNDATASIZE PUSH0 DUP1 RETURNDATACOPY RETURNDATASIZE PUSH0 REVERT JUMPDEST POP POP POP POP PUSH1 0x40 MLOAD RETURNDATASIZE PUSH1 0x1F NOT PUSH1 0x1F DUP3 ADD AND DUP3 ADD DUP1 PUSH1 0x40 MSTORE POP DUP2 ADD SWAP1 PUSH2 0x337 SWAP2 SWAP1 PUSH2 0xA57 JUMP JUMPDEST SWAP2 POP SWAP2 POP DUP2 DUP1 ISZERO PUSH2 0x350 JUMPI POP PUSH1 0x1 PUSH1 0x1 PUSH1 0xA0 SHL SUB DUP2 AND ISZERO ISZERO JUMPDEST ISZERO PUSH2 0x3CC JUMPI PUSH0 DUP2 PUSH1 0x1 PUSH1 0x1 PUSH1 0xA0 SHL SUB AND PUSH4 0xABD70AA2 PUSH1 0x40 MLOAD DUP2 PUSH4 0xFFFFFFFF AND PUSH1 0xE0 SHL DUP2 MSTORE PUSH1 0x4 ADD PUSH1 0x20 PUSH1 0x40 MLOAD DUP1 DUP4 SUB DUP2 DUP7 GAS STATICCALL ISZERO DUP1 ISZERO PUSH2 0x392 JUMPI RETURNDATASIZE PUSH0 DUP1 RETURNDATACOPY RETURNDATASIZE PUSH0 REVERT JUMPDEST POP POP POP POP PUSH1 0x40 MLOAD RETURNDATASIZE PUSH1 0x1F NOT PUSH1 0x1F DUP3 ADD AND DUP3 ADD DUP1 PUSH1 0x40 MSTORE POP DUP2 ADD SWAP1 PUSH2 0x3B6 SWAP2 SWAP1 PUSH2 0xAC9 JUMP JUMPDEST SWAP1 POP DUP1 ISZERO PUSH2 0x3CA JUMPI PUSH1 0x1 SWAP5 POP POP POP POP PUSH2 0x3D6 JUMP JUMPDEST POP JUMPDEST POP POP PUSH1 0x1 ADD PUSH2 0x272 JUMP JUMPDEST POP SWAP3 SWAP2 POP POP JUMP JUMPDEST PUSH1 0x60 DUP2 PUSH8 0xFFFFFFFFFFFFFFFF DUP2 GT ISZERO PUSH2 0x3F8 JUMPI PUSH2 0x3F8 PUSH2 0x962 JUMP JUMPDEST PUSH1 0x40 MLOAD SWAP1 DUP1 DUP3 MSTORE DUP1 PUSH1 0x20 MUL PUSH1 0x20 ADD DUP3 ADD PUSH1 0x40 MSTORE DUP1 ISZERO PUSH2 0x421 JUMPI DUP2 PUSH1 0x20 ADD PUSH1 0x20 DUP3 MUL DUP1 CALLDATASIZE DUP4 CALLDATACOPY ADD SWAP1 POP JUMPDEST POP SWAP1 POP PUSH0 JUMPDEST DUP3 DUP2 LT ISZERO PUSH2 0x3D6 JUMPI PUSH0 DUP1 PUSH32 0x0 PUSH1 0x1 PUSH1 0x1 PUSH1 0xA0 SHL SUB AND PUSH4 0xBBE4F6DB DUP8 DUP8 DUP7 DUP2 DUP2 LT PUSH2 0x471 JUMPI PUSH2 0x471 PUSH2 0xA93 JUMP JUMPDEST SWAP1 POP PUSH1 0x20 MUL ADD PUSH1 0x20 DUP2 ADD SWAP1 PUSH2 0x486 SWAP2 SWAP1 PUSH2 0xAA7 JUMP JUMPDEST PUSH1 0x40 MLOAD PUSH1 0x1 PUSH1 0x1 PUSH1 0xE0 SHL SUB NOT PUSH1 0xE0 DUP5 SWAP1 SHL AND DUP2 MSTORE PUSH1 0x1 PUSH1 0x1 PUSH1 0xA0 SHL SUB SWAP1 SWAP2 AND PUSH1 0x4 DUP3 ADD MSTORE PUSH1 0x24 ADD PUSH1 0x40 DUP1 MLOAD DUP1 DUP4 SUB DUP2 DUP7 GAS STATICCALL ISZERO DUP1 ISZERO PUSH2 0x4C7 JUMPI RETURNDATASIZE PUSH0 DUP1 RETURNDATACOPY RETURNDATASIZE PUSH0 REVERT JUMPDEST POP POP POP POP PUSH1 0x40 MLOAD RETURNDATASIZE PUSH1 0x1F NOT PUSH1 0x1F DUP3 ADD AND DUP3 ADD DUP1 PUSH1 0x40 MSTORE POP DUP2 ADD SWAP1 PUSH2 0x4EB SWAP2 SWAP1 PUSH2 0xA57 JUMP JUMPDEST SWAP2 POP SWAP2 POP DUP2 DUP1 ISZERO PUSH2 0x504 JUMPI POP PUSH1 0x1 PUSH1 0x1 PUSH1 0xA0 SHL SUB DUP2 AND ISZERO ISZERO JUMPDEST ISZERO PUSH2 0x588 JUMPI DUP1 PUSH1 0x1 PUSH1 0x1 PUSH1 0xA0 SHL SUB AND PUSH4 0xABD70AA2 PUSH1 0x40 MLOAD DUP2 PUSH4 0xFFFFFFFF AND PUSH1 0xE0 SHL DUP2 MSTORE PUSH1 0x4 ADD PUSH1 0x20 PUSH1 0x40 MLOAD DUP1 DUP4 SUB DUP2 DUP7 GAS STATICCALL ISZERO DUP1 ISZERO PUSH2 0x545 JUMPI RETURNDATASIZE PUSH0 DUP1 RETURNDATACOPY RETURNDATASIZE PUSH0 REVERT JUMPDEST POP POP POP POP PUSH1 0x40 MLOAD RETURNDATASIZE PUSH1 0x1F NOT PUSH1 0x1F DUP3 ADD AND DUP3 ADD DUP1 PUSH1 0x40 MSTORE POP DUP2 ADD SWAP1 PUSH2 0x569 SWAP2 SWAP1 PUSH2 0xAC9 JUMP JUMPDEST DUP5 DUP5 DUP2 MLOAD DUP2 LT PUSH2 0x57B JUMPI PUSH2 0x57B PUSH2 0xA93 JUMP JUMPDEST PUSH1 0x20 MUL PUSH1 0x20 ADD ADD DUP2 DUP2 MSTORE POP POP JUMPDEST POP POP PUSH1 0x1 ADD PUSH2 0x426 JUMP JUMPDEST PUSH1 0x40 MLOAD PUSH4 0xBBE4F6DB PUSH1 0xE0 SHL DUP2 MSTORE PUSH1 0x1 PUSH1 0x1 PUSH1 0xA0 SHL SUB DUP8 DUP2 AND PUSH1 0x4 DUP4 ADD MSTORE PUSH0 SWAP2 DUP3 SWAP2 PUSH32 0x0 AND SWAP1 PUSH4 0xBBE4F6DB SWAP1 PUSH1 0x24 ADD PUSH1 0x40 DUP1 MLOAD DUP1 DUP4 SUB DUP2 DUP7 GAS STATICCALL ISZERO DUP1 ISZERO PUSH2 0x5F9 JUMPI RETURNDATASIZE PUSH0 DUP1 RETURNDATACOPY RETURNDATASIZE PUSH0 REVERT JUMPDEST POP POP POP POP PUSH1 0x40 MLOAD RETURNDATASIZE PUSH1 0x1F NOT PUSH1 0x1F DUP3 ADD AND DUP3 ADD DUP1 PUSH1 0x40 MSTORE POP DUP2 ADD SWAP1 PUSH2 0x61D SWAP2 SWAP1 PUSH2 0xA57 JUMP JUMPDEST SWAP2 POP SWAP2 POP DUP2 ISZERO DUP1 PUSH2 0x635 JUMPI POP PUSH1 0x1 PUSH1 0x1 PUSH1 0xA0 SHL SUB DUP2 AND ISZERO JUMPDEST ISZERO PUSH2 0x653 JUMPI PUSH1 0x40 MLOAD PUSH4 0x2721E1F PUSH1 0xE6 SHL DUP2 MSTORE PUSH1 0x4 ADD PUSH1 0x40 MLOAD DUP1 SWAP2 SUB SWAP1 REVERT JUMPDEST PUSH1 0x40 MLOAD PUSH4 0x92B51E25 PUSH1 0xE0 SHL DUP2 MSTORE PUSH1 0x1 PUSH1 0x1 PUSH1 0xA0 SHL SUB DUP3 AND SWAP1 PUSH4 0x92B51E25 SWAP1 PUSH2 0x687 SWAP1 DUP11 SWAP1 DUP11 SWAP1 DUP11 SWAP1 DUP11 SWAP1 DUP11 SWAP1 PUSH1 0x4 ADD PUSH2 0xAE0 JUMP JUMPDEST PUSH0 PUSH1 0x40 MLOAD DUP1 DUP4 SUB DUP2 PUSH0 DUP8 DUP1 EXTCODESIZE ISZERO DUP1 ISZERO PUSH2 0x69E JUMPI PUSH0 DUP1 REVERT JUMPDEST POP GAS CALL ISZERO DUP1 ISZERO PUSH2 0x6B0 JUMPI RETURNDATASIZE PUSH0 DUP1 RETURNDATACOPY RETURNDATASIZE PUSH0 REVERT JUMPDEST POP POP POP POP POP POP POP POP POP POP POP POP JUMP JUMPDEST PUSH1 0x40 MLOAD PUSH1 0x1 PUSH1 0x1 PUSH1 0xA0 SHL SUB DUP5 DUP2 AND PUSH1 0x24 DUP4 ADD MSTORE DUP4 DUP2 AND PUSH1 0x44 DUP4 ADD MSTORE PUSH1 0x64 DUP3 ADD DUP4 SWAP1 MSTORE PUSH2 0x725 SWAP2 DUP7 SWAP2 DUP3 AND SWAP1 PUSH4 0x23B872DD SWAP1 PUSH1 0x84 ADD JUMPDEST PUSH1 0x40 MLOAD PUSH1 0x20 DUP2 DUP4 SUB SUB DUP2 MSTORE SWAP1 PUSH1 0x40 MSTORE SWAP2 POP PUSH1 0xE0 SHL PUSH1 0x20 DUP3 ADD DUP1 MLOAD PUSH1 0x1 PUSH1 0x1 PUSH1 0xE0 SHL SUB DUP4 DUP2 DUP4 AND OR DUP4 MSTORE POP POP POP POP PUSH2 0x7B6 JUMP JUMPDEST POP POP POP POP JUMP JUMPDEST PUSH1 0x40 DUP1 MLOAD PUSH1 0x1 PUSH1 0x1 PUSH1 0xA0 SHL SUB DUP5 AND PUSH1 0x24 DUP3 ADD MSTORE PUSH1 0x44 DUP1 DUP3 ADD DUP5 SWAP1 MSTORE DUP3 MLOAD DUP1 DUP4 SUB SWAP1 SWAP2 ADD DUP2 MSTORE PUSH1 0x64 SWAP1 SWAP2 ADD SWAP1 SWAP2 MSTORE PUSH1 0x20 DUP2 ADD DUP1 MLOAD PUSH1 0x1 PUSH1 0x1 PUSH1 0xE0 SHL SUB AND PUSH4 0x95EA7B3 PUSH1 0xE0 SHL OR SWAP1 MSTORE PUSH2 0x77C DUP5 DUP3 PUSH2 0x826 JUMP JUMPDEST PUSH2 0x725 JUMPI PUSH1 0x40 MLOAD PUSH1 0x1 PUSH1 0x1 PUSH1 0xA0 SHL SUB DUP5 DUP2 AND PUSH1 0x24 DUP4 ADD MSTORE PUSH0 PUSH1 0x44 DUP4 ADD MSTORE PUSH2 0x7B0 SWAP2 DUP7 SWAP2 DUP3 AND SWAP1 PUSH4 0x95EA7B3 SWAP1 PUSH1 0x64 ADD PUSH2 0x6F3 JUMP JUMPDEST PUSH2 0x725 DUP5 DUP3 JUMPDEST PUSH0 DUP1 PUSH1 0x20 PUSH0 DUP5 MLOAD PUSH1 0x20 DUP7 ADD PUSH0 DUP9 GAS CALL DUP1 PUSH2 0x7D5 JUMPI PUSH1 0x40 MLOAD RETURNDATASIZE PUSH0 DUP3 RETURNDATACOPY RETURNDATASIZE DUP2 REVERT JUMPDEST POP POP PUSH0 MLOAD RETURNDATASIZE SWAP2 POP DUP2 ISZERO PUSH2 0x7EC JUMPI DUP1 PUSH1 0x1 EQ ISZERO PUSH2 0x7F9 JUMP JUMPDEST PUSH1 0x1 PUSH1 0x1 PUSH1 0xA0 SHL SUB DUP5 AND EXTCODESIZE ISZERO JUMPDEST ISZERO PUSH2 0x725 JUMPI PUSH1 0x40 MLOAD PUSH4 0x5274AFE7 PUSH1 0xE0 SHL DUP2 MSTORE PUSH1 0x1 PUSH1 0x1 PUSH1 0xA0 SHL SUB DUP6 AND PUSH1 0x4 DUP3 ADD MSTORE PUSH1 0x24 ADD PUSH1 0x40 MLOAD DUP1 SWAP2 SUB SWAP1 REVERT JUMPDEST PUSH0 DUP1 PUSH0 DUP1 PUSH1 0x20 PUSH0 DUP7 MLOAD PUSH1 0x20 DUP9 ADD PUSH0 DUP11 GAS CALL SWAP3 POP RETURNDATASIZE SWAP2 POP PUSH0 MLOAD SWAP1 POP DUP3 DUP1 ISZERO PUSH2 0x865 JUMPI POP DUP2 ISZERO PUSH2 0x857 JUMPI DUP1 PUSH1 0x1 EQ PUSH2 0x865 JUMP JUMPDEST PUSH0 DUP7 PUSH1 0x1 PUSH1 0x1 PUSH1 0xA0 SHL SUB AND EXTCODESIZE GT JUMPDEST SWAP7 SWAP6 POP POP POP POP POP POP JUMP JUMPDEST PUSH1 0x1 PUSH1 0x1 PUSH1 0xA0 SHL SUB DUP2 AND DUP2 EQ PUSH2 0x883 JUMPI PUSH0 DUP1 REVERT JUMPDEST POP JUMP JUMPDEST PUSH0 DUP1 PUSH1 0x40 DUP4 DUP6 SUB SLT ISZERO PUSH2 0x897 JUMPI PUSH0 DUP1 REVERT JUMPDEST DUP3 CALLDATALOAD PUSH2 0x8A2 DUP2 PUSH2 0x86F JUMP JUMPDEST SWAP5 PUSH1 0x20 SWAP4 SWAP1 SWAP4 ADD CALLDATALOAD SWAP4 POP POP POP JUMP JUMPDEST PUSH0 DUP1 PUSH1 0x20 DUP4 DUP6 SUB SLT ISZERO PUSH2 0x8C1 JUMPI PUSH0 DUP1 REVERT JUMPDEST DUP3 CALLDATALOAD PUSH8 0xFFFFFFFFFFFFFFFF DUP1 DUP3 GT ISZERO PUSH2 0x8D8 JUMPI PUSH0 DUP1 REVERT JUMPDEST DUP2 DUP6 ADD SWAP2 POP DUP6 PUSH1 0x1F DUP4 ADD SLT PUSH2 0x8EB JUMPI PUSH0 DUP1 REVERT JUMPDEST DUP2 CALLDATALOAD DUP2 DUP2 GT ISZERO PUSH2 0x8F9 JUMPI PUSH0 DUP1 REVERT JUMPDEST DUP7 PUSH1 0x20 DUP3 PUSH1 0x5 SHL DUP6 ADD ADD GT ISZERO PUSH2 0x90D JUMPI PUSH0 DUP1 REVERT JUMPDEST PUSH1 0x20 SWAP3 SWAP1 SWAP3 ADD SWAP7 SWAP2 SWAP6 POP SWAP1 SWAP4 POP POP POP POP JUMP JUMPDEST PUSH1 0x20 DUP1 DUP3 MSTORE DUP3 MLOAD DUP3 DUP3 ADD DUP2 SWAP1 MSTORE PUSH0 SWAP2 SWAP1 DUP5 DUP3 ADD SWAP1 PUSH1 0x40 DUP6 ADD SWAP1 DUP5 JUMPDEST DUP2 DUP2 LT ISZERO PUSH2 0x956 JUMPI DUP4 MLOAD DUP4 MSTORE SWAP3 DUP5 ADD SWAP3 SWAP2 DUP5 ADD SWAP2 PUSH1 0x1 ADD PUSH2 0x93A JUMP JUMPDEST POP SWAP1 SWAP7 SWAP6 POP POP POP POP POP POP JUMP JUMPDEST PUSH4 0x4E487B71 PUSH1 0xE0 SHL PUSH0 MSTORE PUSH1 0x41 PUSH1 0x4 MSTORE PUSH1 0x24 PUSH0 REVERT JUMPDEST PUSH0 DUP1 PUSH0 DUP1 PUSH0 DUP1 PUSH1 0xC0 DUP8 DUP10 SUB SLT ISZERO PUSH2 0x98B JUMPI PUSH0 DUP1 REVERT JUMPDEST DUP7 CALLDATALOAD PUSH2 0x996 DUP2 PUSH2 0x86F JUMP JUMPDEST SWAP6 POP PUSH1 0x20 DUP8 ADD CALLDATALOAD SWAP5 POP PUSH1 0x40 DUP8 ADD CALLDATALOAD SWAP4 POP PUSH1 0x60 DUP8 ADD CALLDATALOAD SWAP3 POP PUSH1 0x80 DUP8 ADD CALLDATALOAD SWAP2 POP PUSH1 0xA0 DUP8 ADD CALLDATALOAD PUSH8 0xFFFFFFFFFFFFFFFF DUP1 DUP3 GT ISZERO PUSH2 0x9CE JUMPI PUSH0 DUP1 REVERT JUMPDEST DUP2 DUP10 ADD SWAP2 POP DUP10 PUSH1 0x1F DUP4 ADD SLT PUSH2 0x9E1 JUMPI PUSH0 DUP1 REVERT JUMPDEST DUP2 CALLDATALOAD DUP2 DUP2 GT ISZERO PUSH2 0x9F3 JUMPI PUSH2 0x9F3 PUSH2 0x962 JUMP JUMPDEST PUSH1 0x40 MLOAD PUSH1 0x1F DUP3 ADD PUSH1 0x1F NOT SWAP1 DUP2 AND PUSH1 0x3F ADD AND DUP2 ADD SWAP1 DUP4 DUP3 GT DUP2 DUP4 LT OR ISZERO PUSH2 0xA1B JUMPI PUSH2 0xA1B PUSH2 0x962 JUMP JUMPDEST DUP2 PUSH1 0x40 MSTORE DUP3 DUP2 MSTORE DUP13 PUSH1 0x20 DUP5 DUP8 ADD ADD GT ISZERO PUSH2 0xA33 JUMPI PUSH0 DUP1 REVERT JUMPDEST DUP3 PUSH1 0x20 DUP7 ADD PUSH1 0x20 DUP4 ADD CALLDATACOPY PUSH0 PUSH1 0x20 DUP5 DUP4 ADD ADD MSTORE DUP1 SWAP6 POP POP POP POP POP POP SWAP3 SWAP6 POP SWAP3 SWAP6 POP SWAP3 SWAP6 JUMP JUMPDEST PUSH0 DUP1 PUSH1 0x40 DUP4 DUP6 SUB SLT ISZERO PUSH2 0xA68 JUMPI PUSH0 DUP1 REVERT JUMPDEST DUP3 MLOAD DUP1 ISZERO ISZERO DUP2 EQ PUSH2 0xA77 JUMPI PUSH0 DUP1 REVERT JUMPDEST PUSH1 0x20 DUP5 ADD MLOAD SWAP1 SWAP3 POP PUSH2 0xA88 DUP2 PUSH2 0x86F JUMP JUMPDEST DUP1 SWAP2 POP POP SWAP3 POP SWAP3 SWAP1 POP JUMP JUMPDEST PUSH4 0x4E487B71 PUSH1 0xE0 SHL PUSH0 MSTORE PUSH1 0x32 PUSH1 0x4 MSTORE PUSH1 0x24 PUSH0 REVERT JUMPDEST PUSH0 PUSH1 0x20 DUP3 DUP5 SUB SLT ISZERO PUSH2 0xAB7 JUMPI PUSH0 DUP1 REVERT JUMPDEST DUP2 CALLDATALOAD PUSH2 0xAC2 DUP2 PUSH2 0x86F JUMP JUMPDEST SWAP4 SWAP3 POP POP POP JUMP JUMPDEST PUSH0 PUSH1 0x20 DUP3 DUP5 SUB SLT ISZERO PUSH2 0xAD9 JUMPI PUSH0 DUP1 REVERT JUMPDEST POP MLOAD SWAP2 SWAP1 POP JUMP JUMPDEST DUP6 DUP2 MSTORE PUSH0 PUSH1 0x20 DUP7 PUSH1 0x20 DUP5 ADD MSTORE DUP6 PUSH1 0x40 DUP5 ADD MSTORE DUP5 PUSH1 0x60 DUP5 ADD MSTORE PUSH1 0xA0 PUSH1 0x80 DUP5 ADD MSTORE DUP4 MLOAD DUP1 PUSH1 0xA0 DUP6 ADD MSTORE PUSH0 JUMPDEST DUP2 DUP2 LT ISZERO PUSH2 0xB25 JUMPI DUP6 DUP2 ADD DUP4 ADD MLOAD DUP6 DUP3 ADD PUSH1 0xC0 ADD MSTORE DUP3 ADD PUSH2 0xB09 JUMP JUMPDEST POP PUSH0 PUSH1 0xC0 DUP3 DUP7 ADD ADD MSTORE PUSH1 0xC0 PUSH1 0x1F NOT PUSH1 0x1F DUP4 ADD AND DUP6 ADD ADD SWAP3 POP POP POP SWAP7 SWAP6 POP POP POP POP POP POP JUMP INVALID LOG2 PUSH5 0x6970667358 0x22 SLT KECCAK256 CALLDATALOAD 0xC4 JUMP SAR ADDRESS 0xCD MCOPY 0xB2 0xC4 0x25 DUP16 0x25 SELFBALANCE 0xAE 0x23 CALLDATACOPY 0x2E SGT 0xAE EXTCODESIZE 0xC SWAP8 SWAP8 PUSH25 0xD6403A3494D98F1E64736F6C63430008180033000000000000 "},"methodIdentifiers":{"depositToPool(address,uint256)":"2f6d58dc","factory()":"c45a0155","getPoolBalances(address[])":"6fb5e427","hasActivePools(address[])":"331d71d1","withdrawFromPool(address,uint256,uint256,uint256,bytes32,bytes)":"b04e46b5"}}}}}