{"contracts/TokenPool.sol":{"TokenPool":{"abi":[{"inputs":[{"internalType":"bytes32","name":"_publicKey","type":"bytes32"},{"internalType":"address","name":"_token","type":"address"},{"internalType":"address","name":"_factory","type":"address"},{"internalType":"address","name":"_platformWallet","type":"address"}],"stateMutability":"nonpayable","type":"constructor"},{"inputs":[],"name":"ECDSAInvalidSignature","type":"error"},{"inputs":[{"internalType":"uint256","name":"length","type":"uint256"}],"name":"ECDSAInvalidSignatureLength","type":"error"},{"inputs":[{"internalType":"bytes32","name":"s","type":"bytes32"}],"name":"ECDSAInvalidSignatureS","type":"error"},{"inputs":[],"name":"EnforcedPause","type":"error"},{"inputs":[],"name":"ExpectedPause","type":"error"},{"inputs":[],"name":"FeeTooHigh","type":"error"},{"inputs":[],"name":"InsufficientBalance","type":"error"},{"inputs":[],"name":"InsufficientShares","type":"error"},{"inputs":[],"name":"InvalidAmount","type":"error"},{"inputs":[],"name":"InvalidNonce","type":"error"},{"inputs":[],"name":"InvalidSignature","type":"error"},{"inputs":[],"name":"NotAuthorized","type":"error"},{"inputs":[{"internalType":"address","name":"owner","type":"address"}],"name":"OwnableInvalidOwner","type":"error"},{"inputs":[{"internalType":"address","name":"account","type":"address"}],"name":"OwnableUnauthorizedAccount","type":"error"},{"inputs":[],"name":"ReentrancyGuardReentrantCall","type":"error"},{"inputs":[{"internalType":"address","name":"token","type":"address"}],"name":"SafeERC20FailedOperation","type":"error"},{"inputs":[],"name":"SignatureExpired","type":"error"},{"inputs":[],"name":"SignatureUsed","type":"error"},{"anonymous":false,"inputs":[{"indexed":true,"internalType":"address","name":"user","type":"address"},{"indexed":false,"internalType":"uint256","name":"amount","type":"uint256"},{"indexed":false,"internalType":"uint256","name":"netAmount","type":"uint256"},{"indexed":false,"internalType":"uint256","name":"timestamp","type":"uint256"}],"name":"Deposit","type":"event"},{"anonymous":false,"inputs":[{"indexed":true,"internalType":"address","name":"user","type":"address"},{"indexed":false,"internalType":"uint256","name":"betAmount","type":"uint256"},{"indexed":false,"internalType":"uint256","name":"winAmount","type":"uint256"},{"indexed":false,"internalType":"uint256","name":"houseFee","type":"uint256"},{"indexed":false,"internalType":"uint256","name":"timestamp","type":"uint256"}],"name":"GameResult","type":"event"},{"anonymous":false,"inputs":[{"indexed":true,"internalType":"address","name":"provider","type":"address"},{"indexed":false,"internalType":"uint256","name":"amount","type":"uint256"},{"indexed":false,"internalType":"uint256","name":"shares","type":"uint256"},{"indexed":false,"internalType":"uint256","name":"timestamp","type":"uint256"}],"name":"LiquidityAdded","type":"event"},{"anonymous":false,"inputs":[{"indexed":true,"internalType":"address","name":"provider","type":"address"},{"indexed":false,"internalType":"uint256","name":"amount","type":"uint256"},{"indexed":false,"internalType":"uint256","name":"shares","type":"uint256"},{"indexed":false,"internalType":"uint256","name":"timestamp","type":"uint256"}],"name":"LiquidityRemoved","type":"event"},{"anonymous":false,"inputs":[{"indexed":true,"internalType":"address","name":"previousOwner","type":"address"},{"indexed":true,"internalType":"address","name":"newOwner","type":"address"}],"name":"OwnershipTransferred","type":"event"},{"anonymous":false,"inputs":[{"indexed":false,"internalType":"address","name":"account","type":"address"}],"name":"Paused","type":"event"},{"anonymous":false,"inputs":[{"indexed":false,"internalType":"uint256","name":"oldFee","type":"uint256"},{"indexed":false,"internalType":"uint256","name":"newFee","type":"uint256"}],"name":"PlatformFeeUpdated","type":"event"},{"anonymous":false,"inputs":[{"indexed":true,"internalType":"address","name":"provider","type":"address"},{"indexed":false,"internalType":"uint256","name":"amount","type":"uint256"},{"indexed":false,"internalType":"uint256","name":"timestamp","type":"uint256"}],"name":"RewardsClaimed","type":"event"},{"anonymous":false,"inputs":[{"indexed":false,"internalType":"address","name":"account","type":"address"}],"name":"Unpaused","type":"event"},{"anonymous":false,"inputs":[{"indexed":true,"internalType":"address","name":"user","type":"address"},{"indexed":false,"internalType":"uint256","name":"amount","type":"uint256"},{"indexed":false,"internalType":"uint256","name":"netAmount","type":"uint256"},{"indexed":false,"internalType":"uint256","name":"timestamp","type":"uint256"}],"name":"Withdrawal","type":"event"},{"inputs":[],"name":"accRewardPerShare","outputs":[{"internalType":"uint256","name":"","type":"uint256"}],"stateMutability":"view","type":"function"},{"inputs":[],"name":"accumulatedFees","outputs":[{"internalType":"uint256","name":"","type":"uint256"}],"stateMutability":"view","type":"function"},{"inputs":[{"internalType":"uint256","name":"amount","type":"uint256"}],"name":"addLiquidity","outputs":[],"stateMutability":"nonpayable","type":"function"},{"inputs":[],"name":"claimRewards","outputs":[],"stateMutability":"nonpayable","type":"function"},{"inputs":[{"internalType":"uint256","name":"amount","type":"uint256"}],"name":"deposit","outputs":[],"stateMutability":"nonpayable","type":"function"},{"inputs":[],"name":"emergencyWithdraw","outputs":[],"stateMutability":"nonpayable","type":"function"},{"inputs":[],"name":"factory","outputs":[{"internalType":"contract CasinoFactory","name":"","type":"address"}],"stateMutability":"view","type":"function"},{"inputs":[],"name":"gameFee","outputs":[{"internalType":"uint256","name":"","type":"uint256"}],"stateMutability":"view","type":"function"},{"inputs":[{"internalType":"address","name":"provider","type":"address"}],"name":"getPendingRewards","outputs":[{"internalType":"uint256","name":"","type":"uint256"}],"stateMutability":"view","type":"function"},{"inputs":[],"name":"getPoolBalance","outputs":[{"internalType":"uint256","name":"","type":"uint256"}],"stateMutability":"view","type":"function"},{"inputs":[{"internalType":"address","name":"","type":"address"}],"name":"lastNonce","outputs":[{"internalType":"uint256","name":"","type":"uint256"}],"stateMutability":"view","type":"function"},{"inputs":[],"name":"owner","outputs":[{"internalType":"address","name":"","type":"address"}],"stateMutability":"view","type":"function"},{"inputs":[],"name":"paused","outputs":[{"internalType":"bool","name":"","type":"bool"}],"stateMutability":"view","type":"function"},{"inputs":[],"name":"platformFee","outputs":[{"internalType":"uint256","name":"","type":"uint256"}],"stateMutability":"view","type":"function"},{"inputs":[],"name":"platformWallet","outputs":[{"internalType":"address","name":"","type":"address"}],"stateMutability":"view","type":"function"},{"inputs":[{"internalType":"address","name":"user","type":"address"},{"internalType":"uint256","name":"betAmount","type":"uint256"},{"internalType":"uint256","name":"winAmount","type":"uint256"}],"name":"processGameResult","outputs":[],"stateMutability":"nonpayable","type":"function"},{"inputs":[],"name":"publicKey","outputs":[{"internalType":"bytes32","name":"","type":"bytes32"}],"stateMutability":"view","type":"function"},{"inputs":[{"internalType":"uint256","name":"shareAmount","type":"uint256"}],"name":"removeLiquidity","outputs":[],"stateMutability":"nonpayable","type":"function"},{"inputs":[],"name":"renounceOwnership","outputs":[],"stateMutability":"nonpayable","type":"function"},{"inputs":[{"internalType":"address","name":"","type":"address"}],"name":"rewardDebt","outputs":[{"internalType":"uint256","name":"","type":"uint256"}],"stateMutability":"view","type":"function"},{"inputs":[{"internalType":"uint256","name":"newFee","type":"uint256"}],"name":"setPlatformFee","outputs":[],"stateMutability":"nonpayable","type":"function"},{"inputs":[{"internalType":"address","name":"","type":"address"}],"name":"shares","outputs":[{"internalType":"uint256","name":"","type":"uint256"}],"stateMutability":"view","type":"function"},{"inputs":[],"name":"token","outputs":[{"internalType":"contract IERC20","name":"","type":"address"}],"stateMutability":"view","type":"function"},{"inputs":[],"name":"totalDeposits","outputs":[{"internalType":"uint256","name":"","type":"uint256"}],"stateMutability":"view","type":"function"},{"inputs":[],"name":"totalShares","outputs":[{"internalType":"uint256","name":"","type":"uint256"}],"stateMutability":"view","type":"function"},{"inputs":[{"internalType":"address","name":"newOwner","type":"address"}],"name":"transferOwnership","outputs":[],"stateMutability":"nonpayable","type":"function"},{"inputs":[{"internalType":"bytes32","name":"","type":"bytes32"}],"name":"usedSignatures","outputs":[{"internalType":"bool","name":"","type":"bool"}],"stateMutability":"view","type":"function"},{"inputs":[{"internalType":"uint256","name":"amount","type":"uint256"},{"internalType":"uint256","name":"nonce","type":"uint256"},{"internalType":"uint256","name":"timestamp","type":"uint256"},{"internalType":"bytes32","name":"messageHash","type":"bytes32"},{"internalType":"bytes","name":"signature","type":"bytes"}],"name":"withdraw","outputs":[],"stateMutability":"nonpayable","type":"function"}],"evm":{"bytecode":{"linkReferences":{},"object":"60a060405234801562000010575f80fd5b50604051620019fc380380620019fc833981016040819052620000339162000243565b5f805460ff19169055816001600160a01b0381166200006c57604051631e4fbdf760e01b81525f60048201526024015b60405180910390fd5b620000778162000156565b50600180556001600160a01b038316620000a45760405163162908e360e11b815260040160405180910390fd5b6001600160a01b038216620000cc5760405163162908e360e11b815260040160405180910390fd5b6001600160a01b038116620000f45760405163162908e360e11b815260040160405180910390fd5b6080849052600480546001600160a01b038086166001600160a01b0319928316179092556005805485841690831617905560068054928416929091169190911790556101f460028190556003556200014c82620001ae565b5050505062000294565b5f80546001600160a01b03838116610100818102610100600160a81b0319851617855560405193049190911692909183917f8be0079c531659141344cd1fd0a4f28419497f9722a3daafe3b4186f6b6457e091a35050565b620001b8620001f1565b6001600160a01b038116620001e357604051631e4fbdf760e01b81525f600482015260240162000063565b620001ee8162000156565b50565b5f546001600160a01b03610100909104163314620002255760405163118cdaa760e01b815233600482015260240162000063565b565b80516001600160a01b03811681146200023e575f80fd5b919050565b5f805f806080858703121562000257575f80fd5b84519350620002696020860162000227565b9250620002796040860162000227565b9150620002896060860162000227565b905092959194509250565b60805161174f620002ad5f395f61026a015261174f5ff3fe608060405234801561000f575f80fd5b50600436106101bb575f3560e01c8063939d6237116100f3578063db2e21bc11610093578063f6ed20171161006e578063f6ed201714610385578063f978fd6114610398578063fa2af9da146103ba578063fc0c546a146103cd575f80fd5b8063db2e21bc14610361578063ea777eec14610369578063f2fde38b14610372575f80fd5b8063b6b55f25116100ce578063b6b55f25146102fd578063c0fd43b414610310578063c45a01551461032f578063ce7c2ac214610342575f80fd5b8063939d6237146102d95780639c8f9f23146102e2578063abd70aa2146102f5575f80fd5b8063587f5ed71161015e578063715018a611610139578063715018a61461028c5780637d882097146102945780638da5cb5b1461029d57806392b51e25146102c6575f80fd5b8063587f5ed7146102465780635c975abb1461024f57806363ffab3114610265575f80fd5b8063372500ab11610199578063372500ab146102035780633a98ef391461020b57806351c6590a146102145780635873eb9b14610227575f80fd5b806312e8e2c3146101bf57806326232a2e146101d45780632bba99c2146101f0575b5f80fd5b6101d26101cd3660046114e8565b6103e0565b005b6101dd60025481565b6040519081526020015b60405180910390f35b6101d26101fe366004611513565b610450565b6101d2610707565b6101dd60085481565b6101d26102223660046114e8565b610723565b6101dd610235366004611545565b600b6020525f908152604090205481565b6101dd60095481565b5f5460ff165b60405190151581526020016101e7565b6101dd7f000000000000000000000000000000000000000000000000000000000000000081565b6101d261086f565b6101dd60075481565b5f5461010090046001600160a01b03165b6040516001600160a01b0390911681526020016101e7565b6101d26102d4366004611574565b610880565b6101dd600c5481565b6101d26102f03660046114e8565b610c0a565b6007546101dd565b6101d261030b3660046114e8565b610d72565b6101dd61031e366004611545565b600d6020525f908152604090205481565b6005546102ae906001600160a01b031681565b6101dd610350366004611545565b600a6020525f908152604090205481565b6101d2610e6c565b6101dd60035481565b6101d2610380366004611545565b610f26565b6101dd610393366004611545565b610f65565b6102556103a63660046114e8565b600e6020525f908152604090205460ff1681565b6006546102ae906001600160a01b031681565b6004546102ae906001600160a01b031681565b6103e8610fd3565b6103e881111561040b5760405163cd4e616760e01b815260040160405180910390fd5b600280549082905560408051828152602081018490527fd347e206f25a89b917fc9482f1a2d294d749baa4dc9bde7fb495ee11fe491643910160405180910390a15050565b60055460405163027cf93b60e31b81523360048201526001600160a01b03909116906313e7c9d890602401602060405180830381865afa158015610496573d5f803e3d5ffd5b505050506040513d601f19601f820116820180604052508101906104ba9190611644565b15801561054c575060055f9054906101000a90046001600160a01b03166001600160a01b0316638da5cb5b6040518163ffffffff1660e01b8152600401602060405180830381865afa158015610512573d5f803e3d5ffd5b505050506040513d601f19601f820116820180604052508101906105369190611663565b6001600160a01b0316336001600160a01b031614155b1561056a5760405163ea8e4eb560e01b815260040160405180910390fd5b801561069a575f612710600354836105829190611692565b61058c91906116a9565b90505f61059982846116c8565b90508160095f8282546105ac91906116db565b9091555050600854156105eb576008546105cb8364e8d4a51000611692565b6105d591906116a9565b600c5f8282546105e591906116db565b90915550505b60075481111561060e57604051631e9acf1760e31b815260040160405180910390fd5b600454610625906001600160a01b03168683611005565b818360075461063491906116c8565b61063e91906116db565b60075560408051858152602081018590529081018390524260608201526001600160a01b038616907fe1e22663cd8791964c0fe0c536a5b296f73b419c63e18fcba51728f9270d90a29060800160405180910390a25050505050565b8160075f8282546106ab91906116db565b9091555050604080518381525f60208201529081018390524260608201526001600160a01b038416907fe1e22663cd8791964c0fe0c536a5b296f73b419c63e18fcba51728f9270d90a29060800160405180910390a25b505050565b61070f611064565b6107183361108e565b61072160018055565b565b61072b611064565b6107336111a9565b805f036107535760405163162908e360e11b815260040160405180910390fd5b5f6008545f03610764575080610781565b6007546008546107749084611692565b61077e91906116a9565b90505b64e8d4a51000600c54826107959190611692565b61079f91906116a9565b335f818152600b60205260409020919091556004546107cb916001600160a01b039091169030856111cc565b8160075f8282546107dc91906116db565b925050819055508060085f8282546107f491906116db565b9091555050335f908152600a6020526040812080548392906108179084906116db565b90915550506040805183815260208101839052429181019190915233907f64b83944e79c3ce8d4c297411de637c3e102d064677aac0c163976ebdcd6f50e906060015b60405180910390a25061086c60018055565b50565b610877610fd3565b6107215f61120b565b610888611064565b6108906111a9565b845f036108b05760405163162908e360e11b815260040160405180910390fd5b6007548511156108d357604051631e9acf1760e31b815260040160405180910390fd5b335f908152600d6020526040902054841161090157604051633ab3447f60e11b815260040160405180910390fd5b61090d8361012c6116db565b42111561092d57604051630819bdcd60e01b815260040160405180910390fd5b5f610a2b3387878760055f9054906101000a90046001600160a01b03166001600160a01b03166363ffab316040518163ffffffff1660e01b8152600401602060405180830381865afa158015610985573d5f803e3d5ffd5b505050506040513d601f19601f820116820180604052508101906109a991906116ee565b60405160609590951b6bffffffffffffffffffffffff19166020860152603485019390935260548401919091526074830152609482015260b401604051602081830303815290604052805190602001207f19457468657265756d205369676e6564204d6573736167653a0a3332000000005f908152601c91909152603c902090565b9050828114610a4d57604051638baa579f60e01b815260040160405180910390fd5b5f610a588484611263565b60055460405163027cf93b60e31b81526001600160a01b0380841660048301529293509116906313e7c9d890602401602060405180830381865afa158015610aa2573d5f803e3d5ffd5b505050506040513d601f19601f82011682018060405250810190610ac69190611644565b610ae357604051638baa579f60e01b815260040160405180910390fd5b5f848152600e602052604090205460ff1615610b1257604051630d75493360e01b815260040160405180910390fd5b5f848152600e60209081526040808320805460ff19166001179055338352600d909152812087905560025461271090610b4b908a611692565b610b5591906116a9565b90505f610b62828a6116c8565b90508860075f828254610b7591906116c8565b90915550508115610b9d57600654600454610b9d916001600160a01b03918216911684611005565b600454610bb4906001600160a01b03163383611005565b604080518a8152602081018390524281830152905133917f650fdf669e93aa6c8ff3defe2da9c12b64f1548e5e1e54e803f4c1beb6466c8e919081900360600190a250505050610c0360018055565b5050505050565b610c12611064565b805f03610c325760405163162908e360e11b815260040160405180910390fd5b335f908152600a6020526040902054811115610c6157604051633999656760e01b815260040160405180910390fd5b610c6a3361108e565b5f60085460075483610c7c9190611692565b610c8691906116a9565b90508060075f828254610c9991906116c8565b925050819055508160085f828254610cb191906116c8565b9091555050335f908152600a602052604081208054849290610cd49084906116c8565b9091555050600c54335f908152600a602052604090205464e8d4a5100091610cfb91611692565b610d0591906116a9565b335f818152600b6020526040902091909155600454610d30916001600160a01b039091169083611005565b6040805182815260208101849052429181019190915233907f1dc8bb69df2b8e91fbdcbfcf93d951b3f0000f085a95fe3f7946d6161439245d9060600161085a565b610d7a611064565b610d826111a9565b805f03610da25760405163162908e360e11b815260040160405180910390fd5b5f61271060025483610db49190611692565b610dbe91906116a9565b90505f610dcb82846116c8565b600454909150610de6906001600160a01b03163330866111cc565b8115610e0957600654600454610e09916001600160a01b03918216911684611005565b8060075f828254610e1a91906116db565b909155505060408051848152602081018390524281830152905133917f36af321ec8d3c75236829c5317affd40ddb308863a1236d2d277a4025cccee1e919081900360600190a2505061086c60018055565b610e74610fd3565b610e7c61128d565b600480546040516370a0823160e01b815230928101929092525f916001600160a01b03909116906370a0823190602401602060405180830381865afa158015610ec7573d5f803e3d5ffd5b505050506040513d601f19601f82011682018060405250810190610eeb91906116ee565b90508015610f1057600654600454610f10916001600160a01b03918216911683611005565b505f600781905560088190556009819055600c55565b610f2e610fd3565b6001600160a01b038116610f5c57604051631e4fbdf760e01b81525f60048201526024015b60405180910390fd5b61086c8161120b565b6001600160a01b0381165f908152600a6020526040812054808203610f8c57505f92915050565b6001600160a01b0383165f908152600b6020526040902054600c5464e8d4a5100090610fb89084611692565b610fc291906116a9565b610fcc91906116c8565b9392505050565b5f546001600160a01b036101009091041633146107215760405163118cdaa760e01b8152336004820152602401610f53565b6040516001600160a01b0383811660248301526044820183905261070291859182169063a9059cbb906064015b604051602081830303815290604052915060e01b6020820180516001600160e01b0383818316178352505050506112af565b60026001540361108757604051633ee5aeb560e01b815260040160405180910390fd5b6002600155565b6001600160a01b0381165f908152600a6020526040812054908190036110b2575050565b6001600160a01b0382165f908152600b6020526040812054600c5464e8d4a51000906110de9085611692565b6110e891906116a9565b6110f291906116c8565b9050801561116b578060095f82825461110b91906116c8565b9091555050600454611127906001600160a01b03168483611005565b604080518281524260208201526001600160a01b038516917fdacbdde355ba930696a362ea6738feb9f8bd52dfb3d81947558fd3217e23e325910160405180910390a25b64e8d4a51000600c548361117f9190611692565b61118991906116a9565b6001600160a01b039093165f908152600b60205260409020929092555050565b5f5460ff16156107215760405163d93c066560e01b815260040160405180910390fd5b6040516001600160a01b0384811660248301528381166044830152606482018390526112059186918216906323b872dd90608401611032565b50505050565b5f80546001600160a01b03838116610100818102610100600160a81b0319851617855560405193049190911692909183917f8be0079c531659141344cd1fd0a4f28419497f9722a3daafe3b4186f6b6457e091a35050565b5f805f80611271868661131b565b9250925092506112818282611364565b50909150505b92915050565b5f5460ff1661072157604051638dfc202b60e01b815260040160405180910390fd5b5f8060205f8451602086015f885af1806112ce576040513d5f823e3d81fd5b50505f513d915081156112e55780600114156112f2565b6001600160a01b0384163b155b1561120557604051635274afe760e01b81526001600160a01b0385166004820152602401610f53565b5f805f8351604103611352576020840151604085015160608601515f1a61134488828585611420565b95509550955050505061135d565b505081515f91506002905b9250925092565b5f82600381111561137757611377611705565b03611380575050565b600182600381111561139457611394611705565b036113b25760405163f645eedf60e01b815260040160405180910390fd5b60028260038111156113c6576113c6611705565b036113e75760405163fce698f760e01b815260048101829052602401610f53565b60038260038111156113fb576113fb611705565b0361141c576040516335e2f38360e21b815260048101829052602401610f53565b5050565b5f80807f7fffffffffffffffffffffffffffffff5d576e7357a4501ddfe92f46681b20a084111561145957505f915060039050826114de565b604080515f808252602082018084528a905260ff891692820192909252606081018790526080810186905260019060a0016020604051602081039080840390855afa1580156114aa573d5f803e3d5ffd5b5050604051601f1901519150506001600160a01b0381166114d557505f9250600191508290506114de565b92505f91508190505b9450945094915050565b5f602082840312156114f8575f80fd5b5035919050565b6001600160a01b038116811461086c575f80fd5b5f805f60608486031215611525575f80fd5b8335611530816114ff565b95602085013595506040909401359392505050565b5f60208284031215611555575f80fd5b8135610fcc816114ff565b634e487b7160e01b5f52604160045260245ffd5b5f805f805f60a08688031215611588575f80fd5b85359450602086013593506040860135925060608601359150608086013567ffffffffffffffff808211156115bb575f80fd5b818801915088601f8301126115ce575f80fd5b8135818111156115e0576115e0611560565b604051601f8201601f19908116603f0116810190838211818310171561160857611608611560565b816040528281528b6020848701011115611620575f80fd5b826020860160208301375f6020848301015280955050505050509295509295909350565b5f60208284031215611654575f80fd5b81518015158114610fcc575f80fd5b5f60208284031215611673575f80fd5b8151610fcc816114ff565b634e487b7160e01b5f52601160045260245ffd5b80820281158282048414176112875761128761167e565b5f826116c357634e487b7160e01b5f52601260045260245ffd5b500490565b818103818111156112875761128761167e565b808201808211156112875761128761167e565b5f602082840312156116fe575f80fd5b5051919050565b634e487b7160e01b5f52602160045260245ffdfea26469706673582212202b21312b832edbf94ed101f84479e68c4d453951df29b2bbbc5c2c14aae00cfa64736f6c63430008180033","opcodes":"PUSH1 0xA0 PUSH1 0x40 MSTORE CALLVALUE DUP1 ISZERO PUSH3 0x10 JUMPI PUSH0 DUP1 REVERT JUMPDEST POP PUSH1 0x40 MLOAD PUSH3 0x19FC CODESIZE SUB DUP1 PUSH3 0x19FC DUP4 CODECOPY DUP2 ADD PUSH1 0x40 DUP2 SWAP1 MSTORE PUSH3 0x33 SWAP2 PUSH3 0x243 JUMP JUMPDEST PUSH0 DUP1 SLOAD PUSH1 0xFF NOT AND SWAP1 SSTORE DUP2 PUSH1 0x1 PUSH1 0x1 PUSH1 0xA0 SHL SUB DUP2 AND PUSH3 0x6C JUMPI PUSH1 0x40 MLOAD PUSH4 0x1E4FBDF7 PUSH1 0xE0 SHL DUP2 MSTORE PUSH0 PUSH1 0x4 DUP3 ADD MSTORE PUSH1 0x24 ADD JUMPDEST PUSH1 0x40 MLOAD DUP1 SWAP2 SUB SWAP1 REVERT JUMPDEST PUSH3 0x77 DUP2 PUSH3 0x156 JUMP JUMPDEST POP PUSH1 0x1 DUP1 SSTORE PUSH1 0x1 PUSH1 0x1 PUSH1 0xA0 SHL SUB DUP4 AND PUSH3 0xA4 JUMPI PUSH1 0x40 MLOAD PUSH4 0x162908E3 PUSH1 0xE1 SHL DUP2 MSTORE PUSH1 0x4 ADD PUSH1 0x40 MLOAD DUP1 SWAP2 SUB SWAP1 REVERT JUMPDEST PUSH1 0x1 PUSH1 0x1 PUSH1 0xA0 SHL SUB DUP3 AND PUSH3 0xCC JUMPI PUSH1 0x40 MLOAD PUSH4 0x162908E3 PUSH1 0xE1 SHL DUP2 MSTORE PUSH1 0x4 ADD PUSH1 0x40 MLOAD DUP1 SWAP2 SUB SWAP1 REVERT JUMPDEST PUSH1 0x1 PUSH1 0x1 PUSH1 0xA0 SHL SUB DUP2 AND PUSH3 0xF4 JUMPI PUSH1 0x40 MLOAD PUSH4 0x162908E3 PUSH1 0xE1 SHL DUP2 MSTORE PUSH1 0x4 ADD PUSH1 0x40 MLOAD DUP1 SWAP2 SUB SWAP1 REVERT JUMPDEST PUSH1 0x80 DUP5 SWAP1 MSTORE PUSH1 0x4 DUP1 SLOAD PUSH1 0x1 PUSH1 0x1 PUSH1 0xA0 SHL SUB DUP1 DUP7 AND PUSH1 0x1 PUSH1 0x1 PUSH1 0xA0 SHL SUB NOT SWAP3 DUP4 AND OR SWAP1 SWAP3 SSTORE PUSH1 0x5 DUP1 SLOAD DUP6 DUP5 AND SWAP1 DUP4 AND OR SWAP1 SSTORE PUSH1 0x6 DUP1 SLOAD SWAP3 DUP5 AND SWAP3 SWAP1 SWAP2 AND SWAP2 SWAP1 SWAP2 OR SWAP1 SSTORE PUSH2 0x1F4 PUSH1 0x2 DUP2 SWAP1 SSTORE PUSH1 0x3 SSTORE PUSH3 0x14C DUP3 PUSH3 0x1AE JUMP JUMPDEST POP POP POP POP PUSH3 0x294 JUMP JUMPDEST PUSH0 DUP1 SLOAD PUSH1 0x1 PUSH1 0x1 PUSH1 0xA0 SHL SUB DUP4 DUP2 AND PUSH2 0x100 DUP2 DUP2 MUL PUSH2 0x100 PUSH1 0x1 PUSH1 0xA8 SHL SUB NOT DUP6 AND OR DUP6 SSTORE PUSH1 0x40 MLOAD SWAP4 DIV SWAP2 SWAP1 SWAP2 AND SWAP3 SWAP1 SWAP2 DUP4 SWAP2 PUSH32 0x8BE0079C531659141344CD1FD0A4F28419497F9722A3DAAFE3B4186F6B6457E0 SWAP2 LOG3 POP POP JUMP JUMPDEST PUSH3 0x1B8 PUSH3 0x1F1 JUMP JUMPDEST PUSH1 0x1 PUSH1 0x1 PUSH1 0xA0 SHL SUB DUP2 AND PUSH3 0x1E3 JUMPI PUSH1 0x40 MLOAD PUSH4 0x1E4FBDF7 PUSH1 0xE0 SHL DUP2 MSTORE PUSH0 PUSH1 0x4 DUP3 ADD MSTORE PUSH1 0x24 ADD PUSH3 0x63 JUMP JUMPDEST PUSH3 0x1EE DUP2 PUSH3 0x156 JUMP JUMPDEST POP JUMP JUMPDEST PUSH0 SLOAD PUSH1 0x1 PUSH1 0x1 PUSH1 0xA0 SHL SUB PUSH2 0x100 SWAP1 SWAP2 DIV AND CALLER EQ PUSH3 0x225 JUMPI PUSH1 0x40 MLOAD PUSH4 0x118CDAA7 PUSH1 0xE0 SHL DUP2 MSTORE CALLER PUSH1 0x4 DUP3 ADD MSTORE PUSH1 0x24 ADD PUSH3 0x63 JUMP JUMPDEST JUMP JUMPDEST DUP1 MLOAD PUSH1 0x1 PUSH1 0x1 PUSH1 0xA0 SHL SUB DUP2 AND DUP2 EQ PUSH3 0x23E JUMPI PUSH0 DUP1 REVERT JUMPDEST SWAP2 SWAP1 POP JUMP JUMPDEST PUSH0 DUP1 PUSH0 DUP1 PUSH1 0x80 DUP6 DUP8 SUB SLT ISZERO PUSH3 0x257 JUMPI PUSH0 DUP1 REVERT JUMPDEST DUP5 MLOAD SWAP4 POP PUSH3 0x269 PUSH1 0x20 DUP7 ADD PUSH3 0x227 JUMP JUMPDEST SWAP3 POP PUSH3 0x279 PUSH1 0x40 DUP7 ADD PUSH3 0x227 JUMP JUMPDEST SWAP2 POP PUSH3 0x289 PUSH1 0x60 DUP7 ADD PUSH3 0x227 JUMP JUMPDEST SWAP1 POP SWAP3 SWAP6 SWAP2 SWAP5 POP SWAP3 POP JUMP JUMPDEST PUSH1 0x80 MLOAD PUSH2 0x174F PUSH3 0x2AD PUSH0 CODECOPY PUSH0 PUSH2 0x26A ADD MSTORE PUSH2 0x174F PUSH0 RETURN INVALID PUSH1 0x80 PUSH1 0x40 MSTORE CALLVALUE DUP1 ISZERO PUSH2 0xF JUMPI PUSH0 DUP1 REVERT JUMPDEST POP PUSH1 0x4 CALLDATASIZE LT PUSH2 0x1BB JUMPI PUSH0 CALLDATALOAD PUSH1 0xE0 SHR DUP1 PUSH4 0x939D6237 GT PUSH2 0xF3 JUMPI DUP1 PUSH4 0xDB2E21BC GT PUSH2 0x93 JUMPI DUP1 PUSH4 0xF6ED2017 GT PUSH2 0x6E JUMPI DUP1 PUSH4 0xF6ED2017 EQ PUSH2 0x385 JUMPI DUP1 PUSH4 0xF978FD61 EQ PUSH2 0x398 JUMPI DUP1 PUSH4 0xFA2AF9DA EQ PUSH2 0x3BA JUMPI DUP1 PUSH4 0xFC0C546A EQ PUSH2 0x3CD JUMPI PUSH0 DUP1 REVERT JUMPDEST DUP1 PUSH4 0xDB2E21BC EQ PUSH2 0x361 JUMPI DUP1 PUSH4 0xEA777EEC EQ PUSH2 0x369 JUMPI DUP1 PUSH4 0xF2FDE38B EQ PUSH2 0x372 JUMPI PUSH0 DUP1 REVERT JUMPDEST DUP1 PUSH4 0xB6B55F25 GT PUSH2 0xCE JUMPI DUP1 PUSH4 0xB6B55F25 EQ PUSH2 0x2FD JUMPI DUP1 PUSH4 0xC0FD43B4 EQ PUSH2 0x310 JUMPI DUP1 PUSH4 0xC45A0155 EQ PUSH2 0x32F JUMPI DUP1 PUSH4 0xCE7C2AC2 EQ PUSH2 0x342 JUMPI PUSH0 DUP1 REVERT JUMPDEST DUP1 PUSH4 0x939D6237 EQ PUSH2 0x2D9 JUMPI DUP1 PUSH4 0x9C8F9F23 EQ PUSH2 0x2E2 JUMPI DUP1 PUSH4 0xABD70AA2 EQ PUSH2 0x2F5 JUMPI PUSH0 DUP1 REVERT JUMPDEST DUP1 PUSH4 0x587F5ED7 GT PUSH2 0x15E JUMPI DUP1 PUSH4 0x715018A6 GT PUSH2 0x139 JUMPI DUP1 PUSH4 0x715018A6 EQ PUSH2 0x28C JUMPI DUP1 PUSH4 0x7D882097 EQ PUSH2 0x294 JUMPI DUP1 PUSH4 0x8DA5CB5B EQ PUSH2 0x29D JUMPI DUP1 PUSH4 0x92B51E25 EQ PUSH2 0x2C6 JUMPI PUSH0 DUP1 REVERT JUMPDEST DUP1 PUSH4 0x587F5ED7 EQ PUSH2 0x246 JUMPI DUP1 PUSH4 0x5C975ABB EQ PUSH2 0x24F JUMPI DUP1 PUSH4 0x63FFAB31 EQ PUSH2 0x265 JUMPI PUSH0 DUP1 REVERT JUMPDEST DUP1 PUSH4 0x372500AB GT PUSH2 0x199 JUMPI DUP1 PUSH4 0x372500AB EQ PUSH2 0x203 JUMPI DUP1 PUSH4 0x3A98EF39 EQ PUSH2 0x20B JUMPI DUP1 PUSH4 0x51C6590A EQ PUSH2 0x214 JUMPI DUP1 PUSH4 0x5873EB9B EQ PUSH2 0x227 JUMPI PUSH0 DUP1 REVERT JUMPDEST DUP1 PUSH4 0x12E8E2C3 EQ PUSH2 0x1BF JUMPI DUP1 PUSH4 0x26232A2E EQ PUSH2 0x1D4 JUMPI DUP1 PUSH4 0x2BBA99C2 EQ PUSH2 0x1F0 JUMPI JUMPDEST PUSH0 DUP1 REVERT JUMPDEST PUSH2 0x1D2 PUSH2 0x1CD CALLDATASIZE PUSH1 0x4 PUSH2 0x14E8 JUMP JUMPDEST PUSH2 0x3E0 JUMP JUMPDEST STOP JUMPDEST PUSH2 0x1DD PUSH1 0x2 SLOAD DUP2 JUMP JUMPDEST PUSH1 0x40 MLOAD SWAP1 DUP2 MSTORE PUSH1 0x20 ADD JUMPDEST PUSH1 0x40 MLOAD DUP1 SWAP2 SUB SWAP1 RETURN JUMPDEST PUSH2 0x1D2 PUSH2 0x1FE CALLDATASIZE PUSH1 0x4 PUSH2 0x1513 JUMP JUMPDEST PUSH2 0x450 JUMP JUMPDEST PUSH2 0x1D2 PUSH2 0x707 JUMP JUMPDEST PUSH2 0x1DD PUSH1 0x8 SLOAD DUP2 JUMP JUMPDEST PUSH2 0x1D2 PUSH2 0x222 CALLDATASIZE PUSH1 0x4 PUSH2 0x14E8 JUMP JUMPDEST PUSH2 0x723 JUMP JUMPDEST PUSH2 0x1DD PUSH2 0x235 CALLDATASIZE PUSH1 0x4 PUSH2 0x1545 JUMP JUMPDEST PUSH1 0xB PUSH1 0x20 MSTORE PUSH0 SWAP1 DUP2 MSTORE PUSH1 0x40 SWAP1 KECCAK256 SLOAD DUP2 JUMP JUMPDEST PUSH2 0x1DD PUSH1 0x9 SLOAD DUP2 JUMP JUMPDEST PUSH0 SLOAD PUSH1 0xFF AND JUMPDEST PUSH1 0x40 MLOAD SWAP1 ISZERO ISZERO DUP2 MSTORE PUSH1 0x20 ADD PUSH2 0x1E7 JUMP JUMPDEST PUSH2 0x1DD PUSH32 0x0 DUP2 JUMP JUMPDEST PUSH2 0x1D2 PUSH2 0x86F JUMP JUMPDEST PUSH2 0x1DD PUSH1 0x7 SLOAD DUP2 JUMP JUMPDEST PUSH0 SLOAD PUSH2 0x100 SWAP1 DIV PUSH1 0x1 PUSH1 0x1 PUSH1 0xA0 SHL SUB AND JUMPDEST PUSH1 0x40 MLOAD PUSH1 0x1 PUSH1 0x1 PUSH1 0xA0 SHL SUB SWAP1 SWAP2 AND DUP2 MSTORE PUSH1 0x20 ADD PUSH2 0x1E7 JUMP JUMPDEST PUSH2 0x1D2 PUSH2 0x2D4 CALLDATASIZE PUSH1 0x4 PUSH2 0x1574 JUMP JUMPDEST PUSH2 0x880 JUMP JUMPDEST PUSH2 0x1DD PUSH1 0xC SLOAD DUP2 JUMP JUMPDEST PUSH2 0x1D2 PUSH2 0x2F0 CALLDATASIZE PUSH1 0x4 PUSH2 0x14E8 JUMP JUMPDEST PUSH2 0xC0A JUMP JUMPDEST PUSH1 0x7 SLOAD PUSH2 0x1DD JUMP JUMPDEST PUSH2 0x1D2 PUSH2 0x30B CALLDATASIZE PUSH1 0x4 PUSH2 0x14E8 JUMP JUMPDEST PUSH2 0xD72 JUMP JUMPDEST PUSH2 0x1DD PUSH2 0x31E CALLDATASIZE PUSH1 0x4 PUSH2 0x1545 JUMP JUMPDEST PUSH1 0xD PUSH1 0x20 MSTORE PUSH0 SWAP1 DUP2 MSTORE PUSH1 0x40 SWAP1 KECCAK256 SLOAD DUP2 JUMP JUMPDEST PUSH1 0x5 SLOAD PUSH2 0x2AE SWAP1 PUSH1 0x1 PUSH1 0x1 PUSH1 0xA0 SHL SUB AND DUP2 JUMP JUMPDEST PUSH2 0x1DD PUSH2 0x350 CALLDATASIZE PUSH1 0x4 PUSH2 0x1545 JUMP JUMPDEST PUSH1 0xA PUSH1 0x20 MSTORE PUSH0 SWAP1 DUP2 MSTORE PUSH1 0x40 SWAP1 KECCAK256 SLOAD DUP2 JUMP JUMPDEST PUSH2 0x1D2 PUSH2 0xE6C JUMP JUMPDEST PUSH2 0x1DD PUSH1 0x3 SLOAD DUP2 JUMP JUMPDEST PUSH2 0x1D2 PUSH2 0x380 CALLDATASIZE PUSH1 0x4 PUSH2 0x1545 JUMP JUMPDEST PUSH2 0xF26 JUMP JUMPDEST PUSH2 0x1DD PUSH2 0x393 CALLDATASIZE PUSH1 0x4 PUSH2 0x1545 JUMP JUMPDEST PUSH2 0xF65 JUMP JUMPDEST PUSH2 0x255 PUSH2 0x3A6 CALLDATASIZE PUSH1 0x4 PUSH2 0x14E8 JUMP JUMPDEST PUSH1 0xE PUSH1 0x20 MSTORE PUSH0 SWAP1 DUP2 MSTORE PUSH1 0x40 SWAP1 KECCAK256 SLOAD PUSH1 0xFF AND DUP2 JUMP JUMPDEST PUSH1 0x6 SLOAD PUSH2 0x2AE SWAP1 PUSH1 0x1 PUSH1 0x1 PUSH1 0xA0 SHL SUB AND DUP2 JUMP JUMPDEST PUSH1 0x4 SLOAD PUSH2 0x2AE SWAP1 PUSH1 0x1 PUSH1 0x1 PUSH1 0xA0 SHL SUB AND DUP2 JUMP JUMPDEST PUSH2 0x3E8 PUSH2 0xFD3 JUMP JUMPDEST PUSH2 0x3E8 DUP2 GT ISZERO PUSH2 0x40B JUMPI PUSH1 0x40 MLOAD PUSH4 0xCD4E6167 PUSH1 0xE0 SHL DUP2 MSTORE PUSH1 0x4 ADD PUSH1 0x40 MLOAD DUP1 SWAP2 SUB SWAP1 REVERT JUMPDEST PUSH1 0x2 DUP1 SLOAD SWAP1 DUP3 SWAP1 SSTORE PUSH1 0x40 DUP1 MLOAD DUP3 DUP2 MSTORE PUSH1 0x20 DUP2 ADD DUP5 SWAP1 MSTORE PUSH32 0xD347E206F25A89B917FC9482F1A2D294D749BAA4DC9BDE7FB495EE11FE491643 SWAP2 ADD PUSH1 0x40 MLOAD DUP1 SWAP2 SUB SWAP1 LOG1 POP POP JUMP JUMPDEST PUSH1 0x5 SLOAD PUSH1 0x40 MLOAD PUSH4 0x27CF93B PUSH1 0xE3 SHL DUP2 MSTORE CALLER PUSH1 0x4 DUP3 ADD MSTORE PUSH1 0x1 PUSH1 0x1 PUSH1 0xA0 SHL SUB SWAP1 SWAP2 AND SWAP1 PUSH4 0x13E7C9D8 SWAP1 PUSH1 0x24 ADD PUSH1 0x20 PUSH1 0x40 MLOAD DUP1 DUP4 SUB DUP2 DUP7 GAS STATICCALL ISZERO DUP1 ISZERO PUSH2 0x496 JUMPI RETURNDATASIZE PUSH0 DUP1 RETURNDATACOPY RETURNDATASIZE PUSH0 REVERT JUMPDEST POP POP POP POP PUSH1 0x40 MLOAD RETURNDATASIZE PUSH1 0x1F NOT PUSH1 0x1F DUP3 ADD AND DUP3 ADD DUP1 PUSH1 0x40 MSTORE POP DUP2 ADD SWAP1 PUSH2 0x4BA SWAP2 SWAP1 PUSH2 0x1644 JUMP JUMPDEST ISZERO DUP1 ISZERO PUSH2 0x54C JUMPI POP PUSH1 0x5 PUSH0 SWAP1 SLOAD SWAP1 PUSH2 0x100 EXP SWAP1 DIV PUSH1 0x1 PUSH1 0x1 PUSH1 0xA0 SHL SUB AND PUSH1 0x1 PUSH1 0x1 PUSH1 0xA0 SHL SUB AND PUSH4 0x8DA5CB5B PUSH1 0x40 MLOAD DUP2 PUSH4 0xFFFFFFFF AND PUSH1 0xE0 SHL DUP2 MSTORE PUSH1 0x4 ADD PUSH1 0x20 PUSH1 0x40 MLOAD DUP1 DUP4 SUB DUP2 DUP7 GAS STATICCALL ISZERO DUP1 ISZERO PUSH2 0x512 JUMPI RETURNDATASIZE PUSH0 DUP1 RETURNDATACOPY RETURNDATASIZE PUSH0 REVERT JUMPDEST POP POP POP POP PUSH1 0x40 MLOAD RETURNDATASIZE PUSH1 0x1F NOT PUSH1 0x1F DUP3 ADD AND DUP3 ADD DUP1 PUSH1 0x40 MSTORE POP DUP2 ADD SWAP1 PUSH2 0x536 SWAP2 SWAP1 PUSH2 0x1663 JUMP JUMPDEST PUSH1 0x1 PUSH1 0x1 PUSH1 0xA0 SHL SUB AND CALLER PUSH1 0x1 PUSH1 0x1 PUSH1 0xA0 SHL SUB AND EQ ISZERO JUMPDEST ISZERO PUSH2 0x56A JUMPI PUSH1 0x40 MLOAD PUSH4 0xEA8E4EB5 PUSH1 0xE0 SHL DUP2 MSTORE PUSH1 0x4 ADD PUSH1 0x40 MLOAD DUP1 SWAP2 SUB SWAP1 REVERT JUMPDEST DUP1 ISZERO PUSH2 0x69A JUMPI PUSH0 PUSH2 0x2710 PUSH1 0x3 SLOAD DUP4 PUSH2 0x582 SWAP2 SWAP1 PUSH2 0x1692 JUMP JUMPDEST PUSH2 0x58C SWAP2 SWAP1 PUSH2 0x16A9 JUMP JUMPDEST SWAP1 POP PUSH0 PUSH2 0x599 DUP3 DUP5 PUSH2 0x16C8 JUMP JUMPDEST SWAP1 POP DUP2 PUSH1 0x9 PUSH0 DUP3 DUP3 SLOAD PUSH2 0x5AC SWAP2 SWAP1 PUSH2 0x16DB JUMP JUMPDEST SWAP1 SWAP2 SSTORE POP POP PUSH1 0x8 SLOAD ISZERO PUSH2 0x5EB JUMPI PUSH1 0x8 SLOAD PUSH2 0x5CB DUP4 PUSH5 0xE8D4A51000 PUSH2 0x1692 JUMP JUMPDEST PUSH2 0x5D5 SWAP2 SWAP1 PUSH2 0x16A9 JUMP JUMPDEST PUSH1 0xC PUSH0 DUP3 DUP3 SLOAD PUSH2 0x5E5 SWAP2 SWAP1 PUSH2 0x16DB JUMP JUMPDEST SWAP1 SWAP2 SSTORE POP POP JUMPDEST PUSH1 0x7 SLOAD DUP2 GT ISZERO PUSH2 0x60E JUMPI PUSH1 0x40 MLOAD PUSH4 0x1E9ACF17 PUSH1 0xE3 SHL DUP2 MSTORE PUSH1 0x4 ADD PUSH1 0x40 MLOAD DUP1 SWAP2 SUB SWAP1 REVERT JUMPDEST PUSH1 0x4 SLOAD PUSH2 0x625 SWAP1 PUSH1 0x1 PUSH1 0x1 PUSH1 0xA0 SHL SUB AND DUP7 DUP4 PUSH2 0x1005 JUMP JUMPDEST DUP2 DUP4 PUSH1 0x7 SLOAD PUSH2 0x634 SWAP2 SWAP1 PUSH2 0x16C8 JUMP JUMPDEST PUSH2 0x63E SWAP2 SWAP1 PUSH2 0x16DB JUMP JUMPDEST PUSH1 0x7 SSTORE PUSH1 0x40 DUP1 MLOAD DUP6 DUP2 MSTORE PUSH1 0x20 DUP2 ADD DUP6 SWAP1 MSTORE SWAP1 DUP2 ADD DUP4 SWAP1 MSTORE TIMESTAMP PUSH1 0x60 DUP3 ADD MSTORE PUSH1 0x1 PUSH1 0x1 PUSH1 0xA0 SHL SUB DUP7 AND SWAP1 PUSH32 0xE1E22663CD8791964C0FE0C536A5B296F73B419C63E18FCBA51728F9270D90A2 SWAP1 PUSH1 0x80 ADD PUSH1 0x40 MLOAD DUP1 SWAP2 SUB SWAP1 LOG2 POP POP POP POP POP JUMP JUMPDEST DUP2 PUSH1 0x7 PUSH0 DUP3 DUP3 SLOAD PUSH2 0x6AB SWAP2 SWAP1 PUSH2 0x16DB JUMP JUMPDEST SWAP1 SWAP2 SSTORE POP POP PUSH1 0x40 DUP1 MLOAD DUP4 DUP2 MSTORE PUSH0 PUSH1 0x20 DUP3 ADD MSTORE SWAP1 DUP2 ADD DUP4 SWAP1 MSTORE TIMESTAMP PUSH1 0x60 DUP3 ADD MSTORE PUSH1 0x1 PUSH1 0x1 PUSH1 0xA0 SHL SUB DUP5 AND SWAP1 PUSH32 0xE1E22663CD8791964C0FE0C536A5B296F73B419C63E18FCBA51728F9270D90A2 SWAP1 PUSH1 0x80 ADD PUSH1 0x40 MLOAD DUP1 SWAP2 SUB SWAP1 LOG2 JUMPDEST POP POP POP JUMP JUMPDEST PUSH2 0x70F PUSH2 0x1064 JUMP JUMPDEST PUSH2 0x718 CALLER PUSH2 0x108E JUMP JUMPDEST PUSH2 0x721 PUSH1 0x1 DUP1 SSTORE JUMP JUMPDEST JUMP JUMPDEST PUSH2 0x72B PUSH2 0x1064 JUMP JUMPDEST PUSH2 0x733 PUSH2 0x11A9 JUMP JUMPDEST DUP1 PUSH0 SUB PUSH2 0x753 JUMPI PUSH1 0x40 MLOAD PUSH4 0x162908E3 PUSH1 0xE1 SHL DUP2 MSTORE PUSH1 0x4 ADD PUSH1 0x40 MLOAD DUP1 SWAP2 SUB SWAP1 REVERT JUMPDEST PUSH0 PUSH1 0x8 SLOAD PUSH0 SUB PUSH2 0x764 JUMPI POP DUP1 PUSH2 0x781 JUMP JUMPDEST PUSH1 0x7 SLOAD PUSH1 0x8 SLOAD PUSH2 0x774 SWAP1 DUP5 PUSH2 0x1692 JUMP JUMPDEST PUSH2 0x77E SWAP2 SWAP1 PUSH2 0x16A9 JUMP JUMPDEST SWAP1 POP JUMPDEST PUSH5 0xE8D4A51000 PUSH1 0xC SLOAD DUP3 PUSH2 0x795 SWAP2 SWAP1 PUSH2 0x1692 JUMP JUMPDEST PUSH2 0x79F SWAP2 SWAP1 PUSH2 0x16A9 JUMP JUMPDEST CALLER PUSH0 DUP2 DUP2 MSTORE PUSH1 0xB PUSH1 0x20 MSTORE PUSH1 0x40 SWAP1 KECCAK256 SWAP2 SWAP1 SWAP2 SSTORE PUSH1 0x4 SLOAD PUSH2 0x7CB SWAP2 PUSH1 0x1 PUSH1 0x1 PUSH1 0xA0 SHL SUB SWAP1 SWAP2 AND SWAP1 ADDRESS DUP6 PUSH2 0x11CC JUMP JUMPDEST DUP2 PUSH1 0x7 PUSH0 DUP3 DUP3 SLOAD PUSH2 0x7DC SWAP2 SWAP1 PUSH2 0x16DB JUMP JUMPDEST SWAP3 POP POP DUP2 SWAP1 SSTORE POP DUP1 PUSH1 0x8 PUSH0 DUP3 DUP3 SLOAD PUSH2 0x7F4 SWAP2 SWAP1 PUSH2 0x16DB JUMP JUMPDEST SWAP1 SWAP2 SSTORE POP POP CALLER PUSH0 SWAP1 DUP2 MSTORE PUSH1 0xA PUSH1 0x20 MSTORE PUSH1 0x40 DUP2 KECCAK256 DUP1 SLOAD DUP4 SWAP3 SWAP1 PUSH2 0x817 SWAP1 DUP5 SWAP1 PUSH2 0x16DB JUMP JUMPDEST SWAP1 SWAP2 SSTORE POP POP PUSH1 0x40 DUP1 MLOAD DUP4 DUP2 MSTORE PUSH1 0x20 DUP2 ADD DUP4 SWAP1 MSTORE TIMESTAMP SWAP2 DUP2 ADD SWAP2 SWAP1 SWAP2 MSTORE CALLER SWAP1 PUSH32 0x64B83944E79C3CE8D4C297411DE637C3E102D064677AAC0C163976EBDCD6F50E SWAP1 PUSH1 0x60 ADD JUMPDEST PUSH1 0x40 MLOAD DUP1 SWAP2 SUB SWAP1 LOG2 POP PUSH2 0x86C PUSH1 0x1 DUP1 SSTORE JUMP JUMPDEST POP JUMP JUMPDEST PUSH2 0x877 PUSH2 0xFD3 JUMP JUMPDEST PUSH2 0x721 PUSH0 PUSH2 0x120B JUMP JUMPDEST PUSH2 0x888 PUSH2 0x1064 JUMP JUMPDEST PUSH2 0x890 PUSH2 0x11A9 JUMP JUMPDEST DUP5 PUSH0 SUB PUSH2 0x8B0 JUMPI PUSH1 0x40 MLOAD PUSH4 0x162908E3 PUSH1 0xE1 SHL DUP2 MSTORE PUSH1 0x4 ADD PUSH1 0x40 MLOAD DUP1 SWAP2 SUB SWAP1 REVERT JUMPDEST PUSH1 0x7 SLOAD DUP6 GT ISZERO PUSH2 0x8D3 JUMPI PUSH1 0x40 MLOAD PUSH4 0x1E9ACF17 PUSH1 0xE3 SHL DUP2 MSTORE PUSH1 0x4 ADD PUSH1 0x40 MLOAD DUP1 SWAP2 SUB SWAP1 REVERT JUMPDEST CALLER PUSH0 SWAP1 DUP2 MSTORE PUSH1 0xD PUSH1 0x20 MSTORE PUSH1 0x40 SWAP1 KECCAK256 SLOAD DUP5 GT PUSH2 0x901 JUMPI PUSH1 0x40 MLOAD PUSH4 0x3AB3447F PUSH1 0xE1 SHL DUP2 MSTORE PUSH1 0x4 ADD PUSH1 0x40 MLOAD DUP1 SWAP2 SUB SWAP1 REVERT JUMPDEST PUSH2 0x90D DUP4 PUSH2 0x12C PUSH2 0x16DB JUMP JUMPDEST TIMESTAMP GT ISZERO PUSH2 0x92D JUMPI PUSH1 0x40 MLOAD PUSH4 0x819BDCD PUSH1 0xE0 SHL DUP2 MSTORE PUSH1 0x4 ADD PUSH1 0x40 MLOAD DUP1 SWAP2 SUB SWAP1 REVERT JUMPDEST PUSH0 PUSH2 0xA2B CALLER DUP8 DUP8 DUP8 PUSH1 0x5 PUSH0 SWAP1 SLOAD SWAP1 PUSH2 0x100 EXP SWAP1 DIV PUSH1 0x1 PUSH1 0x1 PUSH1 0xA0 SHL SUB AND PUSH1 0x1 PUSH1 0x1 PUSH1 0xA0 SHL SUB AND PUSH4 0x63FFAB31 PUSH1 0x40 MLOAD DUP2 PUSH4 0xFFFFFFFF AND PUSH1 0xE0 SHL DUP2 MSTORE PUSH1 0x4 ADD PUSH1 0x20 PUSH1 0x40 MLOAD DUP1 DUP4 SUB DUP2 DUP7 GAS STATICCALL ISZERO DUP1 ISZERO PUSH2 0x985 JUMPI RETURNDATASIZE PUSH0 DUP1 RETURNDATACOPY RETURNDATASIZE PUSH0 REVERT JUMPDEST POP POP POP POP PUSH1 0x40 MLOAD RETURNDATASIZE PUSH1 0x1F NOT PUSH1 0x1F DUP3 ADD AND DUP3 ADD DUP1 PUSH1 0x40 MSTORE POP DUP2 ADD SWAP1 PUSH2 0x9A9 SWAP2 SWAP1 PUSH2 0x16EE JUMP JUMPDEST PUSH1 0x40 MLOAD PUSH1 0x60 SWAP6 SWAP1 SWAP6 SHL PUSH12 0xFFFFFFFFFFFFFFFFFFFFFFFF NOT AND PUSH1 0x20 DUP7 ADD MSTORE PUSH1 0x34 DUP6 ADD SWAP4 SWAP1 SWAP4 MSTORE PUSH1 0x54 DUP5 ADD SWAP2 SWAP1 SWAP2 MSTORE PUSH1 0x74 DUP4 ADD MSTORE PUSH1 0x94 DUP3 ADD MSTORE PUSH1 0xB4 ADD PUSH1 0x40 MLOAD PUSH1 0x20 DUP2 DUP4 SUB SUB DUP2 MSTORE SWAP1 PUSH1 0x40 MSTORE DUP1 MLOAD SWAP1 PUSH1 0x20 ADD KECCAK256 PUSH32 0x19457468657265756D205369676E6564204D6573736167653A0A333200000000 PUSH0 SWAP1 DUP2 MSTORE PUSH1 0x1C SWAP2 SWAP1 SWAP2 MSTORE PUSH1 0x3C SWAP1 KECCAK256 SWAP1 JUMP JUMPDEST SWAP1 POP DUP3 DUP2 EQ PUSH2 0xA4D JUMPI PUSH1 0x40 MLOAD PUSH4 0x8BAA579F PUSH1 0xE0 SHL DUP2 MSTORE PUSH1 0x4 ADD PUSH1 0x40 MLOAD DUP1 SWAP2 SUB SWAP1 REVERT JUMPDEST PUSH0 PUSH2 0xA58 DUP5 DUP5 PUSH2 0x1263 JUMP JUMPDEST PUSH1 0x5 SLOAD PUSH1 0x40 MLOAD PUSH4 0x27CF93B PUSH1 0xE3 SHL DUP2 MSTORE PUSH1 0x1 PUSH1 0x1 PUSH1 0xA0 SHL SUB DUP1 DUP5 AND PUSH1 0x4 DUP4 ADD MSTORE SWAP3 SWAP4 POP SWAP2 AND SWAP1 PUSH4 0x13E7C9D8 SWAP1 PUSH1 0x24 ADD PUSH1 0x20 PUSH1 0x40 MLOAD DUP1 DUP4 SUB DUP2 DUP7 GAS STATICCALL ISZERO DUP1 ISZERO PUSH2 0xAA2 JUMPI RETURNDATASIZE PUSH0 DUP1 RETURNDATACOPY RETURNDATASIZE PUSH0 REVERT JUMPDEST POP POP POP POP PUSH1 0x40 MLOAD RETURNDATASIZE PUSH1 0x1F NOT PUSH1 0x1F DUP3 ADD AND DUP3 ADD DUP1 PUSH1 0x40 MSTORE POP DUP2 ADD SWAP1 PUSH2 0xAC6 SWAP2 SWAP1 PUSH2 0x1644 JUMP JUMPDEST PUSH2 0xAE3 JUMPI PUSH1 0x40 MLOAD PUSH4 0x8BAA579F PUSH1 0xE0 SHL DUP2 MSTORE PUSH1 0x4 ADD PUSH1 0x40 MLOAD DUP1 SWAP2 SUB SWAP1 REVERT JUMPDEST PUSH0 DUP5 DUP2 MSTORE PUSH1 0xE PUSH1 0x20 MSTORE PUSH1 0x40 SWAP1 KECCAK256 SLOAD PUSH1 0xFF AND ISZERO PUSH2 0xB12 JUMPI PUSH1 0x40 MLOAD PUSH4 0xD754933 PUSH1 0xE0 SHL DUP2 MSTORE PUSH1 0x4 ADD PUSH1 0x40 MLOAD DUP1 SWAP2 SUB SWAP1 REVERT JUMPDEST PUSH0 DUP5 DUP2 MSTORE PUSH1 0xE PUSH1 0x20 SWAP1 DUP2 MSTORE PUSH1 0x40 DUP1 DUP4 KECCAK256 DUP1 SLOAD PUSH1 0xFF NOT AND PUSH1 0x1 OR SWAP1 SSTORE CALLER DUP4 MSTORE PUSH1 0xD SWAP1 SWAP2 MSTORE DUP2 KECCAK256 DUP8 SWAP1 SSTORE PUSH1 0x2 SLOAD PUSH2 0x2710 SWAP1 PUSH2 0xB4B SWAP1 DUP11 PUSH2 0x1692 JUMP JUMPDEST PUSH2 0xB55 SWAP2 SWAP1 PUSH2 0x16A9 JUMP JUMPDEST SWAP1 POP PUSH0 PUSH2 0xB62 DUP3 DUP11 PUSH2 0x16C8 JUMP JUMPDEST SWAP1 POP DUP9 PUSH1 0x7 PUSH0 DUP3 DUP3 SLOAD PUSH2 0xB75 SWAP2 SWAP1 PUSH2 0x16C8 JUMP JUMPDEST SWAP1 SWAP2 SSTORE POP POP DUP2 ISZERO PUSH2 0xB9D JUMPI PUSH1 0x6 SLOAD PUSH1 0x4 SLOAD PUSH2 0xB9D SWAP2 PUSH1 0x1 PUSH1 0x1 PUSH1 0xA0 SHL SUB SWAP2 DUP3 AND SWAP2 AND DUP5 PUSH2 0x1005 JUMP JUMPDEST PUSH1 0x4 SLOAD PUSH2 0xBB4 SWAP1 PUSH1 0x1 PUSH1 0x1 PUSH1 0xA0 SHL SUB AND CALLER DUP4 PUSH2 0x1005 JUMP JUMPDEST PUSH1 0x40 DUP1 MLOAD DUP11 DUP2 MSTORE PUSH1 0x20 DUP2 ADD DUP4 SWAP1 MSTORE TIMESTAMP DUP2 DUP4 ADD MSTORE SWAP1 MLOAD CALLER SWAP2 PUSH32 0x650FDF669E93AA6C8FF3DEFE2DA9C12B64F1548E5E1E54E803F4C1BEB6466C8E SWAP2 SWAP1 DUP2 SWAP1 SUB PUSH1 0x60 ADD SWAP1 LOG2 POP POP POP POP PUSH2 0xC03 PUSH1 0x1 DUP1 SSTORE JUMP JUMPDEST POP POP POP POP POP JUMP JUMPDEST PUSH2 0xC12 PUSH2 0x1064 JUMP JUMPDEST DUP1 PUSH0 SUB PUSH2 0xC32 JUMPI PUSH1 0x40 MLOAD PUSH4 0x162908E3 PUSH1 0xE1 SHL DUP2 MSTORE PUSH1 0x4 ADD PUSH1 0x40 MLOAD DUP1 SWAP2 SUB SWAP1 REVERT JUMPDEST CALLER PUSH0 SWAP1 DUP2 MSTORE PUSH1 0xA PUSH1 0x20 MSTORE PUSH1 0x40 SWAP1 KECCAK256 SLOAD DUP2 GT ISZERO PUSH2 0xC61 JUMPI PUSH1 0x40 MLOAD PUSH4 0x39996567 PUSH1 0xE0 SHL DUP2 MSTORE PUSH1 0x4 ADD PUSH1 0x40 MLOAD DUP1 SWAP2 SUB SWAP1 REVERT JUMPDEST PUSH2 0xC6A CALLER PUSH2 0x108E JUMP JUMPDEST PUSH0 PUSH1 0x8 SLOAD PUSH1 0x7 SLOAD DUP4 PUSH2 0xC7C SWAP2 SWAP1 PUSH2 0x1692 JUMP JUMPDEST PUSH2 0xC86 SWAP2 SWAP1 PUSH2 0x16A9 JUMP JUMPDEST SWAP1 POP DUP1 PUSH1 0x7 PUSH0 DUP3 DUP3 SLOAD PUSH2 0xC99 SWAP2 SWAP1 PUSH2 0x16C8 JUMP JUMPDEST SWAP3 POP POP DUP2 SWAP1 SSTORE POP DUP2 PUSH1 0x8 PUSH0 DUP3 DUP3 SLOAD PUSH2 0xCB1 SWAP2 SWAP1 PUSH2 0x16C8 JUMP JUMPDEST SWAP1 SWAP2 SSTORE POP POP CALLER PUSH0 SWAP1 DUP2 MSTORE PUSH1 0xA PUSH1 0x20 MSTORE PUSH1 0x40 DUP2 KECCAK256 DUP1 SLOAD DUP5 SWAP3 SWAP1 PUSH2 0xCD4 SWAP1 DUP5 SWAP1 PUSH2 0x16C8 JUMP JUMPDEST SWAP1 SWAP2 SSTORE POP POP PUSH1 0xC SLOAD CALLER PUSH0 SWAP1 DUP2 MSTORE PUSH1 0xA PUSH1 0x20 MSTORE PUSH1 0x40 SWAP1 KECCAK256 SLOAD PUSH5 0xE8D4A51000 SWAP2 PUSH2 0xCFB SWAP2 PUSH2 0x1692 JUMP JUMPDEST PUSH2 0xD05 SWAP2 SWAP1 PUSH2 0x16A9 JUMP JUMPDEST CALLER PUSH0 DUP2 DUP2 MSTORE PUSH1 0xB PUSH1 0x20 MSTORE PUSH1 0x40 SWAP1 KECCAK256 SWAP2 SWAP1 SWAP2 SSTORE PUSH1 0x4 SLOAD PUSH2 0xD30 SWAP2 PUSH1 0x1 PUSH1 0x1 PUSH1 0xA0 SHL SUB SWAP1 SWAP2 AND SWAP1 DUP4 PUSH2 0x1005 JUMP JUMPDEST PUSH1 0x40 DUP1 MLOAD DUP3 DUP2 MSTORE PUSH1 0x20 DUP2 ADD DUP5 SWAP1 MSTORE TIMESTAMP SWAP2 DUP2 ADD SWAP2 SWAP1 SWAP2 MSTORE CALLER SWAP1 PUSH32 0x1DC8BB69DF2B8E91FBDCBFCF93D951B3F0000F085A95FE3F7946D6161439245D SWAP1 PUSH1 0x60 ADD PUSH2 0x85A JUMP JUMPDEST PUSH2 0xD7A PUSH2 0x1064 JUMP JUMPDEST PUSH2 0xD82 PUSH2 0x11A9 JUMP JUMPDEST DUP1 PUSH0 SUB PUSH2 0xDA2 JUMPI PUSH1 0x40 MLOAD PUSH4 0x162908E3 PUSH1 0xE1 SHL DUP2 MSTORE PUSH1 0x4 ADD PUSH1 0x40 MLOAD DUP1 SWAP2 SUB SWAP1 REVERT JUMPDEST PUSH0 PUSH2 0x2710 PUSH1 0x2 SLOAD DUP4 PUSH2 0xDB4 SWAP2 SWAP1 PUSH2 0x1692 JUMP JUMPDEST PUSH2 0xDBE SWAP2 SWAP1 PUSH2 0x16A9 JUMP JUMPDEST SWAP1 POP PUSH0 PUSH2 0xDCB DUP3 DUP5 PUSH2 0x16C8 JUMP JUMPDEST PUSH1 0x4 SLOAD SWAP1 SWAP2 POP PUSH2 0xDE6 SWAP1 PUSH1 0x1 PUSH1 0x1 PUSH1 0xA0 SHL SUB AND CALLER ADDRESS DUP7 PUSH2 0x11CC JUMP JUMPDEST DUP2 ISZERO PUSH2 0xE09 JUMPI PUSH1 0x6 SLOAD PUSH1 0x4 SLOAD PUSH2 0xE09 SWAP2 PUSH1 0x1 PUSH1 0x1 PUSH1 0xA0 SHL SUB SWAP2 DUP3 AND SWAP2 AND DUP5 PUSH2 0x1005 JUMP JUMPDEST DUP1 PUSH1 0x7 PUSH0 DUP3 DUP3 SLOAD PUSH2 0xE1A SWAP2 SWAP1 PUSH2 0x16DB JUMP JUMPDEST SWAP1 SWAP2 SSTORE POP POP PUSH1 0x40 DUP1 MLOAD DUP5 DUP2 MSTORE PUSH1 0x20 DUP2 ADD DUP4 SWAP1 MSTORE TIMESTAMP DUP2 DUP4 ADD MSTORE SWAP1 MLOAD CALLER SWAP2 PUSH32 0x36AF321EC8D3C75236829C5317AFFD40DDB308863A1236D2D277A4025CCCEE1E SWAP2 SWAP1 DUP2 SWAP1 SUB PUSH1 0x60 ADD SWAP1 LOG2 POP POP PUSH2 0x86C PUSH1 0x1 DUP1 SSTORE JUMP JUMPDEST PUSH2 0xE74 PUSH2 0xFD3 JUMP JUMPDEST PUSH2 0xE7C PUSH2 0x128D JUMP JUMPDEST PUSH1 0x4 DUP1 SLOAD PUSH1 0x40 MLOAD PUSH4 0x70A08231 PUSH1 0xE0 SHL DUP2 MSTORE ADDRESS SWAP3 DUP2 ADD SWAP3 SWAP1 SWAP3 MSTORE PUSH0 SWAP2 PUSH1 0x1 PUSH1 0x1 PUSH1 0xA0 SHL SUB SWAP1 SWAP2 AND SWAP1 PUSH4 0x70A08231 SWAP1 PUSH1 0x24 ADD PUSH1 0x20 PUSH1 0x40 MLOAD DUP1 DUP4 SUB DUP2 DUP7 GAS STATICCALL ISZERO DUP1 ISZERO PUSH2 0xEC7 JUMPI RETURNDATASIZE PUSH0 DUP1 RETURNDATACOPY RETURNDATASIZE PUSH0 REVERT JUMPDEST POP POP POP POP PUSH1 0x40 MLOAD RETURNDATASIZE PUSH1 0x1F NOT PUSH1 0x1F DUP3 ADD AND DUP3 ADD DUP1 PUSH1 0x40 MSTORE POP DUP2 ADD SWAP1 PUSH2 0xEEB SWAP2 SWAP1 PUSH2 0x16EE JUMP JUMPDEST SWAP1 POP DUP1 ISZERO PUSH2 0xF10 JUMPI PUSH1 0x6 SLOAD PUSH1 0x4 SLOAD PUSH2 0xF10 SWAP2 PUSH1 0x1 PUSH1 0x1 PUSH1 0xA0 SHL SUB SWAP2 DUP3 AND SWAP2 AND DUP4 PUSH2 0x1005 JUMP JUMPDEST POP PUSH0 PUSH1 0x7 DUP2 SWAP1 SSTORE PUSH1 0x8 DUP2 SWAP1 SSTORE PUSH1 0x9 DUP2 SWAP1 SSTORE PUSH1 0xC SSTORE JUMP JUMPDEST PUSH2 0xF2E PUSH2 0xFD3 JUMP JUMPDEST PUSH1 0x1 PUSH1 0x1 PUSH1 0xA0 SHL SUB DUP2 AND PUSH2 0xF5C JUMPI PUSH1 0x40 MLOAD PUSH4 0x1E4FBDF7 PUSH1 0xE0 SHL DUP2 MSTORE PUSH0 PUSH1 0x4 DUP3 ADD MSTORE PUSH1 0x24 ADD JUMPDEST PUSH1 0x40 MLOAD DUP1 SWAP2 SUB SWAP1 REVERT JUMPDEST PUSH2 0x86C DUP2 PUSH2 0x120B JUMP JUMPDEST PUSH1 0x1 PUSH1 0x1 PUSH1 0xA0 SHL SUB DUP2 AND PUSH0 SWAP1 DUP2 MSTORE PUSH1 0xA PUSH1 0x20 MSTORE PUSH1 0x40 DUP2 KECCAK256 SLOAD DUP1 DUP3 SUB PUSH2 0xF8C JUMPI POP PUSH0 SWAP3 SWAP2 POP POP JUMP JUMPDEST PUSH1 0x1 PUSH1 0x1 PUSH1 0xA0 SHL SUB DUP4 AND PUSH0 SWAP1 DUP2 MSTORE PUSH1 0xB PUSH1 0x20 MSTORE PUSH1 0x40 SWAP1 KECCAK256 SLOAD PUSH1 0xC SLOAD PUSH5 0xE8D4A51000 SWAP1 PUSH2 0xFB8 SWAP1 DUP5 PUSH2 0x1692 JUMP JUMPDEST PUSH2 0xFC2 SWAP2 SWAP1 PUSH2 0x16A9 JUMP JUMPDEST PUSH2 0xFCC SWAP2 SWAP1 PUSH2 0x16C8 JUMP JUMPDEST SWAP4 SWAP3 POP POP POP JUMP JUMPDEST PUSH0 SLOAD PUSH1 0x1 PUSH1 0x1 PUSH1 0xA0 SHL SUB PUSH2 0x100 SWAP1 SWAP2 DIV AND CALLER EQ PUSH2 0x721 JUMPI PUSH1 0x40 MLOAD PUSH4 0x118CDAA7 PUSH1 0xE0 SHL DUP2 MSTORE CALLER PUSH1 0x4 DUP3 ADD MSTORE PUSH1 0x24 ADD PUSH2 0xF53 JUMP JUMPDEST PUSH1 0x40 MLOAD PUSH1 0x1 PUSH1 0x1 PUSH1 0xA0 SHL SUB DUP4 DUP2 AND PUSH1 0x24 DUP4 ADD MSTORE PUSH1 0x44 DUP3 ADD DUP4 SWAP1 MSTORE PUSH2 0x702 SWAP2 DUP6 SWAP2 DUP3 AND SWAP1 PUSH4 0xA9059CBB SWAP1 PUSH1 0x64 ADD JUMPDEST PUSH1 0x40 MLOAD PUSH1 0x20 DUP2 DUP4 SUB SUB DUP2 MSTORE SWAP1 PUSH1 0x40 MSTORE SWAP2 POP PUSH1 0xE0 SHL PUSH1 0x20 DUP3 ADD DUP1 MLOAD PUSH1 0x1 PUSH1 0x1 PUSH1 0xE0 SHL SUB DUP4 DUP2 DUP4 AND OR DUP4 MSTORE POP POP POP POP PUSH2 0x12AF JUMP JUMPDEST PUSH1 0x2 PUSH1 0x1 SLOAD SUB PUSH2 0x1087 JUMPI PUSH1 0x40 MLOAD PUSH4 0x3EE5AEB5 PUSH1 0xE0 SHL DUP2 MSTORE PUSH1 0x4 ADD PUSH1 0x40 MLOAD DUP1 SWAP2 SUB SWAP1 REVERT JUMPDEST PUSH1 0x2 PUSH1 0x1 SSTORE JUMP JUMPDEST PUSH1 0x1 PUSH1 0x1 PUSH1 0xA0 SHL SUB DUP2 AND PUSH0 SWAP1 DUP2 MSTORE PUSH1 0xA PUSH1 0x20 MSTORE PUSH1 0x40 DUP2 KECCAK256 SLOAD SWAP1 DUP2 SWAP1 SUB PUSH2 0x10B2 JUMPI POP POP JUMP JUMPDEST PUSH1 0x1 PUSH1 0x1 PUSH1 0xA0 SHL SUB DUP3 AND PUSH0 SWAP1 DUP2 MSTORE PUSH1 0xB PUSH1 0x20 MSTORE PUSH1 0x40 DUP2 KECCAK256 SLOAD PUSH1 0xC SLOAD PUSH5 0xE8D4A51000 SWAP1 PUSH2 0x10DE SWAP1 DUP6 PUSH2 0x1692 JUMP JUMPDEST PUSH2 0x10E8 SWAP2 SWAP1 PUSH2 0x16A9 JUMP JUMPDEST PUSH2 0x10F2 SWAP2 SWAP1 PUSH2 0x16C8 JUMP JUMPDEST SWAP1 POP DUP1 ISZERO PUSH2 0x116B JUMPI DUP1 PUSH1 0x9 PUSH0 DUP3 DUP3 SLOAD PUSH2 0x110B SWAP2 SWAP1 PUSH2 0x16C8 JUMP JUMPDEST SWAP1 SWAP2 SSTORE POP POP PUSH1 0x4 SLOAD PUSH2 0x1127 SWAP1 PUSH1 0x1 PUSH1 0x1 PUSH1 0xA0 SHL SUB AND DUP5 DUP4 PUSH2 0x1005 JUMP JUMPDEST PUSH1 0x40 DUP1 MLOAD DUP3 DUP2 MSTORE TIMESTAMP PUSH1 0x20 DUP3 ADD MSTORE PUSH1 0x1 PUSH1 0x1 PUSH1 0xA0 SHL SUB DUP6 AND SWAP2 PUSH32 0xDACBDDE355BA930696A362EA6738FEB9F8BD52DFB3D81947558FD3217E23E325 SWAP2 ADD PUSH1 0x40 MLOAD DUP1 SWAP2 SUB SWAP1 LOG2 JUMPDEST PUSH5 0xE8D4A51000 PUSH1 0xC SLOAD DUP4 PUSH2 0x117F SWAP2 SWAP1 PUSH2 0x1692 JUMP JUMPDEST PUSH2 0x1189 SWAP2 SWAP1 PUSH2 0x16A9 JUMP JUMPDEST PUSH1 0x1 PUSH1 0x1 PUSH1 0xA0 SHL SUB SWAP1 SWAP4 AND PUSH0 SWAP1 DUP2 MSTORE PUSH1 0xB PUSH1 0x20 MSTORE PUSH1 0x40 SWAP1 KECCAK256 SWAP3 SWAP1 SWAP3 SSTORE POP POP JUMP JUMPDEST PUSH0 SLOAD PUSH1 0xFF AND ISZERO PUSH2 0x721 JUMPI PUSH1 0x40 MLOAD PUSH4 0xD93C0665 PUSH1 0xE0 SHL DUP2 MSTORE PUSH1 0x4 ADD PUSH1 0x40 MLOAD DUP1 SWAP2 SUB SWAP1 REVERT JUMPDEST PUSH1 0x40 MLOAD PUSH1 0x1 PUSH1 0x1 PUSH1 0xA0 SHL SUB DUP5 DUP2 AND PUSH1 0x24 DUP4 ADD MSTORE DUP4 DUP2 AND PUSH1 0x44 DUP4 ADD MSTORE PUSH1 0x64 DUP3 ADD DUP4 SWAP1 MSTORE PUSH2 0x1205 SWAP2 DUP7 SWAP2 DUP3 AND SWAP1 PUSH4 0x23B872DD SWAP1 PUSH1 0x84 ADD PUSH2 0x1032 JUMP JUMPDEST POP POP POP POP JUMP JUMPDEST PUSH0 DUP1 SLOAD PUSH1 0x1 PUSH1 0x1 PUSH1 0xA0 SHL SUB DUP4 DUP2 AND PUSH2 0x100 DUP2 DUP2 MUL PUSH2 0x100 PUSH1 0x1 PUSH1 0xA8 SHL SUB NOT DUP6 AND OR DUP6 SSTORE PUSH1 0x40 MLOAD SWAP4 DIV SWAP2 SWAP1 SWAP2 AND SWAP3 SWAP1 SWAP2 DUP4 SWAP2 PUSH32 0x8BE0079C531659141344CD1FD0A4F28419497F9722A3DAAFE3B4186F6B6457E0 SWAP2 LOG3 POP POP JUMP JUMPDEST PUSH0 DUP1 PUSH0 DUP1 PUSH2 0x1271 DUP7 DUP7 PUSH2 0x131B JUMP JUMPDEST SWAP3 POP SWAP3 POP SWAP3 POP PUSH2 0x1281 DUP3 DUP3 PUSH2 0x1364 JUMP JUMPDEST POP SWAP1 SWAP2 POP POP JUMPDEST SWAP3 SWAP2 POP POP JUMP JUMPDEST PUSH0 SLOAD PUSH1 0xFF AND PUSH2 0x721 JUMPI PUSH1 0x40 MLOAD PUSH4 0x8DFC202B PUSH1 0xE0 SHL DUP2 MSTORE PUSH1 0x4 ADD PUSH1 0x40 MLOAD DUP1 SWAP2 SUB SWAP1 REVERT JUMPDEST PUSH0 DUP1 PUSH1 0x20 PUSH0 DUP5 MLOAD PUSH1 0x20 DUP7 ADD PUSH0 DUP9 GAS CALL DUP1 PUSH2 0x12CE JUMPI PUSH1 0x40 MLOAD RETURNDATASIZE PUSH0 DUP3 RETURNDATACOPY RETURNDATASIZE DUP2 REVERT JUMPDEST POP POP PUSH0 MLOAD RETURNDATASIZE SWAP2 POP DUP2 ISZERO PUSH2 0x12E5 JUMPI DUP1 PUSH1 0x1 EQ ISZERO PUSH2 0x12F2 JUMP JUMPDEST PUSH1 0x1 PUSH1 0x1 PUSH1 0xA0 SHL SUB DUP5 AND EXTCODESIZE ISZERO JUMPDEST ISZERO PUSH2 0x1205 JUMPI PUSH1 0x40 MLOAD PUSH4 0x5274AFE7 PUSH1 0xE0 SHL DUP2 MSTORE PUSH1 0x1 PUSH1 0x1 PUSH1 0xA0 SHL SUB DUP6 AND PUSH1 0x4 DUP3 ADD MSTORE PUSH1 0x24 ADD PUSH2 0xF53 JUMP JUMPDEST PUSH0 DUP1 PUSH0 DUP4 MLOAD PUSH1 0x41 SUB PUSH2 0x1352 JUMPI PUSH1 0x20 DUP5 ADD MLOAD PUSH1 0x40 DUP6 ADD MLOAD PUSH1 0x60 DUP7 ADD MLOAD PUSH0 BYTE PUSH2 0x1344 DUP9 DUP3 DUP6 DUP6 PUSH2 0x1420 JUMP JUMPDEST SWAP6 POP SWAP6 POP SWAP6 POP POP POP POP PUSH2 0x135D JUMP JUMPDEST POP POP DUP2 MLOAD PUSH0 SWAP2 POP PUSH1 0x2 SWAP1 JUMPDEST SWAP3 POP SWAP3 POP SWAP3 JUMP JUMPDEST PUSH0 DUP3 PUSH1 0x3 DUP2 GT ISZERO PUSH2 0x1377 JUMPI PUSH2 0x1377 PUSH2 0x1705 JUMP JUMPDEST SUB PUSH2 0x1380 JUMPI POP POP JUMP JUMPDEST PUSH1 0x1 DUP3 PUSH1 0x3 DUP2 GT ISZERO PUSH2 0x1394 JUMPI PUSH2 0x1394 PUSH2 0x1705 JUMP JUMPDEST SUB PUSH2 0x13B2 JUMPI PUSH1 0x40 MLOAD PUSH4 0xF645EEDF PUSH1 0xE0 SHL DUP2 MSTORE PUSH1 0x4 ADD PUSH1 0x40 MLOAD DUP1 SWAP2 SUB SWAP1 REVERT JUMPDEST PUSH1 0x2 DUP3 PUSH1 0x3 DUP2 GT ISZERO PUSH2 0x13C6 JUMPI PUSH2 0x13C6 PUSH2 0x1705 JUMP JUMPDEST SUB PUSH2 0x13E7 JUMPI PUSH1 0x40 MLOAD PUSH4 0xFCE698F7 PUSH1 0xE0 SHL DUP2 MSTORE PUSH1 0x4 DUP2 ADD DUP3 SWAP1 MSTORE PUSH1 0x24 ADD PUSH2 0xF53 JUMP JUMPDEST PUSH1 0x3 DUP3 PUSH1 0x3 DUP2 GT ISZERO PUSH2 0x13FB JUMPI PUSH2 0x13FB PUSH2 0x1705 JUMP JUMPDEST SUB PUSH2 0x141C JUMPI PUSH1 0x40 MLOAD PUSH4 0x35E2F383 PUSH1 0xE2 SHL DUP2 MSTORE PUSH1 0x4 DUP2 ADD DUP3 SWAP1 MSTORE PUSH1 0x24 ADD PUSH2 0xF53 JUMP JUMPDEST POP POP JUMP JUMPDEST PUSH0 DUP1 DUP1 PUSH32 0x7FFFFFFFFFFFFFFFFFFFFFFFFFFFFFFF5D576E7357A4501DDFE92F46681B20A0 DUP5 GT ISZERO PUSH2 0x1459 JUMPI POP PUSH0 SWAP2 POP PUSH1 0x3 SWAP1 POP DUP3 PUSH2 0x14DE JUMP JUMPDEST PUSH1 0x40 DUP1 MLOAD PUSH0 DUP1 DUP3 MSTORE PUSH1 0x20 DUP3 ADD DUP1 DUP5 MSTORE DUP11 SWAP1 MSTORE PUSH1 0xFF DUP10 AND SWAP3 DUP3 ADD SWAP3 SWAP1 SWAP3 MSTORE PUSH1 0x60 DUP2 ADD DUP8 SWAP1 MSTORE PUSH1 0x80 DUP2 ADD DUP7 SWAP1 MSTORE PUSH1 0x1 SWAP1 PUSH1 0xA0 ADD PUSH1 0x20 PUSH1 0x40 MLOAD PUSH1 0x20 DUP2 SUB SWAP1 DUP1 DUP5 SUB SWAP1 DUP6 GAS STATICCALL ISZERO DUP1 ISZERO PUSH2 0x14AA JUMPI RETURNDATASIZE PUSH0 DUP1 RETURNDATACOPY RETURNDATASIZE PUSH0 REVERT JUMPDEST POP POP PUSH1 0x40 MLOAD PUSH1 0x1F NOT ADD MLOAD SWAP2 POP POP PUSH1 0x1 PUSH1 0x1 PUSH1 0xA0 SHL SUB DUP2 AND PUSH2 0x14D5 JUMPI POP PUSH0 SWAP3 POP PUSH1 0x1 SWAP2 POP DUP3 SWAP1 POP PUSH2 0x14DE JUMP JUMPDEST SWAP3 POP PUSH0 SWAP2 POP DUP2 SWAP1 POP JUMPDEST SWAP5 POP SWAP5 POP SWAP5 SWAP2 POP POP JUMP JUMPDEST PUSH0 PUSH1 0x20 DUP3 DUP5 SUB SLT ISZERO PUSH2 0x14F8 JUMPI PUSH0 DUP1 REVERT JUMPDEST POP CALLDATALOAD SWAP2 SWAP1 POP JUMP JUMPDEST PUSH1 0x1 PUSH1 0x1 PUSH1 0xA0 SHL SUB DUP2 AND DUP2 EQ PUSH2 0x86C JUMPI PUSH0 DUP1 REVERT JUMPDEST PUSH0 DUP1 PUSH0 PUSH1 0x60 DUP5 DUP7 SUB SLT ISZERO PUSH2 0x1525 JUMPI PUSH0 DUP1 REVERT JUMPDEST DUP4 CALLDATALOAD PUSH2 0x1530 DUP2 PUSH2 0x14FF JUMP JUMPDEST SWAP6 PUSH1 0x20 DUP6 ADD CALLDATALOAD SWAP6 POP PUSH1 0x40 SWAP1 SWAP5 ADD CALLDATALOAD SWAP4 SWAP3 POP POP POP JUMP JUMPDEST PUSH0 PUSH1 0x20 DUP3 DUP5 SUB SLT ISZERO PUSH2 0x1555 JUMPI PUSH0 DUP1 REVERT JUMPDEST DUP2 CALLDATALOAD PUSH2 0xFCC DUP2 PUSH2 0x14FF JUMP JUMPDEST PUSH4 0x4E487B71 PUSH1 0xE0 SHL PUSH0 MSTORE PUSH1 0x41 PUSH1 0x4 MSTORE PUSH1 0x24 PUSH0 REVERT JUMPDEST PUSH0 DUP1 PUSH0 DUP1 PUSH0 PUSH1 0xA0 DUP7 DUP9 SUB SLT ISZERO PUSH2 0x1588 JUMPI PUSH0 DUP1 REVERT JUMPDEST DUP6 CALLDATALOAD SWAP5 POP PUSH1 0x20 DUP7 ADD CALLDATALOAD SWAP4 POP PUSH1 0x40 DUP7 ADD CALLDATALOAD SWAP3 POP PUSH1 0x60 DUP7 ADD CALLDATALOAD SWAP2 POP PUSH1 0x80 DUP7 ADD CALLDATALOAD PUSH8 0xFFFFFFFFFFFFFFFF DUP1 DUP3 GT ISZERO PUSH2 0x15BB JUMPI PUSH0 DUP1 REVERT JUMPDEST DUP2 DUP9 ADD SWAP2 POP DUP9 PUSH1 0x1F DUP4 ADD SLT PUSH2 0x15CE JUMPI PUSH0 DUP1 REVERT JUMPDEST DUP2 CALLDATALOAD DUP2 DUP2 GT ISZERO PUSH2 0x15E0 JUMPI PUSH2 0x15E0 PUSH2 0x1560 JUMP JUMPDEST PUSH1 0x40 MLOAD PUSH1 0x1F DUP3 ADD PUSH1 0x1F NOT SWAP1 DUP2 AND PUSH1 0x3F ADD AND DUP2 ADD SWAP1 DUP4 DUP3 GT DUP2 DUP4 LT OR ISZERO PUSH2 0x1608 JUMPI PUSH2 0x1608 PUSH2 0x1560 JUMP JUMPDEST DUP2 PUSH1 0x40 MSTORE DUP3 DUP2 MSTORE DUP12 PUSH1 0x20 DUP5 DUP8 ADD ADD GT ISZERO PUSH2 0x1620 JUMPI PUSH0 DUP1 REVERT JUMPDEST DUP3 PUSH1 0x20 DUP7 ADD PUSH1 0x20 DUP4 ADD CALLDATACOPY PUSH0 PUSH1 0x20 DUP5 DUP4 ADD ADD MSTORE DUP1 SWAP6 POP POP POP POP POP POP SWAP3 SWAP6 POP SWAP3 SWAP6 SWAP1 SWAP4 POP JUMP JUMPDEST PUSH0 PUSH1 0x20 DUP3 DUP5 SUB SLT ISZERO PUSH2 0x1654 JUMPI PUSH0 DUP1 REVERT JUMPDEST DUP2 MLOAD DUP1 ISZERO ISZERO DUP2 EQ PUSH2 0xFCC JUMPI PUSH0 DUP1 REVERT JUMPDEST PUSH0 PUSH1 0x20 DUP3 DUP5 SUB SLT ISZERO PUSH2 0x1673 JUMPI PUSH0 DUP1 REVERT JUMPDEST DUP2 MLOAD PUSH2 0xFCC DUP2 PUSH2 0x14FF JUMP JUMPDEST PUSH4 0x4E487B71 PUSH1 0xE0 SHL PUSH0 MSTORE PUSH1 0x11 PUSH1 0x4 MSTORE PUSH1 0x24 PUSH0 REVERT JUMPDEST DUP1 DUP3 MUL DUP2 ISZERO DUP3 DUP3 DIV DUP5 EQ OR PUSH2 0x1287 JUMPI PUSH2 0x1287 PUSH2 0x167E JUMP JUMPDEST PUSH0 DUP3 PUSH2 0x16C3 JUMPI PUSH4 0x4E487B71 PUSH1 0xE0 SHL PUSH0 MSTORE PUSH1 0x12 PUSH1 0x4 MSTORE PUSH1 0x24 PUSH0 REVERT JUMPDEST POP DIV SWAP1 JUMP JUMPDEST DUP2 DUP2 SUB DUP2 DUP2 GT ISZERO PUSH2 0x1287 JUMPI PUSH2 0x1287 PUSH2 0x167E JUMP JUMPDEST DUP1 DUP3 ADD DUP1 DUP3 GT ISZERO PUSH2 0x1287 JUMPI PUSH2 0x1287 PUSH2 0x167E JUMP JUMPDEST PUSH0 PUSH1 0x20 DUP3 DUP5 SUB SLT ISZERO PUSH2 0x16FE JUMPI PUSH0 DUP1 REVERT JUMPDEST POP MLOAD SWAP2 SWAP1 POP JUMP JUMPDEST PUSH4 0x4E487B71 PUSH1 0xE0 SHL PUSH0 MSTORE PUSH1 0x21 PUSH1 0x4 MSTORE PUSH1 0x24 PUSH0 REVERT INVALID LOG2 PUSH5 0x6970667358 0x22 SLT KECCAK256 0x2B 0x21 BALANCE 0x2B DUP4 0x2E 0xDB 0xF9 0x4E 0xD1 ADD 0xF8 PREVRANDAO PUSH26 0xE68C4D453951DF29B2BBBC5C2C14AAE00CFA64736F6C63430008 XOR STOP CALLER "},"methodIdentifiers":{"accRewardPerShare()":"939d6237","accumulatedFees()":"587f5ed7","addLiquidity(uint256)":"51c6590a","claimRewards()":"372500ab","deposit(uint256)":"b6b55f25","emergencyWithdraw()":"db2e21bc","factory()":"c45a0155","gameFee()":"ea777eec","getPendingRewards(address)":"f6ed2017","getPoolBalance()":"abd70aa2","lastNonce(address)":"c0fd43b4","owner()":"8da5cb5b","paused()":"5c975abb","platformFee()":"26232a2e","platformWallet()":"fa2af9da","processGameResult(address,uint256,uint256)":"2bba99c2","publicKey()":"63ffab31","removeLiquidity(uint256)":"9c8f9f23","renounceOwnership()":"715018a6","rewardDebt(address)":"5873eb9b","setPlatformFee(uint256)":"12e8e2c3","shares(address)":"ce7c2ac2","token()":"fc0c546a","totalDeposits()":"7d882097","totalShares()":"3a98ef39","transferOwnership(address)":"f2fde38b","usedSignatures(bytes32)":"f978fd61","withdraw(uint256,uint256,uint256,bytes32,bytes)":"92b51e25"}}}}}