{"contracts/CasinoFactory.sol":{"CasinoFactory":{"abi":[{"inputs":[],"stateMutability":"nonpayable","type":"constructor"},{"inputs":[],"name":"EnforcedPause","type":"error"},{"inputs":[],"name":"ExpectedPause","type":"error"},{"inputs":[],"name":"FeeTooHigh","type":"error"},{"inputs":[],"name":"InvalidWalletAddress","type":"error"},{"inputs":[],"name":"NotAuthorized","type":"error"},{"inputs":[{"internalType":"address","name":"owner","type":"address"}],"name":"OwnableInvalidOwner","type":"error"},{"inputs":[{"internalType":"address","name":"account","type":"address"}],"name":"OwnableUnauthorizedAccount","type":"error"},{"inputs":[],"name":"PoolAlreadyExists","type":"error"},{"inputs":[],"name":"PoolDoesNotExist","type":"error"},{"anonymous":false,"inputs":[{"indexed":false,"internalType":"uint256","name":"oldFee","type":"uint256"},{"indexed":false,"internalType":"uint256","name":"newFee","type":"uint256"}],"name":"GameFeeUpdated","type":"event"},{"anonymous":false,"inputs":[{"indexed":true,"internalType":"address","name":"operator","type":"address"},{"indexed":false,"internalType":"bool","name":"status","type":"bool"},{"indexed":false,"internalType":"string","name":"name","type":"string"}],"name":"OperatorUpdated","type":"event"},{"anonymous":false,"inputs":[{"indexed":true,"internalType":"address","name":"previousOwner","type":"address"},{"indexed":true,"internalType":"address","name":"newOwner","type":"address"}],"name":"OwnershipTransferred","type":"event"},{"anonymous":false,"inputs":[{"indexed":false,"internalType":"address","name":"account","type":"address"}],"name":"Paused","type":"event"},{"anonymous":false,"inputs":[{"indexed":false,"internalType":"uint256","name":"oldFee","type":"uint256"},{"indexed":false,"internalType":"uint256","name":"newFee","type":"uint256"}],"name":"PlatformFeeUpdated","type":"event"},{"anonymous":false,"inputs":[{"indexed":true,"internalType":"address","name":"newWallet","type":"address"}],"name":"PlatformWalletUpdated","type":"event"},{"anonymous":false,"inputs":[{"indexed":true,"internalType":"address","name":"token","type":"address"},{"indexed":true,"internalType":"address","name":"pool","type":"address"}],"name":"PoolCreated","type":"event"},{"anonymous":false,"inputs":[{"indexed":true,"internalType":"address","name":"token","type":"address"},{"indexed":false,"internalType":"bool","name":"status","type":"bool"}],"name":"TokenWhitelisted","type":"event"},{"anonymous":false,"inputs":[{"indexed":false,"internalType":"address","name":"account","type":"address"}],"name":"Unpaused","type":"event"},{"inputs":[],"name":"BASIS_POINTS","outputs":[{"internalType":"uint256","name":"","type":"uint256"}],"stateMutability":"view","type":"function"},{"inputs":[],"name":"MAX_FEE","outputs":[{"internalType":"uint256","name":"","type":"uint256"}],"stateMutability":"view","type":"function"},{"inputs":[{"internalType":"address","name":"token","type":"address"}],"name":"createPool","outputs":[],"stateMutability":"nonpayable","type":"function"},{"inputs":[{"internalType":"uint256","name":"","type":"uint256"}],"name":"deployedTokens","outputs":[{"internalType":"address","name":"","type":"address"}],"stateMutability":"view","type":"function"},{"inputs":[{"internalType":"address","name":"token","type":"address"}],"name":"emergencyWithdrawFromPool","outputs":[],"stateMutability":"nonpayable","type":"function"},{"inputs":[],"name":"gameFee","outputs":[{"internalType":"uint256","name":"","type":"uint256"}],"stateMutability":"view","type":"function"},{"inputs":[],"name":"getDeployedPools","outputs":[{"internalType":"address[]","name":"tokens","type":"address[]"},{"internalType":"address[]","name":"pools","type":"address[]"}],"stateMutability":"view","type":"function"},{"inputs":[{"internalType":"address","name":"operatorAddr","type":"address"}],"name":"getOperatorName","outputs":[{"internalType":"string","name":"","type":"string"}],"stateMutability":"view","type":"function"},{"inputs":[{"internalType":"address","name":"token","type":"address"}],"name":"getPool","outputs":[{"internalType":"bool","name":"exists","type":"bool"},{"internalType":"address","name":"pool","type":"address"}],"stateMutability":"view","type":"function"},{"inputs":[{"internalType":"address","name":"_platformWallet","type":"address"}],"name":"initialize","outputs":[],"stateMutability":"nonpayable","type":"function"},{"inputs":[{"internalType":"address","name":"operatorAddr","type":"address"}],"name":"isOperator","outputs":[{"internalType":"bool","name":"","type":"bool"}],"stateMutability":"view","type":"function"},{"inputs":[{"internalType":"address","name":"","type":"address"}],"name":"isPoolDeployed","outputs":[{"internalType":"bool","name":"","type":"bool"}],"stateMutability":"view","type":"function"},{"inputs":[{"internalType":"address","name":"","type":"address"}],"name":"operatorNames","outputs":[{"internalType":"string","name":"","type":"string"}],"stateMutability":"view","type":"function"},{"inputs":[{"internalType":"address","name":"","type":"address"}],"name":"operators","outputs":[{"internalType":"bool","name":"","type":"bool"}],"stateMutability":"view","type":"function"},{"inputs":[],"name":"owner","outputs":[{"internalType":"address","name":"","type":"address"}],"stateMutability":"view","type":"function"},{"inputs":[],"name":"pause","outputs":[],"stateMutability":"nonpayable","type":"function"},{"inputs":[],"name":"paused","outputs":[{"internalType":"bool","name":"","type":"bool"}],"stateMutability":"view","type":"function"},{"inputs":[],"name":"platformFee","outputs":[{"internalType":"uint256","name":"","type":"uint256"}],"stateMutability":"view","type":"function"},{"inputs":[],"name":"platformWallet","outputs":[{"internalType":"address","name":"","type":"address"}],"stateMutability":"view","type":"function"},{"inputs":[],"name":"renounceOwnership","outputs":[],"stateMutability":"nonpayable","type":"function"},{"inputs":[{"internalType":"uint256","name":"newFee","type":"uint256"}],"name":"setGameFee","outputs":[],"stateMutability":"nonpayable","type":"function"},{"inputs":[{"internalType":"address","name":"operator","type":"address"},{"internalType":"bool","name":"status","type":"bool"},{"internalType":"string","name":"name","type":"string"}],"name":"setOperator","outputs":[],"stateMutability":"nonpayable","type":"function"},{"inputs":[{"internalType":"uint256","name":"newFee","type":"uint256"}],"name":"setPlatformFee","outputs":[],"stateMutability":"nonpayable","type":"function"},{"inputs":[{"internalType":"address","name":"","type":"address"}],"name":"tokenToPools","outputs":[{"internalType":"address","name":"","type":"address"}],"stateMutability":"view","type":"function"},{"inputs":[{"internalType":"address","name":"newOwner","type":"address"}],"name":"transferOwnership","outputs":[],"stateMutability":"nonpayable","type":"function"},{"inputs":[],"name":"unpause","outputs":[],"stateMutability":"nonpayable","type":"function"},{"inputs":[],"name":"updateAllPoolFees","outputs":[],"stateMutability":"nonpayable","type":"function"},{"inputs":[{"internalType":"address","name":"newWallet","type":"address"}],"name":"updatePlatformWallet","outputs":[],"stateMutability":"nonpayable","type":"function"},{"inputs":[{"internalType":"address","name":"token","type":"address"}],"name":"updatePoolFee","outputs":[],"stateMutability":"nonpayable","type":"function"}],"evm":{"bytecode":{"linkReferences":{},"object":"608060405234801561000f575f80fd5b505f805460ff19169055338061003e57604051631e4fbdf760e01b81525f600482015260240160405180910390fd5b61004781610058565b506101f460028190556003556100b0565b5f80546001600160a01b03838116610100818102610100600160a81b0319851617855560405193049190911692909183917f8be0079c531659141344cd1fd0a4f28419497f9722a3daafe3b4186f6b6457e091a35050565b612be7806100bd5f395ff3fe608060405234801562000010575f80fd5b5060043610620001ec575f3560e01c80639049f9d21162000113578063c4d66de811620000ab578063eac834071162000077578063eac834071462000487578063ec81aadb146200049e578063f2fde38b14620004b5578063fa2af9da14620004cc575f80fd5b8063c4d66de81462000445578063e1f1c4a7146200045c578063e3db75031462000466578063ea777eec146200047d575f80fd5b8063ada4ef3011620000eb578063ada4ef3014620003a8578063bacb4b7c14620003bf578063bbe4f6db14620003ea578063bc063e1a146200043b575f80fd5b80639049f9d21462000363578063a0e0ce3d146200037a578063a38bcc781462000391575f80fd5b80636b4592131162000187578063715018a6116200015f578063715018a6146200031b5780637657c8be14620003255780638456cb59146200032f5780638da5cb5b1462000339575f80fd5b80636b45921314620002ad5780636ca58ec814620002c75780636d70f7ae14620002ed575f80fd5b806321f95ea211620001c757806321f95ea2146200026857806326232a2e146200027f5780633f4ba83a14620002985780635c975abb14620002a2575f80fd5b806312e8e2c314620001f057806313e7c9d81462000209578063177761de1462000243575b5f80fd5b620002076200020136600462001352565b620004e0565b005b6200022e6200021a36600462001386565b60046020525f908152604090205460ff1681565b60405190151581526020015b60405180910390f35b6200022e6200025436600462001386565b60076020525f908152604090205460ff1681565b620002076200027936600462001386565b62000554565b6200028960025481565b6040519081526020016200023a565b620002076200064c565b5f5460ff166200022e565b620002b76200072a565b6040516200023a929190620013ee565b620002de620002d836600462001386565b62000886565b6040516200023a919062001464565b6200022e620002fe36600462001386565b6001600160a01b03165f9081526004602052604090205460ff1690565b6200020762000925565b620002076200093c565b6200020762000a72565b5f5461010090046001600160a01b03165b6040516001600160a01b0390911681526020016200023a565b620002076200037436600462001386565b62000b4c565b620002de6200038b36600462001386565b62000d16565b62000207620003a236600462001352565b62000e25565b62000207620003b936600462001386565b62000e92565b6200034a620003d036600462001386565b60066020525f90815260409020546001600160a01b031681565b6200041b620003fb36600462001386565b6001600160a01b039081165f908152600660205260409020541680151591565b6040805192151583526001600160a01b039091166020830152016200023a565b620002896103e881565b620002076200045636600462001386565b62000f0d565b6200028961271081565b62000207620004773660046200148c565b62000fa8565b6200028960035481565b620002076200049836600462001386565b6200109d565b6200034a620004af36600462001352565b62001123565b62000207620004c636600462001386565b6200114c565b6001546200034a906001600160a01b031681565b620004ea6200118f565b6103e88111156200050e5760405163cd4e616760e01b815260040160405180910390fd5b600280549082905560408051828152602081018490527fd347e206f25a89b917fc9482f1a2d294d749baa4dc9bde7fb495ee11fe49164391015b60405180910390a15050565b335f9081526004602052604090205460ff161580156200059557505f5461010090046001600160a01b03166001600160a01b0316336001600160a01b031614155b15620005b45760405163ea8e4eb560e01b815260040160405180910390fd5b6001600160a01b038082165f908152600660205260409020541680620005ed576040516302721e1f60e61b815260040160405180910390fd5b6002546040516312e8e2c360e01b815260048101919091526001600160a01b038216906312e8e2c3906024015f604051808303815f87803b15801562000631575f80fd5b505af115801562000644573d5f803e3d5ffd5b505050505050565b620006566200118f565b62000660620011c3565b5f6200066b6200072a565b9150505f5b815181101562000726575f6001600160a01b03168282815181106200069957620006996200156a565b60200260200101516001600160a01b0316146200071d57818181518110620006c557620006c56200156a565b60200260200101516001600160a01b0316633f4ba83a6040518163ffffffff1660e01b81526004015f604051808303815f87803b15801562000705575f80fd5b505af115801562000718573d5f803e3d5ffd5b505050505b60010162000670565b5050565b60085460609081908067ffffffffffffffff8111156200074e576200074e62001478565b60405190808252806020026020018201604052801562000778578160200160208202803683370190505b5092508067ffffffffffffffff81111562000797576200079762001478565b604051908082528060200260200182016040528015620007c1578160200160208202803683370190505b5091505f5b8181101562000880575f60088281548110620007e657620007e66200156a565b905f5260205f20015f9054906101000a90046001600160a01b03169050808583815181106200081957620008196200156a565b6001600160a01b039283166020918202929092018101919091528282165f9081526006909152604090205485519116908590849081106200085e576200085e6200156a565b6001600160a01b039092166020928302919091019091015250600101620007c6565b50509091565b60056020525f908152604090208054620008a0906200157e565b80601f0160208091040260200160405190810160405280929190818152602001828054620008ce906200157e565b80156200091d5780601f10620008f3576101008083540402835291602001916200091d565b820191905f5260205f20905b815481529060010190602001808311620008ff57829003601f168201915b505050505081565b6200092f6200118f565b6200093a5f62001216565b565b335f9081526004602052604090205460ff161580156200097d57505f5461010090046001600160a01b03166001600160a01b0316336001600160a01b031614155b156200099c5760405163ea8e4eb560e01b815260040160405180910390fd5b5f620009a76200072a565b9150505f5b815181101562000726575f6001600160a01b0316828281518110620009d557620009d56200156a565b60200260200101516001600160a01b03161462000a695781818151811062000a015762000a016200156a565b60200260200101516001600160a01b03166312e8e2c36002546040518263ffffffff1660e01b815260040162000a3991815260200190565b5f604051808303815f87803b15801562000a51575f80fd5b505af115801562000a64573d5f803e3d5ffd5b505050505b600101620009ac565b62000a7c6200118f565b62000a866200126e565b5f62000a916200072a565b9150505f5b815181101562000726575f6001600160a01b031682828151811062000abf5762000abf6200156a565b60200260200101516001600160a01b03161462000b435781818151811062000aeb5762000aeb6200156a565b60200260200101516001600160a01b0316638456cb596040518163ffffffff1660e01b81526004015f604051808303815f87803b15801562000b2b575f80fd5b505af115801562000b3e573d5f803e3d5ffd5b505050505b60010162000a96565b6001600160a01b03811662000b745760405163a5f90a1160e01b815260040160405180910390fd5b6001600160a01b0381165f9081526007602052604090205460ff161562000bae57604051630188c99160e11b815260040160405180910390fd5b6001546040515f91839130916001600160a01b03169062000bcf90620012f4565b6001600160a01b03938416815291831660208301529091166040820152606001604051809103905ff08015801562000c09573d5f803e3d5ffd5b506002546040516312e8e2c360e01b81529192506001600160a01b038316916312e8e2c39162000c3f9160040190815260200190565b5f604051808303815f87803b15801562000c57575f80fd5b505af115801562000c6a573d5f803e3d5ffd5b505050506001600160a01b038281165f81815260066020908152604080832080546001600160a01b03199081169688169687179091556007909252808320805460ff1916600190811790915560088054918201815584527ff3f7a9fe364faab93b216da50a3214154f22a0a2b415b23a84c8169e8b636ee30180549092168417909155517f4f2ce4e40f623ca765fc0167a25cb7842ceaafb8d82d3dec26ca0d0e0d2d48969190a35050565b6001600160a01b0381165f9081526004602052604090205460609060ff1662000d785760405162461bcd60e51b815260206004820152600f60248201526e2737ba1030b71037b832b930ba37b960891b60448201526064015b60405180910390fd5b6001600160a01b0382165f908152600560205260409020805462000d9c906200157e565b80601f016020809104026020016040519081016040528092919081815260200182805462000dca906200157e565b801562000e195780601f1062000def5761010080835404028352916020019162000e19565b820191905f5260205f20905b81548152906001019060200180831162000dfb57829003601f168201915b50505050509050919050565b62000e2f6200118f565b6103e881111562000e535760405163cd4e616760e01b815260040160405180910390fd5b600380549082905560408051828152602081018490527f75aef5483b24548953e5e86df155417ee9e1b8a174ad54f9c1a2211ab03822c2910162000548565b62000e9c6200118f565b6001600160a01b03811662000ec45760405163a5f90a1160e01b815260040160405180910390fd5b600180546001600160a01b0319166001600160a01b0383169081179091556040517f73238e3ae0a71b401b31ae67204506d074de41bd5c084082fba9b64b1c7fa28f905f90a250565b6001600160a01b03811662000f355760405163a5f90a1160e01b815260040160405180910390fd5b6001546001600160a01b03161562000f865760405162461bcd60e51b8152602060048201526013602482015272105b1c9958591e481a5b9a5d1a585b1a5e9959606a1b604482015260640162000d6f565b600180546001600160a01b0319166001600160a01b0392909216919091179055565b62000fb26200118f565b6001600160a01b03831662000fda5760405163a5f90a1160e01b815260040160405180910390fd5b6001600160a01b0383165f908152600460205260409020805460ff1916831580159190911790915562001031576001600160a01b0383165f9081526005602052604090206200102a828262001608565b5062001053565b6001600160a01b0383165f908152600560205260408120620010539162001302565b826001600160a01b03167fb4a7e7bfbe44168d75911da03cb58c71b58bb630b7f21e7b7fa7029077da9646838360405162001090929190620016d1565b60405180910390a2505050565b620010a76200118f565b620010b1620012ad565b6001600160a01b038082165f908152600660205260409020541680620010ea576040516302721e1f60e61b815260040160405180910390fd5b806001600160a01b031663db2e21bc6040518163ffffffff1660e01b81526004015f604051808303815f87803b15801562000631575f80fd5b6008818154811062001133575f80fd5b5f918252602090912001546001600160a01b0316905081565b620011566200118f565b6001600160a01b0381166200118157604051631e4fbdf760e01b81525f600482015260240162000d6f565b6200118c8162001216565b50565b5f546001600160a01b036101009091041633146200093a5760405163118cdaa760e01b815233600482015260240162000d6f565b620011cd620012ad565b5f805460ff191690557f5db9ee0a495bf2e6ff9c91a7834c1ba4fdd244a5e8aa4e537bd38aeae4b073aa335b6040516001600160a01b03909116815260200160405180910390a1565b5f80546001600160a01b03838116610100818102610100600160a81b0319851617855560405193049190911692909183917f8be0079c531659141344cd1fd0a4f28419497f9722a3daafe3b4186f6b6457e091a35050565b62001278620012d0565b5f805460ff191660011790557f62e78cea01bee320cd4e420270b5ea74000d11b0c9f74754ebdbfc544b05a258620011f93390565b5f5460ff166200093a57604051638dfc202b60e01b815260040160405180910390fd5b5f5460ff16156200093a5760405163d93c066560e01b815260040160405180910390fd5b6114bc80620016f683390190565b50805462001310906200157e565b5f825580601f1062001320575050565b601f0160209004905f5260205f20908101906200118c91905b808211156200134e575f815560010162001339565b5090565b5f6020828403121562001363575f80fd5b5035919050565b80356001600160a01b038116811462001381575f80fd5b919050565b5f6020828403121562001397575f80fd5b620013a2826200136a565b9392505050565b5f815180845260208085019450602084015f5b83811015620013e35781516001600160a01b031687529582019590820190600101620013bc565b509495945050505050565b604081525f620014026040830185620013a9565b8281036020840152620014168185620013a9565b95945050505050565b5f81518084525f5b81811015620014455760208185018101518683018201520162001427565b505f602082860101526020601f19601f83011685010191505092915050565b602081525f620013a260208301846200141f565b634e487b7160e01b5f52604160045260245ffd5b5f805f606084860312156200149f575f80fd5b620014aa846200136a565b925060208401358015158114620014bf575f80fd5b9150604084013567ffffffffffffffff80821115620014dc575f80fd5b818601915086601f830112620014f0575f80fd5b81358181111562001505576200150562001478565b604051601f8201601f19908116603f0116810190838211818310171562001530576200153062001478565b8160405282815289602084870101111562001549575f80fd5b826020860160208301375f6020848301015280955050505050509250925092565b634e487b7160e01b5f52603260045260245ffd5b600181811c908216806200159357607f821691505b602082108103620015b257634e487b7160e01b5f52602260045260245ffd5b50919050565b601f8211156200160357805f5260205f20601f840160051c81016020851015620015df5750805b601f840160051c820191505b8181101562001600575f8155600101620015eb565b50505b505050565b815167ffffffffffffffff81111562001625576200162562001478565b6200163d816200163684546200157e565b84620015b8565b602080601f83116001811462001673575f84156200165b5750858301515b5f19600386901b1c1916600185901b17855562000644565b5f85815260208120601f198616915b82811015620016a35788860151825594840194600190910190840162001682565b5085821015620016c157878501515f19600388901b60f8161c191681555b5050505050600190811b01905550565b8215158152604060208201525f620016ed60408301846200141f565b94935050505056fe608060405234801562000010575f80fd5b50604051620014bc380380620014bc83398101604081905262000033916200023d565b5f805460ff19169055816001600160a01b0381166200006c57604051631e4fbdf760e01b81525f60048201526024015b60405180910390fd5b620000778162000150565b50600180556001600160a01b038316620000a45760405163162908e360e11b815260040160405180910390fd5b6001600160a01b038216620000cc5760405163162908e360e11b815260040160405180910390fd5b6001600160a01b038116620000f45760405163162908e360e11b815260040160405180910390fd5b600480546001600160a01b038086166001600160a01b0319928316179092556005805485841690831617905560068054928416929091169190911790556101f460028190556003556200014782620001a8565b50505062000284565b5f80546001600160a01b03838116610100818102610100600160a81b0319851617855560405193049190911692909183917f8be0079c531659141344cd1fd0a4f28419497f9722a3daafe3b4186f6b6457e091a35050565b620001b2620001eb565b6001600160a01b038116620001dd57604051631e4fbdf760e01b81525f600482015260240162000063565b620001e88162000150565b50565b5f546001600160a01b036101009091041633146200021f5760405163118cdaa760e01b815233600482015260240162000063565b565b80516001600160a01b038116811462000238575f80fd5b919050565b5f805f6060848603121562000250575f80fd5b6200025b8462000221565b92506200026b6020850162000221565b91506200027b6040850162000221565b90509250925092565b61122a80620002925f395ff3fe608060405234801561000f575f80fd5b50600436106101a1575f3560e01c80638456cb59116100f3578063ce7c2ac211610093578063f2fde38b1161006e578063f2fde38b14610321578063f6ed201714610334578063fa2af9da14610347578063fc0c546a1461035a575f80fd5b8063ce7c2ac2146102f1578063db2e21bc14610310578063ea777eec14610318575f80fd5b80639c8f9f23116100ce5780639c8f9f23146102b0578063abd70aa2146102c3578063b6b55f25146102cb578063c45a0155146102de575f80fd5b80638456cb59146102765780638da5cb5b1461027e578063939d6237146102a7575f80fd5b80633f4ba83a1161015e578063587f5ed711610139578063587f5ed7146102475780635c975abb14610250578063715018a6146102655780637d8820971461026d575f80fd5b80633f4ba83a1461020d57806351c6590a146102155780635873eb9b14610228575f80fd5b806312e8e2c3146101a557806326232a2e146101ba5780632bba99c2146101d65780632e1a7d4d146101e9578063372500ab146101fc5780633a98ef3914610204575b5f80fd5b6101b86101b33660046110b5565b61036d565b005b6101c360025481565b6040519081526020015b60405180910390f35b6101b86101e43660046110e0565b6103dd565b6101b86101f73660046110b5565b610694565b6101b86107b6565b6101c360085481565b6101b86107d2565b6101b86102233660046110b5565b6107e2565b6101c3610236366004611112565b600b6020525f908152604090205481565b6101c360095481565b5f5460ff1660405190151581526020016101cd565b6101b861092b565b6101c360075481565b6101b861093c565b5f5461010090046001600160a01b03165b6040516001600160a01b0390911681526020016101cd565b6101c3600c5481565b6101b86102be3660046110b5565b61094c565b6007546101c3565b6101b86102d93660046110b5565b610ab4565b60055461028f906001600160a01b031681565b6101c36102ff366004611112565b600a6020525f908152604090205481565b6101b8610ba3565b6101c360035481565b6101b861032f366004611112565b610c5d565b6101c3610342366004611112565b610c9c565b60065461028f906001600160a01b031681565b60045461028f906001600160a01b031681565b610375610d0a565b6103e88111156103985760405163cd4e616760e01b815260040160405180910390fd5b600280549082905560408051828152602081018490527fd347e206f25a89b917fc9482f1a2d294d749baa4dc9bde7fb495ee11fe491643910160405180910390a15050565b60055460405163027cf93b60e31b81523360048201526001600160a01b03909116906313e7c9d890602401602060405180830381865afa158015610423573d5f803e3d5ffd5b505050506040513d601f19601f82011682018060405250810190610447919061112d565b1580156104d9575060055f9054906101000a90046001600160a01b03166001600160a01b0316638da5cb5b6040518163ffffffff1660e01b8152600401602060405180830381865afa15801561049f573d5f803e3d5ffd5b505050506040513d601f19601f820116820180604052508101906104c3919061114c565b6001600160a01b0316336001600160a01b031614155b156104f75760405163ea8e4eb560e01b815260040160405180910390fd5b8015610627575f6127106003548361050f919061117b565b6105199190611198565b90505f61052682846111b7565b90508160095f82825461053991906111ca565b909155505060085415610578576008546105588364e8d4a5100061117b565b6105629190611198565b600c5f82825461057291906111ca565b90915550505b60075481111561059b57604051631e9acf1760e31b815260040160405180910390fd5b6004546105b2906001600160a01b03168683610d3c565b81836007546105c191906111b7565b6105cb91906111ca565b60075560408051858152602081018590529081018390524260608201526001600160a01b038616907fe1e22663cd8791964c0fe0c536a5b296f73b419c63e18fcba51728f9270d90a29060800160405180910390a25050505050565b8160075f82825461063891906111ca565b9091555050604080518381525f60208201529081018390524260608201526001600160a01b038416907fe1e22663cd8791964c0fe0c536a5b296f73b419c63e18fcba51728f9270d90a29060800160405180910390a25b505050565b61069c610d9b565b6106a4610dc5565b805f036106c45760405163162908e360e11b815260040160405180910390fd5b6007548111156106e757604051631e9acf1760e31b815260040160405180910390fd5b5f612710600254836106f9919061117b565b6107039190611198565b90505f61071082846111b7565b90508260075f82825461072391906111b7565b9091555050811561074b5760065460045461074b916001600160a01b03918216911684610d3c565b600454610762906001600160a01b03163383610d3c565b6040805184815260208101839052429181019190915233907f650fdf669e93aa6c8ff3defe2da9c12b64f1548e5e1e54e803f4c1beb6466c8e906060015b60405180910390a250506107b360018055565b50565b6107be610d9b565b6107c733610de8565b6107d060018055565b565b6107da610d0a565b6107d0610f03565b6107ea610d9b565b6107f2610dc5565b805f036108125760405163162908e360e11b815260040160405180910390fd5b5f6008545f03610823575080610840565b600754600854610833908461117b565b61083d9190611198565b90505b64e8d4a51000600c5482610854919061117b565b61085e9190611198565b335f818152600b602052604090209190915560045461088a916001600160a01b03909116903085610f54565b8160075f82825461089b91906111ca565b925050819055508060085f8282546108b391906111ca565b9091555050335f908152600a6020526040812080548392906108d69084906111ca565b90915550506040805183815260208101839052429181019190915233907f64b83944e79c3ce8d4c297411de637c3e102d064677aac0c163976ebdcd6f50e906060015b60405180910390a2506107b360018055565b610933610d0a565b6107d05f610f93565b610944610d0a565b6107d0610feb565b610954610d9b565b805f036109745760405163162908e360e11b815260040160405180910390fd5b335f908152600a60205260409020548111156109a357604051633999656760e01b815260040160405180910390fd5b6109ac33610de8565b5f600854600754836109be919061117b565b6109c89190611198565b90508060075f8282546109db91906111b7565b925050819055508160085f8282546109f391906111b7565b9091555050335f908152600a602052604081208054849290610a169084906111b7565b9091555050600c54335f908152600a602052604090205464e8d4a5100091610a3d9161117b565b610a479190611198565b335f818152600b6020526040902091909155600454610a72916001600160a01b039091169083610d3c565b6040805182815260208101849052429181019190915233907f1dc8bb69df2b8e91fbdcbfcf93d951b3f0000f085a95fe3f7946d6161439245d90606001610919565b610abc610d9b565b610ac4610dc5565b805f03610ae45760405163162908e360e11b815260040160405180910390fd5b5f61271060025483610af6919061117b565b610b009190611198565b90505f610b0d82846111b7565b600454909150610b28906001600160a01b0316333086610f54565b8115610b4b57600654600454610b4b916001600160a01b03918216911684610d3c565b8060075f828254610b5c91906111ca565b90915550506040805184815260208101839052429181019190915233907f36af321ec8d3c75236829c5317affd40ddb308863a1236d2d277a4025cccee1e906060016107a0565b610bab610d0a565b610bb3611027565b600480546040516370a0823160e01b815230928101929092525f916001600160a01b03909116906370a0823190602401602060405180830381865afa158015610bfe573d5f803e3d5ffd5b505050506040513d601f19601f82011682018060405250810190610c2291906111dd565b90508015610c4757600654600454610c47916001600160a01b03918216911683610d3c565b505f600781905560088190556009819055600c55565b610c65610d0a565b6001600160a01b038116610c9357604051631e4fbdf760e01b81525f60048201526024015b60405180910390fd5b6107b381610f93565b6001600160a01b0381165f908152600a6020526040812054808203610cc357505f92915050565b6001600160a01b0383165f908152600b6020526040902054600c5464e8d4a5100090610cef908461117b565b610cf99190611198565b610d0391906111b7565b9392505050565b5f546001600160a01b036101009091041633146107d05760405163118cdaa760e01b8152336004820152602401610c8a565b6040516001600160a01b0383811660248301526044820183905261068f91859182169063a9059cbb906064015b604051602081830303815290604052915060e01b6020820180516001600160e01b038381831617835250505050611049565b600260015403610dbe57604051633ee5aeb560e01b815260040160405180910390fd5b6002600155565b5f5460ff16156107d05760405163d93c066560e01b815260040160405180910390fd5b6001600160a01b0381165f908152600a602052604081205490819003610e0c575050565b6001600160a01b0382165f908152600b6020526040812054600c5464e8d4a5100090610e38908561117b565b610e429190611198565b610e4c91906111b7565b90508015610ec5578060095f828254610e6591906111b7565b9091555050600454610e81906001600160a01b03168483610d3c565b604080518281524260208201526001600160a01b038516917fdacbdde355ba930696a362ea6738feb9f8bd52dfb3d81947558fd3217e23e325910160405180910390a25b64e8d4a51000600c5483610ed9919061117b565b610ee39190611198565b6001600160a01b039093165f908152600b60205260409020929092555050565b610f0b611027565b5f805460ff191690557f5db9ee0a495bf2e6ff9c91a7834c1ba4fdd244a5e8aa4e537bd38aeae4b073aa335b6040516001600160a01b03909116815260200160405180910390a1565b6040516001600160a01b038481166024830152838116604483015260648201839052610f8d9186918216906323b872dd90608401610d69565b50505050565b5f80546001600160a01b03838116610100818102610100600160a81b0319851617855560405193049190911692909183917f8be0079c531659141344cd1fd0a4f28419497f9722a3daafe3b4186f6b6457e091a35050565b610ff3610dc5565b5f805460ff191660011790557f62e78cea01bee320cd4e420270b5ea74000d11b0c9f74754ebdbfc544b05a258610f373390565b5f5460ff166107d057604051638dfc202b60e01b815260040160405180910390fd5b5f8060205f8451602086015f885af180611068576040513d5f823e3d81fd5b50505f513d9150811561107f57806001141561108c565b6001600160a01b0384163b155b15610f8d57604051635274afe760e01b81526001600160a01b0385166004820152602401610c8a565b5f602082840312156110c5575f80fd5b5035919050565b6001600160a01b03811681146107b3575f80fd5b5f805f606084860312156110f2575f80fd5b83356110fd816110cc565b95602085013595506040909401359392505050565b5f60208284031215611122575f80fd5b8135610d03816110cc565b5f6020828403121561113d575f80fd5b81518015158114610d03575f80fd5b5f6020828403121561115c575f80fd5b8151610d03816110cc565b634e487b7160e01b5f52601160045260245ffd5b808202811582820484141761119257611192611167565b92915050565b5f826111b257634e487b7160e01b5f52601260045260245ffd5b500490565b8181038181111561119257611192611167565b8082018082111561119257611192611167565b5f602082840312156111ed575f80fd5b505191905056fea26469706673582212205e91548b037654f55386feafa1e91c790a8041508f831943b7d6a7f01e6c039b64736f6c63430008180033a264697066735822122021e9736aa5df2629ac45a9946b72d51db2ecf989d40405c62373659532e6ea5f64736f6c63430008180033","opcodes":"PUSH1 0x80 PUSH1 0x40 MSTORE CALLVALUE DUP1 ISZERO PUSH2 0xF JUMPI PUSH0 DUP1 REVERT JUMPDEST POP PUSH0 DUP1 SLOAD PUSH1 0xFF NOT AND SWAP1 SSTORE CALLER DUP1 PUSH2 0x3E JUMPI PUSH1 0x40 MLOAD PUSH4 0x1E4FBDF7 PUSH1 0xE0 SHL DUP2 MSTORE PUSH0 PUSH1 0x4 DUP3 ADD MSTORE PUSH1 0x24 ADD PUSH1 0x40 MLOAD DUP1 SWAP2 SUB SWAP1 REVERT JUMPDEST PUSH2 0x47 DUP2 PUSH2 0x58 JUMP JUMPDEST POP PUSH2 0x1F4 PUSH1 0x2 DUP2 SWAP1 SSTORE PUSH1 0x3 SSTORE PUSH2 0xB0 JUMP JUMPDEST PUSH0 DUP1 SLOAD PUSH1 0x1 PUSH1 0x1 PUSH1 0xA0 SHL SUB DUP4 DUP2 AND PUSH2 0x100 DUP2 DUP2 MUL PUSH2 0x100 PUSH1 0x1 PUSH1 0xA8 SHL SUB NOT DUP6 AND OR DUP6 SSTORE PUSH1 0x40 MLOAD SWAP4 DIV SWAP2 SWAP1 SWAP2 AND SWAP3 SWAP1 SWAP2 DUP4 SWAP2 PUSH32 0x8BE0079C531659141344CD1FD0A4F28419497F9722A3DAAFE3B4186F6B6457E0 SWAP2 LOG3 POP POP JUMP JUMPDEST PUSH2 0x2BE7 DUP1 PUSH2 0xBD PUSH0 CODECOPY PUSH0 RETURN INVALID PUSH1 0x80 PUSH1 0x40 MSTORE CALLVALUE DUP1 ISZERO PUSH3 0x10 JUMPI PUSH0 DUP1 REVERT JUMPDEST POP PUSH1 0x4 CALLDATASIZE LT PUSH3 0x1EC JUMPI PUSH0 CALLDATALOAD PUSH1 0xE0 SHR DUP1 PUSH4 0x9049F9D2 GT PUSH3 0x113 JUMPI DUP1 PUSH4 0xC4D66DE8 GT PUSH3 0xAB JUMPI DUP1 PUSH4 0xEAC83407 GT PUSH3 0x77 JUMPI DUP1 PUSH4 0xEAC83407 EQ PUSH3 0x487 JUMPI DUP1 PUSH4 0xEC81AADB EQ PUSH3 0x49E JUMPI DUP1 PUSH4 0xF2FDE38B EQ PUSH3 0x4B5 JUMPI DUP1 PUSH4 0xFA2AF9DA EQ PUSH3 0x4CC JUMPI PUSH0 DUP1 REVERT JUMPDEST DUP1 PUSH4 0xC4D66DE8 EQ PUSH3 0x445 JUMPI DUP1 PUSH4 0xE1F1C4A7 EQ PUSH3 0x45C JUMPI DUP1 PUSH4 0xE3DB7503 EQ PUSH3 0x466 JUMPI DUP1 PUSH4 0xEA777EEC EQ PUSH3 0x47D JUMPI PUSH0 DUP1 REVERT JUMPDEST DUP1 PUSH4 0xADA4EF30 GT PUSH3 0xEB JUMPI DUP1 PUSH4 0xADA4EF30 EQ PUSH3 0x3A8 JUMPI DUP1 PUSH4 0xBACB4B7C EQ PUSH3 0x3BF JUMPI DUP1 PUSH4 0xBBE4F6DB EQ PUSH3 0x3EA JUMPI DUP1 PUSH4 0xBC063E1A EQ PUSH3 0x43B JUMPI PUSH0 DUP1 REVERT JUMPDEST DUP1 PUSH4 0x9049F9D2 EQ PUSH3 0x363 JUMPI DUP1 PUSH4 0xA0E0CE3D EQ PUSH3 0x37A JUMPI DUP1 PUSH4 0xA38BCC78 EQ PUSH3 0x391 JUMPI PUSH0 DUP1 REVERT JUMPDEST DUP1 PUSH4 0x6B459213 GT PUSH3 0x187 JUMPI DUP1 PUSH4 0x715018A6 GT PUSH3 0x15F JUMPI DUP1 PUSH4 0x715018A6 EQ PUSH3 0x31B JUMPI DUP1 PUSH4 0x7657C8BE EQ PUSH3 0x325 JUMPI DUP1 PUSH4 0x8456CB59 EQ PUSH3 0x32F JUMPI DUP1 PUSH4 0x8DA5CB5B EQ PUSH3 0x339 JUMPI PUSH0 DUP1 REVERT JUMPDEST DUP1 PUSH4 0x6B459213 EQ PUSH3 0x2AD JUMPI DUP1 PUSH4 0x6CA58EC8 EQ PUSH3 0x2C7 JUMPI DUP1 PUSH4 0x6D70F7AE EQ PUSH3 0x2ED JUMPI PUSH0 DUP1 REVERT JUMPDEST DUP1 PUSH4 0x21F95EA2 GT PUSH3 0x1C7 JUMPI DUP1 PUSH4 0x21F95EA2 EQ PUSH3 0x268 JUMPI DUP1 PUSH4 0x26232A2E EQ PUSH3 0x27F JUMPI DUP1 PUSH4 0x3F4BA83A EQ PUSH3 0x298 JUMPI DUP1 PUSH4 0x5C975ABB EQ PUSH3 0x2A2 JUMPI PUSH0 DUP1 REVERT JUMPDEST DUP1 PUSH4 0x12E8E2C3 EQ PUSH3 0x1F0 JUMPI DUP1 PUSH4 0x13E7C9D8 EQ PUSH3 0x209 JUMPI DUP1 PUSH4 0x177761DE EQ PUSH3 0x243 JUMPI JUMPDEST PUSH0 DUP1 REVERT JUMPDEST PUSH3 0x207 PUSH3 0x201 CALLDATASIZE PUSH1 0x4 PUSH3 0x1352 JUMP JUMPDEST PUSH3 0x4E0 JUMP JUMPDEST STOP JUMPDEST PUSH3 0x22E PUSH3 0x21A CALLDATASIZE PUSH1 0x4 PUSH3 0x1386 JUMP JUMPDEST PUSH1 0x4 PUSH1 0x20 MSTORE PUSH0 SWAP1 DUP2 MSTORE PUSH1 0x40 SWAP1 KECCAK256 SLOAD PUSH1 0xFF AND DUP2 JUMP JUMPDEST PUSH1 0x40 MLOAD SWAP1 ISZERO ISZERO DUP2 MSTORE PUSH1 0x20 ADD JUMPDEST PUSH1 0x40 MLOAD DUP1 SWAP2 SUB SWAP1 RETURN JUMPDEST PUSH3 0x22E PUSH3 0x254 CALLDATASIZE PUSH1 0x4 PUSH3 0x1386 JUMP JUMPDEST PUSH1 0x7 PUSH1 0x20 MSTORE PUSH0 SWAP1 DUP2 MSTORE PUSH1 0x40 SWAP1 KECCAK256 SLOAD PUSH1 0xFF AND DUP2 JUMP JUMPDEST PUSH3 0x207 PUSH3 0x279 CALLDATASIZE PUSH1 0x4 PUSH3 0x1386 JUMP JUMPDEST PUSH3 0x554 JUMP JUMPDEST PUSH3 0x289 PUSH1 0x2 SLOAD DUP2 JUMP JUMPDEST PUSH1 0x40 MLOAD SWAP1 DUP2 MSTORE PUSH1 0x20 ADD PUSH3 0x23A JUMP JUMPDEST PUSH3 0x207 PUSH3 0x64C JUMP JUMPDEST PUSH0 SLOAD PUSH1 0xFF AND PUSH3 0x22E JUMP JUMPDEST PUSH3 0x2B7 PUSH3 0x72A JUMP JUMPDEST PUSH1 0x40 MLOAD PUSH3 0x23A SWAP3 SWAP2 SWAP1 PUSH3 0x13EE JUMP JUMPDEST PUSH3 0x2DE PUSH3 0x2D8 CALLDATASIZE PUSH1 0x4 PUSH3 0x1386 JUMP JUMPDEST PUSH3 0x886 JUMP JUMPDEST PUSH1 0x40 MLOAD PUSH3 0x23A SWAP2 SWAP1 PUSH3 0x1464 JUMP JUMPDEST PUSH3 0x22E PUSH3 0x2FE CALLDATASIZE PUSH1 0x4 PUSH3 0x1386 JUMP JUMPDEST PUSH1 0x1 PUSH1 0x1 PUSH1 0xA0 SHL SUB AND PUSH0 SWAP1 DUP2 MSTORE PUSH1 0x4 PUSH1 0x20 MSTORE PUSH1 0x40 SWAP1 KECCAK256 SLOAD PUSH1 0xFF AND SWAP1 JUMP JUMPDEST PUSH3 0x207 PUSH3 0x925 JUMP JUMPDEST PUSH3 0x207 PUSH3 0x93C JUMP JUMPDEST PUSH3 0x207 PUSH3 0xA72 JUMP JUMPDEST PUSH0 SLOAD PUSH2 0x100 SWAP1 DIV PUSH1 0x1 PUSH1 0x1 PUSH1 0xA0 SHL SUB AND JUMPDEST PUSH1 0x40 MLOAD PUSH1 0x1 PUSH1 0x1 PUSH1 0xA0 SHL SUB SWAP1 SWAP2 AND DUP2 MSTORE PUSH1 0x20 ADD PUSH3 0x23A JUMP JUMPDEST PUSH3 0x207 PUSH3 0x374 CALLDATASIZE PUSH1 0x4 PUSH3 0x1386 JUMP JUMPDEST PUSH3 0xB4C JUMP JUMPDEST PUSH3 0x2DE PUSH3 0x38B CALLDATASIZE PUSH1 0x4 PUSH3 0x1386 JUMP JUMPDEST PUSH3 0xD16 JUMP JUMPDEST PUSH3 0x207 PUSH3 0x3A2 CALLDATASIZE PUSH1 0x4 PUSH3 0x1352 JUMP JUMPDEST PUSH3 0xE25 JUMP JUMPDEST PUSH3 0x207 PUSH3 0x3B9 CALLDATASIZE PUSH1 0x4 PUSH3 0x1386 JUMP JUMPDEST PUSH3 0xE92 JUMP JUMPDEST PUSH3 0x34A PUSH3 0x3D0 CALLDATASIZE PUSH1 0x4 PUSH3 0x1386 JUMP JUMPDEST PUSH1 0x6 PUSH1 0x20 MSTORE PUSH0 SWAP1 DUP2 MSTORE PUSH1 0x40 SWAP1 KECCAK256 SLOAD PUSH1 0x1 PUSH1 0x1 PUSH1 0xA0 SHL SUB AND DUP2 JUMP JUMPDEST PUSH3 0x41B PUSH3 0x3FB CALLDATASIZE PUSH1 0x4 PUSH3 0x1386 JUMP JUMPDEST PUSH1 0x1 PUSH1 0x1 PUSH1 0xA0 SHL SUB SWAP1 DUP2 AND PUSH0 SWAP1 DUP2 MSTORE PUSH1 0x6 PUSH1 0x20 MSTORE PUSH1 0x40 SWAP1 KECCAK256 SLOAD AND DUP1 ISZERO ISZERO SWAP2 JUMP JUMPDEST PUSH1 0x40 DUP1 MLOAD SWAP3 ISZERO ISZERO DUP4 MSTORE PUSH1 0x1 PUSH1 0x1 PUSH1 0xA0 SHL SUB SWAP1 SWAP2 AND PUSH1 0x20 DUP4 ADD MSTORE ADD PUSH3 0x23A JUMP JUMPDEST PUSH3 0x289 PUSH2 0x3E8 DUP2 JUMP JUMPDEST PUSH3 0x207 PUSH3 0x456 CALLDATASIZE PUSH1 0x4 PUSH3 0x1386 JUMP JUMPDEST PUSH3 0xF0D JUMP JUMPDEST PUSH3 0x289 PUSH2 0x2710 DUP2 JUMP JUMPDEST PUSH3 0x207 PUSH3 0x477 CALLDATASIZE PUSH1 0x4 PUSH3 0x148C JUMP JUMPDEST PUSH3 0xFA8 JUMP JUMPDEST PUSH3 0x289 PUSH1 0x3 SLOAD DUP2 JUMP JUMPDEST PUSH3 0x207 PUSH3 0x498 CALLDATASIZE PUSH1 0x4 PUSH3 0x1386 JUMP JUMPDEST PUSH3 0x109D JUMP JUMPDEST PUSH3 0x34A PUSH3 0x4AF CALLDATASIZE PUSH1 0x4 PUSH3 0x1352 JUMP JUMPDEST PUSH3 0x1123 JUMP JUMPDEST PUSH3 0x207 PUSH3 0x4C6 CALLDATASIZE PUSH1 0x4 PUSH3 0x1386 JUMP JUMPDEST PUSH3 0x114C JUMP JUMPDEST PUSH1 0x1 SLOAD PUSH3 0x34A SWAP1 PUSH1 0x1 PUSH1 0x1 PUSH1 0xA0 SHL SUB AND DUP2 JUMP JUMPDEST PUSH3 0x4EA PUSH3 0x118F JUMP JUMPDEST PUSH2 0x3E8 DUP2 GT ISZERO PUSH3 0x50E JUMPI PUSH1 0x40 MLOAD PUSH4 0xCD4E6167 PUSH1 0xE0 SHL DUP2 MSTORE PUSH1 0x4 ADD PUSH1 0x40 MLOAD DUP1 SWAP2 SUB SWAP1 REVERT JUMPDEST PUSH1 0x2 DUP1 SLOAD SWAP1 DUP3 SWAP1 SSTORE PUSH1 0x40 DUP1 MLOAD DUP3 DUP2 MSTORE PUSH1 0x20 DUP2 ADD DUP5 SWAP1 MSTORE PUSH32 0xD347E206F25A89B917FC9482F1A2D294D749BAA4DC9BDE7FB495EE11FE491643 SWAP2 ADD JUMPDEST PUSH1 0x40 MLOAD DUP1 SWAP2 SUB SWAP1 LOG1 POP POP JUMP JUMPDEST CALLER PUSH0 SWAP1 DUP2 MSTORE PUSH1 0x4 PUSH1 0x20 MSTORE PUSH1 0x40 SWAP1 KECCAK256 SLOAD PUSH1 0xFF AND ISZERO DUP1 ISZERO PUSH3 0x595 JUMPI POP PUSH0 SLOAD PUSH2 0x100 SWAP1 DIV PUSH1 0x1 PUSH1 0x1 PUSH1 0xA0 SHL SUB AND PUSH1 0x1 PUSH1 0x1 PUSH1 0xA0 SHL SUB AND CALLER PUSH1 0x1 PUSH1 0x1 PUSH1 0xA0 SHL SUB AND EQ ISZERO JUMPDEST ISZERO PUSH3 0x5B4 JUMPI PUSH1 0x40 MLOAD PUSH4 0xEA8E4EB5 PUSH1 0xE0 SHL DUP2 MSTORE PUSH1 0x4 ADD PUSH1 0x40 MLOAD DUP1 SWAP2 SUB SWAP1 REVERT JUMPDEST PUSH1 0x1 PUSH1 0x1 PUSH1 0xA0 SHL SUB DUP1 DUP3 AND PUSH0 SWAP1 DUP2 MSTORE PUSH1 0x6 PUSH1 0x20 MSTORE PUSH1 0x40 SWAP1 KECCAK256 SLOAD AND DUP1 PUSH3 0x5ED JUMPI PUSH1 0x40 MLOAD PUSH4 0x2721E1F PUSH1 0xE6 SHL DUP2 MSTORE PUSH1 0x4 ADD PUSH1 0x40 MLOAD DUP1 SWAP2 SUB SWAP1 REVERT JUMPDEST PUSH1 0x2 SLOAD PUSH1 0x40 MLOAD PUSH4 0x12E8E2C3 PUSH1 0xE0 SHL DUP2 MSTORE PUSH1 0x4 DUP2 ADD SWAP2 SWAP1 SWAP2 MSTORE PUSH1 0x1 PUSH1 0x1 PUSH1 0xA0 SHL SUB DUP3 AND SWAP1 PUSH4 0x12E8E2C3 SWAP1 PUSH1 0x24 ADD PUSH0 PUSH1 0x40 MLOAD DUP1 DUP4 SUB DUP2 PUSH0 DUP8 DUP1 EXTCODESIZE ISZERO DUP1 ISZERO PUSH3 0x631 JUMPI PUSH0 DUP1 REVERT JUMPDEST POP GAS CALL ISZERO DUP1 ISZERO PUSH3 0x644 JUMPI RETURNDATASIZE PUSH0 DUP1 RETURNDATACOPY RETURNDATASIZE PUSH0 REVERT JUMPDEST POP POP POP POP POP POP JUMP JUMPDEST PUSH3 0x656 PUSH3 0x118F JUMP JUMPDEST PUSH3 0x660 PUSH3 0x11C3 JUMP JUMPDEST PUSH0 PUSH3 0x66B PUSH3 0x72A JUMP JUMPDEST SWAP2 POP POP PUSH0 JUMPDEST DUP2 MLOAD DUP2 LT ISZERO PUSH3 0x726 JUMPI PUSH0 PUSH1 0x1 PUSH1 0x1 PUSH1 0xA0 SHL SUB AND DUP3 DUP3 DUP2 MLOAD DUP2 LT PUSH3 0x699 JUMPI PUSH3 0x699 PUSH3 0x156A JUMP JUMPDEST PUSH1 0x20 MUL PUSH1 0x20 ADD ADD MLOAD PUSH1 0x1 PUSH1 0x1 PUSH1 0xA0 SHL SUB AND EQ PUSH3 0x71D JUMPI DUP2 DUP2 DUP2 MLOAD DUP2 LT PUSH3 0x6C5 JUMPI PUSH3 0x6C5 PUSH3 0x156A JUMP JUMPDEST PUSH1 0x20 MUL PUSH1 0x20 ADD ADD MLOAD PUSH1 0x1 PUSH1 0x1 PUSH1 0xA0 SHL SUB AND PUSH4 0x3F4BA83A PUSH1 0x40 MLOAD DUP2 PUSH4 0xFFFFFFFF AND PUSH1 0xE0 SHL DUP2 MSTORE PUSH1 0x4 ADD PUSH0 PUSH1 0x40 MLOAD DUP1 DUP4 SUB DUP2 PUSH0 DUP8 DUP1 EXTCODESIZE ISZERO DUP1 ISZERO PUSH3 0x705 JUMPI PUSH0 DUP1 REVERT JUMPDEST POP GAS CALL ISZERO DUP1 ISZERO PUSH3 0x718 JUMPI RETURNDATASIZE PUSH0 DUP1 RETURNDATACOPY RETURNDATASIZE PUSH0 REVERT JUMPDEST POP POP POP POP JUMPDEST PUSH1 0x1 ADD PUSH3 0x670 JUMP JUMPDEST POP POP JUMP JUMPDEST PUSH1 0x8 SLOAD PUSH1 0x60 SWAP1 DUP2 SWAP1 DUP1 PUSH8 0xFFFFFFFFFFFFFFFF DUP2 GT ISZERO PUSH3 0x74E JUMPI PUSH3 0x74E PUSH3 0x1478 JUMP JUMPDEST PUSH1 0x40 MLOAD SWAP1 DUP1 DUP3 MSTORE DUP1 PUSH1 0x20 MUL PUSH1 0x20 ADD DUP3 ADD PUSH1 0x40 MSTORE DUP1 ISZERO PUSH3 0x778 JUMPI DUP2 PUSH1 0x20 ADD PUSH1 0x20 DUP3 MUL DUP1 CALLDATASIZE DUP4 CALLDATACOPY ADD SWAP1 POP JUMPDEST POP SWAP3 POP DUP1 PUSH8 0xFFFFFFFFFFFFFFFF DUP2 GT ISZERO PUSH3 0x797 JUMPI PUSH3 0x797 PUSH3 0x1478 JUMP JUMPDEST PUSH1 0x40 MLOAD SWAP1 DUP1 DUP3 MSTORE DUP1 PUSH1 0x20 MUL PUSH1 0x20 ADD DUP3 ADD PUSH1 0x40 MSTORE DUP1 ISZERO PUSH3 0x7C1 JUMPI DUP2 PUSH1 0x20 ADD PUSH1 0x20 DUP3 MUL DUP1 CALLDATASIZE DUP4 CALLDATACOPY ADD SWAP1 POP JUMPDEST POP SWAP2 POP PUSH0 JUMPDEST DUP2 DUP2 LT ISZERO PUSH3 0x880 JUMPI PUSH0 PUSH1 0x8 DUP3 DUP2 SLOAD DUP2 LT PUSH3 0x7E6 JUMPI PUSH3 0x7E6 PUSH3 0x156A JUMP JUMPDEST SWAP1 PUSH0 MSTORE PUSH1 0x20 PUSH0 KECCAK256 ADD PUSH0 SWAP1 SLOAD SWAP1 PUSH2 0x100 EXP SWAP1 DIV PUSH1 0x1 PUSH1 0x1 PUSH1 0xA0 SHL SUB AND SWAP1 POP DUP1 DUP6 DUP4 DUP2 MLOAD DUP2 LT PUSH3 0x819 JUMPI PUSH3 0x819 PUSH3 0x156A JUMP JUMPDEST PUSH1 0x1 PUSH1 0x1 PUSH1 0xA0 SHL SUB SWAP3 DUP4 AND PUSH1 0x20 SWAP2 DUP3 MUL SWAP3 SWAP1 SWAP3 ADD DUP2 ADD SWAP2 SWAP1 SWAP2 MSTORE DUP3 DUP3 AND PUSH0 SWAP1 DUP2 MSTORE PUSH1 0x6 SWAP1 SWAP2 MSTORE PUSH1 0x40 SWAP1 KECCAK256 SLOAD DUP6 MLOAD SWAP2 AND SWAP1 DUP6 SWAP1 DUP5 SWAP1 DUP2 LT PUSH3 0x85E JUMPI PUSH3 0x85E PUSH3 0x156A JUMP JUMPDEST PUSH1 0x1 PUSH1 0x1 PUSH1 0xA0 SHL SUB SWAP1 SWAP3 AND PUSH1 0x20 SWAP3 DUP4 MUL SWAP2 SWAP1 SWAP2 ADD SWAP1 SWAP2 ADD MSTORE POP PUSH1 0x1 ADD PUSH3 0x7C6 JUMP JUMPDEST POP POP SWAP1 SWAP2 JUMP JUMPDEST PUSH1 0x5 PUSH1 0x20 MSTORE PUSH0 SWAP1 DUP2 MSTORE PUSH1 0x40 SWAP1 KECCAK256 DUP1 SLOAD PUSH3 0x8A0 SWAP1 PUSH3 0x157E JUMP JUMPDEST DUP1 PUSH1 0x1F ADD PUSH1 0x20 DUP1 SWAP2 DIV MUL PUSH1 0x20 ADD PUSH1 0x40 MLOAD SWAP1 DUP2 ADD PUSH1 0x40 MSTORE DUP1 SWAP3 SWAP2 SWAP1 DUP2 DUP2 MSTORE PUSH1 0x20 ADD DUP3 DUP1 SLOAD PUSH3 0x8CE SWAP1 PUSH3 0x157E JUMP JUMPDEST DUP1 ISZERO PUSH3 0x91D JUMPI DUP1 PUSH1 0x1F LT PUSH3 0x8F3 JUMPI PUSH2 0x100 DUP1 DUP4 SLOAD DIV MUL DUP4 MSTORE SWAP2 PUSH1 0x20 ADD SWAP2 PUSH3 0x91D JUMP JUMPDEST DUP3 ADD SWAP2 SWAP1 PUSH0 MSTORE PUSH1 0x20 PUSH0 KECCAK256 SWAP1 JUMPDEST DUP2 SLOAD DUP2 MSTORE SWAP1 PUSH1 0x1 ADD SWAP1 PUSH1 0x20 ADD DUP1 DUP4 GT PUSH3 0x8FF JUMPI DUP3 SWAP1 SUB PUSH1 0x1F AND DUP3 ADD SWAP2 JUMPDEST POP POP POP POP POP DUP2 JUMP JUMPDEST PUSH3 0x92F PUSH3 0x118F JUMP JUMPDEST PUSH3 0x93A PUSH0 PUSH3 0x1216 JUMP JUMPDEST JUMP JUMPDEST CALLER PUSH0 SWAP1 DUP2 MSTORE PUSH1 0x4 PUSH1 0x20 MSTORE PUSH1 0x40 SWAP1 KECCAK256 SLOAD PUSH1 0xFF AND ISZERO DUP1 ISZERO PUSH3 0x97D JUMPI POP PUSH0 SLOAD PUSH2 0x100 SWAP1 DIV PUSH1 0x1 PUSH1 0x1 PUSH1 0xA0 SHL SUB AND PUSH1 0x1 PUSH1 0x1 PUSH1 0xA0 SHL SUB AND CALLER PUSH1 0x1 PUSH1 0x1 PUSH1 0xA0 SHL SUB AND EQ ISZERO JUMPDEST ISZERO PUSH3 0x99C JUMPI PUSH1 0x40 MLOAD PUSH4 0xEA8E4EB5 PUSH1 0xE0 SHL DUP2 MSTORE PUSH1 0x4 ADD PUSH1 0x40 MLOAD DUP1 SWAP2 SUB SWAP1 REVERT JUMPDEST PUSH0 PUSH3 0x9A7 PUSH3 0x72A JUMP JUMPDEST SWAP2 POP POP PUSH0 JUMPDEST DUP2 MLOAD DUP2 LT ISZERO PUSH3 0x726 JUMPI PUSH0 PUSH1 0x1 PUSH1 0x1 PUSH1 0xA0 SHL SUB AND DUP3 DUP3 DUP2 MLOAD DUP2 LT PUSH3 0x9D5 JUMPI PUSH3 0x9D5 PUSH3 0x156A JUMP JUMPDEST PUSH1 0x20 MUL PUSH1 0x20 ADD ADD MLOAD PUSH1 0x1 PUSH1 0x1 PUSH1 0xA0 SHL SUB AND EQ PUSH3 0xA69 JUMPI DUP2 DUP2 DUP2 MLOAD DUP2 LT PUSH3 0xA01 JUMPI PUSH3 0xA01 PUSH3 0x156A JUMP JUMPDEST PUSH1 0x20 MUL PUSH1 0x20 ADD ADD MLOAD PUSH1 0x1 PUSH1 0x1 PUSH1 0xA0 SHL SUB AND PUSH4 0x12E8E2C3 PUSH1 0x2 SLOAD PUSH1 0x40 MLOAD DUP3 PUSH4 0xFFFFFFFF AND PUSH1 0xE0 SHL DUP2 MSTORE PUSH1 0x4 ADD PUSH3 0xA39 SWAP2 DUP2 MSTORE PUSH1 0x20 ADD SWAP1 JUMP JUMPDEST PUSH0 PUSH1 0x40 MLOAD DUP1 DUP4 SUB DUP2 PUSH0 DUP8 DUP1 EXTCODESIZE ISZERO DUP1 ISZERO PUSH3 0xA51 JUMPI PUSH0 DUP1 REVERT JUMPDEST POP GAS CALL ISZERO DUP1 ISZERO PUSH3 0xA64 JUMPI RETURNDATASIZE PUSH0 DUP1 RETURNDATACOPY RETURNDATASIZE PUSH0 REVERT JUMPDEST POP POP POP POP JUMPDEST PUSH1 0x1 ADD PUSH3 0x9AC JUMP JUMPDEST PUSH3 0xA7C PUSH3 0x118F JUMP JUMPDEST PUSH3 0xA86 PUSH3 0x126E JUMP JUMPDEST PUSH0 PUSH3 0xA91 PUSH3 0x72A JUMP JUMPDEST SWAP2 POP POP PUSH0 JUMPDEST DUP2 MLOAD DUP2 LT ISZERO PUSH3 0x726 JUMPI PUSH0 PUSH1 0x1 PUSH1 0x1 PUSH1 0xA0 SHL SUB AND DUP3 DUP3 DUP2 MLOAD DUP2 LT PUSH3 0xABF JUMPI PUSH3 0xABF PUSH3 0x156A JUMP JUMPDEST PUSH1 0x20 MUL PUSH1 0x20 ADD ADD MLOAD PUSH1 0x1 PUSH1 0x1 PUSH1 0xA0 SHL SUB AND EQ PUSH3 0xB43 JUMPI DUP2 DUP2 DUP2 MLOAD DUP2 LT PUSH3 0xAEB JUMPI PUSH3 0xAEB PUSH3 0x156A JUMP JUMPDEST PUSH1 0x20 MUL PUSH1 0x20 ADD ADD MLOAD PUSH1 0x1 PUSH1 0x1 PUSH1 0xA0 SHL SUB AND PUSH4 0x8456CB59 PUSH1 0x40 MLOAD DUP2 PUSH4 0xFFFFFFFF AND PUSH1 0xE0 SHL DUP2 MSTORE PUSH1 0x4 ADD PUSH0 PUSH1 0x40 MLOAD DUP1 DUP4 SUB DUP2 PUSH0 DUP8 DUP1 EXTCODESIZE ISZERO DUP1 ISZERO PUSH3 0xB2B JUMPI PUSH0 DUP1 REVERT JUMPDEST POP GAS CALL ISZERO DUP1 ISZERO PUSH3 0xB3E JUMPI RETURNDATASIZE PUSH0 DUP1 RETURNDATACOPY RETURNDATASIZE PUSH0 REVERT JUMPDEST POP POP POP POP JUMPDEST PUSH1 0x1 ADD PUSH3 0xA96 JUMP JUMPDEST PUSH1 0x1 PUSH1 0x1 PUSH1 0xA0 SHL SUB DUP2 AND PUSH3 0xB74 JUMPI PUSH1 0x40 MLOAD PUSH4 0xA5F90A11 PUSH1 0xE0 SHL DUP2 MSTORE PUSH1 0x4 ADD PUSH1 0x40 MLOAD DUP1 SWAP2 SUB SWAP1 REVERT JUMPDEST PUSH1 0x1 PUSH1 0x1 PUSH1 0xA0 SHL SUB DUP2 AND PUSH0 SWAP1 DUP2 MSTORE PUSH1 0x7 PUSH1 0x20 MSTORE PUSH1 0x40 SWAP1 KECCAK256 SLOAD PUSH1 0xFF AND ISZERO PUSH3 0xBAE JUMPI PUSH1 0x40 MLOAD PUSH4 0x188C991 PUSH1 0xE1 SHL DUP2 MSTORE PUSH1 0x4 ADD PUSH1 0x40 MLOAD DUP1 SWAP2 SUB SWAP1 REVERT JUMPDEST PUSH1 0x1 SLOAD PUSH1 0x40 MLOAD PUSH0 SWAP2 DUP4 SWAP2 ADDRESS SWAP2 PUSH1 0x1 PUSH1 0x1 PUSH1 0xA0 SHL SUB AND SWAP1 PUSH3 0xBCF SWAP1 PUSH3 0x12F4 JUMP JUMPDEST PUSH1 0x1 PUSH1 0x1 PUSH1 0xA0 SHL SUB SWAP4 DUP5 AND DUP2 MSTORE SWAP2 DUP4 AND PUSH1 0x20 DUP4 ADD MSTORE SWAP1 SWAP2 AND PUSH1 0x40 DUP3 ADD MSTORE PUSH1 0x60 ADD PUSH1 0x40 MLOAD DUP1 SWAP2 SUB SWAP1 PUSH0 CREATE DUP1 ISZERO DUP1 ISZERO PUSH3 0xC09 JUMPI RETURNDATASIZE PUSH0 DUP1 RETURNDATACOPY RETURNDATASIZE PUSH0 REVERT JUMPDEST POP PUSH1 0x2 SLOAD PUSH1 0x40 MLOAD PUSH4 0x12E8E2C3 PUSH1 0xE0 SHL DUP2 MSTORE SWAP2 SWAP3 POP PUSH1 0x1 PUSH1 0x1 PUSH1 0xA0 SHL SUB DUP4 AND SWAP2 PUSH4 0x12E8E2C3 SWAP2 PUSH3 0xC3F SWAP2 PUSH1 0x4 ADD SWAP1 DUP2 MSTORE PUSH1 0x20 ADD SWAP1 JUMP JUMPDEST PUSH0 PUSH1 0x40 MLOAD DUP1 DUP4 SUB DUP2 PUSH0 DUP8 DUP1 EXTCODESIZE ISZERO DUP1 ISZERO PUSH3 0xC57 JUMPI PUSH0 DUP1 REVERT JUMPDEST POP GAS CALL ISZERO DUP1 ISZERO PUSH3 0xC6A JUMPI RETURNDATASIZE PUSH0 DUP1 RETURNDATACOPY RETURNDATASIZE PUSH0 REVERT JUMPDEST POP POP POP POP PUSH1 0x1 PUSH1 0x1 PUSH1 0xA0 SHL SUB DUP3 DUP2 AND PUSH0 DUP2 DUP2 MSTORE PUSH1 0x6 PUSH1 0x20 SWAP1 DUP2 MSTORE PUSH1 0x40 DUP1 DUP4 KECCAK256 DUP1 SLOAD PUSH1 0x1 PUSH1 0x1 PUSH1 0xA0 SHL SUB NOT SWAP1 DUP2 AND SWAP7 DUP9 AND SWAP7 DUP8 OR SWAP1 SWAP2 SSTORE PUSH1 0x7 SWAP1 SWAP3 MSTORE DUP1 DUP4 KECCAK256 DUP1 SLOAD PUSH1 0xFF NOT AND PUSH1 0x1 SWAP1 DUP2 OR SWAP1 SWAP2 SSTORE PUSH1 0x8 DUP1 SLOAD SWAP2 DUP3 ADD DUP2 SSTORE DUP5 MSTORE PUSH32 0xF3F7A9FE364FAAB93B216DA50A3214154F22A0A2B415B23A84C8169E8B636EE3 ADD DUP1 SLOAD SWAP1 SWAP3 AND DUP5 OR SWAP1 SWAP2 SSTORE MLOAD PUSH32 0x4F2CE4E40F623CA765FC0167A25CB7842CEAAFB8D82D3DEC26CA0D0E0D2D4896 SWAP2 SWAP1 LOG3 POP POP JUMP JUMPDEST PUSH1 0x1 PUSH1 0x1 PUSH1 0xA0 SHL SUB DUP2 AND PUSH0 SWAP1 DUP2 MSTORE PUSH1 0x4 PUSH1 0x20 MSTORE PUSH1 0x40 SWAP1 KECCAK256 SLOAD PUSH1 0x60 SWAP1 PUSH1 0xFF AND PUSH3 0xD78 JUMPI PUSH1 0x40 MLOAD PUSH3 0x461BCD PUSH1 0xE5 SHL DUP2 MSTORE PUSH1 0x20 PUSH1 0x4 DUP3 ADD MSTORE PUSH1 0xF PUSH1 0x24 DUP3 ADD MSTORE PUSH15 0x2737BA1030B71037B832B930BA37B9 PUSH1 0x89 SHL PUSH1 0x44 DUP3 ADD MSTORE PUSH1 0x64 ADD JUMPDEST PUSH1 0x40 MLOAD DUP1 SWAP2 SUB SWAP1 REVERT JUMPDEST PUSH1 0x1 PUSH1 0x1 PUSH1 0xA0 SHL SUB DUP3 AND PUSH0 SWAP1 DUP2 MSTORE PUSH1 0x5 PUSH1 0x20 MSTORE PUSH1 0x40 SWAP1 KECCAK256 DUP1 SLOAD PUSH3 0xD9C SWAP1 PUSH3 0x157E JUMP JUMPDEST DUP1 PUSH1 0x1F ADD PUSH1 0x20 DUP1 SWAP2 DIV MUL PUSH1 0x20 ADD PUSH1 0x40 MLOAD SWAP1 DUP2 ADD PUSH1 0x40 MSTORE DUP1 SWAP3 SWAP2 SWAP1 DUP2 DUP2 MSTORE PUSH1 0x20 ADD DUP3 DUP1 SLOAD PUSH3 0xDCA SWAP1 PUSH3 0x157E JUMP JUMPDEST DUP1 ISZERO PUSH3 0xE19 JUMPI DUP1 PUSH1 0x1F LT PUSH3 0xDEF JUMPI PUSH2 0x100 DUP1 DUP4 SLOAD DIV MUL DUP4 MSTORE SWAP2 PUSH1 0x20 ADD SWAP2 PUSH3 0xE19 JUMP JUMPDEST DUP3 ADD SWAP2 SWAP1 PUSH0 MSTORE PUSH1 0x20 PUSH0 KECCAK256 SWAP1 JUMPDEST DUP2 SLOAD DUP2 MSTORE SWAP1 PUSH1 0x1 ADD SWAP1 PUSH1 0x20 ADD DUP1 DUP4 GT PUSH3 0xDFB JUMPI DUP3 SWAP1 SUB PUSH1 0x1F AND DUP3 ADD SWAP2 JUMPDEST POP POP POP POP POP SWAP1 POP SWAP2 SWAP1 POP JUMP JUMPDEST PUSH3 0xE2F PUSH3 0x118F JUMP JUMPDEST PUSH2 0x3E8 DUP2 GT ISZERO PUSH3 0xE53 JUMPI PUSH1 0x40 MLOAD PUSH4 0xCD4E6167 PUSH1 0xE0 SHL DUP2 MSTORE PUSH1 0x4 ADD PUSH1 0x40 MLOAD DUP1 SWAP2 SUB SWAP1 REVERT JUMPDEST PUSH1 0x3 DUP1 SLOAD SWAP1 DUP3 SWAP1 SSTORE PUSH1 0x40 DUP1 MLOAD DUP3 DUP2 MSTORE PUSH1 0x20 DUP2 ADD DUP5 SWAP1 MSTORE PUSH32 0x75AEF5483B24548953E5E86DF155417EE9E1B8A174AD54F9C1A2211AB03822C2 SWAP2 ADD PUSH3 0x548 JUMP JUMPDEST PUSH3 0xE9C PUSH3 0x118F JUMP JUMPDEST PUSH1 0x1 PUSH1 0x1 PUSH1 0xA0 SHL SUB DUP2 AND PUSH3 0xEC4 JUMPI PUSH1 0x40 MLOAD PUSH4 0xA5F90A11 PUSH1 0xE0 SHL DUP2 MSTORE PUSH1 0x4 ADD PUSH1 0x40 MLOAD DUP1 SWAP2 SUB SWAP1 REVERT JUMPDEST PUSH1 0x1 DUP1 SLOAD PUSH1 0x1 PUSH1 0x1 PUSH1 0xA0 SHL SUB NOT AND PUSH1 0x1 PUSH1 0x1 PUSH1 0xA0 SHL SUB DUP4 AND SWAP1 DUP2 OR SWAP1 SWAP2 SSTORE PUSH1 0x40 MLOAD PUSH32 0x73238E3AE0A71B401B31AE67204506D074DE41BD5C084082FBA9B64B1C7FA28F SWAP1 PUSH0 SWAP1 LOG2 POP JUMP JUMPDEST PUSH1 0x1 PUSH1 0x1 PUSH1 0xA0 SHL SUB DUP2 AND PUSH3 0xF35 JUMPI PUSH1 0x40 MLOAD PUSH4 0xA5F90A11 PUSH1 0xE0 SHL DUP2 MSTORE PUSH1 0x4 ADD PUSH1 0x40 MLOAD DUP1 SWAP2 SUB SWAP1 REVERT JUMPDEST PUSH1 0x1 SLOAD PUSH1 0x1 PUSH1 0x1 PUSH1 0xA0 SHL SUB AND ISZERO PUSH3 0xF86 JUMPI PUSH1 0x40 MLOAD PUSH3 0x461BCD PUSH1 0xE5 SHL DUP2 MSTORE PUSH1 0x20 PUSH1 0x4 DUP3 ADD MSTORE PUSH1 0x13 PUSH1 0x24 DUP3 ADD MSTORE PUSH19 0x105B1C9958591E481A5B9A5D1A585B1A5E9959 PUSH1 0x6A SHL PUSH1 0x44 DUP3 ADD MSTORE PUSH1 0x64 ADD PUSH3 0xD6F JUMP JUMPDEST PUSH1 0x1 DUP1 SLOAD PUSH1 0x1 PUSH1 0x1 PUSH1 0xA0 SHL SUB NOT AND PUSH1 0x1 PUSH1 0x1 PUSH1 0xA0 SHL SUB SWAP3 SWAP1 SWAP3 AND SWAP2 SWAP1 SWAP2 OR SWAP1 SSTORE JUMP JUMPDEST PUSH3 0xFB2 PUSH3 0x118F JUMP JUMPDEST PUSH1 0x1 PUSH1 0x1 PUSH1 0xA0 SHL SUB DUP4 AND PUSH3 0xFDA JUMPI PUSH1 0x40 MLOAD PUSH4 0xA5F90A11 PUSH1 0xE0 SHL DUP2 MSTORE PUSH1 0x4 ADD PUSH1 0x40 MLOAD DUP1 SWAP2 SUB SWAP1 REVERT JUMPDEST PUSH1 0x1 PUSH1 0x1 PUSH1 0xA0 SHL SUB DUP4 AND PUSH0 SWAP1 DUP2 MSTORE PUSH1 0x4 PUSH1 0x20 MSTORE PUSH1 0x40 SWAP1 KECCAK256 DUP1 SLOAD PUSH1 0xFF NOT AND DUP4 ISZERO DUP1 ISZERO SWAP2 SWAP1 SWAP2 OR SWAP1 SWAP2 SSTORE PUSH3 0x1031 JUMPI PUSH1 0x1 PUSH1 0x1 PUSH1 0xA0 SHL SUB DUP4 AND PUSH0 SWAP1 DUP2 MSTORE PUSH1 0x5 PUSH1 0x20 MSTORE PUSH1 0x40 SWAP1 KECCAK256 PUSH3 0x102A DUP3 DUP3 PUSH3 0x1608 JUMP JUMPDEST POP PUSH3 0x1053 JUMP JUMPDEST PUSH1 0x1 PUSH1 0x1 PUSH1 0xA0 SHL SUB DUP4 AND PUSH0 SWAP1 DUP2 MSTORE PUSH1 0x5 PUSH1 0x20 MSTORE PUSH1 0x40 DUP2 KECCAK256 PUSH3 0x1053 SWAP2 PUSH3 0x1302 JUMP JUMPDEST DUP3 PUSH1 0x1 PUSH1 0x1 PUSH1 0xA0 SHL SUB AND PUSH32 0xB4A7E7BFBE44168D75911DA03CB58C71B58BB630B7F21E7B7FA7029077DA9646 DUP4 DUP4 PUSH1 0x40 MLOAD PUSH3 0x1090 SWAP3 SWAP2 SWAP1 PUSH3 0x16D1 JUMP JUMPDEST PUSH1 0x40 MLOAD DUP1 SWAP2 SUB SWAP1 LOG2 POP POP POP JUMP JUMPDEST PUSH3 0x10A7 PUSH3 0x118F JUMP JUMPDEST PUSH3 0x10B1 PUSH3 0x12AD JUMP JUMPDEST PUSH1 0x1 PUSH1 0x1 PUSH1 0xA0 SHL SUB DUP1 DUP3 AND PUSH0 SWAP1 DUP2 MSTORE PUSH1 0x6 PUSH1 0x20 MSTORE PUSH1 0x40 SWAP1 KECCAK256 SLOAD AND DUP1 PUSH3 0x10EA JUMPI PUSH1 0x40 MLOAD PUSH4 0x2721E1F PUSH1 0xE6 SHL DUP2 MSTORE PUSH1 0x4 ADD PUSH1 0x40 MLOAD DUP1 SWAP2 SUB SWAP1 REVERT JUMPDEST DUP1 PUSH1 0x1 PUSH1 0x1 PUSH1 0xA0 SHL SUB AND PUSH4 0xDB2E21BC PUSH1 0x40 MLOAD DUP2 PUSH4 0xFFFFFFFF AND PUSH1 0xE0 SHL DUP2 MSTORE PUSH1 0x4 ADD PUSH0 PUSH1 0x40 MLOAD DUP1 DUP4 SUB DUP2 PUSH0 DUP8 DUP1 EXTCODESIZE ISZERO DUP1 ISZERO PUSH3 0x631 JUMPI PUSH0 DUP1 REVERT JUMPDEST PUSH1 0x8 DUP2 DUP2 SLOAD DUP2 LT PUSH3 0x1133 JUMPI PUSH0 DUP1 REVERT JUMPDEST PUSH0 SWAP2 DUP3 MSTORE PUSH1 0x20 SWAP1 SWAP2 KECCAK256 ADD SLOAD PUSH1 0x1 PUSH1 0x1 PUSH1 0xA0 SHL SUB AND SWAP1 POP DUP2 JUMP JUMPDEST PUSH3 0x1156 PUSH3 0x118F JUMP JUMPDEST PUSH1 0x1 PUSH1 0x1 PUSH1 0xA0 SHL SUB DUP2 AND PUSH3 0x1181 JUMPI PUSH1 0x40 MLOAD PUSH4 0x1E4FBDF7 PUSH1 0xE0 SHL DUP2 MSTORE PUSH0 PUSH1 0x4 DUP3 ADD MSTORE PUSH1 0x24 ADD PUSH3 0xD6F JUMP JUMPDEST PUSH3 0x118C DUP2 PUSH3 0x1216 JUMP JUMPDEST POP JUMP JUMPDEST PUSH0 SLOAD PUSH1 0x1 PUSH1 0x1 PUSH1 0xA0 SHL SUB PUSH2 0x100 SWAP1 SWAP2 DIV AND CALLER EQ PUSH3 0x93A JUMPI PUSH1 0x40 MLOAD PUSH4 0x118CDAA7 PUSH1 0xE0 SHL DUP2 MSTORE CALLER PUSH1 0x4 DUP3 ADD MSTORE PUSH1 0x24 ADD PUSH3 0xD6F JUMP JUMPDEST PUSH3 0x11CD PUSH3 0x12AD JUMP JUMPDEST PUSH0 DUP1 SLOAD PUSH1 0xFF NOT AND SWAP1 SSTORE PUSH32 0x5DB9EE0A495BF2E6FF9C91A7834C1BA4FDD244A5E8AA4E537BD38AEAE4B073AA CALLER JUMPDEST PUSH1 0x40 MLOAD PUSH1 0x1 PUSH1 0x1 PUSH1 0xA0 SHL SUB SWAP1 SWAP2 AND DUP2 MSTORE PUSH1 0x20 ADD PUSH1 0x40 MLOAD DUP1 SWAP2 SUB SWAP1 LOG1 JUMP JUMPDEST PUSH0 DUP1 SLOAD PUSH1 0x1 PUSH1 0x1 PUSH1 0xA0 SHL SUB DUP4 DUP2 AND PUSH2 0x100 DUP2 DUP2 MUL PUSH2 0x100 PUSH1 0x1 PUSH1 0xA8 SHL SUB NOT DUP6 AND OR DUP6 SSTORE PUSH1 0x40 MLOAD SWAP4 DIV SWAP2 SWAP1 SWAP2 AND SWAP3 SWAP1 SWAP2 DUP4 SWAP2 PUSH32 0x8BE0079C531659141344CD1FD0A4F28419497F9722A3DAAFE3B4186F6B6457E0 SWAP2 LOG3 POP POP JUMP JUMPDEST PUSH3 0x1278 PUSH3 0x12D0 JUMP JUMPDEST PUSH0 DUP1 SLOAD PUSH1 0xFF NOT AND PUSH1 0x1 OR SWAP1 SSTORE PUSH32 0x62E78CEA01BEE320CD4E420270B5EA74000D11B0C9F74754EBDBFC544B05A258 PUSH3 0x11F9 CALLER SWAP1 JUMP JUMPDEST PUSH0 SLOAD PUSH1 0xFF AND PUSH3 0x93A JUMPI PUSH1 0x40 MLOAD PUSH4 0x8DFC202B PUSH1 0xE0 SHL DUP2 MSTORE PUSH1 0x4 ADD PUSH1 0x40 MLOAD DUP1 SWAP2 SUB SWAP1 REVERT JUMPDEST PUSH0 SLOAD PUSH1 0xFF AND ISZERO PUSH3 0x93A JUMPI PUSH1 0x40 MLOAD PUSH4 0xD93C0665 PUSH1 0xE0 SHL DUP2 MSTORE PUSH1 0x4 ADD PUSH1 0x40 MLOAD DUP1 SWAP2 SUB SWAP1 REVERT JUMPDEST PUSH2 0x14BC DUP1 PUSH3 0x16F6 DUP4 CODECOPY ADD SWAP1 JUMP JUMPDEST POP DUP1 SLOAD PUSH3 0x1310 SWAP1 PUSH3 0x157E JUMP JUMPDEST PUSH0 DUP3 SSTORE DUP1 PUSH1 0x1F LT PUSH3 0x1320 JUMPI POP POP JUMP JUMPDEST PUSH1 0x1F ADD PUSH1 0x20 SWAP1 DIV SWAP1 PUSH0 MSTORE PUSH1 0x20 PUSH0 KECCAK256 SWAP1 DUP2 ADD SWAP1 PUSH3 0x118C SWAP2 SWAP1 JUMPDEST DUP1 DUP3 GT ISZERO PUSH3 0x134E JUMPI PUSH0 DUP2 SSTORE PUSH1 0x1 ADD PUSH3 0x1339 JUMP JUMPDEST POP SWAP1 JUMP JUMPDEST PUSH0 PUSH1 0x20 DUP3 DUP5 SUB SLT ISZERO PUSH3 0x1363 JUMPI PUSH0 DUP1 REVERT JUMPDEST POP CALLDATALOAD SWAP2 SWAP1 POP JUMP JUMPDEST DUP1 CALLDATALOAD PUSH1 0x1 PUSH1 0x1 PUSH1 0xA0 SHL SUB DUP2 AND DUP2 EQ PUSH3 0x1381 JUMPI PUSH0 DUP1 REVERT JUMPDEST SWAP2 SWAP1 POP JUMP JUMPDEST PUSH0 PUSH1 0x20 DUP3 DUP5 SUB SLT ISZERO PUSH3 0x1397 JUMPI PUSH0 DUP1 REVERT JUMPDEST PUSH3 0x13A2 DUP3 PUSH3 0x136A JUMP JUMPDEST SWAP4 SWAP3 POP POP POP JUMP JUMPDEST PUSH0 DUP2 MLOAD DUP1 DUP5 MSTORE PUSH1 0x20 DUP1 DUP6 ADD SWAP5 POP PUSH1 0x20 DUP5 ADD PUSH0 JUMPDEST DUP4 DUP2 LT ISZERO PUSH3 0x13E3 JUMPI DUP2 MLOAD PUSH1 0x1 PUSH1 0x1 PUSH1 0xA0 SHL SUB AND DUP8 MSTORE SWAP6 DUP3 ADD SWAP6 SWAP1 DUP3 ADD SWAP1 PUSH1 0x1 ADD PUSH3 0x13BC JUMP JUMPDEST POP SWAP5 SWAP6 SWAP5 POP POP POP POP POP JUMP JUMPDEST PUSH1 0x40 DUP2 MSTORE PUSH0 PUSH3 0x1402 PUSH1 0x40 DUP4 ADD DUP6 PUSH3 0x13A9 JUMP JUMPDEST DUP3 DUP2 SUB PUSH1 0x20 DUP5 ADD MSTORE PUSH3 0x1416 DUP2 DUP6 PUSH3 0x13A9 JUMP JUMPDEST SWAP6 SWAP5 POP POP POP POP POP JUMP JUMPDEST PUSH0 DUP2 MLOAD DUP1 DUP5 MSTORE PUSH0 JUMPDEST DUP2 DUP2 LT ISZERO PUSH3 0x1445 JUMPI PUSH1 0x20 DUP2 DUP6 ADD DUP2 ADD MLOAD DUP7 DUP4 ADD DUP3 ADD MSTORE ADD PUSH3 0x1427 JUMP JUMPDEST POP PUSH0 PUSH1 0x20 DUP3 DUP7 ADD ADD MSTORE PUSH1 0x20 PUSH1 0x1F NOT PUSH1 0x1F DUP4 ADD AND DUP6 ADD ADD SWAP2 POP POP SWAP3 SWAP2 POP POP JUMP JUMPDEST PUSH1 0x20 DUP2 MSTORE PUSH0 PUSH3 0x13A2 PUSH1 0x20 DUP4 ADD DUP5 PUSH3 0x141F JUMP JUMPDEST PUSH4 0x4E487B71 PUSH1 0xE0 SHL PUSH0 MSTORE PUSH1 0x41 PUSH1 0x4 MSTORE PUSH1 0x24 PUSH0 REVERT JUMPDEST PUSH0 DUP1 PUSH0 PUSH1 0x60 DUP5 DUP7 SUB SLT ISZERO PUSH3 0x149F JUMPI PUSH0 DUP1 REVERT JUMPDEST PUSH3 0x14AA DUP5 PUSH3 0x136A JUMP JUMPDEST SWAP3 POP PUSH1 0x20 DUP5 ADD CALLDATALOAD DUP1 ISZERO ISZERO DUP2 EQ PUSH3 0x14BF JUMPI PUSH0 DUP1 REVERT JUMPDEST SWAP2 POP PUSH1 0x40 DUP5 ADD CALLDATALOAD PUSH8 0xFFFFFFFFFFFFFFFF DUP1 DUP3 GT ISZERO PUSH3 0x14DC JUMPI PUSH0 DUP1 REVERT JUMPDEST DUP2 DUP7 ADD SWAP2 POP DUP7 PUSH1 0x1F DUP4 ADD SLT PUSH3 0x14F0 JUMPI PUSH0 DUP1 REVERT JUMPDEST DUP2 CALLDATALOAD DUP2 DUP2 GT ISZERO PUSH3 0x1505 JUMPI PUSH3 0x1505 PUSH3 0x1478 JUMP JUMPDEST PUSH1 0x40 MLOAD PUSH1 0x1F DUP3 ADD PUSH1 0x1F NOT SWAP1 DUP2 AND PUSH1 0x3F ADD AND DUP2 ADD SWAP1 DUP4 DUP3 GT DUP2 DUP4 LT OR ISZERO PUSH3 0x1530 JUMPI PUSH3 0x1530 PUSH3 0x1478 JUMP JUMPDEST DUP2 PUSH1 0x40 MSTORE DUP3 DUP2 MSTORE DUP10 PUSH1 0x20 DUP5 DUP8 ADD ADD GT ISZERO PUSH3 0x1549 JUMPI PUSH0 DUP1 REVERT JUMPDEST DUP3 PUSH1 0x20 DUP7 ADD PUSH1 0x20 DUP4 ADD CALLDATACOPY PUSH0 PUSH1 0x20 DUP5 DUP4 ADD ADD MSTORE DUP1 SWAP6 POP POP POP POP POP POP SWAP3 POP SWAP3 POP SWAP3 JUMP JUMPDEST PUSH4 0x4E487B71 PUSH1 0xE0 SHL PUSH0 MSTORE PUSH1 0x32 PUSH1 0x4 MSTORE PUSH1 0x24 PUSH0 REVERT JUMPDEST PUSH1 0x1 DUP2 DUP2 SHR SWAP1 DUP3 AND DUP1 PUSH3 0x1593 JUMPI PUSH1 0x7F DUP3 AND SWAP2 POP JUMPDEST PUSH1 0x20 DUP3 LT DUP2 SUB PUSH3 0x15B2 JUMPI PUSH4 0x4E487B71 PUSH1 0xE0 SHL PUSH0 MSTORE PUSH1 0x22 PUSH1 0x4 MSTORE PUSH1 0x24 PUSH0 REVERT JUMPDEST POP SWAP2 SWAP1 POP JUMP JUMPDEST PUSH1 0x1F DUP3 GT ISZERO PUSH3 0x1603 JUMPI DUP1 PUSH0 MSTORE PUSH1 0x20 PUSH0 KECCAK256 PUSH1 0x1F DUP5 ADD PUSH1 0x5 SHR DUP2 ADD PUSH1 0x20 DUP6 LT ISZERO PUSH3 0x15DF JUMPI POP DUP1 JUMPDEST PUSH1 0x1F DUP5 ADD PUSH1 0x5 SHR DUP3 ADD SWAP2 POP JUMPDEST DUP2 DUP2 LT ISZERO PUSH3 0x1600 JUMPI PUSH0 DUP2 SSTORE PUSH1 0x1 ADD PUSH3 0x15EB JUMP JUMPDEST POP POP JUMPDEST POP POP POP JUMP JUMPDEST DUP2 MLOAD PUSH8 0xFFFFFFFFFFFFFFFF DUP2 GT ISZERO PUSH3 0x1625 JUMPI PUSH3 0x1625 PUSH3 0x1478 JUMP JUMPDEST PUSH3 0x163D DUP2 PUSH3 0x1636 DUP5 SLOAD PUSH3 0x157E JUMP JUMPDEST DUP5 PUSH3 0x15B8 JUMP JUMPDEST PUSH1 0x20 DUP1 PUSH1 0x1F DUP4 GT PUSH1 0x1 DUP2 EQ PUSH3 0x1673 JUMPI PUSH0 DUP5 ISZERO PUSH3 0x165B JUMPI POP DUP6 DUP4 ADD MLOAD JUMPDEST PUSH0 NOT PUSH1 0x3 DUP7 SWAP1 SHL SHR NOT AND PUSH1 0x1 DUP6 SWAP1 SHL OR DUP6 SSTORE PUSH3 0x644 JUMP JUMPDEST PUSH0 DUP6 DUP2 MSTORE PUSH1 0x20 DUP2 KECCAK256 PUSH1 0x1F NOT DUP7 AND SWAP2 JUMPDEST DUP3 DUP2 LT ISZERO PUSH3 0x16A3 JUMPI DUP9 DUP7 ADD MLOAD DUP3 SSTORE SWAP5 DUP5 ADD SWAP5 PUSH1 0x1 SWAP1 SWAP2 ADD SWAP1 DUP5 ADD PUSH3 0x1682 JUMP JUMPDEST POP DUP6 DUP3 LT ISZERO PUSH3 0x16C1 JUMPI DUP8 DUP6 ADD MLOAD PUSH0 NOT PUSH1 0x3 DUP9 SWAP1 SHL PUSH1 0xF8 AND SHR NOT AND DUP2 SSTORE JUMPDEST POP POP POP POP POP PUSH1 0x1 SWAP1 DUP2 SHL ADD SWAP1 SSTORE POP JUMP JUMPDEST DUP3 ISZERO ISZERO DUP2 MSTORE PUSH1 0x40 PUSH1 0x20 DUP3 ADD MSTORE PUSH0 PUSH3 0x16ED PUSH1 0x40 DUP4 ADD DUP5 PUSH3 0x141F JUMP JUMPDEST SWAP5 SWAP4 POP POP POP POP JUMP INVALID PUSH1 0x80 PUSH1 0x40 MSTORE CALLVALUE DUP1 ISZERO PUSH3 0x10 JUMPI PUSH0 DUP1 REVERT JUMPDEST POP PUSH1 0x40 MLOAD PUSH3 0x14BC CODESIZE SUB DUP1 PUSH3 0x14BC DUP4 CODECOPY DUP2 ADD PUSH1 0x40 DUP2 SWAP1 MSTORE PUSH3 0x33 SWAP2 PUSH3 0x23D JUMP JUMPDEST PUSH0 DUP1 SLOAD PUSH1 0xFF NOT AND SWAP1 SSTORE DUP2 PUSH1 0x1 PUSH1 0x1 PUSH1 0xA0 SHL SUB DUP2 AND PUSH3 0x6C JUMPI PUSH1 0x40 MLOAD PUSH4 0x1E4FBDF7 PUSH1 0xE0 SHL DUP2 MSTORE PUSH0 PUSH1 0x4 DUP3 ADD MSTORE PUSH1 0x24 ADD JUMPDEST PUSH1 0x40 MLOAD DUP1 SWAP2 SUB SWAP1 REVERT JUMPDEST PUSH3 0x77 DUP2 PUSH3 0x150 JUMP JUMPDEST POP PUSH1 0x1 DUP1 SSTORE PUSH1 0x1 PUSH1 0x1 PUSH1 0xA0 SHL SUB DUP4 AND PUSH3 0xA4 JUMPI PUSH1 0x40 MLOAD PUSH4 0x162908E3 PUSH1 0xE1 SHL DUP2 MSTORE PUSH1 0x4 ADD PUSH1 0x40 MLOAD DUP1 SWAP2 SUB SWAP1 REVERT JUMPDEST PUSH1 0x1 PUSH1 0x1 PUSH1 0xA0 SHL SUB DUP3 AND PUSH3 0xCC JUMPI PUSH1 0x40 MLOAD PUSH4 0x162908E3 PUSH1 0xE1 SHL DUP2 MSTORE PUSH1 0x4 ADD PUSH1 0x40 MLOAD DUP1 SWAP2 SUB SWAP1 REVERT JUMPDEST PUSH1 0x1 PUSH1 0x1 PUSH1 0xA0 SHL SUB DUP2 AND PUSH3 0xF4 JUMPI PUSH1 0x40 MLOAD PUSH4 0x162908E3 PUSH1 0xE1 SHL DUP2 MSTORE PUSH1 0x4 ADD PUSH1 0x40 MLOAD DUP1 SWAP2 SUB SWAP1 REVERT JUMPDEST PUSH1 0x4 DUP1 SLOAD PUSH1 0x1 PUSH1 0x1 PUSH1 0xA0 SHL SUB DUP1 DUP7 AND PUSH1 0x1 PUSH1 0x1 PUSH1 0xA0 SHL SUB NOT SWAP3 DUP4 AND OR SWAP1 SWAP3 SSTORE PUSH1 0x5 DUP1 SLOAD DUP6 DUP5 AND SWAP1 DUP4 AND OR SWAP1 SSTORE PUSH1 0x6 DUP1 SLOAD SWAP3 DUP5 AND SWAP3 SWAP1 SWAP2 AND SWAP2 SWAP1 SWAP2 OR SWAP1 SSTORE PUSH2 0x1F4 PUSH1 0x2 DUP2 SWAP1 SSTORE PUSH1 0x3 SSTORE PUSH3 0x147 DUP3 PUSH3 0x1A8 JUMP JUMPDEST POP POP POP PUSH3 0x284 JUMP JUMPDEST PUSH0 DUP1 SLOAD PUSH1 0x1 PUSH1 0x1 PUSH1 0xA0 SHL SUB DUP4 DUP2 AND PUSH2 0x100 DUP2 DUP2 MUL PUSH2 0x100 PUSH1 0x1 PUSH1 0xA8 SHL SUB NOT DUP6 AND OR DUP6 SSTORE PUSH1 0x40 MLOAD SWAP4 DIV SWAP2 SWAP1 SWAP2 AND SWAP3 SWAP1 SWAP2 DUP4 SWAP2 PUSH32 0x8BE0079C531659141344CD1FD0A4F28419497F9722A3DAAFE3B4186F6B6457E0 SWAP2 LOG3 POP POP JUMP JUMPDEST PUSH3 0x1B2 PUSH3 0x1EB JUMP JUMPDEST PUSH1 0x1 PUSH1 0x1 PUSH1 0xA0 SHL SUB DUP2 AND PUSH3 0x1DD JUMPI PUSH1 0x40 MLOAD PUSH4 0x1E4FBDF7 PUSH1 0xE0 SHL DUP2 MSTORE PUSH0 PUSH1 0x4 DUP3 ADD MSTORE PUSH1 0x24 ADD PUSH3 0x63 JUMP JUMPDEST PUSH3 0x1E8 DUP2 PUSH3 0x150 JUMP JUMPDEST POP JUMP JUMPDEST PUSH0 SLOAD PUSH1 0x1 PUSH1 0x1 PUSH1 0xA0 SHL SUB PUSH2 0x100 SWAP1 SWAP2 DIV AND CALLER EQ PUSH3 0x21F JUMPI PUSH1 0x40 MLOAD PUSH4 0x118CDAA7 PUSH1 0xE0 SHL DUP2 MSTORE CALLER PUSH1 0x4 DUP3 ADD MSTORE PUSH1 0x24 ADD PUSH3 0x63 JUMP JUMPDEST JUMP JUMPDEST DUP1 MLOAD PUSH1 0x1 PUSH1 0x1 PUSH1 0xA0 SHL SUB DUP2 AND DUP2 EQ PUSH3 0x238 JUMPI PUSH0 DUP1 REVERT JUMPDEST SWAP2 SWAP1 POP JUMP JUMPDEST PUSH0 DUP1 PUSH0 PUSH1 0x60 DUP5 DUP7 SUB SLT ISZERO PUSH3 0x250 JUMPI PUSH0 DUP1 REVERT JUMPDEST PUSH3 0x25B DUP5 PUSH3 0x221 JUMP JUMPDEST SWAP3 POP PUSH3 0x26B PUSH1 0x20 DUP6 ADD PUSH3 0x221 JUMP JUMPDEST SWAP2 POP PUSH3 0x27B PUSH1 0x40 DUP6 ADD PUSH3 0x221 JUMP JUMPDEST SWAP1 POP SWAP3 POP SWAP3 POP SWAP3 JUMP JUMPDEST PUSH2 0x122A DUP1 PUSH3 0x292 PUSH0 CODECOPY PUSH0 RETURN INVALID PUSH1 0x80 PUSH1 0x40 MSTORE CALLVALUE DUP1 ISZERO PUSH2 0xF JUMPI PUSH0 DUP1 REVERT JUMPDEST POP PUSH1 0x4 CALLDATASIZE LT PUSH2 0x1A1 JUMPI PUSH0 CALLDATALOAD PUSH1 0xE0 SHR DUP1 PUSH4 0x8456CB59 GT PUSH2 0xF3 JUMPI DUP1 PUSH4 0xCE7C2AC2 GT PUSH2 0x93 JUMPI DUP1 PUSH4 0xF2FDE38B GT PUSH2 0x6E JUMPI DUP1 PUSH4 0xF2FDE38B EQ PUSH2 0x321 JUMPI DUP1 PUSH4 0xF6ED2017 EQ PUSH2 0x334 JUMPI DUP1 PUSH4 0xFA2AF9DA EQ PUSH2 0x347 JUMPI DUP1 PUSH4 0xFC0C546A EQ PUSH2 0x35A JUMPI PUSH0 DUP1 REVERT JUMPDEST DUP1 PUSH4 0xCE7C2AC2 EQ PUSH2 0x2F1 JUMPI DUP1 PUSH4 0xDB2E21BC EQ PUSH2 0x310 JUMPI DUP1 PUSH4 0xEA777EEC EQ PUSH2 0x318 JUMPI PUSH0 DUP1 REVERT JUMPDEST DUP1 PUSH4 0x9C8F9F23 GT PUSH2 0xCE JUMPI DUP1 PUSH4 0x9C8F9F23 EQ PUSH2 0x2B0 JUMPI DUP1 PUSH4 0xABD70AA2 EQ PUSH2 0x2C3 JUMPI DUP1 PUSH4 0xB6B55F25 EQ PUSH2 0x2CB JUMPI DUP1 PUSH4 0xC45A0155 EQ PUSH2 0x2DE JUMPI PUSH0 DUP1 REVERT JUMPDEST DUP1 PUSH4 0x8456CB59 EQ PUSH2 0x276 JUMPI DUP1 PUSH4 0x8DA5CB5B EQ PUSH2 0x27E JUMPI DUP1 PUSH4 0x939D6237 EQ PUSH2 0x2A7 JUMPI PUSH0 DUP1 REVERT JUMPDEST DUP1 PUSH4 0x3F4BA83A GT PUSH2 0x15E JUMPI DUP1 PUSH4 0x587F5ED7 GT PUSH2 0x139 JUMPI DUP1 PUSH4 0x587F5ED7 EQ PUSH2 0x247 JUMPI DUP1 PUSH4 0x5C975ABB EQ PUSH2 0x250 JUMPI DUP1 PUSH4 0x715018A6 EQ PUSH2 0x265 JUMPI DUP1 PUSH4 0x7D882097 EQ PUSH2 0x26D JUMPI PUSH0 DUP1 REVERT JUMPDEST DUP1 PUSH4 0x3F4BA83A EQ PUSH2 0x20D JUMPI DUP1 PUSH4 0x51C6590A EQ PUSH2 0x215 JUMPI DUP1 PUSH4 0x5873EB9B EQ PUSH2 0x228 JUMPI PUSH0 DUP1 REVERT JUMPDEST DUP1 PUSH4 0x12E8E2C3 EQ PUSH2 0x1A5 JUMPI DUP1 PUSH4 0x26232A2E EQ PUSH2 0x1BA JUMPI DUP1 PUSH4 0x2BBA99C2 EQ PUSH2 0x1D6 JUMPI DUP1 PUSH4 0x2E1A7D4D EQ PUSH2 0x1E9 JUMPI DUP1 PUSH4 0x372500AB EQ PUSH2 0x1FC JUMPI DUP1 PUSH4 0x3A98EF39 EQ PUSH2 0x204 JUMPI JUMPDEST PUSH0 DUP1 REVERT JUMPDEST PUSH2 0x1B8 PUSH2 0x1B3 CALLDATASIZE PUSH1 0x4 PUSH2 0x10B5 JUMP JUMPDEST PUSH2 0x36D JUMP JUMPDEST STOP JUMPDEST PUSH2 0x1C3 PUSH1 0x2 SLOAD DUP2 JUMP JUMPDEST PUSH1 0x40 MLOAD SWAP1 DUP2 MSTORE PUSH1 0x20 ADD JUMPDEST PUSH1 0x40 MLOAD DUP1 SWAP2 SUB SWAP1 RETURN JUMPDEST PUSH2 0x1B8 PUSH2 0x1E4 CALLDATASIZE PUSH1 0x4 PUSH2 0x10E0 JUMP JUMPDEST PUSH2 0x3DD JUMP JUMPDEST PUSH2 0x1B8 PUSH2 0x1F7 CALLDATASIZE PUSH1 0x4 PUSH2 0x10B5 JUMP JUMPDEST PUSH2 0x694 JUMP JUMPDEST PUSH2 0x1B8 PUSH2 0x7B6 JUMP JUMPDEST PUSH2 0x1C3 PUSH1 0x8 SLOAD DUP2 JUMP JUMPDEST PUSH2 0x1B8 PUSH2 0x7D2 JUMP JUMPDEST PUSH2 0x1B8 PUSH2 0x223 CALLDATASIZE PUSH1 0x4 PUSH2 0x10B5 JUMP JUMPDEST PUSH2 0x7E2 JUMP JUMPDEST PUSH2 0x1C3 PUSH2 0x236 CALLDATASIZE PUSH1 0x4 PUSH2 0x1112 JUMP JUMPDEST PUSH1 0xB PUSH1 0x20 MSTORE PUSH0 SWAP1 DUP2 MSTORE PUSH1 0x40 SWAP1 KECCAK256 SLOAD DUP2 JUMP JUMPDEST PUSH2 0x1C3 PUSH1 0x9 SLOAD DUP2 JUMP JUMPDEST PUSH0 SLOAD PUSH1 0xFF AND PUSH1 0x40 MLOAD SWAP1 ISZERO ISZERO DUP2 MSTORE PUSH1 0x20 ADD PUSH2 0x1CD JUMP JUMPDEST PUSH2 0x1B8 PUSH2 0x92B JUMP JUMPDEST PUSH2 0x1C3 PUSH1 0x7 SLOAD DUP2 JUMP JUMPDEST PUSH2 0x1B8 PUSH2 0x93C JUMP JUMPDEST PUSH0 SLOAD PUSH2 0x100 SWAP1 DIV PUSH1 0x1 PUSH1 0x1 PUSH1 0xA0 SHL SUB AND JUMPDEST PUSH1 0x40 MLOAD PUSH1 0x1 PUSH1 0x1 PUSH1 0xA0 SHL SUB SWAP1 SWAP2 AND DUP2 MSTORE PUSH1 0x20 ADD PUSH2 0x1CD JUMP JUMPDEST PUSH2 0x1C3 PUSH1 0xC SLOAD DUP2 JUMP JUMPDEST PUSH2 0x1B8 PUSH2 0x2BE CALLDATASIZE PUSH1 0x4 PUSH2 0x10B5 JUMP JUMPDEST PUSH2 0x94C JUMP JUMPDEST PUSH1 0x7 SLOAD PUSH2 0x1C3 JUMP JUMPDEST PUSH2 0x1B8 PUSH2 0x2D9 CALLDATASIZE PUSH1 0x4 PUSH2 0x10B5 JUMP JUMPDEST PUSH2 0xAB4 JUMP JUMPDEST PUSH1 0x5 SLOAD PUSH2 0x28F SWAP1 PUSH1 0x1 PUSH1 0x1 PUSH1 0xA0 SHL SUB AND DUP2 JUMP JUMPDEST PUSH2 0x1C3 PUSH2 0x2FF CALLDATASIZE PUSH1 0x4 PUSH2 0x1112 JUMP JUMPDEST PUSH1 0xA PUSH1 0x20 MSTORE PUSH0 SWAP1 DUP2 MSTORE PUSH1 0x40 SWAP1 KECCAK256 SLOAD DUP2 JUMP JUMPDEST PUSH2 0x1B8 PUSH2 0xBA3 JUMP JUMPDEST PUSH2 0x1C3 PUSH1 0x3 SLOAD DUP2 JUMP JUMPDEST PUSH2 0x1B8 PUSH2 0x32F CALLDATASIZE PUSH1 0x4 PUSH2 0x1112 JUMP JUMPDEST PUSH2 0xC5D JUMP JUMPDEST PUSH2 0x1C3 PUSH2 0x342 CALLDATASIZE PUSH1 0x4 PUSH2 0x1112 JUMP JUMPDEST PUSH2 0xC9C JUMP JUMPDEST PUSH1 0x6 SLOAD PUSH2 0x28F SWAP1 PUSH1 0x1 PUSH1 0x1 PUSH1 0xA0 SHL SUB AND DUP2 JUMP JUMPDEST PUSH1 0x4 SLOAD PUSH2 0x28F SWAP1 PUSH1 0x1 PUSH1 0x1 PUSH1 0xA0 SHL SUB AND DUP2 JUMP JUMPDEST PUSH2 0x375 PUSH2 0xD0A JUMP JUMPDEST PUSH2 0x3E8 DUP2 GT ISZERO PUSH2 0x398 JUMPI PUSH1 0x40 MLOAD PUSH4 0xCD4E6167 PUSH1 0xE0 SHL DUP2 MSTORE PUSH1 0x4 ADD PUSH1 0x40 MLOAD DUP1 SWAP2 SUB SWAP1 REVERT JUMPDEST PUSH1 0x2 DUP1 SLOAD SWAP1 DUP3 SWAP1 SSTORE PUSH1 0x40 DUP1 MLOAD DUP3 DUP2 MSTORE PUSH1 0x20 DUP2 ADD DUP5 SWAP1 MSTORE PUSH32 0xD347E206F25A89B917FC9482F1A2D294D749BAA4DC9BDE7FB495EE11FE491643 SWAP2 ADD PUSH1 0x40 MLOAD DUP1 SWAP2 SUB SWAP1 LOG1 POP POP JUMP JUMPDEST PUSH1 0x5 SLOAD PUSH1 0x40 MLOAD PUSH4 0x27CF93B PUSH1 0xE3 SHL DUP2 MSTORE CALLER PUSH1 0x4 DUP3 ADD MSTORE PUSH1 0x1 PUSH1 0x1 PUSH1 0xA0 SHL SUB SWAP1 SWAP2 AND SWAP1 PUSH4 0x13E7C9D8 SWAP1 PUSH1 0x24 ADD PUSH1 0x20 PUSH1 0x40 MLOAD DUP1 DUP4 SUB DUP2 DUP7 GAS STATICCALL ISZERO DUP1 ISZERO PUSH2 0x423 JUMPI RETURNDATASIZE PUSH0 DUP1 RETURNDATACOPY RETURNDATASIZE PUSH0 REVERT JUMPDEST POP POP POP POP PUSH1 0x40 MLOAD RETURNDATASIZE PUSH1 0x1F NOT PUSH1 0x1F DUP3 ADD AND DUP3 ADD DUP1 PUSH1 0x40 MSTORE POP DUP2 ADD SWAP1 PUSH2 0x447 SWAP2 SWAP1 PUSH2 0x112D JUMP JUMPDEST ISZERO DUP1 ISZERO PUSH2 0x4D9 JUMPI POP PUSH1 0x5 PUSH0 SWAP1 SLOAD SWAP1 PUSH2 0x100 EXP SWAP1 DIV PUSH1 0x1 PUSH1 0x1 PUSH1 0xA0 SHL SUB AND PUSH1 0x1 PUSH1 0x1 PUSH1 0xA0 SHL SUB AND PUSH4 0x8DA5CB5B PUSH1 0x40 MLOAD DUP2 PUSH4 0xFFFFFFFF AND PUSH1 0xE0 SHL DUP2 MSTORE PUSH1 0x4 ADD PUSH1 0x20 PUSH1 0x40 MLOAD DUP1 DUP4 SUB DUP2 DUP7 GAS STATICCALL ISZERO DUP1 ISZERO PUSH2 0x49F JUMPI RETURNDATASIZE PUSH0 DUP1 RETURNDATACOPY RETURNDATASIZE PUSH0 REVERT JUMPDEST POP POP POP POP PUSH1 0x40 MLOAD RETURNDATASIZE PUSH1 0x1F NOT PUSH1 0x1F DUP3 ADD AND DUP3 ADD DUP1 PUSH1 0x40 MSTORE POP DUP2 ADD SWAP1 PUSH2 0x4C3 SWAP2 SWAP1 PUSH2 0x114C JUMP JUMPDEST PUSH1 0x1 PUSH1 0x1 PUSH1 0xA0 SHL SUB AND CALLER PUSH1 0x1 PUSH1 0x1 PUSH1 0xA0 SHL SUB AND EQ ISZERO JUMPDEST ISZERO PUSH2 0x4F7 JUMPI PUSH1 0x40 MLOAD PUSH4 0xEA8E4EB5 PUSH1 0xE0 SHL DUP2 MSTORE PUSH1 0x4 ADD PUSH1 0x40 MLOAD DUP1 SWAP2 SUB SWAP1 REVERT JUMPDEST DUP1 ISZERO PUSH2 0x627 JUMPI PUSH0 PUSH2 0x2710 PUSH1 0x3 SLOAD DUP4 PUSH2 0x50F SWAP2 SWAP1 PUSH2 0x117B JUMP JUMPDEST PUSH2 0x519 SWAP2 SWAP1 PUSH2 0x1198 JUMP JUMPDEST SWAP1 POP PUSH0 PUSH2 0x526 DUP3 DUP5 PUSH2 0x11B7 JUMP JUMPDEST SWAP1 POP DUP2 PUSH1 0x9 PUSH0 DUP3 DUP3 SLOAD PUSH2 0x539 SWAP2 SWAP1 PUSH2 0x11CA JUMP JUMPDEST SWAP1 SWAP2 SSTORE POP POP PUSH1 0x8 SLOAD ISZERO PUSH2 0x578 JUMPI PUSH1 0x8 SLOAD PUSH2 0x558 DUP4 PUSH5 0xE8D4A51000 PUSH2 0x117B JUMP JUMPDEST PUSH2 0x562 SWAP2 SWAP1 PUSH2 0x1198 JUMP JUMPDEST PUSH1 0xC PUSH0 DUP3 DUP3 SLOAD PUSH2 0x572 SWAP2 SWAP1 PUSH2 0x11CA JUMP JUMPDEST SWAP1 SWAP2 SSTORE POP POP JUMPDEST PUSH1 0x7 SLOAD DUP2 GT ISZERO PUSH2 0x59B JUMPI PUSH1 0x40 MLOAD PUSH4 0x1E9ACF17 PUSH1 0xE3 SHL DUP2 MSTORE PUSH1 0x4 ADD PUSH1 0x40 MLOAD DUP1 SWAP2 SUB SWAP1 REVERT JUMPDEST PUSH1 0x4 SLOAD PUSH2 0x5B2 SWAP1 PUSH1 0x1 PUSH1 0x1 PUSH1 0xA0 SHL SUB AND DUP7 DUP4 PUSH2 0xD3C JUMP JUMPDEST DUP2 DUP4 PUSH1 0x7 SLOAD PUSH2 0x5C1 SWAP2 SWAP1 PUSH2 0x11B7 JUMP JUMPDEST PUSH2 0x5CB SWAP2 SWAP1 PUSH2 0x11CA JUMP JUMPDEST PUSH1 0x7 SSTORE PUSH1 0x40 DUP1 MLOAD DUP6 DUP2 MSTORE PUSH1 0x20 DUP2 ADD DUP6 SWAP1 MSTORE SWAP1 DUP2 ADD DUP4 SWAP1 MSTORE TIMESTAMP PUSH1 0x60 DUP3 ADD MSTORE PUSH1 0x1 PUSH1 0x1 PUSH1 0xA0 SHL SUB DUP7 AND SWAP1 PUSH32 0xE1E22663CD8791964C0FE0C536A5B296F73B419C63E18FCBA51728F9270D90A2 SWAP1 PUSH1 0x80 ADD PUSH1 0x40 MLOAD DUP1 SWAP2 SUB SWAP1 LOG2 POP POP POP POP POP JUMP JUMPDEST DUP2 PUSH1 0x7 PUSH0 DUP3 DUP3 SLOAD PUSH2 0x638 SWAP2 SWAP1 PUSH2 0x11CA JUMP JUMPDEST SWAP1 SWAP2 SSTORE POP POP PUSH1 0x40 DUP1 MLOAD DUP4 DUP2 MSTORE PUSH0 PUSH1 0x20 DUP3 ADD MSTORE SWAP1 DUP2 ADD DUP4 SWAP1 MSTORE TIMESTAMP PUSH1 0x60 DUP3 ADD MSTORE PUSH1 0x1 PUSH1 0x1 PUSH1 0xA0 SHL SUB DUP5 AND SWAP1 PUSH32 0xE1E22663CD8791964C0FE0C536A5B296F73B419C63E18FCBA51728F9270D90A2 SWAP1 PUSH1 0x80 ADD PUSH1 0x40 MLOAD DUP1 SWAP2 SUB SWAP1 LOG2 JUMPDEST POP POP POP JUMP JUMPDEST PUSH2 0x69C PUSH2 0xD9B JUMP JUMPDEST PUSH2 0x6A4 PUSH2 0xDC5 JUMP JUMPDEST DUP1 PUSH0 SUB PUSH2 0x6C4 JUMPI PUSH1 0x40 MLOAD PUSH4 0x162908E3 PUSH1 0xE1 SHL DUP2 MSTORE PUSH1 0x4 ADD PUSH1 0x40 MLOAD DUP1 SWAP2 SUB SWAP1 REVERT JUMPDEST PUSH1 0x7 SLOAD DUP2 GT ISZERO PUSH2 0x6E7 JUMPI PUSH1 0x40 MLOAD PUSH4 0x1E9ACF17 PUSH1 0xE3 SHL DUP2 MSTORE PUSH1 0x4 ADD PUSH1 0x40 MLOAD DUP1 SWAP2 SUB SWAP1 REVERT JUMPDEST PUSH0 PUSH2 0x2710 PUSH1 0x2 SLOAD DUP4 PUSH2 0x6F9 SWAP2 SWAP1 PUSH2 0x117B JUMP JUMPDEST PUSH2 0x703 SWAP2 SWAP1 PUSH2 0x1198 JUMP JUMPDEST SWAP1 POP PUSH0 PUSH2 0x710 DUP3 DUP5 PUSH2 0x11B7 JUMP JUMPDEST SWAP1 POP DUP3 PUSH1 0x7 PUSH0 DUP3 DUP3 SLOAD PUSH2 0x723 SWAP2 SWAP1 PUSH2 0x11B7 JUMP JUMPDEST SWAP1 SWAP2 SSTORE POP POP DUP2 ISZERO PUSH2 0x74B JUMPI PUSH1 0x6 SLOAD PUSH1 0x4 SLOAD PUSH2 0x74B SWAP2 PUSH1 0x1 PUSH1 0x1 PUSH1 0xA0 SHL SUB SWAP2 DUP3 AND SWAP2 AND DUP5 PUSH2 0xD3C JUMP JUMPDEST PUSH1 0x4 SLOAD PUSH2 0x762 SWAP1 PUSH1 0x1 PUSH1 0x1 PUSH1 0xA0 SHL SUB AND CALLER DUP4 PUSH2 0xD3C JUMP JUMPDEST PUSH1 0x40 DUP1 MLOAD DUP5 DUP2 MSTORE PUSH1 0x20 DUP2 ADD DUP4 SWAP1 MSTORE TIMESTAMP SWAP2 DUP2 ADD SWAP2 SWAP1 SWAP2 MSTORE CALLER SWAP1 PUSH32 0x650FDF669E93AA6C8FF3DEFE2DA9C12B64F1548E5E1E54E803F4C1BEB6466C8E SWAP1 PUSH1 0x60 ADD JUMPDEST PUSH1 0x40 MLOAD DUP1 SWAP2 SUB SWAP1 LOG2 POP POP PUSH2 0x7B3 PUSH1 0x1 DUP1 SSTORE JUMP JUMPDEST POP JUMP JUMPDEST PUSH2 0x7BE PUSH2 0xD9B JUMP JUMPDEST PUSH2 0x7C7 CALLER PUSH2 0xDE8 JUMP JUMPDEST PUSH2 0x7D0 PUSH1 0x1 DUP1 SSTORE JUMP JUMPDEST JUMP JUMPDEST PUSH2 0x7DA PUSH2 0xD0A JUMP JUMPDEST PUSH2 0x7D0 PUSH2 0xF03 JUMP JUMPDEST PUSH2 0x7EA PUSH2 0xD9B JUMP JUMPDEST PUSH2 0x7F2 PUSH2 0xDC5 JUMP JUMPDEST DUP1 PUSH0 SUB PUSH2 0x812 JUMPI PUSH1 0x40 MLOAD PUSH4 0x162908E3 PUSH1 0xE1 SHL DUP2 MSTORE PUSH1 0x4 ADD PUSH1 0x40 MLOAD DUP1 SWAP2 SUB SWAP1 REVERT JUMPDEST PUSH0 PUSH1 0x8 SLOAD PUSH0 SUB PUSH2 0x823 JUMPI POP DUP1 PUSH2 0x840 JUMP JUMPDEST PUSH1 0x7 SLOAD PUSH1 0x8 SLOAD PUSH2 0x833 SWAP1 DUP5 PUSH2 0x117B JUMP JUMPDEST PUSH2 0x83D SWAP2 SWAP1 PUSH2 0x1198 JUMP JUMPDEST SWAP1 POP JUMPDEST PUSH5 0xE8D4A51000 PUSH1 0xC SLOAD DUP3 PUSH2 0x854 SWAP2 SWAP1 PUSH2 0x117B JUMP JUMPDEST PUSH2 0x85E SWAP2 SWAP1 PUSH2 0x1198 JUMP JUMPDEST CALLER PUSH0 DUP2 DUP2 MSTORE PUSH1 0xB PUSH1 0x20 MSTORE PUSH1 0x40 SWAP1 KECCAK256 SWAP2 SWAP1 SWAP2 SSTORE PUSH1 0x4 SLOAD PUSH2 0x88A SWAP2 PUSH1 0x1 PUSH1 0x1 PUSH1 0xA0 SHL SUB SWAP1 SWAP2 AND SWAP1 ADDRESS DUP6 PUSH2 0xF54 JUMP JUMPDEST DUP2 PUSH1 0x7 PUSH0 DUP3 DUP3 SLOAD PUSH2 0x89B SWAP2 SWAP1 PUSH2 0x11CA JUMP JUMPDEST SWAP3 POP POP DUP2 SWAP1 SSTORE POP DUP1 PUSH1 0x8 PUSH0 DUP3 DUP3 SLOAD PUSH2 0x8B3 SWAP2 SWAP1 PUSH2 0x11CA JUMP JUMPDEST SWAP1 SWAP2 SSTORE POP POP CALLER PUSH0 SWAP1 DUP2 MSTORE PUSH1 0xA PUSH1 0x20 MSTORE PUSH1 0x40 DUP2 KECCAK256 DUP1 SLOAD DUP4 SWAP3 SWAP1 PUSH2 0x8D6 SWAP1 DUP5 SWAP1 PUSH2 0x11CA JUMP JUMPDEST SWAP1 SWAP2 SSTORE POP POP PUSH1 0x40 DUP1 MLOAD DUP4 DUP2 MSTORE PUSH1 0x20 DUP2 ADD DUP4 SWAP1 MSTORE TIMESTAMP SWAP2 DUP2 ADD SWAP2 SWAP1 SWAP2 MSTORE CALLER SWAP1 PUSH32 0x64B83944E79C3CE8D4C297411DE637C3E102D064677AAC0C163976EBDCD6F50E SWAP1 PUSH1 0x60 ADD JUMPDEST PUSH1 0x40 MLOAD DUP1 SWAP2 SUB SWAP1 LOG2 POP PUSH2 0x7B3 PUSH1 0x1 DUP1 SSTORE JUMP JUMPDEST PUSH2 0x933 PUSH2 0xD0A JUMP JUMPDEST PUSH2 0x7D0 PUSH0 PUSH2 0xF93 JUMP JUMPDEST PUSH2 0x944 PUSH2 0xD0A JUMP JUMPDEST PUSH2 0x7D0 PUSH2 0xFEB JUMP JUMPDEST PUSH2 0x954 PUSH2 0xD9B JUMP JUMPDEST DUP1 PUSH0 SUB PUSH2 0x974 JUMPI PUSH1 0x40 MLOAD PUSH4 0x162908E3 PUSH1 0xE1 SHL DUP2 MSTORE PUSH1 0x4 ADD PUSH1 0x40 MLOAD DUP1 SWAP2 SUB SWAP1 REVERT JUMPDEST CALLER PUSH0 SWAP1 DUP2 MSTORE PUSH1 0xA PUSH1 0x20 MSTORE PUSH1 0x40 SWAP1 KECCAK256 SLOAD DUP2 GT ISZERO PUSH2 0x9A3 JUMPI PUSH1 0x40 MLOAD PUSH4 0x39996567 PUSH1 0xE0 SHL DUP2 MSTORE PUSH1 0x4 ADD PUSH1 0x40 MLOAD DUP1 SWAP2 SUB SWAP1 REVERT JUMPDEST PUSH2 0x9AC CALLER PUSH2 0xDE8 JUMP JUMPDEST PUSH0 PUSH1 0x8 SLOAD PUSH1 0x7 SLOAD DUP4 PUSH2 0x9BE SWAP2 SWAP1 PUSH2 0x117B JUMP JUMPDEST PUSH2 0x9C8 SWAP2 SWAP1 PUSH2 0x1198 JUMP JUMPDEST SWAP1 POP DUP1 PUSH1 0x7 PUSH0 DUP3 DUP3 SLOAD PUSH2 0x9DB SWAP2 SWAP1 PUSH2 0x11B7 JUMP JUMPDEST SWAP3 POP POP DUP2 SWAP1 SSTORE POP DUP2 PUSH1 0x8 PUSH0 DUP3 DUP3 SLOAD PUSH2 0x9F3 SWAP2 SWAP1 PUSH2 0x11B7 JUMP JUMPDEST SWAP1 SWAP2 SSTORE POP POP CALLER PUSH0 SWAP1 DUP2 MSTORE PUSH1 0xA PUSH1 0x20 MSTORE PUSH1 0x40 DUP2 KECCAK256 DUP1 SLOAD DUP5 SWAP3 SWAP1 PUSH2 0xA16 SWAP1 DUP5 SWAP1 PUSH2 0x11B7 JUMP JUMPDEST SWAP1 SWAP2 SSTORE POP POP PUSH1 0xC SLOAD CALLER PUSH0 SWAP1 DUP2 MSTORE PUSH1 0xA PUSH1 0x20 MSTORE PUSH1 0x40 SWAP1 KECCAK256 SLOAD PUSH5 0xE8D4A51000 SWAP2 PUSH2 0xA3D SWAP2 PUSH2 0x117B JUMP JUMPDEST PUSH2 0xA47 SWAP2 SWAP1 PUSH2 0x1198 JUMP JUMPDEST CALLER PUSH0 DUP2 DUP2 MSTORE PUSH1 0xB PUSH1 0x20 MSTORE PUSH1 0x40 SWAP1 KECCAK256 SWAP2 SWAP1 SWAP2 SSTORE PUSH1 0x4 SLOAD PUSH2 0xA72 SWAP2 PUSH1 0x1 PUSH1 0x1 PUSH1 0xA0 SHL SUB SWAP1 SWAP2 AND SWAP1 DUP4 PUSH2 0xD3C JUMP JUMPDEST PUSH1 0x40 DUP1 MLOAD DUP3 DUP2 MSTORE PUSH1 0x20 DUP2 ADD DUP5 SWAP1 MSTORE TIMESTAMP SWAP2 DUP2 ADD SWAP2 SWAP1 SWAP2 MSTORE CALLER SWAP1 PUSH32 0x1DC8BB69DF2B8E91FBDCBFCF93D951B3F0000F085A95FE3F7946D6161439245D SWAP1 PUSH1 0x60 ADD PUSH2 0x919 JUMP JUMPDEST PUSH2 0xABC PUSH2 0xD9B JUMP JUMPDEST PUSH2 0xAC4 PUSH2 0xDC5 JUMP JUMPDEST DUP1 PUSH0 SUB PUSH2 0xAE4 JUMPI PUSH1 0x40 MLOAD PUSH4 0x162908E3 PUSH1 0xE1 SHL DUP2 MSTORE PUSH1 0x4 ADD PUSH1 0x40 MLOAD DUP1 SWAP2 SUB SWAP1 REVERT JUMPDEST PUSH0 PUSH2 0x2710 PUSH1 0x2 SLOAD DUP4 PUSH2 0xAF6 SWAP2 SWAP1 PUSH2 0x117B JUMP JUMPDEST PUSH2 0xB00 SWAP2 SWAP1 PUSH2 0x1198 JUMP JUMPDEST SWAP1 POP PUSH0 PUSH2 0xB0D DUP3 DUP5 PUSH2 0x11B7 JUMP JUMPDEST PUSH1 0x4 SLOAD SWAP1 SWAP2 POP PUSH2 0xB28 SWAP1 PUSH1 0x1 PUSH1 0x1 PUSH1 0xA0 SHL SUB AND CALLER ADDRESS DUP7 PUSH2 0xF54 JUMP JUMPDEST DUP2 ISZERO PUSH2 0xB4B JUMPI PUSH1 0x6 SLOAD PUSH1 0x4 SLOAD PUSH2 0xB4B SWAP2 PUSH1 0x1 PUSH1 0x1 PUSH1 0xA0 SHL SUB SWAP2 DUP3 AND SWAP2 AND DUP5 PUSH2 0xD3C JUMP JUMPDEST DUP1 PUSH1 0x7 PUSH0 DUP3 DUP3 SLOAD PUSH2 0xB5C SWAP2 SWAP1 PUSH2 0x11CA JUMP JUMPDEST SWAP1 SWAP2 SSTORE POP POP PUSH1 0x40 DUP1 MLOAD DUP5 DUP2 MSTORE PUSH1 0x20 DUP2 ADD DUP4 SWAP1 MSTORE TIMESTAMP SWAP2 DUP2 ADD SWAP2 SWAP1 SWAP2 MSTORE CALLER SWAP1 PUSH32 0x36AF321EC8D3C75236829C5317AFFD40DDB308863A1236D2D277A4025CCCEE1E SWAP1 PUSH1 0x60 ADD PUSH2 0x7A0 JUMP JUMPDEST PUSH2 0xBAB PUSH2 0xD0A JUMP JUMPDEST PUSH2 0xBB3 PUSH2 0x1027 JUMP JUMPDEST PUSH1 0x4 DUP1 SLOAD PUSH1 0x40 MLOAD PUSH4 0x70A08231 PUSH1 0xE0 SHL DUP2 MSTORE ADDRESS SWAP3 DUP2 ADD SWAP3 SWAP1 SWAP3 MSTORE PUSH0 SWAP2 PUSH1 0x1 PUSH1 0x1 PUSH1 0xA0 SHL SUB SWAP1 SWAP2 AND SWAP1 PUSH4 0x70A08231 SWAP1 PUSH1 0x24 ADD PUSH1 0x20 PUSH1 0x40 MLOAD DUP1 DUP4 SUB DUP2 DUP7 GAS STATICCALL ISZERO DUP1 ISZERO PUSH2 0xBFE JUMPI RETURNDATASIZE PUSH0 DUP1 RETURNDATACOPY RETURNDATASIZE PUSH0 REVERT JUMPDEST POP POP POP POP PUSH1 0x40 MLOAD RETURNDATASIZE PUSH1 0x1F NOT PUSH1 0x1F DUP3 ADD AND DUP3 ADD DUP1 PUSH1 0x40 MSTORE POP DUP2 ADD SWAP1 PUSH2 0xC22 SWAP2 SWAP1 PUSH2 0x11DD JUMP JUMPDEST SWAP1 POP DUP1 ISZERO PUSH2 0xC47 JUMPI PUSH1 0x6 SLOAD PUSH1 0x4 SLOAD PUSH2 0xC47 SWAP2 PUSH1 0x1 PUSH1 0x1 PUSH1 0xA0 SHL SUB SWAP2 DUP3 AND SWAP2 AND DUP4 PUSH2 0xD3C JUMP JUMPDEST POP PUSH0 PUSH1 0x7 DUP2 SWAP1 SSTORE PUSH1 0x8 DUP2 SWAP1 SSTORE PUSH1 0x9 DUP2 SWAP1 SSTORE PUSH1 0xC SSTORE JUMP JUMPDEST PUSH2 0xC65 PUSH2 0xD0A JUMP JUMPDEST PUSH1 0x1 PUSH1 0x1 PUSH1 0xA0 SHL SUB DUP2 AND PUSH2 0xC93 JUMPI PUSH1 0x40 MLOAD PUSH4 0x1E4FBDF7 PUSH1 0xE0 SHL DUP2 MSTORE PUSH0 PUSH1 0x4 DUP3 ADD MSTORE PUSH1 0x24 ADD JUMPDEST PUSH1 0x40 MLOAD DUP1 SWAP2 SUB SWAP1 REVERT JUMPDEST PUSH2 0x7B3 DUP2 PUSH2 0xF93 JUMP JUMPDEST PUSH1 0x1 PUSH1 0x1 PUSH1 0xA0 SHL SUB DUP2 AND PUSH0 SWAP1 DUP2 MSTORE PUSH1 0xA PUSH1 0x20 MSTORE PUSH1 0x40 DUP2 KECCAK256 SLOAD DUP1 DUP3 SUB PUSH2 0xCC3 JUMPI POP PUSH0 SWAP3 SWAP2 POP POP JUMP JUMPDEST PUSH1 0x1 PUSH1 0x1 PUSH1 0xA0 SHL SUB DUP4 AND PUSH0 SWAP1 DUP2 MSTORE PUSH1 0xB PUSH1 0x20 MSTORE PUSH1 0x40 SWAP1 KECCAK256 SLOAD PUSH1 0xC SLOAD PUSH5 0xE8D4A51000 SWAP1 PUSH2 0xCEF SWAP1 DUP5 PUSH2 0x117B JUMP JUMPDEST PUSH2 0xCF9 SWAP2 SWAP1 PUSH2 0x1198 JUMP JUMPDEST PUSH2 0xD03 SWAP2 SWAP1 PUSH2 0x11B7 JUMP JUMPDEST SWAP4 SWAP3 POP POP POP JUMP JUMPDEST PUSH0 SLOAD PUSH1 0x1 PUSH1 0x1 PUSH1 0xA0 SHL SUB PUSH2 0x100 SWAP1 SWAP2 DIV AND CALLER EQ PUSH2 0x7D0 JUMPI PUSH1 0x40 MLOAD PUSH4 0x118CDAA7 PUSH1 0xE0 SHL DUP2 MSTORE CALLER PUSH1 0x4 DUP3 ADD MSTORE PUSH1 0x24 ADD PUSH2 0xC8A JUMP JUMPDEST PUSH1 0x40 MLOAD PUSH1 0x1 PUSH1 0x1 PUSH1 0xA0 SHL SUB DUP4 DUP2 AND PUSH1 0x24 DUP4 ADD MSTORE PUSH1 0x44 DUP3 ADD DUP4 SWAP1 MSTORE PUSH2 0x68F SWAP2 DUP6 SWAP2 DUP3 AND SWAP1 PUSH4 0xA9059CBB SWAP1 PUSH1 0x64 ADD JUMPDEST PUSH1 0x40 MLOAD PUSH1 0x20 DUP2 DUP4 SUB SUB DUP2 MSTORE SWAP1 PUSH1 0x40 MSTORE SWAP2 POP PUSH1 0xE0 SHL PUSH1 0x20 DUP3 ADD DUP1 MLOAD PUSH1 0x1 PUSH1 0x1 PUSH1 0xE0 SHL SUB DUP4 DUP2 DUP4 AND OR DUP4 MSTORE POP POP POP POP PUSH2 0x1049 JUMP JUMPDEST PUSH1 0x2 PUSH1 0x1 SLOAD SUB PUSH2 0xDBE JUMPI PUSH1 0x40 MLOAD PUSH4 0x3EE5AEB5 PUSH1 0xE0 SHL DUP2 MSTORE PUSH1 0x4 ADD PUSH1 0x40 MLOAD DUP1 SWAP2 SUB SWAP1 REVERT JUMPDEST PUSH1 0x2 PUSH1 0x1 SSTORE JUMP JUMPDEST PUSH0 SLOAD PUSH1 0xFF AND ISZERO PUSH2 0x7D0 JUMPI PUSH1 0x40 MLOAD PUSH4 0xD93C0665 PUSH1 0xE0 SHL DUP2 MSTORE PUSH1 0x4 ADD PUSH1 0x40 MLOAD DUP1 SWAP2 SUB SWAP1 REVERT JUMPDEST PUSH1 0x1 PUSH1 0x1 PUSH1 0xA0 SHL SUB DUP2 AND PUSH0 SWAP1 DUP2 MSTORE PUSH1 0xA PUSH1 0x20 MSTORE PUSH1 0x40 DUP2 KECCAK256 SLOAD SWAP1 DUP2 SWAP1 SUB PUSH2 0xE0C JUMPI POP POP JUMP JUMPDEST PUSH1 0x1 PUSH1 0x1 PUSH1 0xA0 SHL SUB DUP3 AND PUSH0 SWAP1 DUP2 MSTORE PUSH1 0xB PUSH1 0x20 MSTORE PUSH1 0x40 DUP2 KECCAK256 SLOAD PUSH1 0xC SLOAD PUSH5 0xE8D4A51000 SWAP1 PUSH2 0xE38 SWAP1 DUP6 PUSH2 0x117B JUMP JUMPDEST PUSH2 0xE42 SWAP2 SWAP1 PUSH2 0x1198 JUMP JUMPDEST PUSH2 0xE4C SWAP2 SWAP1 PUSH2 0x11B7 JUMP JUMPDEST SWAP1 POP DUP1 ISZERO PUSH2 0xEC5 JUMPI DUP1 PUSH1 0x9 PUSH0 DUP3 DUP3 SLOAD PUSH2 0xE65 SWAP2 SWAP1 PUSH2 0x11B7 JUMP JUMPDEST SWAP1 SWAP2 SSTORE POP POP PUSH1 0x4 SLOAD PUSH2 0xE81 SWAP1 PUSH1 0x1 PUSH1 0x1 PUSH1 0xA0 SHL SUB AND DUP5 DUP4 PUSH2 0xD3C JUMP JUMPDEST PUSH1 0x40 DUP1 MLOAD DUP3 DUP2 MSTORE TIMESTAMP PUSH1 0x20 DUP3 ADD MSTORE PUSH1 0x1 PUSH1 0x1 PUSH1 0xA0 SHL SUB DUP6 AND SWAP2 PUSH32 0xDACBDDE355BA930696A362EA6738FEB9F8BD52DFB3D81947558FD3217E23E325 SWAP2 ADD PUSH1 0x40 MLOAD DUP1 SWAP2 SUB SWAP1 LOG2 JUMPDEST PUSH5 0xE8D4A51000 PUSH1 0xC SLOAD DUP4 PUSH2 0xED9 SWAP2 SWAP1 PUSH2 0x117B JUMP JUMPDEST PUSH2 0xEE3 SWAP2 SWAP1 PUSH2 0x1198 JUMP JUMPDEST PUSH1 0x1 PUSH1 0x1 PUSH1 0xA0 SHL SUB SWAP1 SWAP4 AND PUSH0 SWAP1 DUP2 MSTORE PUSH1 0xB PUSH1 0x20 MSTORE PUSH1 0x40 SWAP1 KECCAK256 SWAP3 SWAP1 SWAP3 SSTORE POP POP JUMP JUMPDEST PUSH2 0xF0B PUSH2 0x1027 JUMP JUMPDEST PUSH0 DUP1 SLOAD PUSH1 0xFF NOT AND SWAP1 SSTORE PUSH32 0x5DB9EE0A495BF2E6FF9C91A7834C1BA4FDD244A5E8AA4E537BD38AEAE4B073AA CALLER JUMPDEST PUSH1 0x40 MLOAD PUSH1 0x1 PUSH1 0x1 PUSH1 0xA0 SHL SUB SWAP1 SWAP2 AND DUP2 MSTORE PUSH1 0x20 ADD PUSH1 0x40 MLOAD DUP1 SWAP2 SUB SWAP1 LOG1 JUMP JUMPDEST PUSH1 0x40 MLOAD PUSH1 0x1 PUSH1 0x1 PUSH1 0xA0 SHL SUB DUP5 DUP2 AND PUSH1 0x24 DUP4 ADD MSTORE DUP4 DUP2 AND PUSH1 0x44 DUP4 ADD MSTORE PUSH1 0x64 DUP3 ADD DUP4 SWAP1 MSTORE PUSH2 0xF8D SWAP2 DUP7 SWAP2 DUP3 AND SWAP1 PUSH4 0x23B872DD SWAP1 PUSH1 0x84 ADD PUSH2 0xD69 JUMP JUMPDEST POP POP POP POP JUMP JUMPDEST PUSH0 DUP1 SLOAD PUSH1 0x1 PUSH1 0x1 PUSH1 0xA0 SHL SUB DUP4 DUP2 AND PUSH2 0x100 DUP2 DUP2 MUL PUSH2 0x100 PUSH1 0x1 PUSH1 0xA8 SHL SUB NOT DUP6 AND OR DUP6 SSTORE PUSH1 0x40 MLOAD SWAP4 DIV SWAP2 SWAP1 SWAP2 AND SWAP3 SWAP1 SWAP2 DUP4 SWAP2 PUSH32 0x8BE0079C531659141344CD1FD0A4F28419497F9722A3DAAFE3B4186F6B6457E0 SWAP2 LOG3 POP POP JUMP JUMPDEST PUSH2 0xFF3 PUSH2 0xDC5 JUMP JUMPDEST PUSH0 DUP1 SLOAD PUSH1 0xFF NOT AND PUSH1 0x1 OR SWAP1 SSTORE PUSH32 0x62E78CEA01BEE320CD4E420270B5EA74000D11B0C9F74754EBDBFC544B05A258 PUSH2 0xF37 CALLER SWAP1 JUMP JUMPDEST PUSH0 SLOAD PUSH1 0xFF AND PUSH2 0x7D0 JUMPI PUSH1 0x40 MLOAD PUSH4 0x8DFC202B PUSH1 0xE0 SHL DUP2 MSTORE PUSH1 0x4 ADD PUSH1 0x40 MLOAD DUP1 SWAP2 SUB SWAP1 REVERT JUMPDEST PUSH0 DUP1 PUSH1 0x20 PUSH0 DUP5 MLOAD PUSH1 0x20 DUP7 ADD PUSH0 DUP9 GAS CALL DUP1 PUSH2 0x1068 JUMPI PUSH1 0x40 MLOAD RETURNDATASIZE PUSH0 DUP3 RETURNDATACOPY RETURNDATASIZE DUP2 REVERT JUMPDEST POP POP PUSH0 MLOAD RETURNDATASIZE SWAP2 POP DUP2 ISZERO PUSH2 0x107F JUMPI DUP1 PUSH1 0x1 EQ ISZERO PUSH2 0x108C JUMP JUMPDEST PUSH1 0x1 PUSH1 0x1 PUSH1 0xA0 SHL SUB DUP5 AND EXTCODESIZE ISZERO JUMPDEST ISZERO PUSH2 0xF8D JUMPI PUSH1 0x40 MLOAD PUSH4 0x5274AFE7 PUSH1 0xE0 SHL DUP2 MSTORE PUSH1 0x1 PUSH1 0x1 PUSH1 0xA0 SHL SUB DUP6 AND PUSH1 0x4 DUP3 ADD MSTORE PUSH1 0x24 ADD PUSH2 0xC8A JUMP JUMPDEST PUSH0 PUSH1 0x20 DUP3 DUP5 SUB SLT ISZERO PUSH2 0x10C5 JUMPI PUSH0 DUP1 REVERT JUMPDEST POP CALLDATALOAD SWAP2 SWAP1 POP JUMP JUMPDEST PUSH1 0x1 PUSH1 0x1 PUSH1 0xA0 SHL SUB DUP2 AND DUP2 EQ PUSH2 0x7B3 JUMPI PUSH0 DUP1 REVERT JUMPDEST PUSH0 DUP1 PUSH0 PUSH1 0x60 DUP5 DUP7 SUB SLT ISZERO PUSH2 0x10F2 JUMPI PUSH0 DUP1 REVERT JUMPDEST DUP4 CALLDATALOAD PUSH2 0x10FD DUP2 PUSH2 0x10CC JUMP JUMPDEST SWAP6 PUSH1 0x20 DUP6 ADD CALLDATALOAD SWAP6 POP PUSH1 0x40 SWAP1 SWAP5 ADD CALLDATALOAD SWAP4 SWAP3 POP POP POP JUMP JUMPDEST PUSH0 PUSH1 0x20 DUP3 DUP5 SUB SLT ISZERO PUSH2 0x1122 JUMPI PUSH0 DUP1 REVERT JUMPDEST DUP2 CALLDATALOAD PUSH2 0xD03 DUP2 PUSH2 0x10CC JUMP JUMPDEST PUSH0 PUSH1 0x20 DUP3 DUP5 SUB SLT ISZERO PUSH2 0x113D JUMPI PUSH0 DUP1 REVERT JUMPDEST DUP2 MLOAD DUP1 ISZERO ISZERO DUP2 EQ PUSH2 0xD03 JUMPI PUSH0 DUP1 REVERT JUMPDEST PUSH0 PUSH1 0x20 DUP3 DUP5 SUB SLT ISZERO PUSH2 0x115C JUMPI PUSH0 DUP1 REVERT JUMPDEST DUP2 MLOAD PUSH2 0xD03 DUP2 PUSH2 0x10CC JUMP JUMPDEST PUSH4 0x4E487B71 PUSH1 0xE0 SHL PUSH0 MSTORE PUSH1 0x11 PUSH1 0x4 MSTORE PUSH1 0x24 PUSH0 REVERT JUMPDEST DUP1 DUP3 MUL DUP2 ISZERO DUP3 DUP3 DIV DUP5 EQ OR PUSH2 0x1192 JUMPI PUSH2 0x1192 PUSH2 0x1167 JUMP JUMPDEST SWAP3 SWAP2 POP POP JUMP JUMPDEST PUSH0 DUP3 PUSH2 0x11B2 JUMPI PUSH4 0x4E487B71 PUSH1 0xE0 SHL PUSH0 MSTORE PUSH1 0x12 PUSH1 0x4 MSTORE PUSH1 0x24 PUSH0 REVERT JUMPDEST POP DIV SWAP1 JUMP JUMPDEST DUP2 DUP2 SUB DUP2 DUP2 GT ISZERO PUSH2 0x1192 JUMPI PUSH2 0x1192 PUSH2 0x1167 JUMP JUMPDEST DUP1 DUP3 ADD DUP1 DUP3 GT ISZERO PUSH2 0x1192 JUMPI PUSH2 0x1192 PUSH2 0x1167 JUMP JUMPDEST PUSH0 PUSH1 0x20 DUP3 DUP5 SUB SLT ISZERO PUSH2 0x11ED JUMPI PUSH0 DUP1 REVERT JUMPDEST POP MLOAD SWAP2 SWAP1 POP JUMP INVALID LOG2 PUSH5 0x6970667358 0x22 SLT KECCAK256 MCOPY SWAP2 SLOAD DUP12 SUB PUSH23 0x54F55386FEAFA1E91C790A8041508F831943B7D6A7F01E PUSH13 0x39B64736F6C63430008180033 LOG2 PUSH5 0x6970667358 0x22 SLT KECCAK256 0x21 0xE9 PUSH20 0x6AA5DF2629AC45A9946B72D51DB2ECF989D40405 0xC6 0x23 PUSH20 0x659532E6EA5F64736F6C63430008180033000000 "},"methodIdentifiers":{"BASIS_POINTS()":"e1f1c4a7","MAX_FEE()":"bc063e1a","createPool(address)":"9049f9d2","deployedTokens(uint256)":"ec81aadb","emergencyWithdrawFromPool(address)":"eac83407","gameFee()":"ea777eec","getDeployedPools()":"6b459213","getOperatorName(address)":"a0e0ce3d","getPool(address)":"bbe4f6db","initialize(address)":"c4d66de8","isOperator(address)":"6d70f7ae","isPoolDeployed(address)":"177761de","operatorNames(address)":"6ca58ec8","operators(address)":"13e7c9d8","owner()":"8da5cb5b","pause()":"8456cb59","paused()":"5c975abb","platformFee()":"26232a2e","platformWallet()":"fa2af9da","renounceOwnership()":"715018a6","setGameFee(uint256)":"a38bcc78","setOperator(address,bool,string)":"e3db7503","setPlatformFee(uint256)":"12e8e2c3","tokenToPools(address)":"bacb4b7c","transferOwnership(address)":"f2fde38b","unpause()":"3f4ba83a","updateAllPoolFees()":"7657c8be","updatePlatformWallet(address)":"ada4ef30","updatePoolFee(address)":"21f95ea2"}}}}}