{"contracts/TokenPool.sol":{"TokenPool":{"abi":[{"inputs":[{"internalType":"address","name":"_token","type":"address"},{"internalType":"address","name":"_factory","type":"address"},{"internalType":"address","name":"_platformWallet","type":"address"}],"stateMutability":"nonpayable","type":"constructor"},{"inputs":[],"name":"EnforcedPause","type":"error"},{"inputs":[],"name":"ExpectedPause","type":"error"},{"inputs":[],"name":"FeeTooHigh","type":"error"},{"inputs":[],"name":"InsufficientBalance","type":"error"},{"inputs":[],"name":"InsufficientShares","type":"error"},{"inputs":[],"name":"InvalidAmount","type":"error"},{"inputs":[],"name":"NotAuthorized","type":"error"},{"inputs":[{"internalType":"address","name":"owner","type":"address"}],"name":"OwnableInvalidOwner","type":"error"},{"inputs":[{"internalType":"address","name":"account","type":"address"}],"name":"OwnableUnauthorizedAccount","type":"error"},{"inputs":[],"name":"ReentrancyGuardReentrantCall","type":"error"},{"inputs":[{"internalType":"address","name":"token","type":"address"}],"name":"SafeERC20FailedOperation","type":"error"},{"anonymous":false,"inputs":[{"indexed":true,"internalType":"address","name":"user","type":"address"},{"indexed":false,"internalType":"uint256","name":"amount","type":"uint256"},{"indexed":false,"internalType":"uint256","name":"netAmount","type":"uint256"},{"indexed":false,"internalType":"uint256","name":"timestamp","type":"uint256"}],"name":"Deposit","type":"event"},{"anonymous":false,"inputs":[{"indexed":true,"internalType":"address","name":"user","type":"address"},{"indexed":false,"internalType":"uint256","name":"betAmount","type":"uint256"},{"indexed":false,"internalType":"uint256","name":"winAmount","type":"uint256"},{"indexed":false,"internalType":"uint256","name":"houseFee","type":"uint256"},{"indexed":false,"internalType":"uint256","name":"timestamp","type":"uint256"}],"name":"GameResult","type":"event"},{"anonymous":false,"inputs":[{"indexed":true,"internalType":"address","name":"provider","type":"address"},{"indexed":false,"internalType":"uint256","name":"amount","type":"uint256"},{"indexed":false,"internalType":"uint256","name":"shares","type":"uint256"},{"indexed":false,"internalType":"uint256","name":"timestamp","type":"uint256"}],"name":"LiquidityAdded","type":"event"},{"anonymous":false,"inputs":[{"indexed":true,"internalType":"address","name":"provider","type":"address"},{"indexed":false,"internalType":"uint256","name":"amount","type":"uint256"},{"indexed":false,"internalType":"uint256","name":"shares","type":"uint256"},{"indexed":false,"internalType":"uint256","name":"timestamp","type":"uint256"}],"name":"LiquidityRemoved","type":"event"},{"anonymous":false,"inputs":[{"indexed":true,"internalType":"address","name":"previousOwner","type":"address"},{"indexed":true,"internalType":"address","name":"newOwner","type":"address"}],"name":"OwnershipTransferred","type":"event"},{"anonymous":false,"inputs":[{"indexed":false,"internalType":"address","name":"account","type":"address"}],"name":"Paused","type":"event"},{"anonymous":false,"inputs":[{"indexed":false,"internalType":"uint256","name":"oldFee","type":"uint256"},{"indexed":false,"internalType":"uint256","name":"newFee","type":"uint256"}],"name":"PlatformFeeUpdated","type":"event"},{"anonymous":false,"inputs":[{"indexed":true,"internalType":"address","name":"provider","type":"address"},{"indexed":false,"internalType":"uint256","name":"amount","type":"uint256"},{"indexed":false,"internalType":"uint256","name":"timestamp","type":"uint256"}],"name":"RewardsClaimed","type":"event"},{"anonymous":false,"inputs":[{"indexed":false,"internalType":"address","name":"account","type":"address"}],"name":"Unpaused","type":"event"},{"anonymous":false,"inputs":[{"indexed":true,"internalType":"address","name":"user","type":"address"},{"indexed":false,"internalType":"uint256","name":"amount","type":"uint256"},{"indexed":false,"internalType":"uint256","name":"netAmount","type":"uint256"},{"indexed":false,"internalType":"uint256","name":"timestamp","type":"uint256"}],"name":"Withdrawal","type":"event"},{"inputs":[],"name":"accRewardPerShare","outputs":[{"internalType":"uint256","name":"","type":"uint256"}],"stateMutability":"view","type":"function"},{"inputs":[],"name":"accumulatedFees","outputs":[{"internalType":"uint256","name":"","type":"uint256"}],"stateMutability":"view","type":"function"},{"inputs":[{"internalType":"uint256","name":"amount","type":"uint256"}],"name":"addLiquidity","outputs":[],"stateMutability":"nonpayable","type":"function"},{"inputs":[],"name":"claimRewards","outputs":[],"stateMutability":"nonpayable","type":"function"},{"inputs":[{"internalType":"uint256","name":"amount","type":"uint256"}],"name":"deposit","outputs":[],"stateMutability":"nonpayable","type":"function"},{"inputs":[],"name":"emergencyWithdraw","outputs":[],"stateMutability":"nonpayable","type":"function"},{"inputs":[],"name":"factory","outputs":[{"internalType":"contract ICasinoFactory","name":"","type":"address"}],"stateMutability":"view","type":"function"},{"inputs":[],"name":"gameFee","outputs":[{"internalType":"uint256","name":"","type":"uint256"}],"stateMutability":"view","type":"function"},{"inputs":[{"internalType":"address","name":"provider","type":"address"}],"name":"getPendingRewards","outputs":[{"internalType":"uint256","name":"","type":"uint256"}],"stateMutability":"view","type":"function"},{"inputs":[],"name":"getPoolBalance","outputs":[{"internalType":"uint256","name":"","type":"uint256"}],"stateMutability":"view","type":"function"},{"inputs":[],"name":"owner","outputs":[{"internalType":"address","name":"","type":"address"}],"stateMutability":"view","type":"function"},{"inputs":[],"name":"pause","outputs":[],"stateMutability":"nonpayable","type":"function"},{"inputs":[],"name":"paused","outputs":[{"internalType":"bool","name":"","type":"bool"}],"stateMutability":"view","type":"function"},{"inputs":[],"name":"platformFee","outputs":[{"internalType":"uint256","name":"","type":"uint256"}],"stateMutability":"view","type":"function"},{"inputs":[],"name":"platformWallet","outputs":[{"internalType":"address","name":"","type":"address"}],"stateMutability":"view","type":"function"},{"inputs":[{"internalType":"address","name":"user","type":"address"},{"internalType":"uint256","name":"betAmount","type":"uint256"},{"internalType":"uint256","name":"winAmount","type":"uint256"}],"name":"processGameResult","outputs":[],"stateMutability":"nonpayable","type":"function"},{"inputs":[{"internalType":"uint256","name":"shareAmount","type":"uint256"}],"name":"removeLiquidity","outputs":[],"stateMutability":"nonpayable","type":"function"},{"inputs":[],"name":"renounceOwnership","outputs":[],"stateMutability":"nonpayable","type":"function"},{"inputs":[{"internalType":"address","name":"","type":"address"}],"name":"rewardDebt","outputs":[{"internalType":"uint256","name":"","type":"uint256"}],"stateMutability":"view","type":"function"},{"inputs":[{"internalType":"uint256","name":"newFee","type":"uint256"}],"name":"setPlatformFee","outputs":[],"stateMutability":"nonpayable","type":"function"},{"inputs":[{"internalType":"address","name":"","type":"address"}],"name":"shares","outputs":[{"internalType":"uint256","name":"","type":"uint256"}],"stateMutability":"view","type":"function"},{"inputs":[],"name":"token","outputs":[{"internalType":"contract IERC20","name":"","type":"address"}],"stateMutability":"view","type":"function"},{"inputs":[],"name":"totalDeposits","outputs":[{"internalType":"uint256","name":"","type":"uint256"}],"stateMutability":"view","type":"function"},{"inputs":[],"name":"totalShares","outputs":[{"internalType":"uint256","name":"","type":"uint256"}],"stateMutability":"view","type":"function"},{"inputs":[{"internalType":"address","name":"newOwner","type":"address"}],"name":"transferOwnership","outputs":[],"stateMutability":"nonpayable","type":"function"},{"inputs":[],"name":"unpause","outputs":[],"stateMutability":"nonpayable","type":"function"},{"inputs":[{"internalType":"uint256","name":"amount","type":"uint256"}],"name":"withdraw","outputs":[],"stateMutability":"nonpayable","type":"function"}],"evm":{"bytecode":{"linkReferences":{},"object":"608060405234801562000010575f80fd5b50604051620014bc380380620014bc83398101604081905262000033916200023d565b5f805460ff19169055816001600160a01b0381166200006c57604051631e4fbdf760e01b81525f60048201526024015b60405180910390fd5b620000778162000150565b50600180556001600160a01b038316620000a45760405163162908e360e11b815260040160405180910390fd5b6001600160a01b038216620000cc5760405163162908e360e11b815260040160405180910390fd5b6001600160a01b038116620000f45760405163162908e360e11b815260040160405180910390fd5b600480546001600160a01b038086166001600160a01b0319928316179092556005805485841690831617905560068054928416929091169190911790556101f460028190556003556200014782620001a8565b50505062000284565b5f80546001600160a01b03838116610100818102610100600160a81b0319851617855560405193049190911692909183917f8be0079c531659141344cd1fd0a4f28419497f9722a3daafe3b4186f6b6457e091a35050565b620001b2620001eb565b6001600160a01b038116620001dd57604051631e4fbdf760e01b81525f600482015260240162000063565b620001e88162000150565b50565b5f546001600160a01b036101009091041633146200021f5760405163118cdaa760e01b815233600482015260240162000063565b565b80516001600160a01b038116811462000238575f80fd5b919050565b5f805f6060848603121562000250575f80fd5b6200025b8462000221565b92506200026b6020850162000221565b91506200027b6040850162000221565b90509250925092565b61122a80620002925f395ff3fe608060405234801561000f575f80fd5b50600436106101a1575f3560e01c80638456cb59116100f3578063ce7c2ac211610093578063f2fde38b1161006e578063f2fde38b14610321578063f6ed201714610334578063fa2af9da14610347578063fc0c546a1461035a575f80fd5b8063ce7c2ac2146102f1578063db2e21bc14610310578063ea777eec14610318575f80fd5b80639c8f9f23116100ce5780639c8f9f23146102b0578063abd70aa2146102c3578063b6b55f25146102cb578063c45a0155146102de575f80fd5b80638456cb59146102765780638da5cb5b1461027e578063939d6237146102a7575f80fd5b80633f4ba83a1161015e578063587f5ed711610139578063587f5ed7146102475780635c975abb14610250578063715018a6146102655780637d8820971461026d575f80fd5b80633f4ba83a1461020d57806351c6590a146102155780635873eb9b14610228575f80fd5b806312e8e2c3146101a557806326232a2e146101ba5780632bba99c2146101d65780632e1a7d4d146101e9578063372500ab146101fc5780633a98ef3914610204575b5f80fd5b6101b86101b33660046110b5565b61036d565b005b6101c360025481565b6040519081526020015b60405180910390f35b6101b86101e43660046110e0565b6103dd565b6101b86101f73660046110b5565b610694565b6101b86107b6565b6101c360085481565b6101b86107d2565b6101b86102233660046110b5565b6107e2565b6101c3610236366004611112565b600b6020525f908152604090205481565b6101c360095481565b5f5460ff1660405190151581526020016101cd565b6101b861092b565b6101c360075481565b6101b861093c565b5f5461010090046001600160a01b03165b6040516001600160a01b0390911681526020016101cd565b6101c3600c5481565b6101b86102be3660046110b5565b61094c565b6007546101c3565b6101b86102d93660046110b5565b610ab4565b60055461028f906001600160a01b031681565b6101c36102ff366004611112565b600a6020525f908152604090205481565b6101b8610ba3565b6101c360035481565b6101b861032f366004611112565b610c5d565b6101c3610342366004611112565b610c9c565b60065461028f906001600160a01b031681565b60045461028f906001600160a01b031681565b610375610d0a565b6103e88111156103985760405163cd4e616760e01b815260040160405180910390fd5b600280549082905560408051828152602081018490527fd347e206f25a89b917fc9482f1a2d294d749baa4dc9bde7fb495ee11fe491643910160405180910390a15050565b60055460405163027cf93b60e31b81523360048201526001600160a01b03909116906313e7c9d890602401602060405180830381865afa158015610423573d5f803e3d5ffd5b505050506040513d601f19601f82011682018060405250810190610447919061112d565b1580156104d9575060055f9054906101000a90046001600160a01b03166001600160a01b0316638da5cb5b6040518163ffffffff1660e01b8152600401602060405180830381865afa15801561049f573d5f803e3d5ffd5b505050506040513d601f19601f820116820180604052508101906104c3919061114c565b6001600160a01b0316336001600160a01b031614155b156104f75760405163ea8e4eb560e01b815260040160405180910390fd5b8015610627575f6127106003548361050f919061117b565b6105199190611198565b90505f61052682846111b7565b90508160095f82825461053991906111ca565b909155505060085415610578576008546105588364e8d4a5100061117b565b6105629190611198565b600c5f82825461057291906111ca565b90915550505b60075481111561059b57604051631e9acf1760e31b815260040160405180910390fd5b6004546105b2906001600160a01b03168683610d3c565b81836007546105c191906111b7565b6105cb91906111ca565b60075560408051858152602081018590529081018390524260608201526001600160a01b038616907fe1e22663cd8791964c0fe0c536a5b296f73b419c63e18fcba51728f9270d90a29060800160405180910390a25050505050565b8160075f82825461063891906111ca565b9091555050604080518381525f60208201529081018390524260608201526001600160a01b038416907fe1e22663cd8791964c0fe0c536a5b296f73b419c63e18fcba51728f9270d90a29060800160405180910390a25b505050565b61069c610d9b565b6106a4610dc5565b805f036106c45760405163162908e360e11b815260040160405180910390fd5b6007548111156106e757604051631e9acf1760e31b815260040160405180910390fd5b5f612710600254836106f9919061117b565b6107039190611198565b90505f61071082846111b7565b90508260075f82825461072391906111b7565b9091555050811561074b5760065460045461074b916001600160a01b03918216911684610d3c565b600454610762906001600160a01b03163383610d3c565b6040805184815260208101839052429181019190915233907f650fdf669e93aa6c8ff3defe2da9c12b64f1548e5e1e54e803f4c1beb6466c8e906060015b60405180910390a250506107b360018055565b50565b6107be610d9b565b6107c733610de8565b6107d060018055565b565b6107da610d0a565b6107d0610f03565b6107ea610d9b565b6107f2610dc5565b805f036108125760405163162908e360e11b815260040160405180910390fd5b5f6008545f03610823575080610840565b600754600854610833908461117b565b61083d9190611198565b90505b64e8d4a51000600c5482610854919061117b565b61085e9190611198565b335f818152600b602052604090209190915560045461088a916001600160a01b03909116903085610f54565b8160075f82825461089b91906111ca565b925050819055508060085f8282546108b391906111ca565b9091555050335f908152600a6020526040812080548392906108d69084906111ca565b90915550506040805183815260208101839052429181019190915233907f64b83944e79c3ce8d4c297411de637c3e102d064677aac0c163976ebdcd6f50e906060015b60405180910390a2506107b360018055565b610933610d0a565b6107d05f610f93565b610944610d0a565b6107d0610feb565b610954610d9b565b805f036109745760405163162908e360e11b815260040160405180910390fd5b335f908152600a60205260409020548111156109a357604051633999656760e01b815260040160405180910390fd5b6109ac33610de8565b5f600854600754836109be919061117b565b6109c89190611198565b90508060075f8282546109db91906111b7565b925050819055508160085f8282546109f391906111b7565b9091555050335f908152600a602052604081208054849290610a169084906111b7565b9091555050600c54335f908152600a602052604090205464e8d4a5100091610a3d9161117b565b610a479190611198565b335f818152600b6020526040902091909155600454610a72916001600160a01b039091169083610d3c565b6040805182815260208101849052429181019190915233907f1dc8bb69df2b8e91fbdcbfcf93d951b3f0000f085a95fe3f7946d6161439245d90606001610919565b610abc610d9b565b610ac4610dc5565b805f03610ae45760405163162908e360e11b815260040160405180910390fd5b5f61271060025483610af6919061117b565b610b009190611198565b90505f610b0d82846111b7565b600454909150610b28906001600160a01b0316333086610f54565b8115610b4b57600654600454610b4b916001600160a01b03918216911684610d3c565b8060075f828254610b5c91906111ca565b90915550506040805184815260208101839052429181019190915233907f36af321ec8d3c75236829c5317affd40ddb308863a1236d2d277a4025cccee1e906060016107a0565b610bab610d0a565b610bb3611027565b600480546040516370a0823160e01b815230928101929092525f916001600160a01b03909116906370a0823190602401602060405180830381865afa158015610bfe573d5f803e3d5ffd5b505050506040513d601f19601f82011682018060405250810190610c2291906111dd565b90508015610c4757600654600454610c47916001600160a01b03918216911683610d3c565b505f600781905560088190556009819055600c55565b610c65610d0a565b6001600160a01b038116610c9357604051631e4fbdf760e01b81525f60048201526024015b60405180910390fd5b6107b381610f93565b6001600160a01b0381165f908152600a6020526040812054808203610cc357505f92915050565b6001600160a01b0383165f908152600b6020526040902054600c5464e8d4a5100090610cef908461117b565b610cf99190611198565b610d0391906111b7565b9392505050565b5f546001600160a01b036101009091041633146107d05760405163118cdaa760e01b8152336004820152602401610c8a565b6040516001600160a01b0383811660248301526044820183905261068f91859182169063a9059cbb906064015b604051602081830303815290604052915060e01b6020820180516001600160e01b038381831617835250505050611049565b600260015403610dbe57604051633ee5aeb560e01b815260040160405180910390fd5b6002600155565b5f5460ff16156107d05760405163d93c066560e01b815260040160405180910390fd5b6001600160a01b0381165f908152600a602052604081205490819003610e0c575050565b6001600160a01b0382165f908152600b6020526040812054600c5464e8d4a5100090610e38908561117b565b610e429190611198565b610e4c91906111b7565b90508015610ec5578060095f828254610e6591906111b7565b9091555050600454610e81906001600160a01b03168483610d3c565b604080518281524260208201526001600160a01b038516917fdacbdde355ba930696a362ea6738feb9f8bd52dfb3d81947558fd3217e23e325910160405180910390a25b64e8d4a51000600c5483610ed9919061117b565b610ee39190611198565b6001600160a01b039093165f908152600b60205260409020929092555050565b610f0b611027565b5f805460ff191690557f5db9ee0a495bf2e6ff9c91a7834c1ba4fdd244a5e8aa4e537bd38aeae4b073aa335b6040516001600160a01b03909116815260200160405180910390a1565b6040516001600160a01b038481166024830152838116604483015260648201839052610f8d9186918216906323b872dd90608401610d69565b50505050565b5f80546001600160a01b03838116610100818102610100600160a81b0319851617855560405193049190911692909183917f8be0079c531659141344cd1fd0a4f28419497f9722a3daafe3b4186f6b6457e091a35050565b610ff3610dc5565b5f805460ff191660011790557f62e78cea01bee320cd4e420270b5ea74000d11b0c9f74754ebdbfc544b05a258610f373390565b5f5460ff166107d057604051638dfc202b60e01b815260040160405180910390fd5b5f8060205f8451602086015f885af180611068576040513d5f823e3d81fd5b50505f513d9150811561107f57806001141561108c565b6001600160a01b0384163b155b15610f8d57604051635274afe760e01b81526001600160a01b0385166004820152602401610c8a565b5f602082840312156110c5575f80fd5b5035919050565b6001600160a01b03811681146107b3575f80fd5b5f805f606084860312156110f2575f80fd5b83356110fd816110cc565b95602085013595506040909401359392505050565b5f60208284031215611122575f80fd5b8135610d03816110cc565b5f6020828403121561113d575f80fd5b81518015158114610d03575f80fd5b5f6020828403121561115c575f80fd5b8151610d03816110cc565b634e487b7160e01b5f52601160045260245ffd5b808202811582820484141761119257611192611167565b92915050565b5f826111b257634e487b7160e01b5f52601260045260245ffd5b500490565b8181038181111561119257611192611167565b8082018082111561119257611192611167565b5f602082840312156111ed575f80fd5b505191905056fea26469706673582212205e91548b037654f55386feafa1e91c790a8041508f831943b7d6a7f01e6c039b64736f6c63430008180033","opcodes":"PUSH1 0x80 PUSH1 0x40 MSTORE CALLVALUE DUP1 ISZERO PUSH3 0x10 JUMPI PUSH0 DUP1 REVERT JUMPDEST POP PUSH1 0x40 MLOAD PUSH3 0x14BC CODESIZE SUB DUP1 PUSH3 0x14BC DUP4 CODECOPY DUP2 ADD PUSH1 0x40 DUP2 SWAP1 MSTORE PUSH3 0x33 SWAP2 PUSH3 0x23D JUMP JUMPDEST PUSH0 DUP1 SLOAD PUSH1 0xFF NOT AND SWAP1 SSTORE DUP2 PUSH1 0x1 PUSH1 0x1 PUSH1 0xA0 SHL SUB DUP2 AND PUSH3 0x6C JUMPI PUSH1 0x40 MLOAD PUSH4 0x1E4FBDF7 PUSH1 0xE0 SHL DUP2 MSTORE PUSH0 PUSH1 0x4 DUP3 ADD MSTORE PUSH1 0x24 ADD JUMPDEST PUSH1 0x40 MLOAD DUP1 SWAP2 SUB SWAP1 REVERT JUMPDEST PUSH3 0x77 DUP2 PUSH3 0x150 JUMP JUMPDEST POP PUSH1 0x1 DUP1 SSTORE PUSH1 0x1 PUSH1 0x1 PUSH1 0xA0 SHL SUB DUP4 AND PUSH3 0xA4 JUMPI PUSH1 0x40 MLOAD PUSH4 0x162908E3 PUSH1 0xE1 SHL DUP2 MSTORE PUSH1 0x4 ADD PUSH1 0x40 MLOAD DUP1 SWAP2 SUB SWAP1 REVERT JUMPDEST PUSH1 0x1 PUSH1 0x1 PUSH1 0xA0 SHL SUB DUP3 AND PUSH3 0xCC JUMPI PUSH1 0x40 MLOAD PUSH4 0x162908E3 PUSH1 0xE1 SHL DUP2 MSTORE PUSH1 0x4 ADD PUSH1 0x40 MLOAD DUP1 SWAP2 SUB SWAP1 REVERT JUMPDEST PUSH1 0x1 PUSH1 0x1 PUSH1 0xA0 SHL SUB DUP2 AND PUSH3 0xF4 JUMPI PUSH1 0x40 MLOAD PUSH4 0x162908E3 PUSH1 0xE1 SHL DUP2 MSTORE PUSH1 0x4 ADD PUSH1 0x40 MLOAD DUP1 SWAP2 SUB SWAP1 REVERT JUMPDEST PUSH1 0x4 DUP1 SLOAD PUSH1 0x1 PUSH1 0x1 PUSH1 0xA0 SHL SUB DUP1 DUP7 AND PUSH1 0x1 PUSH1 0x1 PUSH1 0xA0 SHL SUB NOT SWAP3 DUP4 AND OR SWAP1 SWAP3 SSTORE PUSH1 0x5 DUP1 SLOAD DUP6 DUP5 AND SWAP1 DUP4 AND OR SWAP1 SSTORE PUSH1 0x6 DUP1 SLOAD SWAP3 DUP5 AND SWAP3 SWAP1 SWAP2 AND SWAP2 SWAP1 SWAP2 OR SWAP1 SSTORE PUSH2 0x1F4 PUSH1 0x2 DUP2 SWAP1 SSTORE PUSH1 0x3 SSTORE PUSH3 0x147 DUP3 PUSH3 0x1A8 JUMP JUMPDEST POP POP POP PUSH3 0x284 JUMP JUMPDEST PUSH0 DUP1 SLOAD PUSH1 0x1 PUSH1 0x1 PUSH1 0xA0 SHL SUB DUP4 DUP2 AND PUSH2 0x100 DUP2 DUP2 MUL PUSH2 0x100 PUSH1 0x1 PUSH1 0xA8 SHL SUB NOT DUP6 AND OR DUP6 SSTORE PUSH1 0x40 MLOAD SWAP4 DIV SWAP2 SWAP1 SWAP2 AND SWAP3 SWAP1 SWAP2 DUP4 SWAP2 PUSH32 0x8BE0079C531659141344CD1FD0A4F28419497F9722A3DAAFE3B4186F6B6457E0 SWAP2 LOG3 POP POP JUMP JUMPDEST PUSH3 0x1B2 PUSH3 0x1EB JUMP JUMPDEST PUSH1 0x1 PUSH1 0x1 PUSH1 0xA0 SHL SUB DUP2 AND PUSH3 0x1DD JUMPI PUSH1 0x40 MLOAD PUSH4 0x1E4FBDF7 PUSH1 0xE0 SHL DUP2 MSTORE PUSH0 PUSH1 0x4 DUP3 ADD MSTORE PUSH1 0x24 ADD PUSH3 0x63 JUMP JUMPDEST PUSH3 0x1E8 DUP2 PUSH3 0x150 JUMP JUMPDEST POP JUMP JUMPDEST PUSH0 SLOAD PUSH1 0x1 PUSH1 0x1 PUSH1 0xA0 SHL SUB PUSH2 0x100 SWAP1 SWAP2 DIV AND CALLER EQ PUSH3 0x21F JUMPI PUSH1 0x40 MLOAD PUSH4 0x118CDAA7 PUSH1 0xE0 SHL DUP2 MSTORE CALLER PUSH1 0x4 DUP3 ADD MSTORE PUSH1 0x24 ADD PUSH3 0x63 JUMP JUMPDEST JUMP JUMPDEST DUP1 MLOAD PUSH1 0x1 PUSH1 0x1 PUSH1 0xA0 SHL SUB DUP2 AND DUP2 EQ PUSH3 0x238 JUMPI PUSH0 DUP1 REVERT JUMPDEST SWAP2 SWAP1 POP JUMP JUMPDEST PUSH0 DUP1 PUSH0 PUSH1 0x60 DUP5 DUP7 SUB SLT ISZERO PUSH3 0x250 JUMPI PUSH0 DUP1 REVERT JUMPDEST PUSH3 0x25B DUP5 PUSH3 0x221 JUMP JUMPDEST SWAP3 POP PUSH3 0x26B PUSH1 0x20 DUP6 ADD PUSH3 0x221 JUMP JUMPDEST SWAP2 POP PUSH3 0x27B PUSH1 0x40 DUP6 ADD PUSH3 0x221 JUMP JUMPDEST SWAP1 POP SWAP3 POP SWAP3 POP SWAP3 JUMP JUMPDEST PUSH2 0x122A DUP1 PUSH3 0x292 PUSH0 CODECOPY PUSH0 RETURN INVALID PUSH1 0x80 PUSH1 0x40 MSTORE CALLVALUE DUP1 ISZERO PUSH2 0xF JUMPI PUSH0 DUP1 REVERT JUMPDEST POP PUSH1 0x4 CALLDATASIZE LT PUSH2 0x1A1 JUMPI PUSH0 CALLDATALOAD PUSH1 0xE0 SHR DUP1 PUSH4 0x8456CB59 GT PUSH2 0xF3 JUMPI DUP1 PUSH4 0xCE7C2AC2 GT PUSH2 0x93 JUMPI DUP1 PUSH4 0xF2FDE38B GT PUSH2 0x6E JUMPI DUP1 PUSH4 0xF2FDE38B EQ PUSH2 0x321 JUMPI DUP1 PUSH4 0xF6ED2017 EQ PUSH2 0x334 JUMPI DUP1 PUSH4 0xFA2AF9DA EQ PUSH2 0x347 JUMPI DUP1 PUSH4 0xFC0C546A EQ PUSH2 0x35A JUMPI PUSH0 DUP1 REVERT JUMPDEST DUP1 PUSH4 0xCE7C2AC2 EQ PUSH2 0x2F1 JUMPI DUP1 PUSH4 0xDB2E21BC EQ PUSH2 0x310 JUMPI DUP1 PUSH4 0xEA777EEC EQ PUSH2 0x318 JUMPI PUSH0 DUP1 REVERT JUMPDEST DUP1 PUSH4 0x9C8F9F23 GT PUSH2 0xCE JUMPI DUP1 PUSH4 0x9C8F9F23 EQ PUSH2 0x2B0 JUMPI DUP1 PUSH4 0xABD70AA2 EQ PUSH2 0x2C3 JUMPI DUP1 PUSH4 0xB6B55F25 EQ PUSH2 0x2CB JUMPI DUP1 PUSH4 0xC45A0155 EQ PUSH2 0x2DE JUMPI PUSH0 DUP1 REVERT JUMPDEST DUP1 PUSH4 0x8456CB59 EQ PUSH2 0x276 JUMPI DUP1 PUSH4 0x8DA5CB5B EQ PUSH2 0x27E JUMPI DUP1 PUSH4 0x939D6237 EQ PUSH2 0x2A7 JUMPI PUSH0 DUP1 REVERT JUMPDEST DUP1 PUSH4 0x3F4BA83A GT PUSH2 0x15E JUMPI DUP1 PUSH4 0x587F5ED7 GT PUSH2 0x139 JUMPI DUP1 PUSH4 0x587F5ED7 EQ PUSH2 0x247 JUMPI DUP1 PUSH4 0x5C975ABB EQ PUSH2 0x250 JUMPI DUP1 PUSH4 0x715018A6 EQ PUSH2 0x265 JUMPI DUP1 PUSH4 0x7D882097 EQ PUSH2 0x26D JUMPI PUSH0 DUP1 REVERT JUMPDEST DUP1 PUSH4 0x3F4BA83A EQ PUSH2 0x20D JUMPI DUP1 PUSH4 0x51C6590A EQ PUSH2 0x215 JUMPI DUP1 PUSH4 0x5873EB9B EQ PUSH2 0x228 JUMPI PUSH0 DUP1 REVERT JUMPDEST DUP1 PUSH4 0x12E8E2C3 EQ PUSH2 0x1A5 JUMPI DUP1 PUSH4 0x26232A2E EQ PUSH2 0x1BA JUMPI DUP1 PUSH4 0x2BBA99C2 EQ PUSH2 0x1D6 JUMPI DUP1 PUSH4 0x2E1A7D4D EQ PUSH2 0x1E9 JUMPI DUP1 PUSH4 0x372500AB EQ PUSH2 0x1FC JUMPI DUP1 PUSH4 0x3A98EF39 EQ PUSH2 0x204 JUMPI JUMPDEST PUSH0 DUP1 REVERT JUMPDEST PUSH2 0x1B8 PUSH2 0x1B3 CALLDATASIZE PUSH1 0x4 PUSH2 0x10B5 JUMP JUMPDEST PUSH2 0x36D JUMP JUMPDEST STOP JUMPDEST PUSH2 0x1C3 PUSH1 0x2 SLOAD DUP2 JUMP JUMPDEST PUSH1 0x40 MLOAD SWAP1 DUP2 MSTORE PUSH1 0x20 ADD JUMPDEST PUSH1 0x40 MLOAD DUP1 SWAP2 SUB SWAP1 RETURN JUMPDEST PUSH2 0x1B8 PUSH2 0x1E4 CALLDATASIZE PUSH1 0x4 PUSH2 0x10E0 JUMP JUMPDEST PUSH2 0x3DD JUMP JUMPDEST PUSH2 0x1B8 PUSH2 0x1F7 CALLDATASIZE PUSH1 0x4 PUSH2 0x10B5 JUMP JUMPDEST PUSH2 0x694 JUMP JUMPDEST PUSH2 0x1B8 PUSH2 0x7B6 JUMP JUMPDEST PUSH2 0x1C3 PUSH1 0x8 SLOAD DUP2 JUMP JUMPDEST PUSH2 0x1B8 PUSH2 0x7D2 JUMP JUMPDEST PUSH2 0x1B8 PUSH2 0x223 CALLDATASIZE PUSH1 0x4 PUSH2 0x10B5 JUMP JUMPDEST PUSH2 0x7E2 JUMP JUMPDEST PUSH2 0x1C3 PUSH2 0x236 CALLDATASIZE PUSH1 0x4 PUSH2 0x1112 JUMP JUMPDEST PUSH1 0xB PUSH1 0x20 MSTORE PUSH0 SWAP1 DUP2 MSTORE PUSH1 0x40 SWAP1 KECCAK256 SLOAD DUP2 JUMP JUMPDEST PUSH2 0x1C3 PUSH1 0x9 SLOAD DUP2 JUMP JUMPDEST PUSH0 SLOAD PUSH1 0xFF AND PUSH1 0x40 MLOAD SWAP1 ISZERO ISZERO DUP2 MSTORE PUSH1 0x20 ADD PUSH2 0x1CD JUMP JUMPDEST PUSH2 0x1B8 PUSH2 0x92B JUMP JUMPDEST PUSH2 0x1C3 PUSH1 0x7 SLOAD DUP2 JUMP JUMPDEST PUSH2 0x1B8 PUSH2 0x93C JUMP JUMPDEST PUSH0 SLOAD PUSH2 0x100 SWAP1 DIV PUSH1 0x1 PUSH1 0x1 PUSH1 0xA0 SHL SUB AND JUMPDEST PUSH1 0x40 MLOAD PUSH1 0x1 PUSH1 0x1 PUSH1 0xA0 SHL SUB SWAP1 SWAP2 AND DUP2 MSTORE PUSH1 0x20 ADD PUSH2 0x1CD JUMP JUMPDEST PUSH2 0x1C3 PUSH1 0xC SLOAD DUP2 JUMP JUMPDEST PUSH2 0x1B8 PUSH2 0x2BE CALLDATASIZE PUSH1 0x4 PUSH2 0x10B5 JUMP JUMPDEST PUSH2 0x94C JUMP JUMPDEST PUSH1 0x7 SLOAD PUSH2 0x1C3 JUMP JUMPDEST PUSH2 0x1B8 PUSH2 0x2D9 CALLDATASIZE PUSH1 0x4 PUSH2 0x10B5 JUMP JUMPDEST PUSH2 0xAB4 JUMP JUMPDEST PUSH1 0x5 SLOAD PUSH2 0x28F SWAP1 PUSH1 0x1 PUSH1 0x1 PUSH1 0xA0 SHL SUB AND DUP2 JUMP JUMPDEST PUSH2 0x1C3 PUSH2 0x2FF CALLDATASIZE PUSH1 0x4 PUSH2 0x1112 JUMP JUMPDEST PUSH1 0xA PUSH1 0x20 MSTORE PUSH0 SWAP1 DUP2 MSTORE PUSH1 0x40 SWAP1 KECCAK256 SLOAD DUP2 JUMP JUMPDEST PUSH2 0x1B8 PUSH2 0xBA3 JUMP JUMPDEST PUSH2 0x1C3 PUSH1 0x3 SLOAD DUP2 JUMP JUMPDEST PUSH2 0x1B8 PUSH2 0x32F CALLDATASIZE PUSH1 0x4 PUSH2 0x1112 JUMP JUMPDEST PUSH2 0xC5D JUMP JUMPDEST PUSH2 0x1C3 PUSH2 0x342 CALLDATASIZE PUSH1 0x4 PUSH2 0x1112 JUMP JUMPDEST PUSH2 0xC9C JUMP JUMPDEST PUSH1 0x6 SLOAD PUSH2 0x28F SWAP1 PUSH1 0x1 PUSH1 0x1 PUSH1 0xA0 SHL SUB AND DUP2 JUMP JUMPDEST PUSH1 0x4 SLOAD PUSH2 0x28F SWAP1 PUSH1 0x1 PUSH1 0x1 PUSH1 0xA0 SHL SUB AND DUP2 JUMP JUMPDEST PUSH2 0x375 PUSH2 0xD0A JUMP JUMPDEST PUSH2 0x3E8 DUP2 GT ISZERO PUSH2 0x398 JUMPI PUSH1 0x40 MLOAD PUSH4 0xCD4E6167 PUSH1 0xE0 SHL DUP2 MSTORE PUSH1 0x4 ADD PUSH1 0x40 MLOAD DUP1 SWAP2 SUB SWAP1 REVERT JUMPDEST PUSH1 0x2 DUP1 SLOAD SWAP1 DUP3 SWAP1 SSTORE PUSH1 0x40 DUP1 MLOAD DUP3 DUP2 MSTORE PUSH1 0x20 DUP2 ADD DUP5 SWAP1 MSTORE PUSH32 0xD347E206F25A89B917FC9482F1A2D294D749BAA4DC9BDE7FB495EE11FE491643 SWAP2 ADD PUSH1 0x40 MLOAD DUP1 SWAP2 SUB SWAP1 LOG1 POP POP JUMP JUMPDEST PUSH1 0x5 SLOAD PUSH1 0x40 MLOAD PUSH4 0x27CF93B PUSH1 0xE3 SHL DUP2 MSTORE CALLER PUSH1 0x4 DUP3 ADD MSTORE PUSH1 0x1 PUSH1 0x1 PUSH1 0xA0 SHL SUB SWAP1 SWAP2 AND SWAP1 PUSH4 0x13E7C9D8 SWAP1 PUSH1 0x24 ADD PUSH1 0x20 PUSH1 0x40 MLOAD DUP1 DUP4 SUB DUP2 DUP7 GAS STATICCALL ISZERO DUP1 ISZERO PUSH2 0x423 JUMPI RETURNDATASIZE PUSH0 DUP1 RETURNDATACOPY RETURNDATASIZE PUSH0 REVERT JUMPDEST POP POP POP POP PUSH1 0x40 MLOAD RETURNDATASIZE PUSH1 0x1F NOT PUSH1 0x1F DUP3 ADD AND DUP3 ADD DUP1 PUSH1 0x40 MSTORE POP DUP2 ADD SWAP1 PUSH2 0x447 SWAP2 SWAP1 PUSH2 0x112D JUMP JUMPDEST ISZERO DUP1 ISZERO PUSH2 0x4D9 JUMPI POP PUSH1 0x5 PUSH0 SWAP1 SLOAD SWAP1 PUSH2 0x100 EXP SWAP1 DIV PUSH1 0x1 PUSH1 0x1 PUSH1 0xA0 SHL SUB AND PUSH1 0x1 PUSH1 0x1 PUSH1 0xA0 SHL SUB AND PUSH4 0x8DA5CB5B PUSH1 0x40 MLOAD DUP2 PUSH4 0xFFFFFFFF AND PUSH1 0xE0 SHL DUP2 MSTORE PUSH1 0x4 ADD PUSH1 0x20 PUSH1 0x40 MLOAD DUP1 DUP4 SUB DUP2 DUP7 GAS STATICCALL ISZERO DUP1 ISZERO PUSH2 0x49F JUMPI RETURNDATASIZE PUSH0 DUP1 RETURNDATACOPY RETURNDATASIZE PUSH0 REVERT JUMPDEST POP POP POP POP PUSH1 0x40 MLOAD RETURNDATASIZE PUSH1 0x1F NOT PUSH1 0x1F DUP3 ADD AND DUP3 ADD DUP1 PUSH1 0x40 MSTORE POP DUP2 ADD SWAP1 PUSH2 0x4C3 SWAP2 SWAP1 PUSH2 0x114C JUMP JUMPDEST PUSH1 0x1 PUSH1 0x1 PUSH1 0xA0 SHL SUB AND CALLER PUSH1 0x1 PUSH1 0x1 PUSH1 0xA0 SHL SUB AND EQ ISZERO JUMPDEST ISZERO PUSH2 0x4F7 JUMPI PUSH1 0x40 MLOAD PUSH4 0xEA8E4EB5 PUSH1 0xE0 SHL DUP2 MSTORE PUSH1 0x4 ADD PUSH1 0x40 MLOAD DUP1 SWAP2 SUB SWAP1 REVERT JUMPDEST DUP1 ISZERO PUSH2 0x627 JUMPI PUSH0 PUSH2 0x2710 PUSH1 0x3 SLOAD DUP4 PUSH2 0x50F SWAP2 SWAP1 PUSH2 0x117B JUMP JUMPDEST PUSH2 0x519 SWAP2 SWAP1 PUSH2 0x1198 JUMP JUMPDEST SWAP1 POP PUSH0 PUSH2 0x526 DUP3 DUP5 PUSH2 0x11B7 JUMP JUMPDEST SWAP1 POP DUP2 PUSH1 0x9 PUSH0 DUP3 DUP3 SLOAD PUSH2 0x539 SWAP2 SWAP1 PUSH2 0x11CA JUMP JUMPDEST SWAP1 SWAP2 SSTORE POP POP PUSH1 0x8 SLOAD ISZERO PUSH2 0x578 JUMPI PUSH1 0x8 SLOAD PUSH2 0x558 DUP4 PUSH5 0xE8D4A51000 PUSH2 0x117B JUMP JUMPDEST PUSH2 0x562 SWAP2 SWAP1 PUSH2 0x1198 JUMP JUMPDEST PUSH1 0xC PUSH0 DUP3 DUP3 SLOAD PUSH2 0x572 SWAP2 SWAP1 PUSH2 0x11CA JUMP JUMPDEST SWAP1 SWAP2 SSTORE POP POP JUMPDEST PUSH1 0x7 SLOAD DUP2 GT ISZERO PUSH2 0x59B JUMPI PUSH1 0x40 MLOAD PUSH4 0x1E9ACF17 PUSH1 0xE3 SHL DUP2 MSTORE PUSH1 0x4 ADD PUSH1 0x40 MLOAD DUP1 SWAP2 SUB SWAP1 REVERT JUMPDEST PUSH1 0x4 SLOAD PUSH2 0x5B2 SWAP1 PUSH1 0x1 PUSH1 0x1 PUSH1 0xA0 SHL SUB AND DUP7 DUP4 PUSH2 0xD3C JUMP JUMPDEST DUP2 DUP4 PUSH1 0x7 SLOAD PUSH2 0x5C1 SWAP2 SWAP1 PUSH2 0x11B7 JUMP JUMPDEST PUSH2 0x5CB SWAP2 SWAP1 PUSH2 0x11CA JUMP JUMPDEST PUSH1 0x7 SSTORE PUSH1 0x40 DUP1 MLOAD DUP6 DUP2 MSTORE PUSH1 0x20 DUP2 ADD DUP6 SWAP1 MSTORE SWAP1 DUP2 ADD DUP4 SWAP1 MSTORE TIMESTAMP PUSH1 0x60 DUP3 ADD MSTORE PUSH1 0x1 PUSH1 0x1 PUSH1 0xA0 SHL SUB DUP7 AND SWAP1 PUSH32 0xE1E22663CD8791964C0FE0C536A5B296F73B419C63E18FCBA51728F9270D90A2 SWAP1 PUSH1 0x80 ADD PUSH1 0x40 MLOAD DUP1 SWAP2 SUB SWAP1 LOG2 POP POP POP POP POP JUMP JUMPDEST DUP2 PUSH1 0x7 PUSH0 DUP3 DUP3 SLOAD PUSH2 0x638 SWAP2 SWAP1 PUSH2 0x11CA JUMP JUMPDEST SWAP1 SWAP2 SSTORE POP POP PUSH1 0x40 DUP1 MLOAD DUP4 DUP2 MSTORE PUSH0 PUSH1 0x20 DUP3 ADD MSTORE SWAP1 DUP2 ADD DUP4 SWAP1 MSTORE TIMESTAMP PUSH1 0x60 DUP3 ADD MSTORE PUSH1 0x1 PUSH1 0x1 PUSH1 0xA0 SHL SUB DUP5 AND SWAP1 PUSH32 0xE1E22663CD8791964C0FE0C536A5B296F73B419C63E18FCBA51728F9270D90A2 SWAP1 PUSH1 0x80 ADD PUSH1 0x40 MLOAD DUP1 SWAP2 SUB SWAP1 LOG2 JUMPDEST POP POP POP JUMP JUMPDEST PUSH2 0x69C PUSH2 0xD9B JUMP JUMPDEST PUSH2 0x6A4 PUSH2 0xDC5 JUMP JUMPDEST DUP1 PUSH0 SUB PUSH2 0x6C4 JUMPI PUSH1 0x40 MLOAD PUSH4 0x162908E3 PUSH1 0xE1 SHL DUP2 MSTORE PUSH1 0x4 ADD PUSH1 0x40 MLOAD DUP1 SWAP2 SUB SWAP1 REVERT JUMPDEST PUSH1 0x7 SLOAD DUP2 GT ISZERO PUSH2 0x6E7 JUMPI PUSH1 0x40 MLOAD PUSH4 0x1E9ACF17 PUSH1 0xE3 SHL DUP2 MSTORE PUSH1 0x4 ADD PUSH1 0x40 MLOAD DUP1 SWAP2 SUB SWAP1 REVERT JUMPDEST PUSH0 PUSH2 0x2710 PUSH1 0x2 SLOAD DUP4 PUSH2 0x6F9 SWAP2 SWAP1 PUSH2 0x117B JUMP JUMPDEST PUSH2 0x703 SWAP2 SWAP1 PUSH2 0x1198 JUMP JUMPDEST SWAP1 POP PUSH0 PUSH2 0x710 DUP3 DUP5 PUSH2 0x11B7 JUMP JUMPDEST SWAP1 POP DUP3 PUSH1 0x7 PUSH0 DUP3 DUP3 SLOAD PUSH2 0x723 SWAP2 SWAP1 PUSH2 0x11B7 JUMP JUMPDEST SWAP1 SWAP2 SSTORE POP POP DUP2 ISZERO PUSH2 0x74B JUMPI PUSH1 0x6 SLOAD PUSH1 0x4 SLOAD PUSH2 0x74B SWAP2 PUSH1 0x1 PUSH1 0x1 PUSH1 0xA0 SHL SUB SWAP2 DUP3 AND SWAP2 AND DUP5 PUSH2 0xD3C JUMP JUMPDEST PUSH1 0x4 SLOAD PUSH2 0x762 SWAP1 PUSH1 0x1 PUSH1 0x1 PUSH1 0xA0 SHL SUB AND CALLER DUP4 PUSH2 0xD3C JUMP JUMPDEST PUSH1 0x40 DUP1 MLOAD DUP5 DUP2 MSTORE PUSH1 0x20 DUP2 ADD DUP4 SWAP1 MSTORE TIMESTAMP SWAP2 DUP2 ADD SWAP2 SWAP1 SWAP2 MSTORE CALLER SWAP1 PUSH32 0x650FDF669E93AA6C8FF3DEFE2DA9C12B64F1548E5E1E54E803F4C1BEB6466C8E SWAP1 PUSH1 0x60 ADD JUMPDEST PUSH1 0x40 MLOAD DUP1 SWAP2 SUB SWAP1 LOG2 POP POP PUSH2 0x7B3 PUSH1 0x1 DUP1 SSTORE JUMP JUMPDEST POP JUMP JUMPDEST PUSH2 0x7BE PUSH2 0xD9B JUMP JUMPDEST PUSH2 0x7C7 CALLER PUSH2 0xDE8 JUMP JUMPDEST PUSH2 0x7D0 PUSH1 0x1 DUP1 SSTORE JUMP JUMPDEST JUMP JUMPDEST PUSH2 0x7DA PUSH2 0xD0A JUMP JUMPDEST PUSH2 0x7D0 PUSH2 0xF03 JUMP JUMPDEST PUSH2 0x7EA PUSH2 0xD9B JUMP JUMPDEST PUSH2 0x7F2 PUSH2 0xDC5 JUMP JUMPDEST DUP1 PUSH0 SUB PUSH2 0x812 JUMPI PUSH1 0x40 MLOAD PUSH4 0x162908E3 PUSH1 0xE1 SHL DUP2 MSTORE PUSH1 0x4 ADD PUSH1 0x40 MLOAD DUP1 SWAP2 SUB SWAP1 REVERT JUMPDEST PUSH0 PUSH1 0x8 SLOAD PUSH0 SUB PUSH2 0x823 JUMPI POP DUP1 PUSH2 0x840 JUMP JUMPDEST PUSH1 0x7 SLOAD PUSH1 0x8 SLOAD PUSH2 0x833 SWAP1 DUP5 PUSH2 0x117B JUMP JUMPDEST PUSH2 0x83D SWAP2 SWAP1 PUSH2 0x1198 JUMP JUMPDEST SWAP1 POP JUMPDEST PUSH5 0xE8D4A51000 PUSH1 0xC SLOAD DUP3 PUSH2 0x854 SWAP2 SWAP1 PUSH2 0x117B JUMP JUMPDEST PUSH2 0x85E SWAP2 SWAP1 PUSH2 0x1198 JUMP JUMPDEST CALLER PUSH0 DUP2 DUP2 MSTORE PUSH1 0xB PUSH1 0x20 MSTORE PUSH1 0x40 SWAP1 KECCAK256 SWAP2 SWAP1 SWAP2 SSTORE PUSH1 0x4 SLOAD PUSH2 0x88A SWAP2 PUSH1 0x1 PUSH1 0x1 PUSH1 0xA0 SHL SUB SWAP1 SWAP2 AND SWAP1 ADDRESS DUP6 PUSH2 0xF54 JUMP JUMPDEST DUP2 PUSH1 0x7 PUSH0 DUP3 DUP3 SLOAD PUSH2 0x89B SWAP2 SWAP1 PUSH2 0x11CA JUMP JUMPDEST SWAP3 POP POP DUP2 SWAP1 SSTORE POP DUP1 PUSH1 0x8 PUSH0 DUP3 DUP3 SLOAD PUSH2 0x8B3 SWAP2 SWAP1 PUSH2 0x11CA JUMP JUMPDEST SWAP1 SWAP2 SSTORE POP POP CALLER PUSH0 SWAP1 DUP2 MSTORE PUSH1 0xA PUSH1 0x20 MSTORE PUSH1 0x40 DUP2 KECCAK256 DUP1 SLOAD DUP4 SWAP3 SWAP1 PUSH2 0x8D6 SWAP1 DUP5 SWAP1 PUSH2 0x11CA JUMP JUMPDEST SWAP1 SWAP2 SSTORE POP POP PUSH1 0x40 DUP1 MLOAD DUP4 DUP2 MSTORE PUSH1 0x20 DUP2 ADD DUP4 SWAP1 MSTORE TIMESTAMP SWAP2 DUP2 ADD SWAP2 SWAP1 SWAP2 MSTORE CALLER SWAP1 PUSH32 0x64B83944E79C3CE8D4C297411DE637C3E102D064677AAC0C163976EBDCD6F50E SWAP1 PUSH1 0x60 ADD JUMPDEST PUSH1 0x40 MLOAD DUP1 SWAP2 SUB SWAP1 LOG2 POP PUSH2 0x7B3 PUSH1 0x1 DUP1 SSTORE JUMP JUMPDEST PUSH2 0x933 PUSH2 0xD0A JUMP JUMPDEST PUSH2 0x7D0 PUSH0 PUSH2 0xF93 JUMP JUMPDEST PUSH2 0x944 PUSH2 0xD0A JUMP JUMPDEST PUSH2 0x7D0 PUSH2 0xFEB JUMP JUMPDEST PUSH2 0x954 PUSH2 0xD9B JUMP JUMPDEST DUP1 PUSH0 SUB PUSH2 0x974 JUMPI PUSH1 0x40 MLOAD PUSH4 0x162908E3 PUSH1 0xE1 SHL DUP2 MSTORE PUSH1 0x4 ADD PUSH1 0x40 MLOAD DUP1 SWAP2 SUB SWAP1 REVERT JUMPDEST CALLER PUSH0 SWAP1 DUP2 MSTORE PUSH1 0xA PUSH1 0x20 MSTORE PUSH1 0x40 SWAP1 KECCAK256 SLOAD DUP2 GT ISZERO PUSH2 0x9A3 JUMPI PUSH1 0x40 MLOAD PUSH4 0x39996567 PUSH1 0xE0 SHL DUP2 MSTORE PUSH1 0x4 ADD PUSH1 0x40 MLOAD DUP1 SWAP2 SUB SWAP1 REVERT JUMPDEST PUSH2 0x9AC CALLER PUSH2 0xDE8 JUMP JUMPDEST PUSH0 PUSH1 0x8 SLOAD PUSH1 0x7 SLOAD DUP4 PUSH2 0x9BE SWAP2 SWAP1 PUSH2 0x117B JUMP JUMPDEST PUSH2 0x9C8 SWAP2 SWAP1 PUSH2 0x1198 JUMP JUMPDEST SWAP1 POP DUP1 PUSH1 0x7 PUSH0 DUP3 DUP3 SLOAD PUSH2 0x9DB SWAP2 SWAP1 PUSH2 0x11B7 JUMP JUMPDEST SWAP3 POP POP DUP2 SWAP1 SSTORE POP DUP2 PUSH1 0x8 PUSH0 DUP3 DUP3 SLOAD PUSH2 0x9F3 SWAP2 SWAP1 PUSH2 0x11B7 JUMP JUMPDEST SWAP1 SWAP2 SSTORE POP POP CALLER PUSH0 SWAP1 DUP2 MSTORE PUSH1 0xA PUSH1 0x20 MSTORE PUSH1 0x40 DUP2 KECCAK256 DUP1 SLOAD DUP5 SWAP3 SWAP1 PUSH2 0xA16 SWAP1 DUP5 SWAP1 PUSH2 0x11B7 JUMP JUMPDEST SWAP1 SWAP2 SSTORE POP POP PUSH1 0xC SLOAD CALLER PUSH0 SWAP1 DUP2 MSTORE PUSH1 0xA PUSH1 0x20 MSTORE PUSH1 0x40 SWAP1 KECCAK256 SLOAD PUSH5 0xE8D4A51000 SWAP2 PUSH2 0xA3D SWAP2 PUSH2 0x117B JUMP JUMPDEST PUSH2 0xA47 SWAP2 SWAP1 PUSH2 0x1198 JUMP JUMPDEST CALLER PUSH0 DUP2 DUP2 MSTORE PUSH1 0xB PUSH1 0x20 MSTORE PUSH1 0x40 SWAP1 KECCAK256 SWAP2 SWAP1 SWAP2 SSTORE PUSH1 0x4 SLOAD PUSH2 0xA72 SWAP2 PUSH1 0x1 PUSH1 0x1 PUSH1 0xA0 SHL SUB SWAP1 SWAP2 AND SWAP1 DUP4 PUSH2 0xD3C JUMP JUMPDEST PUSH1 0x40 DUP1 MLOAD DUP3 DUP2 MSTORE PUSH1 0x20 DUP2 ADD DUP5 SWAP1 MSTORE TIMESTAMP SWAP2 DUP2 ADD SWAP2 SWAP1 SWAP2 MSTORE CALLER SWAP1 PUSH32 0x1DC8BB69DF2B8E91FBDCBFCF93D951B3F0000F085A95FE3F7946D6161439245D SWAP1 PUSH1 0x60 ADD PUSH2 0x919 JUMP JUMPDEST PUSH2 0xABC PUSH2 0xD9B JUMP JUMPDEST PUSH2 0xAC4 PUSH2 0xDC5 JUMP JUMPDEST DUP1 PUSH0 SUB PUSH2 0xAE4 JUMPI PUSH1 0x40 MLOAD PUSH4 0x162908E3 PUSH1 0xE1 SHL DUP2 MSTORE PUSH1 0x4 ADD PUSH1 0x40 MLOAD DUP1 SWAP2 SUB SWAP1 REVERT JUMPDEST PUSH0 PUSH2 0x2710 PUSH1 0x2 SLOAD DUP4 PUSH2 0xAF6 SWAP2 SWAP1 PUSH2 0x117B JUMP JUMPDEST PUSH2 0xB00 SWAP2 SWAP1 PUSH2 0x1198 JUMP JUMPDEST SWAP1 POP PUSH0 PUSH2 0xB0D DUP3 DUP5 PUSH2 0x11B7 JUMP JUMPDEST PUSH1 0x4 SLOAD SWAP1 SWAP2 POP PUSH2 0xB28 SWAP1 PUSH1 0x1 PUSH1 0x1 PUSH1 0xA0 SHL SUB AND CALLER ADDRESS DUP7 PUSH2 0xF54 JUMP JUMPDEST DUP2 ISZERO PUSH2 0xB4B JUMPI PUSH1 0x6 SLOAD PUSH1 0x4 SLOAD PUSH2 0xB4B SWAP2 PUSH1 0x1 PUSH1 0x1 PUSH1 0xA0 SHL SUB SWAP2 DUP3 AND SWAP2 AND DUP5 PUSH2 0xD3C JUMP JUMPDEST DUP1 PUSH1 0x7 PUSH0 DUP3 DUP3 SLOAD PUSH2 0xB5C SWAP2 SWAP1 PUSH2 0x11CA JUMP JUMPDEST SWAP1 SWAP2 SSTORE POP POP PUSH1 0x40 DUP1 MLOAD DUP5 DUP2 MSTORE PUSH1 0x20 DUP2 ADD DUP4 SWAP1 MSTORE TIMESTAMP SWAP2 DUP2 ADD SWAP2 SWAP1 SWAP2 MSTORE CALLER SWAP1 PUSH32 0x36AF321EC8D3C75236829C5317AFFD40DDB308863A1236D2D277A4025CCCEE1E SWAP1 PUSH1 0x60 ADD PUSH2 0x7A0 JUMP JUMPDEST PUSH2 0xBAB PUSH2 0xD0A JUMP JUMPDEST PUSH2 0xBB3 PUSH2 0x1027 JUMP JUMPDEST PUSH1 0x4 DUP1 SLOAD PUSH1 0x40 MLOAD PUSH4 0x70A08231 PUSH1 0xE0 SHL DUP2 MSTORE ADDRESS SWAP3 DUP2 ADD SWAP3 SWAP1 SWAP3 MSTORE PUSH0 SWAP2 PUSH1 0x1 PUSH1 0x1 PUSH1 0xA0 SHL SUB SWAP1 SWAP2 AND SWAP1 PUSH4 0x70A08231 SWAP1 PUSH1 0x24 ADD PUSH1 0x20 PUSH1 0x40 MLOAD DUP1 DUP4 SUB DUP2 DUP7 GAS STATICCALL ISZERO DUP1 ISZERO PUSH2 0xBFE JUMPI RETURNDATASIZE PUSH0 DUP1 RETURNDATACOPY RETURNDATASIZE PUSH0 REVERT JUMPDEST POP POP POP POP PUSH1 0x40 MLOAD RETURNDATASIZE PUSH1 0x1F NOT PUSH1 0x1F DUP3 ADD AND DUP3 ADD DUP1 PUSH1 0x40 MSTORE POP DUP2 ADD SWAP1 PUSH2 0xC22 SWAP2 SWAP1 PUSH2 0x11DD JUMP JUMPDEST SWAP1 POP DUP1 ISZERO PUSH2 0xC47 JUMPI PUSH1 0x6 SLOAD PUSH1 0x4 SLOAD PUSH2 0xC47 SWAP2 PUSH1 0x1 PUSH1 0x1 PUSH1 0xA0 SHL SUB SWAP2 DUP3 AND SWAP2 AND DUP4 PUSH2 0xD3C JUMP JUMPDEST POP PUSH0 PUSH1 0x7 DUP2 SWAP1 SSTORE PUSH1 0x8 DUP2 SWAP1 SSTORE PUSH1 0x9 DUP2 SWAP1 SSTORE PUSH1 0xC SSTORE JUMP JUMPDEST PUSH2 0xC65 PUSH2 0xD0A JUMP JUMPDEST PUSH1 0x1 PUSH1 0x1 PUSH1 0xA0 SHL SUB DUP2 AND PUSH2 0xC93 JUMPI PUSH1 0x40 MLOAD PUSH4 0x1E4FBDF7 PUSH1 0xE0 SHL DUP2 MSTORE PUSH0 PUSH1 0x4 DUP3 ADD MSTORE PUSH1 0x24 ADD JUMPDEST PUSH1 0x40 MLOAD DUP1 SWAP2 SUB SWAP1 REVERT JUMPDEST PUSH2 0x7B3 DUP2 PUSH2 0xF93 JUMP JUMPDEST PUSH1 0x1 PUSH1 0x1 PUSH1 0xA0 SHL SUB DUP2 AND PUSH0 SWAP1 DUP2 MSTORE PUSH1 0xA PUSH1 0x20 MSTORE PUSH1 0x40 DUP2 KECCAK256 SLOAD DUP1 DUP3 SUB PUSH2 0xCC3 JUMPI POP PUSH0 SWAP3 SWAP2 POP POP JUMP JUMPDEST PUSH1 0x1 PUSH1 0x1 PUSH1 0xA0 SHL SUB DUP4 AND PUSH0 SWAP1 DUP2 MSTORE PUSH1 0xB PUSH1 0x20 MSTORE PUSH1 0x40 SWAP1 KECCAK256 SLOAD PUSH1 0xC SLOAD PUSH5 0xE8D4A51000 SWAP1 PUSH2 0xCEF SWAP1 DUP5 PUSH2 0x117B JUMP JUMPDEST PUSH2 0xCF9 SWAP2 SWAP1 PUSH2 0x1198 JUMP JUMPDEST PUSH2 0xD03 SWAP2 SWAP1 PUSH2 0x11B7 JUMP JUMPDEST SWAP4 SWAP3 POP POP POP JUMP JUMPDEST PUSH0 SLOAD PUSH1 0x1 PUSH1 0x1 PUSH1 0xA0 SHL SUB PUSH2 0x100 SWAP1 SWAP2 DIV AND CALLER EQ PUSH2 0x7D0 JUMPI PUSH1 0x40 MLOAD PUSH4 0x118CDAA7 PUSH1 0xE0 SHL DUP2 MSTORE CALLER PUSH1 0x4 DUP3 ADD MSTORE PUSH1 0x24 ADD PUSH2 0xC8A JUMP JUMPDEST PUSH1 0x40 MLOAD PUSH1 0x1 PUSH1 0x1 PUSH1 0xA0 SHL SUB DUP4 DUP2 AND PUSH1 0x24 DUP4 ADD MSTORE PUSH1 0x44 DUP3 ADD DUP4 SWAP1 MSTORE PUSH2 0x68F SWAP2 DUP6 SWAP2 DUP3 AND SWAP1 PUSH4 0xA9059CBB SWAP1 PUSH1 0x64 ADD JUMPDEST PUSH1 0x40 MLOAD PUSH1 0x20 DUP2 DUP4 SUB SUB DUP2 MSTORE SWAP1 PUSH1 0x40 MSTORE SWAP2 POP PUSH1 0xE0 SHL PUSH1 0x20 DUP3 ADD DUP1 MLOAD PUSH1 0x1 PUSH1 0x1 PUSH1 0xE0 SHL SUB DUP4 DUP2 DUP4 AND OR DUP4 MSTORE POP POP POP POP PUSH2 0x1049 JUMP JUMPDEST PUSH1 0x2 PUSH1 0x1 SLOAD SUB PUSH2 0xDBE JUMPI PUSH1 0x40 MLOAD PUSH4 0x3EE5AEB5 PUSH1 0xE0 SHL DUP2 MSTORE PUSH1 0x4 ADD PUSH1 0x40 MLOAD DUP1 SWAP2 SUB SWAP1 REVERT JUMPDEST PUSH1 0x2 PUSH1 0x1 SSTORE JUMP JUMPDEST PUSH0 SLOAD PUSH1 0xFF AND ISZERO PUSH2 0x7D0 JUMPI PUSH1 0x40 MLOAD PUSH4 0xD93C0665 PUSH1 0xE0 SHL DUP2 MSTORE PUSH1 0x4 ADD PUSH1 0x40 MLOAD DUP1 SWAP2 SUB SWAP1 REVERT JUMPDEST PUSH1 0x1 PUSH1 0x1 PUSH1 0xA0 SHL SUB DUP2 AND PUSH0 SWAP1 DUP2 MSTORE PUSH1 0xA PUSH1 0x20 MSTORE PUSH1 0x40 DUP2 KECCAK256 SLOAD SWAP1 DUP2 SWAP1 SUB PUSH2 0xE0C JUMPI POP POP JUMP JUMPDEST PUSH1 0x1 PUSH1 0x1 PUSH1 0xA0 SHL SUB DUP3 AND PUSH0 SWAP1 DUP2 MSTORE PUSH1 0xB PUSH1 0x20 MSTORE PUSH1 0x40 DUP2 KECCAK256 SLOAD PUSH1 0xC SLOAD PUSH5 0xE8D4A51000 SWAP1 PUSH2 0xE38 SWAP1 DUP6 PUSH2 0x117B JUMP JUMPDEST PUSH2 0xE42 SWAP2 SWAP1 PUSH2 0x1198 JUMP JUMPDEST PUSH2 0xE4C SWAP2 SWAP1 PUSH2 0x11B7 JUMP JUMPDEST SWAP1 POP DUP1 ISZERO PUSH2 0xEC5 JUMPI DUP1 PUSH1 0x9 PUSH0 DUP3 DUP3 SLOAD PUSH2 0xE65 SWAP2 SWAP1 PUSH2 0x11B7 JUMP JUMPDEST SWAP1 SWAP2 SSTORE POP POP PUSH1 0x4 SLOAD PUSH2 0xE81 SWAP1 PUSH1 0x1 PUSH1 0x1 PUSH1 0xA0 SHL SUB AND DUP5 DUP4 PUSH2 0xD3C JUMP JUMPDEST PUSH1 0x40 DUP1 MLOAD DUP3 DUP2 MSTORE TIMESTAMP PUSH1 0x20 DUP3 ADD MSTORE PUSH1 0x1 PUSH1 0x1 PUSH1 0xA0 SHL SUB DUP6 AND SWAP2 PUSH32 0xDACBDDE355BA930696A362EA6738FEB9F8BD52DFB3D81947558FD3217E23E325 SWAP2 ADD PUSH1 0x40 MLOAD DUP1 SWAP2 SUB SWAP1 LOG2 JUMPDEST PUSH5 0xE8D4A51000 PUSH1 0xC SLOAD DUP4 PUSH2 0xED9 SWAP2 SWAP1 PUSH2 0x117B JUMP JUMPDEST PUSH2 0xEE3 SWAP2 SWAP1 PUSH2 0x1198 JUMP JUMPDEST PUSH1 0x1 PUSH1 0x1 PUSH1 0xA0 SHL SUB SWAP1 SWAP4 AND PUSH0 SWAP1 DUP2 MSTORE PUSH1 0xB PUSH1 0x20 MSTORE PUSH1 0x40 SWAP1 KECCAK256 SWAP3 SWAP1 SWAP3 SSTORE POP POP JUMP JUMPDEST PUSH2 0xF0B PUSH2 0x1027 JUMP JUMPDEST PUSH0 DUP1 SLOAD PUSH1 0xFF NOT AND SWAP1 SSTORE PUSH32 0x5DB9EE0A495BF2E6FF9C91A7834C1BA4FDD244A5E8AA4E537BD38AEAE4B073AA CALLER JUMPDEST PUSH1 0x40 MLOAD PUSH1 0x1 PUSH1 0x1 PUSH1 0xA0 SHL SUB SWAP1 SWAP2 AND DUP2 MSTORE PUSH1 0x20 ADD PUSH1 0x40 MLOAD DUP1 SWAP2 SUB SWAP1 LOG1 JUMP JUMPDEST PUSH1 0x40 MLOAD PUSH1 0x1 PUSH1 0x1 PUSH1 0xA0 SHL SUB DUP5 DUP2 AND PUSH1 0x24 DUP4 ADD MSTORE DUP4 DUP2 AND PUSH1 0x44 DUP4 ADD MSTORE PUSH1 0x64 DUP3 ADD DUP4 SWAP1 MSTORE PUSH2 0xF8D SWAP2 DUP7 SWAP2 DUP3 AND SWAP1 PUSH4 0x23B872DD SWAP1 PUSH1 0x84 ADD PUSH2 0xD69 JUMP JUMPDEST POP POP POP POP JUMP JUMPDEST PUSH0 DUP1 SLOAD PUSH1 0x1 PUSH1 0x1 PUSH1 0xA0 SHL SUB DUP4 DUP2 AND PUSH2 0x100 DUP2 DUP2 MUL PUSH2 0x100 PUSH1 0x1 PUSH1 0xA8 SHL SUB NOT DUP6 AND OR DUP6 SSTORE PUSH1 0x40 MLOAD SWAP4 DIV SWAP2 SWAP1 SWAP2 AND SWAP3 SWAP1 SWAP2 DUP4 SWAP2 PUSH32 0x8BE0079C531659141344CD1FD0A4F28419497F9722A3DAAFE3B4186F6B6457E0 SWAP2 LOG3 POP POP JUMP JUMPDEST PUSH2 0xFF3 PUSH2 0xDC5 JUMP JUMPDEST PUSH0 DUP1 SLOAD PUSH1 0xFF NOT AND PUSH1 0x1 OR SWAP1 SSTORE PUSH32 0x62E78CEA01BEE320CD4E420270B5EA74000D11B0C9F74754EBDBFC544B05A258 PUSH2 0xF37 CALLER SWAP1 JUMP JUMPDEST PUSH0 SLOAD PUSH1 0xFF AND PUSH2 0x7D0 JUMPI PUSH1 0x40 MLOAD PUSH4 0x8DFC202B PUSH1 0xE0 SHL DUP2 MSTORE PUSH1 0x4 ADD PUSH1 0x40 MLOAD DUP1 SWAP2 SUB SWAP1 REVERT JUMPDEST PUSH0 DUP1 PUSH1 0x20 PUSH0 DUP5 MLOAD PUSH1 0x20 DUP7 ADD PUSH0 DUP9 GAS CALL DUP1 PUSH2 0x1068 JUMPI PUSH1 0x40 MLOAD RETURNDATASIZE PUSH0 DUP3 RETURNDATACOPY RETURNDATASIZE DUP2 REVERT JUMPDEST POP POP PUSH0 MLOAD RETURNDATASIZE SWAP2 POP DUP2 ISZERO PUSH2 0x107F JUMPI DUP1 PUSH1 0x1 EQ ISZERO PUSH2 0x108C JUMP JUMPDEST PUSH1 0x1 PUSH1 0x1 PUSH1 0xA0 SHL SUB DUP5 AND EXTCODESIZE ISZERO JUMPDEST ISZERO PUSH2 0xF8D JUMPI PUSH1 0x40 MLOAD PUSH4 0x5274AFE7 PUSH1 0xE0 SHL DUP2 MSTORE PUSH1 0x1 PUSH1 0x1 PUSH1 0xA0 SHL SUB DUP6 AND PUSH1 0x4 DUP3 ADD MSTORE PUSH1 0x24 ADD PUSH2 0xC8A JUMP JUMPDEST PUSH0 PUSH1 0x20 DUP3 DUP5 SUB SLT ISZERO PUSH2 0x10C5 JUMPI PUSH0 DUP1 REVERT JUMPDEST POP CALLDATALOAD SWAP2 SWAP1 POP JUMP JUMPDEST PUSH1 0x1 PUSH1 0x1 PUSH1 0xA0 SHL SUB DUP2 AND DUP2 EQ PUSH2 0x7B3 JUMPI PUSH0 DUP1 REVERT JUMPDEST PUSH0 DUP1 PUSH0 PUSH1 0x60 DUP5 DUP7 SUB SLT ISZERO PUSH2 0x10F2 JUMPI PUSH0 DUP1 REVERT JUMPDEST DUP4 CALLDATALOAD PUSH2 0x10FD DUP2 PUSH2 0x10CC JUMP JUMPDEST SWAP6 PUSH1 0x20 DUP6 ADD CALLDATALOAD SWAP6 POP PUSH1 0x40 SWAP1 SWAP5 ADD CALLDATALOAD SWAP4 SWAP3 POP POP POP JUMP JUMPDEST PUSH0 PUSH1 0x20 DUP3 DUP5 SUB SLT ISZERO PUSH2 0x1122 JUMPI PUSH0 DUP1 REVERT JUMPDEST DUP2 CALLDATALOAD PUSH2 0xD03 DUP2 PUSH2 0x10CC JUMP JUMPDEST PUSH0 PUSH1 0x20 DUP3 DUP5 SUB SLT ISZERO PUSH2 0x113D JUMPI PUSH0 DUP1 REVERT JUMPDEST DUP2 MLOAD DUP1 ISZERO ISZERO DUP2 EQ PUSH2 0xD03 JUMPI PUSH0 DUP1 REVERT JUMPDEST PUSH0 PUSH1 0x20 DUP3 DUP5 SUB SLT ISZERO PUSH2 0x115C JUMPI PUSH0 DUP1 REVERT JUMPDEST DUP2 MLOAD PUSH2 0xD03 DUP2 PUSH2 0x10CC JUMP JUMPDEST PUSH4 0x4E487B71 PUSH1 0xE0 SHL PUSH0 MSTORE PUSH1 0x11 PUSH1 0x4 MSTORE PUSH1 0x24 PUSH0 REVERT JUMPDEST DUP1 DUP3 MUL DUP2 ISZERO DUP3 DUP3 DIV DUP5 EQ OR PUSH2 0x1192 JUMPI PUSH2 0x1192 PUSH2 0x1167 JUMP JUMPDEST SWAP3 SWAP2 POP POP JUMP JUMPDEST PUSH0 DUP3 PUSH2 0x11B2 JUMPI PUSH4 0x4E487B71 PUSH1 0xE0 SHL PUSH0 MSTORE PUSH1 0x12 PUSH1 0x4 MSTORE PUSH1 0x24 PUSH0 REVERT JUMPDEST POP DIV SWAP1 JUMP JUMPDEST DUP2 DUP2 SUB DUP2 DUP2 GT ISZERO PUSH2 0x1192 JUMPI PUSH2 0x1192 PUSH2 0x1167 JUMP JUMPDEST DUP1 DUP3 ADD DUP1 DUP3 GT ISZERO PUSH2 0x1192 JUMPI PUSH2 0x1192 PUSH2 0x1167 JUMP JUMPDEST PUSH0 PUSH1 0x20 DUP3 DUP5 SUB SLT ISZERO PUSH2 0x11ED JUMPI PUSH0 DUP1 REVERT JUMPDEST POP MLOAD SWAP2 SWAP1 POP JUMP INVALID LOG2 PUSH5 0x6970667358 0x22 SLT KECCAK256 MCOPY SWAP2 SLOAD DUP12 SUB PUSH23 0x54F55386FEAFA1E91C790A8041508F831943B7D6A7F01E PUSH13 0x39B64736F6C63430008180033 "},"methodIdentifiers":{"accRewardPerShare()":"939d6237","accumulatedFees()":"587f5ed7","addLiquidity(uint256)":"51c6590a","claimRewards()":"372500ab","deposit(uint256)":"b6b55f25","emergencyWithdraw()":"db2e21bc","factory()":"c45a0155","gameFee()":"ea777eec","getPendingRewards(address)":"f6ed2017","getPoolBalance()":"abd70aa2","owner()":"8da5cb5b","pause()":"8456cb59","paused()":"5c975abb","platformFee()":"26232a2e","platformWallet()":"fa2af9da","processGameResult(address,uint256,uint256)":"2bba99c2","removeLiquidity(uint256)":"9c8f9f23","renounceOwnership()":"715018a6","rewardDebt(address)":"5873eb9b","setPlatformFee(uint256)":"12e8e2c3","shares(address)":"ce7c2ac2","token()":"fc0c546a","totalDeposits()":"7d882097","totalShares()":"3a98ef39","transferOwnership(address)":"f2fde38b","unpause()":"3f4ba83a","withdraw(uint256)":"2e1a7d4d"}}}}}