{
  "_format": "hh-sol-artifact-1",
  "contractName": "RooCasino",
  "sourceName": "contracts/RooCasino.sol",
  "abi": [
    {
      "inputs": [
        {
          "internalType": "address",
          "name": "_platformWallet",
          "type": "address"
        }
      ],
      "stateMutability": "nonpayable",
      "type": "constructor"
    },
    {
      "inputs": [],
      "name": "EnforcedPause",
      "type": "error"
    },
    {
      "inputs": [],
      "name": "ExpectedPause",
      "type": "error"
    },
    {
      "inputs": [
        {
          "internalType": "address",
          "name": "owner",
          "type": "address"
        }
      ],
      "name": "OwnableInvalidOwner",
      "type": "error"
    },
    {
      "inputs": [
        {
          "internalType": "address",
          "name": "account",
          "type": "address"
        }
      ],
      "name": "OwnableUnauthorizedAccount",
      "type": "error"
    },
    {
      "inputs": [],
      "name": "ReentrancyGuardReentrantCall",
      "type": "error"
    },
    {
      "inputs": [
        {
          "internalType": "address",
          "name": "token",
          "type": "address"
        }
      ],
      "name": "SafeERC20FailedOperation",
      "type": "error"
    },
    {
      "anonymous": false,
      "inputs": [
        {
          "indexed": true,
          "internalType": "address",
          "name": "token",
          "type": "address"
        },
        {
          "indexed": false,
          "internalType": "uint256",
          "name": "betAmount",
          "type": "uint256"
        },
        {
          "indexed": false,
          "internalType": "uint256",
          "name": "profitAmount",
          "type": "uint256"
        },
        {
          "indexed": false,
          "internalType": "bool",
          "name": "win",
          "type": "bool"
        }
      ],
      "name": "GameResult",
      "type": "event"
    },
    {
      "anonymous": false,
      "inputs": [
        {
          "indexed": true,
          "internalType": "address",
          "name": "previousOwner",
          "type": "address"
        },
        {
          "indexed": true,
          "internalType": "address",
          "name": "newOwner",
          "type": "address"
        }
      ],
      "name": "OwnershipTransferred",
      "type": "event"
    },
    {
      "anonymous": false,
      "inputs": [
        {
          "indexed": false,
          "internalType": "address",
          "name": "account",
          "type": "address"
        }
      ],
      "name": "Paused",
      "type": "event"
    },
    {
      "anonymous": false,
      "inputs": [
        {
          "indexed": true,
          "internalType": "address",
          "name": "newWallet",
          "type": "address"
        }
      ],
      "name": "PlatformWalletUpdated",
      "type": "event"
    },
    {
      "anonymous": false,
      "inputs": [
        {
          "indexed": true,
          "internalType": "address",
          "name": "token",
          "type": "address"
        },
        {
          "indexed": true,
          "internalType": "address",
          "name": "user",
          "type": "address"
        },
        {
          "indexed": false,
          "internalType": "uint256",
          "name": "amount",
          "type": "uint256"
        },
        {
          "indexed": false,
          "internalType": "uint256",
          "name": "shares",
          "type": "uint256"
        }
      ],
      "name": "PoolDeposit",
      "type": "event"
    },
    {
      "anonymous": false,
      "inputs": [
        {
          "indexed": true,
          "internalType": "address",
          "name": "token",
          "type": "address"
        },
        {
          "indexed": true,
          "internalType": "address",
          "name": "user",
          "type": "address"
        },
        {
          "indexed": false,
          "internalType": "uint256",
          "name": "amount",
          "type": "uint256"
        },
        {
          "indexed": false,
          "internalType": "uint256",
          "name": "shares",
          "type": "uint256"
        }
      ],
      "name": "PoolWithdrawal",
      "type": "event"
    },
    {
      "anonymous": false,
      "inputs": [
        {
          "indexed": true,
          "internalType": "address",
          "name": "token",
          "type": "address"
        },
        {
          "indexed": true,
          "internalType": "address",
          "name": "user",
          "type": "address"
        },
        {
          "indexed": false,
          "internalType": "uint256",
          "name": "amount",
          "type": "uint256"
        }
      ],
      "name": "RewardClaimed",
      "type": "event"
    },
    {
      "anonymous": false,
      "inputs": [
        {
          "indexed": true,
          "internalType": "address",
          "name": "token",
          "type": "address"
        },
        {
          "indexed": false,
          "internalType": "uint256",
          "name": "amount",
          "type": "uint256"
        }
      ],
      "name": "RewardDistributed",
      "type": "event"
    },
    {
      "anonymous": false,
      "inputs": [
        {
          "indexed": true,
          "internalType": "address",
          "name": "token",
          "type": "address"
        },
        {
          "indexed": false,
          "internalType": "bool",
          "name": "status",
          "type": "bool"
        }
      ],
      "name": "TokenWhitelisted",
      "type": "event"
    },
    {
      "anonymous": false,
      "inputs": [
        {
          "indexed": true,
          "internalType": "address",
          "name": "source",
          "type": "address"
        },
        {
          "indexed": false,
          "internalType": "bool",
          "name": "status",
          "type": "bool"
        }
      ],
      "name": "TrustedSourceUpdated",
      "type": "event"
    },
    {
      "anonymous": false,
      "inputs": [
        {
          "indexed": false,
          "internalType": "address",
          "name": "account",
          "type": "address"
        }
      ],
      "name": "Unpaused",
      "type": "event"
    },
    {
      "inputs": [
        {
          "internalType": "address",
          "name": "token",
          "type": "address"
        }
      ],
      "name": "claimRewards",
      "outputs": [],
      "stateMutability": "nonpayable",
      "type": "function"
    },
    {
      "inputs": [
        {
          "internalType": "address",
          "name": "token",
          "type": "address"
        },
        {
          "internalType": "uint256",
          "name": "amount",
          "type": "uint256"
        }
      ],
      "name": "deposit",
      "outputs": [],
      "stateMutability": "nonpayable",
      "type": "function"
    },
    {
      "inputs": [
        {
          "internalType": "address",
          "name": "token",
          "type": "address"
        }
      ],
      "name": "getMaxBet",
      "outputs": [
        {
          "internalType": "uint256",
          "name": "",
          "type": "uint256"
        }
      ],
      "stateMutability": "view",
      "type": "function"
    },
    {
      "inputs": [
        {
          "internalType": "address",
          "name": "token",
          "type": "address"
        }
      ],
      "name": "getPoolInfo",
      "outputs": [
        {
          "internalType": "uint256",
          "name": "totalDeposits",
          "type": "uint256"
        },
        {
          "internalType": "uint256",
          "name": "totalShares",
          "type": "uint256"
        }
      ],
      "stateMutability": "view",
      "type": "function"
    },
    {
      "inputs": [
        {
          "internalType": "address",
          "name": "token",
          "type": "address"
        }
      ],
      "name": "getPoolParticipants",
      "outputs": [
        {
          "internalType": "address[]",
          "name": "",
          "type": "address[]"
        }
      ],
      "stateMutability": "view",
      "type": "function"
    },
    {
      "inputs": [
        {
          "internalType": "address",
          "name": "token",
          "type": "address"
        },
        {
          "internalType": "address",
          "name": "user",
          "type": "address"
        }
      ],
      "name": "getUserRewards",
      "outputs": [
        {
          "internalType": "uint256",
          "name": "",
          "type": "uint256"
        }
      ],
      "stateMutability": "view",
      "type": "function"
    },
    {
      "inputs": [
        {
          "internalType": "address",
          "name": "token",
          "type": "address"
        },
        {
          "internalType": "address",
          "name": "user",
          "type": "address"
        }
      ],
      "name": "getUserShares",
      "outputs": [
        {
          "internalType": "uint256",
          "name": "",
          "type": "uint256"
        }
      ],
      "stateMutability": "view",
      "type": "function"
    },
    {
      "inputs": [
        {
          "internalType": "address",
          "name": "",
          "type": "address"
        }
      ],
      "name": "housePools",
      "outputs": [
        {
          "internalType": "uint256",
          "name": "totalDeposits",
          "type": "uint256"
        },
        {
          "internalType": "uint256",
          "name": "totalShares",
          "type": "uint256"
        }
      ],
      "stateMutability": "view",
      "type": "function"
    },
    {
      "inputs": [],
      "name": "owner",
      "outputs": [
        {
          "internalType": "address",
          "name": "",
          "type": "address"
        }
      ],
      "stateMutability": "view",
      "type": "function"
    },
    {
      "inputs": [],
      "name": "pause",
      "outputs": [],
      "stateMutability": "nonpayable",
      "type": "function"
    },
    {
      "inputs": [],
      "name": "paused",
      "outputs": [
        {
          "internalType": "bool",
          "name": "",
          "type": "bool"
        }
      ],
      "stateMutability": "view",
      "type": "function"
    },
    {
      "inputs": [],
      "name": "platformWallet",
      "outputs": [
        {
          "internalType": "address",
          "name": "",
          "type": "address"
        }
      ],
      "stateMutability": "view",
      "type": "function"
    },
    {
      "inputs": [
        {
          "internalType": "address",
          "name": "token",
          "type": "address"
        },
        {
          "internalType": "uint256",
          "name": "betAmount",
          "type": "uint256"
        },
        {
          "internalType": "uint256",
          "name": "profitAmount",
          "type": "uint256"
        },
        {
          "internalType": "bool",
          "name": "playerWon",
          "type": "bool"
        }
      ],
      "name": "processGameResult",
      "outputs": [],
      "stateMutability": "nonpayable",
      "type": "function"
    },
    {
      "inputs": [],
      "name": "renounceOwnership",
      "outputs": [],
      "stateMutability": "nonpayable",
      "type": "function"
    },
    {
      "inputs": [
        {
          "internalType": "address",
          "name": "newWallet",
          "type": "address"
        }
      ],
      "name": "setPlatformWallet",
      "outputs": [],
      "stateMutability": "nonpayable",
      "type": "function"
    },
    {
      "inputs": [
        {
          "internalType": "address",
          "name": "source",
          "type": "address"
        },
        {
          "internalType": "bool",
          "name": "status",
          "type": "bool"
        }
      ],
      "name": "setTrustedSource",
      "outputs": [],
      "stateMutability": "nonpayable",
      "type": "function"
    },
    {
      "inputs": [
        {
          "internalType": "address",
          "name": "newOwner",
          "type": "address"
        }
      ],
      "name": "transferOwnership",
      "outputs": [],
      "stateMutability": "nonpayable",
      "type": "function"
    },
    {
      "inputs": [
        {
          "internalType": "address",
          "name": "",
          "type": "address"
        }
      ],
      "name": "trustedSources",
      "outputs": [
        {
          "internalType": "bool",
          "name": "",
          "type": "bool"
        }
      ],
      "stateMutability": "view",
      "type": "function"
    },
    {
      "inputs": [],
      "name": "unpause",
      "outputs": [],
      "stateMutability": "nonpayable",
      "type": "function"
    },
    {
      "inputs": [
        {
          "internalType": "address",
          "name": "token",
          "type": "address"
        },
        {
          "internalType": "bool",
          "name": "status",
          "type": "bool"
        }
      ],
      "name": "whitelistToken",
      "outputs": [],
      "stateMutability": "nonpayable",
      "type": "function"
    },
    {
      "inputs": [
        {
          "internalType": "address",
          "name": "",
          "type": "address"
        }
      ],
      "name": "whitelistedTokens",
      "outputs": [
        {
          "internalType": "bool",
          "name": "",
          "type": "bool"
        }
      ],
      "stateMutability": "view",
      "type": "function"
    },
    {
      "inputs": [
        {
          "internalType": "address",
          "name": "token",
          "type": "address"
        },
        {
          "internalType": "uint256",
          "name": "shares",
          "type": "uint256"
        }
      ],
      "name": "withdraw",
      "outputs": [],
      "stateMutability": "nonpayable",
      "type": "function"
    }
  ],
  "bytecode": "0x608060405234801561000f575f80fd5b50604051620016da380380620016da83398101604081905261003091610140565b5f805460ff19169055338061005f57604051631e4fbdf760e01b81525f60048201526024015b60405180910390fd5b610068816100e8565b50600180556001600160a01b0381166100c35760405162461bcd60e51b815260206004820152601760248201527f496e76616c696420706c6174666f726d2077616c6c65740000000000000000006044820152606401610056565b600280546001600160a01b0319166001600160a01b039290921691909117905561016d565b5f80546001600160a01b03838116610100818102610100600160a81b0319851617855560405193049190911692909183917f8be0079c531659141344cd1fd0a4f28419497f9722a3daafe3b4186f6b6457e091a35050565b5f60208284031215610150575f80fd5b81516001600160a01b0381168114610166575f80fd5b9392505050565b61155f806200017b5f395ff3fe608060405234801561000f575f80fd5b506004361061013d575f3560e01c80638da5cb5b116100b4578063cd636b1f11610079578063cd636b1f146102e3578063daf9c2101461031f578063ef5cfb8c14610341578063f2fde38b14610354578063f3fef3a314610367578063fa2af9da1461037a575f80fd5b80638da5cb5b146102405780638edd367c14610269578063a362d7821461028f578063bb1de9dc146102b0578063c9cc3d96146102c3575f80fd5b8063522a54bd11610105578063522a54bd146101ed5780635c975abb14610200578063715018a61461020a5780638456cb59146102125780638831e9cf1461021a5780638ad059921461022d575f80fd5b806306bfa938146101415780630ffb1d8b1461018b5780633f4ba83a146101a057806347e7ef24146101a85780634c31957f146101bb575b5f80fd5b61017161014f36600461132a565b6001600160a01b03165f90815260056020526040902080546001909101549091565b604080519283526020830191909152015b60405180910390f35b61019e610199366004611352565b61038d565b005b61019e610447565b61019e6101b6366004611383565b610459565b6101dd6101c936600461132a565b60046020525f908152604090205460ff1681565b6040519015158152602001610182565b61019e6101fb3660046113ab565b61069c565b5f5460ff166101dd565b61019e610903565b61019e610914565b61019e61022836600461132a565b610924565b61019e61023b366004611352565b6109c4565b5f5461010090046001600160a01b03165b6040516001600160a01b039091168152602001610182565b61017161027736600461132a565b60056020525f90815260409020805460019091015482565b6102a261029d3660046113ee565b610a72565b604051908152602001610182565b6102a26102be36600461132a565b610aa2565b6102d66102d136600461132a565b610adc565b6040516101829190611416565b6102a26102f13660046113ee565b6001600160a01b039182165f9081526005602090815260408083209390941682526003909201909152205490565b6101dd61032d36600461132a565b60036020525f908152604090205460ff1681565b61019e61034f36600461132a565b610b4f565b61019e61036236600461132a565b610c3e565b61019e610375366004611383565b610c78565b600254610251906001600160a01b031681565b610395610e5a565b6001600160a01b0382166103e85760405162461bcd60e51b8152602060048201526015602482015274496e76616c696420746f6b656e206164647265737360581b60448201526064015b60405180910390fd5b6001600160a01b0382165f81815260036020908152604091829020805460ff191685151590811790915591519182527fef81a9943b96c8df4ef243401c9bf5159146166211356898b52d382086168d9291015b60405180910390a25050565b61044f610e5a565b610457610e8c565b565b610461610edd565b610469610f07565b6001600160a01b0382165f9081526003602052604090205460ff166104a05760405162461bcd60e51b81526004016103df90611462565b5f81116104ef5760405162461bcd60e51b815260206004820152601d60248201527f416d6f756e74206d7573742062652067726561746572207468616e203000000060448201526064016103df565b6001600160a01b0382165f908152600560205260408120906127106105166101f4856114a5565b61052091906114bc565b90505f61052d82856114db565b90505f83600101545f1461055b578354600185015461054c90846114a5565b61055691906114bc565b61055d565b815b90505f81116105ae5760405162461bcd60e51b815260206004820152601860248201527f4465706f73697420616d6f756e7420746f6f20736d616c6c000000000000000060448201526064016103df565b6105c36001600160a01b038716333088610f2a565b82156105e3576002546105e3906001600160a01b03888116911685610f97565b81845f015f8282546105f591906114ee565b9250508190555080846001015f82825461060f91906114ee565b9091555050335f908152600285016020526040812080548392906106349084906114ee565b9091555061064490508633610fcd565b604080518681526020810183905233916001600160a01b038916917f92ecde4d5be1846d86a7b7f1126046797d9f71c3f3c42f715d4ab102976e655591015b60405180910390a35050505061069860018055565b5050565b6106a4610f07565b335f9081526004602052604090205460ff166106f35760405162461bcd60e51b815260206004820152600e60248201526d139bdd08185d5d1a1bdc9a5e995960921b60448201526064016103df565b6001600160a01b0384165f9081526003602052604090205460ff1661072a5760405162461bcd60e51b81526004016103df90611462565b6001600160a01b0384165f908152600560205260409020805461077f5760405162461bcd60e51b815260206004820152600d60248201526c506f6f6c20697320656d70747960981b60448201526064016103df565b5f6127106064835f015461079391906114a5565b61079d91906114bc565b9050808511156107e55760405162461bcd60e51b81526020600482015260136024820152724265742065786365656473206d6178696d756d60681b60448201526064016103df565b5f6127106107f56101f4886114a5565b6107ff91906114bc565b9050831561088757825461081386886114ee565b11156108615760405162461bcd60e51b815260206004820152601760248201527f496e73756666696369656e7420706f6f6c2066756e647300000000000000000060448201526064016103df565b61086b85876114ee565b835f015f82825461087c91906114db565b909155506108ad9050565b5f61089282886114db565b905080845f015f8282546108a691906114ee565b9091555050505b60408051878152602081018790528515158183015290516001600160a01b038916917f8e82347896581433cca91c098c421523af006d1424c4bdf715615d8811007ad8919081900360600190a250505050505050565b61090b610e5a565b6104575f611058565b61091c610e5a565b6104576110b0565b61092c610e5a565b6001600160a01b03811661097b5760405162461bcd60e51b8152602060048201526016602482015275496e76616c69642077616c6c6574206164647265737360501b60448201526064016103df565b600280546001600160a01b0319166001600160a01b0383169081179091556040517f73238e3ae0a71b401b31ae67204506d074de41bd5c084082fba9b64b1c7fa28f905f90a250565b6109cc610e5a565b6001600160a01b038216610a1b5760405162461bcd60e51b8152602060048201526016602482015275496e76616c696420736f75726365206164647265737360501b60448201526064016103df565b6001600160a01b0382165f81815260046020908152604091829020805460ff191685151590811790915591519182527f5c9fec07e81e2c2e5ba42de269750a0b4722d606198061de398b5aab24aea7e5910161043b565b6001600160a01b038083165f90815260056020908152604080832093851683526002909301905220545b92915050565b6001600160a01b0381165f908152600560205260408120805461271090610acb906064906114a5565b610ad591906114bc565b9392505050565b6001600160a01b0381165f90815260076020908152604091829020805483518184028101840190945280845260609392830182828015610b4357602002820191905f5260205f20905b81546001600160a01b03168152600190910190602001808311610b25575b50505050509050919050565b610b57610edd565b610b5f610f07565b6001600160a01b0381165f908152600560209081526040808320338452600381019092529091205480610bca5760405162461bcd60e51b81526020600482015260136024820152724e6f207265776172647320746f20636c61696d60681b60448201526064016103df565b335f818152600384016020526040812055610bf0906001600160a01b0385169083610f97565b60405181815233906001600160a01b038516907f0aa4d283470c904c551d18bb894d37e17674920f3261a7f854be501e25f421b79060200160405180910390a35050610c3b60018055565b50565b610c46610e5a565b6001600160a01b038116610c6f57604051631e4fbdf760e01b81525f60048201526024016103df565b610c3b81611058565b610c80610edd565b610c88610f07565b6001600160a01b0382165f9081526003602052604090205460ff16610cbf5760405162461bcd60e51b81526004016103df90611462565b6001600160a01b0382165f9081526005602052604090208115801590610cf55750335f9081526002820160205260409020548211155b610d395760405162461bcd60e51b8152602060048201526015602482015274125b9d985b1a59081cda185c995cc8185b5bdd5b9d605a1b60448201526064016103df565b600181015481545f9190610d4d90856114a5565b610d5791906114bc565b90505f612710610d696101f4846114a5565b610d7391906114bc565b90505f610d8082846114db565b905082845f015f828254610d9491906114db565b9250508190555084846001015f828254610dae91906114db565b9091555050335f90815260028501602052604081208054879290610dd39084906114db565b90915550610de3905086336110ec565b8115610e0357600254610e03906001600160a01b03888116911684610f97565b610e176001600160a01b0387163383610f97565b604080518481526020810187905233916001600160a01b038916917fdccfb7b4ed97b796b8798d555f7365ad8e2998c97883f5b46bfeaad8c518e08a9101610683565b5f546001600160a01b036101009091041633146104575760405163118cdaa760e01b81523360048201526024016103df565b610e94611281565b5f805460ff191690557f5db9ee0a495bf2e6ff9c91a7834c1ba4fdd244a5e8aa4e537bd38aeae4b073aa335b6040516001600160a01b03909116815260200160405180910390a1565b600260015403610f0057604051633ee5aeb560e01b815260040160405180910390fd5b6002600155565b5f5460ff16156104575760405163d93c066560e01b815260040160405180910390fd5b6040516001600160a01b038481166024830152838116604483015260648201839052610f919186918216906323b872dd906084015b604051602081830303815290604052915060e01b6020820180516001600160e01b0383818316178352505050506112a3565b50505050565b6040516001600160a01b03838116602483015260448201839052610fc891859182169063a9059cbb90606401610f5f565b505050565b6001600160a01b038083165f9081526006602090815260408083209385168352929052205460ff16610698576001600160a01b038083165f818152600660209081526040808320948616808452948252808320805460ff1916600190811790915593835260078252822080549384018155825290200180546001600160a01b03191690911790555050565b5f80546001600160a01b03838116610100818102610100600160a81b0319851617855560405193049190911692909183917f8be0079c531659141344cd1fd0a4f28419497f9722a3daafe3b4186f6b6457e091a35050565b6110b8610f07565b5f805460ff191660011790557f62e78cea01bee320cd4e420270b5ea74000d11b0c9f74754ebdbfc544b05a258610ec03390565b6001600160a01b038083165f90815260056020908152604080832093851683526002840190915290205415801561114757506001600160a01b038084165f9081526006602090815260408083209386168352929052205460ff165b15610fc8576001600160a01b038084165f8181526006602090815260408083209487168352938152838220805460ff191690559181526007909152908120905b815481101561127a57836001600160a01b03168282815481106111ac576111ac611501565b5f918252602090912001546001600160a01b03160361127257815482906111d5906001906114db565b815481106111e5576111e5611501565b905f5260205f20015f9054906101000a90046001600160a01b031682828154811061121257611212611501565b905f5260205f20015f6101000a8154816001600160a01b0302191690836001600160a01b031602179055508180548061124d5761124d611515565b5f8281526020902081015f1990810180546001600160a01b031916905501905561127a565b600101611187565b5050505050565b5f5460ff1661045757604051638dfc202b60e01b815260040160405180910390fd5b5f8060205f8451602086015f885af1806112c2576040513d5f823e3d81fd5b50505f513d915081156112d95780600114156112e6565b6001600160a01b0384163b155b15610f9157604051635274afe760e01b81526001600160a01b03851660048201526024016103df565b80356001600160a01b0381168114611325575f80fd5b919050565b5f6020828403121561133a575f80fd5b610ad58261130f565b80358015158114611325575f80fd5b5f8060408385031215611363575f80fd5b61136c8361130f565b915061137a60208401611343565b90509250929050565b5f8060408385031215611394575f80fd5b61139d8361130f565b946020939093013593505050565b5f805f80608085870312156113be575f80fd5b6113c78561130f565b935060208501359250604085013591506113e360608601611343565b905092959194509250565b5f80604083850312156113ff575f80fd5b6114088361130f565b915061137a6020840161130f565b602080825282518282018190525f9190848201906040850190845b818110156114565783516001600160a01b031683529284019291840191600101611431565b50909695505050505050565b602080825260159082015274151bdad95b881b9bdd081dda1a5d195b1a5cdd1959605a1b604082015260600190565b634e487b7160e01b5f52601160045260245ffd5b8082028115828204841417610a9c57610a9c611491565b5f826114d657634e487b7160e01b5f52601260045260245ffd5b500490565b81810381811115610a9c57610a9c611491565b80820180821115610a9c57610a9c611491565b634e487b7160e01b5f52603260045260245ffd5b634e487b7160e01b5f52603160045260245ffdfea2646970667358221220150f33d8ebf57a18b1c6901ea17376129b4bef22d5a1676da6bc39d395ed7afd64736f6c63430008180033",
  "linkReferences": {},
  "deployedLinkReferences": {}
}