{
  "_format": "hh-sol-artifact-1",
  "contractName": "TokenPool",
  "sourceName": "contracts/TokenPool.sol",
  "abi": [
    {
      "inputs": [
        {
          "internalType": "address",
          "name": "_token",
          "type": "address"
        },
        {
          "internalType": "address",
          "name": "_factory",
          "type": "address"
        },
        {
          "internalType": "address",
          "name": "_platformWallet",
          "type": "address"
        }
      ],
      "stateMutability": "nonpayable",
      "type": "constructor"
    },
    {
      "inputs": [],
      "name": "EnforcedPause",
      "type": "error"
    },
    {
      "inputs": [],
      "name": "ExpectedPause",
      "type": "error"
    },
    {
      "inputs": [],
      "name": "FeeTooHigh",
      "type": "error"
    },
    {
      "inputs": [],
      "name": "InsufficientBalance",
      "type": "error"
    },
    {
      "inputs": [],
      "name": "InsufficientShares",
      "type": "error"
    },
    {
      "inputs": [],
      "name": "InvalidAmount",
      "type": "error"
    },
    {
      "inputs": [],
      "name": "NotAuthorized",
      "type": "error"
    },
    {
      "inputs": [
        {
          "internalType": "address",
          "name": "owner",
          "type": "address"
        }
      ],
      "name": "OwnableInvalidOwner",
      "type": "error"
    },
    {
      "inputs": [
        {
          "internalType": "address",
          "name": "account",
          "type": "address"
        }
      ],
      "name": "OwnableUnauthorizedAccount",
      "type": "error"
    },
    {
      "inputs": [],
      "name": "ReentrancyGuardReentrantCall",
      "type": "error"
    },
    {
      "inputs": [
        {
          "internalType": "address",
          "name": "token",
          "type": "address"
        }
      ],
      "name": "SafeERC20FailedOperation",
      "type": "error"
    },
    {
      "anonymous": false,
      "inputs": [
        {
          "indexed": true,
          "internalType": "address",
          "name": "user",
          "type": "address"
        },
        {
          "indexed": false,
          "internalType": "uint256",
          "name": "amount",
          "type": "uint256"
        },
        {
          "indexed": false,
          "internalType": "uint256",
          "name": "netAmount",
          "type": "uint256"
        },
        {
          "indexed": false,
          "internalType": "uint256",
          "name": "timestamp",
          "type": "uint256"
        }
      ],
      "name": "Deposit",
      "type": "event"
    },
    {
      "anonymous": false,
      "inputs": [
        {
          "indexed": true,
          "internalType": "address",
          "name": "user",
          "type": "address"
        },
        {
          "indexed": false,
          "internalType": "uint256",
          "name": "betAmount",
          "type": "uint256"
        },
        {
          "indexed": false,
          "internalType": "uint256",
          "name": "winAmount",
          "type": "uint256"
        },
        {
          "indexed": false,
          "internalType": "uint256",
          "name": "houseFee",
          "type": "uint256"
        },
        {
          "indexed": false,
          "internalType": "uint256",
          "name": "timestamp",
          "type": "uint256"
        }
      ],
      "name": "GameResult",
      "type": "event"
    },
    {
      "anonymous": false,
      "inputs": [
        {
          "indexed": true,
          "internalType": "address",
          "name": "provider",
          "type": "address"
        },
        {
          "indexed": false,
          "internalType": "uint256",
          "name": "amount",
          "type": "uint256"
        },
        {
          "indexed": false,
          "internalType": "uint256",
          "name": "shares",
          "type": "uint256"
        },
        {
          "indexed": false,
          "internalType": "uint256",
          "name": "timestamp",
          "type": "uint256"
        }
      ],
      "name": "LiquidityAdded",
      "type": "event"
    },
    {
      "anonymous": false,
      "inputs": [
        {
          "indexed": true,
          "internalType": "address",
          "name": "provider",
          "type": "address"
        },
        {
          "indexed": false,
          "internalType": "uint256",
          "name": "amount",
          "type": "uint256"
        },
        {
          "indexed": false,
          "internalType": "uint256",
          "name": "shares",
          "type": "uint256"
        },
        {
          "indexed": false,
          "internalType": "uint256",
          "name": "timestamp",
          "type": "uint256"
        }
      ],
      "name": "LiquidityRemoved",
      "type": "event"
    },
    {
      "anonymous": false,
      "inputs": [
        {
          "indexed": true,
          "internalType": "address",
          "name": "previousOwner",
          "type": "address"
        },
        {
          "indexed": true,
          "internalType": "address",
          "name": "newOwner",
          "type": "address"
        }
      ],
      "name": "OwnershipTransferred",
      "type": "event"
    },
    {
      "anonymous": false,
      "inputs": [
        {
          "indexed": false,
          "internalType": "address",
          "name": "account",
          "type": "address"
        }
      ],
      "name": "Paused",
      "type": "event"
    },
    {
      "anonymous": false,
      "inputs": [
        {
          "indexed": false,
          "internalType": "uint256",
          "name": "oldFee",
          "type": "uint256"
        },
        {
          "indexed": false,
          "internalType": "uint256",
          "name": "newFee",
          "type": "uint256"
        }
      ],
      "name": "PlatformFeeUpdated",
      "type": "event"
    },
    {
      "anonymous": false,
      "inputs": [
        {
          "indexed": true,
          "internalType": "address",
          "name": "provider",
          "type": "address"
        },
        {
          "indexed": false,
          "internalType": "uint256",
          "name": "amount",
          "type": "uint256"
        },
        {
          "indexed": false,
          "internalType": "uint256",
          "name": "timestamp",
          "type": "uint256"
        }
      ],
      "name": "RewardsClaimed",
      "type": "event"
    },
    {
      "anonymous": false,
      "inputs": [
        {
          "indexed": false,
          "internalType": "address",
          "name": "account",
          "type": "address"
        }
      ],
      "name": "Unpaused",
      "type": "event"
    },
    {
      "anonymous": false,
      "inputs": [
        {
          "indexed": true,
          "internalType": "address",
          "name": "user",
          "type": "address"
        },
        {
          "indexed": false,
          "internalType": "uint256",
          "name": "amount",
          "type": "uint256"
        },
        {
          "indexed": false,
          "internalType": "uint256",
          "name": "netAmount",
          "type": "uint256"
        },
        {
          "indexed": false,
          "internalType": "uint256",
          "name": "timestamp",
          "type": "uint256"
        }
      ],
      "name": "Withdrawal",
      "type": "event"
    },
    {
      "inputs": [],
      "name": "accRewardPerShare",
      "outputs": [
        {
          "internalType": "uint256",
          "name": "",
          "type": "uint256"
        }
      ],
      "stateMutability": "view",
      "type": "function"
    },
    {
      "inputs": [],
      "name": "accumulatedFees",
      "outputs": [
        {
          "internalType": "uint256",
          "name": "",
          "type": "uint256"
        }
      ],
      "stateMutability": "view",
      "type": "function"
    },
    {
      "inputs": [
        {
          "internalType": "uint256",
          "name": "amount",
          "type": "uint256"
        }
      ],
      "name": "addLiquidity",
      "outputs": [],
      "stateMutability": "nonpayable",
      "type": "function"
    },
    {
      "inputs": [],
      "name": "claimRewards",
      "outputs": [],
      "stateMutability": "nonpayable",
      "type": "function"
    },
    {
      "inputs": [
        {
          "internalType": "uint256",
          "name": "amount",
          "type": "uint256"
        }
      ],
      "name": "deposit",
      "outputs": [],
      "stateMutability": "nonpayable",
      "type": "function"
    },
    {
      "inputs": [],
      "name": "emergencyWithdraw",
      "outputs": [],
      "stateMutability": "nonpayable",
      "type": "function"
    },
    {
      "inputs": [],
      "name": "factory",
      "outputs": [
        {
          "internalType": "contract ICasinoFactory",
          "name": "",
          "type": "address"
        }
      ],
      "stateMutability": "view",
      "type": "function"
    },
    {
      "inputs": [],
      "name": "gameFee",
      "outputs": [
        {
          "internalType": "uint256",
          "name": "",
          "type": "uint256"
        }
      ],
      "stateMutability": "view",
      "type": "function"
    },
    {
      "inputs": [
        {
          "internalType": "address",
          "name": "provider",
          "type": "address"
        }
      ],
      "name": "getPendingRewards",
      "outputs": [
        {
          "internalType": "uint256",
          "name": "",
          "type": "uint256"
        }
      ],
      "stateMutability": "view",
      "type": "function"
    },
    {
      "inputs": [],
      "name": "getPoolBalance",
      "outputs": [
        {
          "internalType": "uint256",
          "name": "",
          "type": "uint256"
        }
      ],
      "stateMutability": "view",
      "type": "function"
    },
    {
      "inputs": [],
      "name": "owner",
      "outputs": [
        {
          "internalType": "address",
          "name": "",
          "type": "address"
        }
      ],
      "stateMutability": "view",
      "type": "function"
    },
    {
      "inputs": [],
      "name": "pause",
      "outputs": [],
      "stateMutability": "nonpayable",
      "type": "function"
    },
    {
      "inputs": [],
      "name": "paused",
      "outputs": [
        {
          "internalType": "bool",
          "name": "",
          "type": "bool"
        }
      ],
      "stateMutability": "view",
      "type": "function"
    },
    {
      "inputs": [],
      "name": "platformFee",
      "outputs": [
        {
          "internalType": "uint256",
          "name": "",
          "type": "uint256"
        }
      ],
      "stateMutability": "view",
      "type": "function"
    },
    {
      "inputs": [],
      "name": "platformWallet",
      "outputs": [
        {
          "internalType": "address",
          "name": "",
          "type": "address"
        }
      ],
      "stateMutability": "view",
      "type": "function"
    },
    {
      "inputs": [
        {
          "internalType": "address",
          "name": "user",
          "type": "address"
        },
        {
          "internalType": "uint256",
          "name": "betAmount",
          "type": "uint256"
        },
        {
          "internalType": "uint256",
          "name": "winAmount",
          "type": "uint256"
        }
      ],
      "name": "processGameResult",
      "outputs": [],
      "stateMutability": "nonpayable",
      "type": "function"
    },
    {
      "inputs": [
        {
          "internalType": "uint256",
          "name": "shareAmount",
          "type": "uint256"
        }
      ],
      "name": "removeLiquidity",
      "outputs": [],
      "stateMutability": "nonpayable",
      "type": "function"
    },
    {
      "inputs": [],
      "name": "renounceOwnership",
      "outputs": [],
      "stateMutability": "nonpayable",
      "type": "function"
    },
    {
      "inputs": [
        {
          "internalType": "address",
          "name": "",
          "type": "address"
        }
      ],
      "name": "rewardDebt",
      "outputs": [
        {
          "internalType": "uint256",
          "name": "",
          "type": "uint256"
        }
      ],
      "stateMutability": "view",
      "type": "function"
    },
    {
      "inputs": [
        {
          "internalType": "uint256",
          "name": "newFee",
          "type": "uint256"
        }
      ],
      "name": "setPlatformFee",
      "outputs": [],
      "stateMutability": "nonpayable",
      "type": "function"
    },
    {
      "inputs": [
        {
          "internalType": "address",
          "name": "",
          "type": "address"
        }
      ],
      "name": "shares",
      "outputs": [
        {
          "internalType": "uint256",
          "name": "",
          "type": "uint256"
        }
      ],
      "stateMutability": "view",
      "type": "function"
    },
    {
      "inputs": [],
      "name": "token",
      "outputs": [
        {
          "internalType": "contract IERC20",
          "name": "",
          "type": "address"
        }
      ],
      "stateMutability": "view",
      "type": "function"
    },
    {
      "inputs": [],
      "name": "totalDeposits",
      "outputs": [
        {
          "internalType": "uint256",
          "name": "",
          "type": "uint256"
        }
      ],
      "stateMutability": "view",
      "type": "function"
    },
    {
      "inputs": [],
      "name": "totalShares",
      "outputs": [
        {
          "internalType": "uint256",
          "name": "",
          "type": "uint256"
        }
      ],
      "stateMutability": "view",
      "type": "function"
    },
    {
      "inputs": [
        {
          "internalType": "address",
          "name": "newOwner",
          "type": "address"
        }
      ],
      "name": "transferOwnership",
      "outputs": [],
      "stateMutability": "nonpayable",
      "type": "function"
    },
    {
      "inputs": [],
      "name": "unpause",
      "outputs": [],
      "stateMutability": "nonpayable",
      "type": "function"
    },
    {
      "inputs": [
        {
          "internalType": "uint256",
          "name": "amount",
          "type": "uint256"
        }
      ],
      "name": "withdraw",
      "outputs": [],
      "stateMutability": "nonpayable",
      "type": "function"
    }
  ],
  "bytecode": "0x608060405234801562000010575f80fd5b50604051620014bc380380620014bc83398101604081905262000033916200023d565b5f805460ff19169055816001600160a01b0381166200006c57604051631e4fbdf760e01b81525f60048201526024015b60405180910390fd5b620000778162000150565b50600180556001600160a01b038316620000a45760405163162908e360e11b815260040160405180910390fd5b6001600160a01b038216620000cc5760405163162908e360e11b815260040160405180910390fd5b6001600160a01b038116620000f45760405163162908e360e11b815260040160405180910390fd5b600480546001600160a01b038086166001600160a01b0319928316179092556005805485841690831617905560068054928416929091169190911790556101f460028190556003556200014782620001a8565b50505062000284565b5f80546001600160a01b03838116610100818102610100600160a81b0319851617855560405193049190911692909183917f8be0079c531659141344cd1fd0a4f28419497f9722a3daafe3b4186f6b6457e091a35050565b620001b2620001eb565b6001600160a01b038116620001dd57604051631e4fbdf760e01b81525f600482015260240162000063565b620001e88162000150565b50565b5f546001600160a01b036101009091041633146200021f5760405163118cdaa760e01b815233600482015260240162000063565b565b80516001600160a01b038116811462000238575f80fd5b919050565b5f805f6060848603121562000250575f80fd5b6200025b8462000221565b92506200026b6020850162000221565b91506200027b6040850162000221565b90509250925092565b61122a80620002925f395ff3fe608060405234801561000f575f80fd5b50600436106101a1575f3560e01c80638456cb59116100f3578063ce7c2ac211610093578063f2fde38b1161006e578063f2fde38b14610321578063f6ed201714610334578063fa2af9da14610347578063fc0c546a1461035a575f80fd5b8063ce7c2ac2146102f1578063db2e21bc14610310578063ea777eec14610318575f80fd5b80639c8f9f23116100ce5780639c8f9f23146102b0578063abd70aa2146102c3578063b6b55f25146102cb578063c45a0155146102de575f80fd5b80638456cb59146102765780638da5cb5b1461027e578063939d6237146102a7575f80fd5b80633f4ba83a1161015e578063587f5ed711610139578063587f5ed7146102475780635c975abb14610250578063715018a6146102655780637d8820971461026d575f80fd5b80633f4ba83a1461020d57806351c6590a146102155780635873eb9b14610228575f80fd5b806312e8e2c3146101a557806326232a2e146101ba5780632bba99c2146101d65780632e1a7d4d146101e9578063372500ab146101fc5780633a98ef3914610204575b5f80fd5b6101b86101b33660046110b5565b61036d565b005b6101c360025481565b6040519081526020015b60405180910390f35b6101b86101e43660046110e0565b6103dd565b6101b86101f73660046110b5565b610694565b6101b86107b6565b6101c360085481565b6101b86107d2565b6101b86102233660046110b5565b6107e2565b6101c3610236366004611112565b600b6020525f908152604090205481565b6101c360095481565b5f5460ff1660405190151581526020016101cd565b6101b861092b565b6101c360075481565b6101b861093c565b5f5461010090046001600160a01b03165b6040516001600160a01b0390911681526020016101cd565b6101c3600c5481565b6101b86102be3660046110b5565b61094c565b6007546101c3565b6101b86102d93660046110b5565b610ab4565b60055461028f906001600160a01b031681565b6101c36102ff366004611112565b600a6020525f908152604090205481565b6101b8610ba3565b6101c360035481565b6101b861032f366004611112565b610c5d565b6101c3610342366004611112565b610c9c565b60065461028f906001600160a01b031681565b60045461028f906001600160a01b031681565b610375610d0a565b6103e88111156103985760405163cd4e616760e01b815260040160405180910390fd5b600280549082905560408051828152602081018490527fd347e206f25a89b917fc9482f1a2d294d749baa4dc9bde7fb495ee11fe491643910160405180910390a15050565b60055460405163027cf93b60e31b81523360048201526001600160a01b03909116906313e7c9d890602401602060405180830381865afa158015610423573d5f803e3d5ffd5b505050506040513d601f19601f82011682018060405250810190610447919061112d565b1580156104d9575060055f9054906101000a90046001600160a01b03166001600160a01b0316638da5cb5b6040518163ffffffff1660e01b8152600401602060405180830381865afa15801561049f573d5f803e3d5ffd5b505050506040513d601f19601f820116820180604052508101906104c3919061114c565b6001600160a01b0316336001600160a01b031614155b156104f75760405163ea8e4eb560e01b815260040160405180910390fd5b8015610627575f6127106003548361050f919061117b565b6105199190611198565b90505f61052682846111b7565b90508160095f82825461053991906111ca565b909155505060085415610578576008546105588364e8d4a5100061117b565b6105629190611198565b600c5f82825461057291906111ca565b90915550505b60075481111561059b57604051631e9acf1760e31b815260040160405180910390fd5b6004546105b2906001600160a01b03168683610d3c565b81836007546105c191906111b7565b6105cb91906111ca565b60075560408051858152602081018590529081018390524260608201526001600160a01b038616907fe1e22663cd8791964c0fe0c536a5b296f73b419c63e18fcba51728f9270d90a29060800160405180910390a25050505050565b8160075f82825461063891906111ca565b9091555050604080518381525f60208201529081018390524260608201526001600160a01b038416907fe1e22663cd8791964c0fe0c536a5b296f73b419c63e18fcba51728f9270d90a29060800160405180910390a25b505050565b61069c610d9b565b6106a4610dc5565b805f036106c45760405163162908e360e11b815260040160405180910390fd5b6007548111156106e757604051631e9acf1760e31b815260040160405180910390fd5b5f612710600254836106f9919061117b565b6107039190611198565b90505f61071082846111b7565b90508260075f82825461072391906111b7565b9091555050811561074b5760065460045461074b916001600160a01b03918216911684610d3c565b600454610762906001600160a01b03163383610d3c565b6040805184815260208101839052429181019190915233907f650fdf669e93aa6c8ff3defe2da9c12b64f1548e5e1e54e803f4c1beb6466c8e906060015b60405180910390a250506107b360018055565b50565b6107be610d9b565b6107c733610de8565b6107d060018055565b565b6107da610d0a565b6107d0610f03565b6107ea610d9b565b6107f2610dc5565b805f036108125760405163162908e360e11b815260040160405180910390fd5b5f6008545f03610823575080610840565b600754600854610833908461117b565b61083d9190611198565b90505b64e8d4a51000600c5482610854919061117b565b61085e9190611198565b335f818152600b602052604090209190915560045461088a916001600160a01b03909116903085610f54565b8160075f82825461089b91906111ca565b925050819055508060085f8282546108b391906111ca565b9091555050335f908152600a6020526040812080548392906108d69084906111ca565b90915550506040805183815260208101839052429181019190915233907f64b83944e79c3ce8d4c297411de637c3e102d064677aac0c163976ebdcd6f50e906060015b60405180910390a2506107b360018055565b610933610d0a565b6107d05f610f93565b610944610d0a565b6107d0610feb565b610954610d9b565b805f036109745760405163162908e360e11b815260040160405180910390fd5b335f908152600a60205260409020548111156109a357604051633999656760e01b815260040160405180910390fd5b6109ac33610de8565b5f600854600754836109be919061117b565b6109c89190611198565b90508060075f8282546109db91906111b7565b925050819055508160085f8282546109f391906111b7565b9091555050335f908152600a602052604081208054849290610a169084906111b7565b9091555050600c54335f908152600a602052604090205464e8d4a5100091610a3d9161117b565b610a479190611198565b335f818152600b6020526040902091909155600454610a72916001600160a01b039091169083610d3c565b6040805182815260208101849052429181019190915233907f1dc8bb69df2b8e91fbdcbfcf93d951b3f0000f085a95fe3f7946d6161439245d90606001610919565b610abc610d9b565b610ac4610dc5565b805f03610ae45760405163162908e360e11b815260040160405180910390fd5b5f61271060025483610af6919061117b565b610b009190611198565b90505f610b0d82846111b7565b600454909150610b28906001600160a01b0316333086610f54565b8115610b4b57600654600454610b4b916001600160a01b03918216911684610d3c565b8060075f828254610b5c91906111ca565b90915550506040805184815260208101839052429181019190915233907f36af321ec8d3c75236829c5317affd40ddb308863a1236d2d277a4025cccee1e906060016107a0565b610bab610d0a565b610bb3611027565b600480546040516370a0823160e01b815230928101929092525f916001600160a01b03909116906370a0823190602401602060405180830381865afa158015610bfe573d5f803e3d5ffd5b505050506040513d601f19601f82011682018060405250810190610c2291906111dd565b90508015610c4757600654600454610c47916001600160a01b03918216911683610d3c565b505f600781905560088190556009819055600c55565b610c65610d0a565b6001600160a01b038116610c9357604051631e4fbdf760e01b81525f60048201526024015b60405180910390fd5b6107b381610f93565b6001600160a01b0381165f908152600a6020526040812054808203610cc357505f92915050565b6001600160a01b0383165f908152600b6020526040902054600c5464e8d4a5100090610cef908461117b565b610cf99190611198565b610d0391906111b7565b9392505050565b5f546001600160a01b036101009091041633146107d05760405163118cdaa760e01b8152336004820152602401610c8a565b6040516001600160a01b0383811660248301526044820183905261068f91859182169063a9059cbb906064015b604051602081830303815290604052915060e01b6020820180516001600160e01b038381831617835250505050611049565b600260015403610dbe57604051633ee5aeb560e01b815260040160405180910390fd5b6002600155565b5f5460ff16156107d05760405163d93c066560e01b815260040160405180910390fd5b6001600160a01b0381165f908152600a602052604081205490819003610e0c575050565b6001600160a01b0382165f908152600b6020526040812054600c5464e8d4a5100090610e38908561117b565b610e429190611198565b610e4c91906111b7565b90508015610ec5578060095f828254610e6591906111b7565b9091555050600454610e81906001600160a01b03168483610d3c565b604080518281524260208201526001600160a01b038516917fdacbdde355ba930696a362ea6738feb9f8bd52dfb3d81947558fd3217e23e325910160405180910390a25b64e8d4a51000600c5483610ed9919061117b565b610ee39190611198565b6001600160a01b039093165f908152600b60205260409020929092555050565b610f0b611027565b5f805460ff191690557f5db9ee0a495bf2e6ff9c91a7834c1ba4fdd244a5e8aa4e537bd38aeae4b073aa335b6040516001600160a01b03909116815260200160405180910390a1565b6040516001600160a01b038481166024830152838116604483015260648201839052610f8d9186918216906323b872dd90608401610d69565b50505050565b5f80546001600160a01b03838116610100818102610100600160a81b0319851617855560405193049190911692909183917f8be0079c531659141344cd1fd0a4f28419497f9722a3daafe3b4186f6b6457e091a35050565b610ff3610dc5565b5f805460ff191660011790557f62e78cea01bee320cd4e420270b5ea74000d11b0c9f74754ebdbfc544b05a258610f373390565b5f5460ff166107d057604051638dfc202b60e01b815260040160405180910390fd5b5f8060205f8451602086015f885af180611068576040513d5f823e3d81fd5b50505f513d9150811561107f57806001141561108c565b6001600160a01b0384163b155b15610f8d57604051635274afe760e01b81526001600160a01b0385166004820152602401610c8a565b5f602082840312156110c5575f80fd5b5035919050565b6001600160a01b03811681146107b3575f80fd5b5f805f606084860312156110f2575f80fd5b83356110fd816110cc565b95602085013595506040909401359392505050565b5f60208284031215611122575f80fd5b8135610d03816110cc565b5f6020828403121561113d575f80fd5b81518015158114610d03575f80fd5b5f6020828403121561115c575f80fd5b8151610d03816110cc565b634e487b7160e01b5f52601160045260245ffd5b808202811582820484141761119257611192611167565b92915050565b5f826111b257634e487b7160e01b5f52601260045260245ffd5b500490565b8181038181111561119257611192611167565b8082018082111561119257611192611167565b5f602082840312156111ed575f80fd5b505191905056fea26469706673582212205e91548b037654f55386feafa1e91c790a8041508f831943b7d6a7f01e6c039b64736f6c63430008180033",
  "linkReferences": {},
  "deployedLinkReferences": {}
}