{
  "_format": "hh-sol-artifact-1",
  "contractName": "CasinoFactory",
  "sourceName": "contracts/CasinoFactory.sol",
  "abi": [
    {
      "inputs": [],
      "stateMutability": "nonpayable",
      "type": "constructor"
    },
    {
      "inputs": [],
      "name": "EnforcedPause",
      "type": "error"
    },
    {
      "inputs": [],
      "name": "ExpectedPause",
      "type": "error"
    },
    {
      "inputs": [],
      "name": "FeeTooHigh",
      "type": "error"
    },
    {
      "inputs": [],
      "name": "InvalidWalletAddress",
      "type": "error"
    },
    {
      "inputs": [],
      "name": "NotAuthorized",
      "type": "error"
    },
    {
      "inputs": [
        {
          "internalType": "address",
          "name": "owner",
          "type": "address"
        }
      ],
      "name": "OwnableInvalidOwner",
      "type": "error"
    },
    {
      "inputs": [
        {
          "internalType": "address",
          "name": "account",
          "type": "address"
        }
      ],
      "name": "OwnableUnauthorizedAccount",
      "type": "error"
    },
    {
      "inputs": [],
      "name": "PoolAlreadyExists",
      "type": "error"
    },
    {
      "inputs": [],
      "name": "PoolDoesNotExist",
      "type": "error"
    },
    {
      "anonymous": false,
      "inputs": [
        {
          "indexed": false,
          "internalType": "uint256",
          "name": "oldFee",
          "type": "uint256"
        },
        {
          "indexed": false,
          "internalType": "uint256",
          "name": "newFee",
          "type": "uint256"
        }
      ],
      "name": "GameFeeUpdated",
      "type": "event"
    },
    {
      "anonymous": false,
      "inputs": [
        {
          "indexed": true,
          "internalType": "address",
          "name": "operator",
          "type": "address"
        },
        {
          "indexed": false,
          "internalType": "bool",
          "name": "status",
          "type": "bool"
        },
        {
          "indexed": false,
          "internalType": "string",
          "name": "name",
          "type": "string"
        }
      ],
      "name": "OperatorUpdated",
      "type": "event"
    },
    {
      "anonymous": false,
      "inputs": [
        {
          "indexed": true,
          "internalType": "address",
          "name": "previousOwner",
          "type": "address"
        },
        {
          "indexed": true,
          "internalType": "address",
          "name": "newOwner",
          "type": "address"
        }
      ],
      "name": "OwnershipTransferred",
      "type": "event"
    },
    {
      "anonymous": false,
      "inputs": [
        {
          "indexed": false,
          "internalType": "address",
          "name": "account",
          "type": "address"
        }
      ],
      "name": "Paused",
      "type": "event"
    },
    {
      "anonymous": false,
      "inputs": [
        {
          "indexed": false,
          "internalType": "uint256",
          "name": "oldFee",
          "type": "uint256"
        },
        {
          "indexed": false,
          "internalType": "uint256",
          "name": "newFee",
          "type": "uint256"
        }
      ],
      "name": "PlatformFeeUpdated",
      "type": "event"
    },
    {
      "anonymous": false,
      "inputs": [
        {
          "indexed": true,
          "internalType": "address",
          "name": "newWallet",
          "type": "address"
        }
      ],
      "name": "PlatformWalletUpdated",
      "type": "event"
    },
    {
      "anonymous": false,
      "inputs": [
        {
          "indexed": true,
          "internalType": "address",
          "name": "token",
          "type": "address"
        },
        {
          "indexed": true,
          "internalType": "address",
          "name": "pool",
          "type": "address"
        }
      ],
      "name": "PoolCreated",
      "type": "event"
    },
    {
      "anonymous": false,
      "inputs": [
        {
          "indexed": true,
          "internalType": "address",
          "name": "token",
          "type": "address"
        },
        {
          "indexed": false,
          "internalType": "bool",
          "name": "status",
          "type": "bool"
        }
      ],
      "name": "TokenWhitelisted",
      "type": "event"
    },
    {
      "anonymous": false,
      "inputs": [
        {
          "indexed": false,
          "internalType": "address",
          "name": "account",
          "type": "address"
        }
      ],
      "name": "Unpaused",
      "type": "event"
    },
    {
      "inputs": [],
      "name": "BASIS_POINTS",
      "outputs": [
        {
          "internalType": "uint256",
          "name": "",
          "type": "uint256"
        }
      ],
      "stateMutability": "view",
      "type": "function"
    },
    {
      "inputs": [],
      "name": "MAX_FEE",
      "outputs": [
        {
          "internalType": "uint256",
          "name": "",
          "type": "uint256"
        }
      ],
      "stateMutability": "view",
      "type": "function"
    },
    {
      "inputs": [
        {
          "internalType": "address",
          "name": "token",
          "type": "address"
        }
      ],
      "name": "createPool",
      "outputs": [],
      "stateMutability": "nonpayable",
      "type": "function"
    },
    {
      "inputs": [
        {
          "internalType": "uint256",
          "name": "",
          "type": "uint256"
        }
      ],
      "name": "deployedTokens",
      "outputs": [
        {
          "internalType": "address",
          "name": "",
          "type": "address"
        }
      ],
      "stateMutability": "view",
      "type": "function"
    },
    {
      "inputs": [
        {
          "internalType": "address",
          "name": "token",
          "type": "address"
        }
      ],
      "name": "emergencyWithdrawFromPool",
      "outputs": [],
      "stateMutability": "nonpayable",
      "type": "function"
    },
    {
      "inputs": [],
      "name": "gameFee",
      "outputs": [
        {
          "internalType": "uint256",
          "name": "",
          "type": "uint256"
        }
      ],
      "stateMutability": "view",
      "type": "function"
    },
    {
      "inputs": [],
      "name": "getDeployedPools",
      "outputs": [
        {
          "internalType": "address[]",
          "name": "tokens",
          "type": "address[]"
        },
        {
          "internalType": "address[]",
          "name": "pools",
          "type": "address[]"
        }
      ],
      "stateMutability": "view",
      "type": "function"
    },
    {
      "inputs": [
        {
          "internalType": "address",
          "name": "operatorAddr",
          "type": "address"
        }
      ],
      "name": "getOperatorName",
      "outputs": [
        {
          "internalType": "string",
          "name": "",
          "type": "string"
        }
      ],
      "stateMutability": "view",
      "type": "function"
    },
    {
      "inputs": [
        {
          "internalType": "address",
          "name": "token",
          "type": "address"
        }
      ],
      "name": "getPool",
      "outputs": [
        {
          "internalType": "bool",
          "name": "exists",
          "type": "bool"
        },
        {
          "internalType": "address",
          "name": "pool",
          "type": "address"
        }
      ],
      "stateMutability": "view",
      "type": "function"
    },
    {
      "inputs": [
        {
          "internalType": "address",
          "name": "_platformWallet",
          "type": "address"
        }
      ],
      "name": "initialize",
      "outputs": [],
      "stateMutability": "nonpayable",
      "type": "function"
    },
    {
      "inputs": [
        {
          "internalType": "address",
          "name": "operatorAddr",
          "type": "address"
        }
      ],
      "name": "isOperator",
      "outputs": [
        {
          "internalType": "bool",
          "name": "",
          "type": "bool"
        }
      ],
      "stateMutability": "view",
      "type": "function"
    },
    {
      "inputs": [
        {
          "internalType": "address",
          "name": "",
          "type": "address"
        }
      ],
      "name": "isPoolDeployed",
      "outputs": [
        {
          "internalType": "bool",
          "name": "",
          "type": "bool"
        }
      ],
      "stateMutability": "view",
      "type": "function"
    },
    {
      "inputs": [
        {
          "internalType": "address",
          "name": "",
          "type": "address"
        }
      ],
      "name": "operatorNames",
      "outputs": [
        {
          "internalType": "string",
          "name": "",
          "type": "string"
        }
      ],
      "stateMutability": "view",
      "type": "function"
    },
    {
      "inputs": [
        {
          "internalType": "address",
          "name": "",
          "type": "address"
        }
      ],
      "name": "operators",
      "outputs": [
        {
          "internalType": "bool",
          "name": "",
          "type": "bool"
        }
      ],
      "stateMutability": "view",
      "type": "function"
    },
    {
      "inputs": [],
      "name": "owner",
      "outputs": [
        {
          "internalType": "address",
          "name": "",
          "type": "address"
        }
      ],
      "stateMutability": "view",
      "type": "function"
    },
    {
      "inputs": [],
      "name": "pause",
      "outputs": [],
      "stateMutability": "nonpayable",
      "type": "function"
    },
    {
      "inputs": [],
      "name": "paused",
      "outputs": [
        {
          "internalType": "bool",
          "name": "",
          "type": "bool"
        }
      ],
      "stateMutability": "view",
      "type": "function"
    },
    {
      "inputs": [],
      "name": "platformFee",
      "outputs": [
        {
          "internalType": "uint256",
          "name": "",
          "type": "uint256"
        }
      ],
      "stateMutability": "view",
      "type": "function"
    },
    {
      "inputs": [],
      "name": "platformWallet",
      "outputs": [
        {
          "internalType": "address",
          "name": "",
          "type": "address"
        }
      ],
      "stateMutability": "view",
      "type": "function"
    },
    {
      "inputs": [],
      "name": "renounceOwnership",
      "outputs": [],
      "stateMutability": "nonpayable",
      "type": "function"
    },
    {
      "inputs": [
        {
          "internalType": "uint256",
          "name": "newFee",
          "type": "uint256"
        }
      ],
      "name": "setGameFee",
      "outputs": [],
      "stateMutability": "nonpayable",
      "type": "function"
    },
    {
      "inputs": [
        {
          "internalType": "address",
          "name": "operator",
          "type": "address"
        },
        {
          "internalType": "bool",
          "name": "status",
          "type": "bool"
        },
        {
          "internalType": "string",
          "name": "name",
          "type": "string"
        }
      ],
      "name": "setOperator",
      "outputs": [],
      "stateMutability": "nonpayable",
      "type": "function"
    },
    {
      "inputs": [
        {
          "internalType": "uint256",
          "name": "newFee",
          "type": "uint256"
        }
      ],
      "name": "setPlatformFee",
      "outputs": [],
      "stateMutability": "nonpayable",
      "type": "function"
    },
    {
      "inputs": [
        {
          "internalType": "address",
          "name": "",
          "type": "address"
        }
      ],
      "name": "tokenToPools",
      "outputs": [
        {
          "internalType": "address",
          "name": "",
          "type": "address"
        }
      ],
      "stateMutability": "view",
      "type": "function"
    },
    {
      "inputs": [
        {
          "internalType": "address",
          "name": "newOwner",
          "type": "address"
        }
      ],
      "name": "transferOwnership",
      "outputs": [],
      "stateMutability": "nonpayable",
      "type": "function"
    },
    {
      "inputs": [],
      "name": "unpause",
      "outputs": [],
      "stateMutability": "nonpayable",
      "type": "function"
    },
    {
      "inputs": [],
      "name": "updateAllPoolFees",
      "outputs": [],
      "stateMutability": "nonpayable",
      "type": "function"
    },
    {
      "inputs": [
        {
          "internalType": "address",
          "name": "newWallet",
          "type": "address"
        }
      ],
      "name": "updatePlatformWallet",
      "outputs": [],
      "stateMutability": "nonpayable",
      "type": "function"
    },
    {
      "inputs": [
        {
          "internalType": "address",
          "name": "token",
          "type": "address"
        }
      ],
      "name": "updatePoolFee",
      "outputs": [],
      "stateMutability": "nonpayable",
      "type": "function"
    }
  ],
  "bytecode": "0x608060405234801561000f575f80fd5b505f805460ff19169055338061003e57604051631e4fbdf760e01b81525f600482015260240160405180910390fd5b61004781610058565b506101f460028190556003556100b0565b5f80546001600160a01b03838116610100818102610100600160a81b0319851617855560405193049190911692909183917f8be0079c531659141344cd1fd0a4f28419497f9722a3daafe3b4186f6b6457e091a35050565b612be7806100bd5f395ff3fe608060405234801562000010575f80fd5b5060043610620001ec575f3560e01c80639049f9d21162000113578063c4d66de811620000ab578063eac834071162000077578063eac834071462000487578063ec81aadb146200049e578063f2fde38b14620004b5578063fa2af9da14620004cc575f80fd5b8063c4d66de81462000445578063e1f1c4a7146200045c578063e3db75031462000466578063ea777eec146200047d575f80fd5b8063ada4ef3011620000eb578063ada4ef3014620003a8578063bacb4b7c14620003bf578063bbe4f6db14620003ea578063bc063e1a146200043b575f80fd5b80639049f9d21462000363578063a0e0ce3d146200037a578063a38bcc781462000391575f80fd5b80636b4592131162000187578063715018a6116200015f578063715018a6146200031b5780637657c8be14620003255780638456cb59146200032f5780638da5cb5b1462000339575f80fd5b80636b45921314620002ad5780636ca58ec814620002c75780636d70f7ae14620002ed575f80fd5b806321f95ea211620001c757806321f95ea2146200026857806326232a2e146200027f5780633f4ba83a14620002985780635c975abb14620002a2575f80fd5b806312e8e2c314620001f057806313e7c9d81462000209578063177761de1462000243575b5f80fd5b620002076200020136600462001352565b620004e0565b005b6200022e6200021a36600462001386565b60046020525f908152604090205460ff1681565b60405190151581526020015b60405180910390f35b6200022e6200025436600462001386565b60076020525f908152604090205460ff1681565b620002076200027936600462001386565b62000554565b6200028960025481565b6040519081526020016200023a565b620002076200064c565b5f5460ff166200022e565b620002b76200072a565b6040516200023a929190620013ee565b620002de620002d836600462001386565b62000886565b6040516200023a919062001464565b6200022e620002fe36600462001386565b6001600160a01b03165f9081526004602052604090205460ff1690565b6200020762000925565b620002076200093c565b6200020762000a72565b5f5461010090046001600160a01b03165b6040516001600160a01b0390911681526020016200023a565b620002076200037436600462001386565b62000b4c565b620002de6200038b36600462001386565b62000d16565b62000207620003a236600462001352565b62000e25565b62000207620003b936600462001386565b62000e92565b6200034a620003d036600462001386565b60066020525f90815260409020546001600160a01b031681565b6200041b620003fb36600462001386565b6001600160a01b039081165f908152600660205260409020541680151591565b6040805192151583526001600160a01b039091166020830152016200023a565b620002896103e881565b620002076200045636600462001386565b62000f0d565b6200028961271081565b62000207620004773660046200148c565b62000fa8565b6200028960035481565b620002076200049836600462001386565b6200109d565b6200034a620004af36600462001352565b62001123565b62000207620004c636600462001386565b6200114c565b6001546200034a906001600160a01b031681565b620004ea6200118f565b6103e88111156200050e5760405163cd4e616760e01b815260040160405180910390fd5b600280549082905560408051828152602081018490527fd347e206f25a89b917fc9482f1a2d294d749baa4dc9bde7fb495ee11fe49164391015b60405180910390a15050565b335f9081526004602052604090205460ff161580156200059557505f5461010090046001600160a01b03166001600160a01b0316336001600160a01b031614155b15620005b45760405163ea8e4eb560e01b815260040160405180910390fd5b6001600160a01b038082165f908152600660205260409020541680620005ed576040516302721e1f60e61b815260040160405180910390fd5b6002546040516312e8e2c360e01b815260048101919091526001600160a01b038216906312e8e2c3906024015f604051808303815f87803b15801562000631575f80fd5b505af115801562000644573d5f803e3d5ffd5b505050505050565b620006566200118f565b62000660620011c3565b5f6200066b6200072a565b9150505f5b815181101562000726575f6001600160a01b03168282815181106200069957620006996200156a565b60200260200101516001600160a01b0316146200071d57818181518110620006c557620006c56200156a565b60200260200101516001600160a01b0316633f4ba83a6040518163ffffffff1660e01b81526004015f604051808303815f87803b15801562000705575f80fd5b505af115801562000718573d5f803e3d5ffd5b505050505b60010162000670565b5050565b60085460609081908067ffffffffffffffff8111156200074e576200074e62001478565b60405190808252806020026020018201604052801562000778578160200160208202803683370190505b5092508067ffffffffffffffff81111562000797576200079762001478565b604051908082528060200260200182016040528015620007c1578160200160208202803683370190505b5091505f5b8181101562000880575f60088281548110620007e657620007e66200156a565b905f5260205f20015f9054906101000a90046001600160a01b03169050808583815181106200081957620008196200156a565b6001600160a01b039283166020918202929092018101919091528282165f9081526006909152604090205485519116908590849081106200085e576200085e6200156a565b6001600160a01b039092166020928302919091019091015250600101620007c6565b50509091565b60056020525f908152604090208054620008a0906200157e565b80601f0160208091040260200160405190810160405280929190818152602001828054620008ce906200157e565b80156200091d5780601f10620008f3576101008083540402835291602001916200091d565b820191905f5260205f20905b815481529060010190602001808311620008ff57829003601f168201915b505050505081565b6200092f6200118f565b6200093a5f62001216565b565b335f9081526004602052604090205460ff161580156200097d57505f5461010090046001600160a01b03166001600160a01b0316336001600160a01b031614155b156200099c5760405163ea8e4eb560e01b815260040160405180910390fd5b5f620009a76200072a565b9150505f5b815181101562000726575f6001600160a01b0316828281518110620009d557620009d56200156a565b60200260200101516001600160a01b03161462000a695781818151811062000a015762000a016200156a565b60200260200101516001600160a01b03166312e8e2c36002546040518263ffffffff1660e01b815260040162000a3991815260200190565b5f604051808303815f87803b15801562000a51575f80fd5b505af115801562000a64573d5f803e3d5ffd5b505050505b600101620009ac565b62000a7c6200118f565b62000a866200126e565b5f62000a916200072a565b9150505f5b815181101562000726575f6001600160a01b031682828151811062000abf5762000abf6200156a565b60200260200101516001600160a01b03161462000b435781818151811062000aeb5762000aeb6200156a565b60200260200101516001600160a01b0316638456cb596040518163ffffffff1660e01b81526004015f604051808303815f87803b15801562000b2b575f80fd5b505af115801562000b3e573d5f803e3d5ffd5b505050505b60010162000a96565b6001600160a01b03811662000b745760405163a5f90a1160e01b815260040160405180910390fd5b6001600160a01b0381165f9081526007602052604090205460ff161562000bae57604051630188c99160e11b815260040160405180910390fd5b6001546040515f91839130916001600160a01b03169062000bcf90620012f4565b6001600160a01b03938416815291831660208301529091166040820152606001604051809103905ff08015801562000c09573d5f803e3d5ffd5b506002546040516312e8e2c360e01b81529192506001600160a01b038316916312e8e2c39162000c3f9160040190815260200190565b5f604051808303815f87803b15801562000c57575f80fd5b505af115801562000c6a573d5f803e3d5ffd5b505050506001600160a01b038281165f81815260066020908152604080832080546001600160a01b03199081169688169687179091556007909252808320805460ff1916600190811790915560088054918201815584527ff3f7a9fe364faab93b216da50a3214154f22a0a2b415b23a84c8169e8b636ee30180549092168417909155517f4f2ce4e40f623ca765fc0167a25cb7842ceaafb8d82d3dec26ca0d0e0d2d48969190a35050565b6001600160a01b0381165f9081526004602052604090205460609060ff1662000d785760405162461bcd60e51b815260206004820152600f60248201526e2737ba1030b71037b832b930ba37b960891b60448201526064015b60405180910390fd5b6001600160a01b0382165f908152600560205260409020805462000d9c906200157e565b80601f016020809104026020016040519081016040528092919081815260200182805462000dca906200157e565b801562000e195780601f1062000def5761010080835404028352916020019162000e19565b820191905f5260205f20905b81548152906001019060200180831162000dfb57829003601f168201915b50505050509050919050565b62000e2f6200118f565b6103e881111562000e535760405163cd4e616760e01b815260040160405180910390fd5b600380549082905560408051828152602081018490527f75aef5483b24548953e5e86df155417ee9e1b8a174ad54f9c1a2211ab03822c2910162000548565b62000e9c6200118f565b6001600160a01b03811662000ec45760405163a5f90a1160e01b815260040160405180910390fd5b600180546001600160a01b0319166001600160a01b0383169081179091556040517f73238e3ae0a71b401b31ae67204506d074de41bd5c084082fba9b64b1c7fa28f905f90a250565b6001600160a01b03811662000f355760405163a5f90a1160e01b815260040160405180910390fd5b6001546001600160a01b03161562000f865760405162461bcd60e51b8152602060048201526013602482015272105b1c9958591e481a5b9a5d1a585b1a5e9959606a1b604482015260640162000d6f565b600180546001600160a01b0319166001600160a01b0392909216919091179055565b62000fb26200118f565b6001600160a01b03831662000fda5760405163a5f90a1160e01b815260040160405180910390fd5b6001600160a01b0383165f908152600460205260409020805460ff1916831580159190911790915562001031576001600160a01b0383165f9081526005602052604090206200102a828262001608565b5062001053565b6001600160a01b0383165f908152600560205260408120620010539162001302565b826001600160a01b03167fb4a7e7bfbe44168d75911da03cb58c71b58bb630b7f21e7b7fa7029077da9646838360405162001090929190620016d1565b60405180910390a2505050565b620010a76200118f565b620010b1620012ad565b6001600160a01b038082165f908152600660205260409020541680620010ea576040516302721e1f60e61b815260040160405180910390fd5b806001600160a01b031663db2e21bc6040518163ffffffff1660e01b81526004015f604051808303815f87803b15801562000631575f80fd5b6008818154811062001133575f80fd5b5f918252602090912001546001600160a01b0316905081565b620011566200118f565b6001600160a01b0381166200118157604051631e4fbdf760e01b81525f600482015260240162000d6f565b6200118c8162001216565b50565b5f546001600160a01b036101009091041633146200093a5760405163118cdaa760e01b815233600482015260240162000d6f565b620011cd620012ad565b5f805460ff191690557f5db9ee0a495bf2e6ff9c91a7834c1ba4fdd244a5e8aa4e537bd38aeae4b073aa335b6040516001600160a01b03909116815260200160405180910390a1565b5f80546001600160a01b03838116610100818102610100600160a81b0319851617855560405193049190911692909183917f8be0079c531659141344cd1fd0a4f28419497f9722a3daafe3b4186f6b6457e091a35050565b62001278620012d0565b5f805460ff191660011790557f62e78cea01bee320cd4e420270b5ea74000d11b0c9f74754ebdbfc544b05a258620011f93390565b5f5460ff166200093a57604051638dfc202b60e01b815260040160405180910390fd5b5f5460ff16156200093a5760405163d93c066560e01b815260040160405180910390fd5b6114bc80620016f683390190565b50805462001310906200157e565b5f825580601f1062001320575050565b601f0160209004905f5260205f20908101906200118c91905b808211156200134e575f815560010162001339565b5090565b5f6020828403121562001363575f80fd5b5035919050565b80356001600160a01b038116811462001381575f80fd5b919050565b5f6020828403121562001397575f80fd5b620013a2826200136a565b9392505050565b5f815180845260208085019450602084015f5b83811015620013e35781516001600160a01b031687529582019590820190600101620013bc565b509495945050505050565b604081525f620014026040830185620013a9565b8281036020840152620014168185620013a9565b95945050505050565b5f81518084525f5b81811015620014455760208185018101518683018201520162001427565b505f602082860101526020601f19601f83011685010191505092915050565b602081525f620013a260208301846200141f565b634e487b7160e01b5f52604160045260245ffd5b5f805f606084860312156200149f575f80fd5b620014aa846200136a565b925060208401358015158114620014bf575f80fd5b9150604084013567ffffffffffffffff80821115620014dc575f80fd5b818601915086601f830112620014f0575f80fd5b81358181111562001505576200150562001478565b604051601f8201601f19908116603f0116810190838211818310171562001530576200153062001478565b8160405282815289602084870101111562001549575f80fd5b826020860160208301375f6020848301015280955050505050509250925092565b634e487b7160e01b5f52603260045260245ffd5b600181811c908216806200159357607f821691505b602082108103620015b257634e487b7160e01b5f52602260045260245ffd5b50919050565b601f8211156200160357805f5260205f20601f840160051c81016020851015620015df5750805b601f840160051c820191505b8181101562001600575f8155600101620015eb565b50505b505050565b815167ffffffffffffffff81111562001625576200162562001478565b6200163d816200163684546200157e565b84620015b8565b602080601f83116001811462001673575f84156200165b5750858301515b5f19600386901b1c1916600185901b17855562000644565b5f85815260208120601f198616915b82811015620016a35788860151825594840194600190910190840162001682565b5085821015620016c157878501515f19600388901b60f8161c191681555b5050505050600190811b01905550565b8215158152604060208201525f620016ed60408301846200141f565b94935050505056fe608060405234801562000010575f80fd5b50604051620014bc380380620014bc83398101604081905262000033916200023d565b5f805460ff19169055816001600160a01b0381166200006c57604051631e4fbdf760e01b81525f60048201526024015b60405180910390fd5b620000778162000150565b50600180556001600160a01b038316620000a45760405163162908e360e11b815260040160405180910390fd5b6001600160a01b038216620000cc5760405163162908e360e11b815260040160405180910390fd5b6001600160a01b038116620000f45760405163162908e360e11b815260040160405180910390fd5b600480546001600160a01b038086166001600160a01b0319928316179092556005805485841690831617905560068054928416929091169190911790556101f460028190556003556200014782620001a8565b50505062000284565b5f80546001600160a01b03838116610100818102610100600160a81b0319851617855560405193049190911692909183917f8be0079c531659141344cd1fd0a4f28419497f9722a3daafe3b4186f6b6457e091a35050565b620001b2620001eb565b6001600160a01b038116620001dd57604051631e4fbdf760e01b81525f600482015260240162000063565b620001e88162000150565b50565b5f546001600160a01b036101009091041633146200021f5760405163118cdaa760e01b815233600482015260240162000063565b565b80516001600160a01b038116811462000238575f80fd5b919050565b5f805f6060848603121562000250575f80fd5b6200025b8462000221565b92506200026b6020850162000221565b91506200027b6040850162000221565b90509250925092565b61122a80620002925f395ff3fe608060405234801561000f575f80fd5b50600436106101a1575f3560e01c80638456cb59116100f3578063ce7c2ac211610093578063f2fde38b1161006e578063f2fde38b14610321578063f6ed201714610334578063fa2af9da14610347578063fc0c546a1461035a575f80fd5b8063ce7c2ac2146102f1578063db2e21bc14610310578063ea777eec14610318575f80fd5b80639c8f9f23116100ce5780639c8f9f23146102b0578063abd70aa2146102c3578063b6b55f25146102cb578063c45a0155146102de575f80fd5b80638456cb59146102765780638da5cb5b1461027e578063939d6237146102a7575f80fd5b80633f4ba83a1161015e578063587f5ed711610139578063587f5ed7146102475780635c975abb14610250578063715018a6146102655780637d8820971461026d575f80fd5b80633f4ba83a1461020d57806351c6590a146102155780635873eb9b14610228575f80fd5b806312e8e2c3146101a557806326232a2e146101ba5780632bba99c2146101d65780632e1a7d4d146101e9578063372500ab146101fc5780633a98ef3914610204575b5f80fd5b6101b86101b33660046110b5565b61036d565b005b6101c360025481565b6040519081526020015b60405180910390f35b6101b86101e43660046110e0565b6103dd565b6101b86101f73660046110b5565b610694565b6101b86107b6565b6101c360085481565b6101b86107d2565b6101b86102233660046110b5565b6107e2565b6101c3610236366004611112565b600b6020525f908152604090205481565b6101c360095481565b5f5460ff1660405190151581526020016101cd565b6101b861092b565b6101c360075481565b6101b861093c565b5f5461010090046001600160a01b03165b6040516001600160a01b0390911681526020016101cd565b6101c3600c5481565b6101b86102be3660046110b5565b61094c565b6007546101c3565b6101b86102d93660046110b5565b610ab4565b60055461028f906001600160a01b031681565b6101c36102ff366004611112565b600a6020525f908152604090205481565b6101b8610ba3565b6101c360035481565b6101b861032f366004611112565b610c5d565b6101c3610342366004611112565b610c9c565b60065461028f906001600160a01b031681565b60045461028f906001600160a01b031681565b610375610d0a565b6103e88111156103985760405163cd4e616760e01b815260040160405180910390fd5b600280549082905560408051828152602081018490527fd347e206f25a89b917fc9482f1a2d294d749baa4dc9bde7fb495ee11fe491643910160405180910390a15050565b60055460405163027cf93b60e31b81523360048201526001600160a01b03909116906313e7c9d890602401602060405180830381865afa158015610423573d5f803e3d5ffd5b505050506040513d601f19601f82011682018060405250810190610447919061112d565b1580156104d9575060055f9054906101000a90046001600160a01b03166001600160a01b0316638da5cb5b6040518163ffffffff1660e01b8152600401602060405180830381865afa15801561049f573d5f803e3d5ffd5b505050506040513d601f19601f820116820180604052508101906104c3919061114c565b6001600160a01b0316336001600160a01b031614155b156104f75760405163ea8e4eb560e01b815260040160405180910390fd5b8015610627575f6127106003548361050f919061117b565b6105199190611198565b90505f61052682846111b7565b90508160095f82825461053991906111ca565b909155505060085415610578576008546105588364e8d4a5100061117b565b6105629190611198565b600c5f82825461057291906111ca565b90915550505b60075481111561059b57604051631e9acf1760e31b815260040160405180910390fd5b6004546105b2906001600160a01b03168683610d3c565b81836007546105c191906111b7565b6105cb91906111ca565b60075560408051858152602081018590529081018390524260608201526001600160a01b038616907fe1e22663cd8791964c0fe0c536a5b296f73b419c63e18fcba51728f9270d90a29060800160405180910390a25050505050565b8160075f82825461063891906111ca565b9091555050604080518381525f60208201529081018390524260608201526001600160a01b038416907fe1e22663cd8791964c0fe0c536a5b296f73b419c63e18fcba51728f9270d90a29060800160405180910390a25b505050565b61069c610d9b565b6106a4610dc5565b805f036106c45760405163162908e360e11b815260040160405180910390fd5b6007548111156106e757604051631e9acf1760e31b815260040160405180910390fd5b5f612710600254836106f9919061117b565b6107039190611198565b90505f61071082846111b7565b90508260075f82825461072391906111b7565b9091555050811561074b5760065460045461074b916001600160a01b03918216911684610d3c565b600454610762906001600160a01b03163383610d3c565b6040805184815260208101839052429181019190915233907f650fdf669e93aa6c8ff3defe2da9c12b64f1548e5e1e54e803f4c1beb6466c8e906060015b60405180910390a250506107b360018055565b50565b6107be610d9b565b6107c733610de8565b6107d060018055565b565b6107da610d0a565b6107d0610f03565b6107ea610d9b565b6107f2610dc5565b805f036108125760405163162908e360e11b815260040160405180910390fd5b5f6008545f03610823575080610840565b600754600854610833908461117b565b61083d9190611198565b90505b64e8d4a51000600c5482610854919061117b565b61085e9190611198565b335f818152600b602052604090209190915560045461088a916001600160a01b03909116903085610f54565b8160075f82825461089b91906111ca565b925050819055508060085f8282546108b391906111ca565b9091555050335f908152600a6020526040812080548392906108d69084906111ca565b90915550506040805183815260208101839052429181019190915233907f64b83944e79c3ce8d4c297411de637c3e102d064677aac0c163976ebdcd6f50e906060015b60405180910390a2506107b360018055565b610933610d0a565b6107d05f610f93565b610944610d0a565b6107d0610feb565b610954610d9b565b805f036109745760405163162908e360e11b815260040160405180910390fd5b335f908152600a60205260409020548111156109a357604051633999656760e01b815260040160405180910390fd5b6109ac33610de8565b5f600854600754836109be919061117b565b6109c89190611198565b90508060075f8282546109db91906111b7565b925050819055508160085f8282546109f391906111b7565b9091555050335f908152600a602052604081208054849290610a169084906111b7565b9091555050600c54335f908152600a602052604090205464e8d4a5100091610a3d9161117b565b610a479190611198565b335f818152600b6020526040902091909155600454610a72916001600160a01b039091169083610d3c565b6040805182815260208101849052429181019190915233907f1dc8bb69df2b8e91fbdcbfcf93d951b3f0000f085a95fe3f7946d6161439245d90606001610919565b610abc610d9b565b610ac4610dc5565b805f03610ae45760405163162908e360e11b815260040160405180910390fd5b5f61271060025483610af6919061117b565b610b009190611198565b90505f610b0d82846111b7565b600454909150610b28906001600160a01b0316333086610f54565b8115610b4b57600654600454610b4b916001600160a01b03918216911684610d3c565b8060075f828254610b5c91906111ca565b90915550506040805184815260208101839052429181019190915233907f36af321ec8d3c75236829c5317affd40ddb308863a1236d2d277a4025cccee1e906060016107a0565b610bab610d0a565b610bb3611027565b600480546040516370a0823160e01b815230928101929092525f916001600160a01b03909116906370a0823190602401602060405180830381865afa158015610bfe573d5f803e3d5ffd5b505050506040513d601f19601f82011682018060405250810190610c2291906111dd565b90508015610c4757600654600454610c47916001600160a01b03918216911683610d3c565b505f600781905560088190556009819055600c55565b610c65610d0a565b6001600160a01b038116610c9357604051631e4fbdf760e01b81525f60048201526024015b60405180910390fd5b6107b381610f93565b6001600160a01b0381165f908152600a6020526040812054808203610cc357505f92915050565b6001600160a01b0383165f908152600b6020526040902054600c5464e8d4a5100090610cef908461117b565b610cf99190611198565b610d0391906111b7565b9392505050565b5f546001600160a01b036101009091041633146107d05760405163118cdaa760e01b8152336004820152602401610c8a565b6040516001600160a01b0383811660248301526044820183905261068f91859182169063a9059cbb906064015b604051602081830303815290604052915060e01b6020820180516001600160e01b038381831617835250505050611049565b600260015403610dbe57604051633ee5aeb560e01b815260040160405180910390fd5b6002600155565b5f5460ff16156107d05760405163d93c066560e01b815260040160405180910390fd5b6001600160a01b0381165f908152600a602052604081205490819003610e0c575050565b6001600160a01b0382165f908152600b6020526040812054600c5464e8d4a5100090610e38908561117b565b610e429190611198565b610e4c91906111b7565b90508015610ec5578060095f828254610e6591906111b7565b9091555050600454610e81906001600160a01b03168483610d3c565b604080518281524260208201526001600160a01b038516917fdacbdde355ba930696a362ea6738feb9f8bd52dfb3d81947558fd3217e23e325910160405180910390a25b64e8d4a51000600c5483610ed9919061117b565b610ee39190611198565b6001600160a01b039093165f908152600b60205260409020929092555050565b610f0b611027565b5f805460ff191690557f5db9ee0a495bf2e6ff9c91a7834c1ba4fdd244a5e8aa4e537bd38aeae4b073aa335b6040516001600160a01b03909116815260200160405180910390a1565b6040516001600160a01b038481166024830152838116604483015260648201839052610f8d9186918216906323b872dd90608401610d69565b50505050565b5f80546001600160a01b03838116610100818102610100600160a81b0319851617855560405193049190911692909183917f8be0079c531659141344cd1fd0a4f28419497f9722a3daafe3b4186f6b6457e091a35050565b610ff3610dc5565b5f805460ff191660011790557f62e78cea01bee320cd4e420270b5ea74000d11b0c9f74754ebdbfc544b05a258610f373390565b5f5460ff166107d057604051638dfc202b60e01b815260040160405180910390fd5b5f8060205f8451602086015f885af180611068576040513d5f823e3d81fd5b50505f513d9150811561107f57806001141561108c565b6001600160a01b0384163b155b15610f8d57604051635274afe760e01b81526001600160a01b0385166004820152602401610c8a565b5f602082840312156110c5575f80fd5b5035919050565b6001600160a01b03811681146107b3575f80fd5b5f805f606084860312156110f2575f80fd5b83356110fd816110cc565b95602085013595506040909401359392505050565b5f60208284031215611122575f80fd5b8135610d03816110cc565b5f6020828403121561113d575f80fd5b81518015158114610d03575f80fd5b5f6020828403121561115c575f80fd5b8151610d03816110cc565b634e487b7160e01b5f52601160045260245ffd5b808202811582820484141761119257611192611167565b92915050565b5f826111b257634e487b7160e01b5f52601260045260245ffd5b500490565b8181038181111561119257611192611167565b8082018082111561119257611192611167565b5f602082840312156111ed575f80fd5b505191905056fea26469706673582212205e91548b037654f55386feafa1e91c790a8041508f831943b7d6a7f01e6c039b64736f6c63430008180033a264697066735822122021e9736aa5df2629ac45a9946b72d51db2ecf989d40405c62373659532e6ea5f64736f6c63430008180033",
  "linkReferences": {},
  "deployedLinkReferences": {}
}