{
  "_format": "hh-sol-artifact-1",
  "contractName": "CasinoFactory",
  "sourceName": "contracts/CasinoFactory.sol",
  "abi": [
    {
      "inputs": [],
      "stateMutability": "nonpayable",
      "type": "constructor"
    },
    {
      "inputs": [],
      "name": "EnforcedPause",
      "type": "error"
    },
    {
      "inputs": [],
      "name": "ExpectedPause",
      "type": "error"
    },
    {
      "inputs": [],
      "name": "InvalidAmount",
      "type": "error"
    },
    {
      "inputs": [],
      "name": "InvalidWalletAddress",
      "type": "error"
    },
    {
      "inputs": [
        {
          "internalType": "address",
          "name": "owner",
          "type": "address"
        }
      ],
      "name": "OwnableInvalidOwner",
      "type": "error"
    },
    {
      "inputs": [
        {
          "internalType": "address",
          "name": "account",
          "type": "address"
        }
      ],
      "name": "OwnableUnauthorizedAccount",
      "type": "error"
    },
    {
      "inputs": [],
      "name": "PoolAlreadyExists",
      "type": "error"
    },
    {
      "inputs": [],
      "name": "PoolDoesNotExist",
      "type": "error"
    },
    {
      "anonymous": false,
      "inputs": [
        {
          "indexed": false,
          "internalType": "uint256",
          "name": "oldFee",
          "type": "uint256"
        },
        {
          "indexed": false,
          "internalType": "uint256",
          "name": "newFee",
          "type": "uint256"
        }
      ],
      "name": "GameFeeUpdated",
      "type": "event"
    },
    {
      "anonymous": false,
      "inputs": [
        {
          "indexed": true,
          "internalType": "address",
          "name": "operator",
          "type": "address"
        },
        {
          "indexed": false,
          "internalType": "bool",
          "name": "status",
          "type": "bool"
        },
        {
          "indexed": false,
          "internalType": "string",
          "name": "name",
          "type": "string"
        }
      ],
      "name": "OperatorUpdated",
      "type": "event"
    },
    {
      "anonymous": false,
      "inputs": [
        {
          "indexed": true,
          "internalType": "address",
          "name": "previousOwner",
          "type": "address"
        },
        {
          "indexed": true,
          "internalType": "address",
          "name": "newOwner",
          "type": "address"
        }
      ],
      "name": "OwnershipTransferred",
      "type": "event"
    },
    {
      "anonymous": false,
      "inputs": [
        {
          "indexed": false,
          "internalType": "address",
          "name": "account",
          "type": "address"
        }
      ],
      "name": "Paused",
      "type": "event"
    },
    {
      "anonymous": false,
      "inputs": [
        {
          "indexed": false,
          "internalType": "uint256",
          "name": "oldFee",
          "type": "uint256"
        },
        {
          "indexed": false,
          "internalType": "uint256",
          "name": "newFee",
          "type": "uint256"
        }
      ],
      "name": "PlatformFeeUpdated",
      "type": "event"
    },
    {
      "anonymous": false,
      "inputs": [
        {
          "indexed": true,
          "internalType": "address",
          "name": "newWallet",
          "type": "address"
        }
      ],
      "name": "PlatformWalletUpdated",
      "type": "event"
    },
    {
      "anonymous": false,
      "inputs": [
        {
          "indexed": true,
          "internalType": "address",
          "name": "token",
          "type": "address"
        },
        {
          "indexed": true,
          "internalType": "address",
          "name": "pool",
          "type": "address"
        }
      ],
      "name": "PoolCreated",
      "type": "event"
    },
    {
      "anonymous": false,
      "inputs": [
        {
          "indexed": true,
          "internalType": "address",
          "name": "token",
          "type": "address"
        },
        {
          "indexed": false,
          "internalType": "bool",
          "name": "status",
          "type": "bool"
        }
      ],
      "name": "TokenWhitelisted",
      "type": "event"
    },
    {
      "anonymous": false,
      "inputs": [
        {
          "indexed": false,
          "internalType": "address",
          "name": "account",
          "type": "address"
        }
      ],
      "name": "Unpaused",
      "type": "event"
    },
    {
      "inputs": [
        {
          "internalType": "address",
          "name": "token",
          "type": "address"
        }
      ],
      "name": "createPool",
      "outputs": [],
      "stateMutability": "payable",
      "type": "function"
    },
    {
      "inputs": [
        {
          "internalType": "uint256",
          "name": "",
          "type": "uint256"
        }
      ],
      "name": "deployedTokens",
      "outputs": [
        {
          "internalType": "address",
          "name": "",
          "type": "address"
        }
      ],
      "stateMutability": "view",
      "type": "function"
    },
    {
      "inputs": [
        {
          "internalType": "address",
          "name": "token",
          "type": "address"
        }
      ],
      "name": "emergencyWithdrawFromPool",
      "outputs": [],
      "stateMutability": "nonpayable",
      "type": "function"
    },
    {
      "inputs": [],
      "name": "getDeployedPools",
      "outputs": [
        {
          "internalType": "address[]",
          "name": "tokens",
          "type": "address[]"
        },
        {
          "internalType": "address[]",
          "name": "pools",
          "type": "address[]"
        }
      ],
      "stateMutability": "view",
      "type": "function"
    },
    {
      "inputs": [
        {
          "internalType": "address",
          "name": "operatorAddr",
          "type": "address"
        }
      ],
      "name": "getOperatorName",
      "outputs": [
        {
          "internalType": "string",
          "name": "",
          "type": "string"
        }
      ],
      "stateMutability": "view",
      "type": "function"
    },
    {
      "inputs": [
        {
          "internalType": "address",
          "name": "token",
          "type": "address"
        }
      ],
      "name": "getPool",
      "outputs": [
        {
          "internalType": "bool",
          "name": "exists",
          "type": "bool"
        },
        {
          "internalType": "address",
          "name": "pool",
          "type": "address"
        }
      ],
      "stateMutability": "view",
      "type": "function"
    },
    {
      "inputs": [
        {
          "internalType": "address",
          "name": "_platformWallet",
          "type": "address"
        }
      ],
      "name": "initialize",
      "outputs": [],
      "stateMutability": "nonpayable",
      "type": "function"
    },
    {
      "inputs": [
        {
          "internalType": "address",
          "name": "operatorAddr",
          "type": "address"
        }
      ],
      "name": "isOperator",
      "outputs": [
        {
          "internalType": "bool",
          "name": "",
          "type": "bool"
        }
      ],
      "stateMutability": "view",
      "type": "function"
    },
    {
      "inputs": [
        {
          "internalType": "address",
          "name": "",
          "type": "address"
        }
      ],
      "name": "isPoolDeployed",
      "outputs": [
        {
          "internalType": "bool",
          "name": "",
          "type": "bool"
        }
      ],
      "stateMutability": "view",
      "type": "function"
    },
    {
      "inputs": [
        {
          "internalType": "address",
          "name": "",
          "type": "address"
        }
      ],
      "name": "operatorNames",
      "outputs": [
        {
          "internalType": "string",
          "name": "",
          "type": "string"
        }
      ],
      "stateMutability": "view",
      "type": "function"
    },
    {
      "inputs": [
        {
          "internalType": "address",
          "name": "",
          "type": "address"
        }
      ],
      "name": "operators",
      "outputs": [
        {
          "internalType": "bool",
          "name": "",
          "type": "bool"
        }
      ],
      "stateMutability": "view",
      "type": "function"
    },
    {
      "inputs": [],
      "name": "owner",
      "outputs": [
        {
          "internalType": "address",
          "name": "",
          "type": "address"
        }
      ],
      "stateMutability": "view",
      "type": "function"
    },
    {
      "inputs": [],
      "name": "pause",
      "outputs": [],
      "stateMutability": "nonpayable",
      "type": "function"
    },
    {
      "inputs": [],
      "name": "paused",
      "outputs": [
        {
          "internalType": "bool",
          "name": "",
          "type": "bool"
        }
      ],
      "stateMutability": "view",
      "type": "function"
    },
    {
      "inputs": [],
      "name": "platformWallet",
      "outputs": [
        {
          "internalType": "address",
          "name": "",
          "type": "address"
        }
      ],
      "stateMutability": "view",
      "type": "function"
    },
    {
      "inputs": [],
      "name": "poolCreationFee",
      "outputs": [
        {
          "internalType": "uint256",
          "name": "",
          "type": "uint256"
        }
      ],
      "stateMutability": "view",
      "type": "function"
    },
    {
      "inputs": [],
      "name": "renounceOwnership",
      "outputs": [],
      "stateMutability": "nonpayable",
      "type": "function"
    },
    {
      "inputs": [],
      "name": "router",
      "outputs": [
        {
          "internalType": "address",
          "name": "",
          "type": "address"
        }
      ],
      "stateMutability": "view",
      "type": "function"
    },
    {
      "inputs": [
        {
          "internalType": "address",
          "name": "operator",
          "type": "address"
        },
        {
          "internalType": "bool",
          "name": "status",
          "type": "bool"
        },
        {
          "internalType": "string",
          "name": "name",
          "type": "string"
        }
      ],
      "name": "setOperator",
      "outputs": [],
      "stateMutability": "nonpayable",
      "type": "function"
    },
    {
      "inputs": [
        {
          "internalType": "uint256",
          "name": "newFee",
          "type": "uint256"
        }
      ],
      "name": "setPoolCreationFee",
      "outputs": [],
      "stateMutability": "nonpayable",
      "type": "function"
    },
    {
      "inputs": [
        {
          "internalType": "address",
          "name": "_router",
          "type": "address"
        }
      ],
      "name": "setRouter",
      "outputs": [],
      "stateMutability": "nonpayable",
      "type": "function"
    },
    {
      "inputs": [
        {
          "internalType": "address",
          "name": "",
          "type": "address"
        }
      ],
      "name": "tokenToPools",
      "outputs": [
        {
          "internalType": "address",
          "name": "",
          "type": "address"
        }
      ],
      "stateMutability": "view",
      "type": "function"
    },
    {
      "inputs": [
        {
          "internalType": "address",
          "name": "newOwner",
          "type": "address"
        }
      ],
      "name": "transferOwnership",
      "outputs": [],
      "stateMutability": "nonpayable",
      "type": "function"
    },
    {
      "inputs": [],
      "name": "unpause",
      "outputs": [],
      "stateMutability": "nonpayable",
      "type": "function"
    },
    {
      "inputs": [
        {
          "internalType": "address",
          "name": "newWallet",
          "type": "address"
        }
      ],
      "name": "updatePlatformWallet",
      "outputs": [],
      "stateMutability": "nonpayable",
      "type": "function"
    }
  ],
  "bytecode": "0x608060405234801561000f575f80fd5b505f805460ff19169055338061003e57604051631e4fbdf760e01b81525f600482015260240160405180910390fd5b6100478161004d565b506100a5565b5f80546001600160a01b03838116610100818102610100600160a81b0319851617855560405193049190911692909183917f8be0079c531659141344cd1fd0a4f28419497f9722a3daafe3b4186f6b6457e091a35050565b6136ff806100b25f395ff3fe6080604052600436106200017f575f3560e01c8063ada4ef3011620000de578063d2d6c44d1162000092578063ec81aadb116200006a578063ec81aadb14620004f6578063f2fde38b146200051a578063f887ea40146200053e578063fa2af9da146200055f575f80fd5b8063d2d6c44d146200048a578063e3db750314620004ae578063eac8340714620004d2575f80fd5b8063ada4ef301462000362578063bacb4b7c1462000386578063bbe4f6db14620003be578063be74615f146200041c578063c0d786551462000442578063c4d66de81462000466575f80fd5b80636d70f7ae11620001365780636d70f7ae1462000287578063715018a614620002c25780638456cb5914620002d95780638da5cb5b14620002f05780639049f9d21462000327578063a0e0ce3d146200033e575f80fd5b806313e7c9d81462000183578063177761de14620001ca5780633f4ba83a14620001fc5780635c975abb14620002155780636b459213146200022d5780636ca58ec81462000254575b5f80fd5b3480156200018f575f80fd5b50620001b5620001a1366004620011e7565b60046020525f908152604090205460ff1681565b60405190151581526020015b60405180910390f35b348015620001d6575f80fd5b50620001b5620001e8366004620011e7565b60076020525f908152604090205460ff1681565b34801562000208575f80fd5b506200021362000580565b005b34801562000221575f80fd5b505f5460ff16620001b5565b34801562000239575f80fd5b50620002446200065e565b604051620001c19291906200124f565b34801562000260575f80fd5b506200027862000272366004620011e7565b620007ba565b604051620001c19190620012c5565b34801562000293575f80fd5b50620001b5620002a5366004620011e7565b6001600160a01b03165f9081526004602052604090205460ff1690565b348015620002ce575f80fd5b506200021362000859565b348015620002e5575f80fd5b506200021362000870565b348015620002fc575f80fd5b505f5461010090046001600160a01b03165b6040516001600160a01b039091168152602001620001c1565b6200021362000338366004620011e7565b6200094a565b3480156200034a575f80fd5b50620002786200035c366004620011e7565b62000b82565b3480156200036e575f80fd5b506200021362000380366004620011e7565b62000c8d565b34801562000392575f80fd5b506200030e620003a4366004620011e7565b60066020525f90815260409020546001600160a01b031681565b348015620003ca575f80fd5b50620003fc620003dc366004620011e7565b6001600160a01b039081165f908152600660205260409020541680151591565b6040805192151583526001600160a01b03909116602083015201620001c1565b34801562000428575f80fd5b506200043360035481565b604051908152602001620001c1565b3480156200044e575f80fd5b506200021362000460366004620011e7565b62000d08565b34801562000472575f80fd5b506200021362000484366004620011e7565b62000d5c565b34801562000496575f80fd5b5062000213620004a8366004620012d9565b62000df7565b348015620004ba575f80fd5b5062000213620004cc36600462001305565b62000e06565b348015620004de575f80fd5b5062000213620004f0366004620011e7565b62000efb565b34801562000502575f80fd5b506200030e62000514366004620012d9565b62000f9c565b34801562000526575f80fd5b506200021362000538366004620011e7565b62000fc5565b3480156200054a575f80fd5b506002546200030e906001600160a01b031681565b3480156200056b575f80fd5b506001546200030e906001600160a01b031681565b6200058a62001008565b620005946200103c565b5f6200059f6200065e565b9150505f5b81518110156200065a575f6001600160a01b0316828281518110620005cd57620005cd620013e3565b60200260200101516001600160a01b0316146200065157818181518110620005f957620005f9620013e3565b60200260200101516001600160a01b0316633f4ba83a6040518163ffffffff1660e01b81526004015f604051808303815f87803b15801562000639575f80fd5b505af11580156200064c573d5f803e3d5ffd5b505050505b600101620005a4565b5050565b60085460609081908067ffffffffffffffff811115620006825762000682620012f1565b604051908082528060200260200182016040528015620006ac578160200160208202803683370190505b5092508067ffffffffffffffff811115620006cb57620006cb620012f1565b604051908082528060200260200182016040528015620006f5578160200160208202803683370190505b5091505f5b81811015620007b4575f600882815481106200071a576200071a620013e3565b905f5260205f20015f9054906101000a90046001600160a01b03169050808583815181106200074d576200074d620013e3565b6001600160a01b039283166020918202929092018101919091528282165f908152600690915260409020548551911690859084908110620007925762000792620013e3565b6001600160a01b039092166020928302919091019091015250600101620006fa565b50509091565b60056020525f908152604090208054620007d490620013f7565b80601f01602080910402602001604051908101604052809291908181526020018280546200080290620013f7565b8015620008515780601f10620008275761010080835404028352916020019162000851565b820191905f5260205f20905b8154815290600101906020018083116200083357829003601f168201915b505050505081565b6200086362001008565b6200086e5f6200108f565b565b6200087a62001008565b62000884620010e7565b5f6200088f6200065e565b9150505f5b81518110156200065a575f6001600160a01b0316828281518110620008bd57620008bd620013e3565b60200260200101516001600160a01b0316146200094157818181518110620008e957620008e9620013e3565b60200260200101516001600160a01b0316638456cb596040518163ffffffff1660e01b81526004015f604051808303815f87803b15801562000929575f80fd5b505af11580156200093c573d5f803e3d5ffd5b505050505b60010162000894565b6001600160a01b038116620009725760405163a5f90a1160e01b815260040160405180910390fd5b6001600160a01b0381165f9081526007602052604090205460ff1615620009ac57604051630188c99160e11b815260040160405180910390fd5b6003541562000a7857600354341015620009d95760405163162908e360e11b815260040160405180910390fd5b6001546040515f916001600160a01b03169034908381818185875af1925050503d805f811462000a25576040519150601f19603f3d011682016040523d82523d5f602084013e62000a2a565b606091505b505090508062000a765760405162461bcd60e51b81526020600482015260126024820152714661696c656420746f2073656e642066656560701b60448201526064015b60405180910390fd5b505b6001546040515f91839130916001600160a01b03169062000a99906200116d565b6001600160a01b03938416815291831660208301529091166040820152606001604051809103905ff08015801562000ad3573d5f803e3d5ffd5b506001600160a01b038084165f81815260066020908152604080832080549587166001600160a01b031996871681179091556007909252808320805460ff1916600190811790915560088054918201815584527ff3f7a9fe364faab93b216da50a3214154f22a0a2b415b23a84c8169e8b636ee301805490951684179094559251939450919290917f4f2ce4e40f623ca765fc0167a25cb7842ceaafb8d82d3dec26ca0d0e0d2d489691a35050565b6001600160a01b0381165f9081526004602052604090205460609060ff1662000be05760405162461bcd60e51b815260206004820152600f60248201526e2737ba1030b71037b832b930ba37b960891b604482015260640162000a6d565b6001600160a01b0382165f908152600560205260409020805462000c0490620013f7565b80601f016020809104026020016040519081016040528092919081815260200182805462000c3290620013f7565b801562000c815780601f1062000c575761010080835404028352916020019162000c81565b820191905f5260205f20905b81548152906001019060200180831162000c6357829003601f168201915b50505050509050919050565b62000c9762001008565b6001600160a01b03811662000cbf5760405163a5f90a1160e01b815260040160405180910390fd5b600180546001600160a01b0319166001600160a01b0383169081179091556040517f73238e3ae0a71b401b31ae67204506d074de41bd5c084082fba9b64b1c7fa28f905f90a250565b62000d1262001008565b6001600160a01b03811662000d3a5760405163a5f90a1160e01b815260040160405180910390fd5b600280546001600160a01b0319166001600160a01b0392909216919091179055565b6001600160a01b03811662000d845760405163a5f90a1160e01b815260040160405180910390fd5b6001546001600160a01b03161562000dd55760405162461bcd60e51b8152602060048201526013602482015272105b1c9958591e481a5b9a5d1a585b1a5e9959606a1b604482015260640162000a6d565b600180546001600160a01b0319166001600160a01b0392909216919091179055565b62000e0162001008565b600355565b62000e1062001008565b6001600160a01b03831662000e385760405163a5f90a1160e01b815260040160405180910390fd5b6001600160a01b0383165f908152600460205260409020805460ff1916831580159190911790915562000e8f576001600160a01b0383165f90815260056020526040902062000e88828262001481565b5062000eb1565b6001600160a01b0383165f90815260056020526040812062000eb1916200117b565b826001600160a01b03167fb4a7e7bfbe44168d75911da03cb58c71b58bb630b7f21e7b7fa7029077da9646838360405162000eee9291906200154a565b60405180910390a2505050565b62000f0562001008565b62000f0f62001126565b6001600160a01b038082165f90815260066020526040902054168062000f48576040516302721e1f60e61b815260040160405180910390fd5b806001600160a01b031663db2e21bc6040518163ffffffff1660e01b81526004015f604051808303815f87803b15801562000f81575f80fd5b505af115801562000f94573d5f803e3d5ffd5b505050505050565b6008818154811062000fac575f80fd5b5f918252602090912001546001600160a01b0316905081565b62000fcf62001008565b6001600160a01b03811662000ffa57604051631e4fbdf760e01b81525f600482015260240162000a6d565b62001005816200108f565b50565b5f546001600160a01b036101009091041633146200086e5760405163118cdaa760e01b815233600482015260240162000a6d565b6200104662001126565b5f805460ff191690557f5db9ee0a495bf2e6ff9c91a7834c1ba4fdd244a5e8aa4e537bd38aeae4b073aa335b6040516001600160a01b03909116815260200160405180910390a1565b5f80546001600160a01b03838116610100818102610100600160a81b0319851617855560405193049190911692909183917f8be0079c531659141344cd1fd0a4f28419497f9722a3daafe3b4186f6b6457e091a35050565b620010f162001149565b5f805460ff191660011790557f62e78cea01bee320cd4e420270b5ea74000d11b0c9f74754ebdbfc544b05a258620010723390565b5f5460ff166200086e57604051638dfc202b60e01b815260040160405180910390fd5b5f5460ff16156200086e5760405163d93c066560e01b815260040160405180910390fd5b61215b806200156f83390190565b5080546200118990620013f7565b5f825580601f1062001199575050565b601f0160209004905f5260205f20908101906200100591905b80821115620011c7575f8155600101620011b2565b5090565b80356001600160a01b0381168114620011e2575f80fd5b919050565b5f60208284031215620011f8575f80fd5b6200120382620011cb565b9392505050565b5f815180845260208085019450602084015f5b83811015620012445781516001600160a01b0316875295820195908201906001016200121d565b509495945050505050565b604081525f6200126360408301856200120a565b82810360208401526200127781856200120a565b95945050505050565b5f81518084525f5b81811015620012a65760208185018101518683018201520162001288565b505f602082860101526020601f19601f83011685010191505092915050565b602081525f62001203602083018462001280565b5f60208284031215620012ea575f80fd5b5035919050565b634e487b7160e01b5f52604160045260245ffd5b5f805f6060848603121562001318575f80fd5b6200132384620011cb565b92506020840135801515811462001338575f80fd5b9150604084013567ffffffffffffffff8082111562001355575f80fd5b818601915086601f83011262001369575f80fd5b8135818111156200137e576200137e620012f1565b604051601f8201601f19908116603f01168101908382118183101715620013a957620013a9620012f1565b81604052828152896020848701011115620013c2575f80fd5b826020860160208301375f6020848301015280955050505050509250925092565b634e487b7160e01b5f52603260045260245ffd5b600181811c908216806200140c57607f821691505b6020821081036200142b57634e487b7160e01b5f52602260045260245ffd5b50919050565b601f8211156200147c57805f5260205f20601f840160051c81016020851015620014585750805b601f840160051c820191505b8181101562001479575f815560010162001464565b50505b505050565b815167ffffffffffffffff8111156200149e576200149e620012f1565b620014b681620014af8454620013f7565b8462001431565b602080601f831160018114620014ec575f8415620014d45750858301515b5f19600386901b1c1916600185901b17855562000f94565b5f85815260208120601f198616915b828110156200151c57888601518255948401946001909101908401620014fb565b50858210156200153a57878501515f19600388901b60f8161c191681555b5050505050600190811b01905550565b8215158152604060208201525f62001566604083018462001280565b94935050505056fe608060405234801562000010575f80fd5b506040516200215b3803806200215b833981016040819052620000339162000232565b5f805460ff19169055816001600160a01b0381166200006c57604051631e4fbdf760e01b81525f60048201526024015b60405180910390fd5b620000778162000145565b50600180556001600160a01b038316620000a45760405163162908e360e11b815260040160405180910390fd5b6001600160a01b038216620000cc5760405163162908e360e11b815260040160405180910390fd5b6001600160a01b038116620000f45760405163162908e360e11b815260040160405180910390fd5b600280546001600160a01b038086166001600160a01b0319928316179092556003805485841690831617905560048054928416929091169190911790556200013c826200019d565b50505062000279565b5f80546001600160a01b03838116610100818102610100600160a81b0319851617855560405193049190911692909183917f8be0079c531659141344cd1fd0a4f28419497f9722a3daafe3b4186f6b6457e091a35050565b620001a7620001e0565b6001600160a01b038116620001d257604051631e4fbdf760e01b81525f600482015260240162000063565b620001dd8162000145565b50565b5f546001600160a01b03610100909104163314620002145760405163118cdaa760e01b815233600482015260240162000063565b565b80516001600160a01b03811681146200022d575f80fd5b919050565b5f805f6060848603121562000245575f80fd5b620002508462000216565b9250620002606020850162000216565b9150620002706040850162000216565b90509250925092565b611ed480620002875f395ff3fe608060405234801561000f575f80fd5b50600436106101fd575f3560e01c80638da5cb5b11610114578063d4047faa116100a9578063f3c13cca11610079578063f3c13cca146103f6578063f6e8c58514610415578063f6ed201714610434578063fa2af9da14610447578063fc0c546a1461045a575f80fd5b8063d4047faa146103ad578063db2e21bc146103c0578063eb8b12d4146103c8578063f2fde38b146103e3575f80fd5b8063b6b55f25116100e4578063b6b55f2514610355578063b982c44514610368578063c45a01551461037b578063ce7c2ac21461038e575f80fd5b80638da5cb5b14610308578063939d6237146103315780639c8f9f231461033a578063abd70aa21461034d575f80fd5b806351c6590a116101955780635e3f2727116101655780635e3f2727146102df578063715018a6146102e75780637d882097146102ef5780638456cb59146102f8578063891b7ec614610300575f80fd5b806351c6590a1461028f5780635873eb9b146102a2578063587f5ed7146102c15780635c975abb146102ca575f80fd5b8063372500ab116101d0578063372500ab1461026e5780633a98ef39146102765780633f4ba83a1461027f578063515898af14610287575f80fd5b80632bba99c2146102015780632e1a7d4d146102165780632e428400146102295780632f4f21e21461025b575b5f80fd5b61021461020f366004611b77565b61046d565b005b610214610224366004611ba9565b610973565b610248610237366004611bc0565b60076020525f908152604090205481565b6040519081526020015b60405180910390f35b610214610269366004611bdb565b610b2f565b610214610d27565b61024860095481565b610214610d43565b610248606481565b61021461029d366004611ba9565b610d53565b6102486102b0366004611bc0565b600c6020525f908152604090205481565b610248600a5481565b5f5460ff166040519015158152602001610252565b61024860fa81565b610214610ef2565b61024860055481565b610214610f03565b61024860c881565b5f5461010090046001600160a01b03165b6040516001600160a01b039091168152602001610252565b610248600d5481565b610214610348366004611ba9565b610f13565b600554610248565b610214610363366004611ba9565b6110cf565b610214610376366004611b77565b611212565b600354610319906001600160a01b031681565b61024861039c366004611bc0565b600b6020525f908152604090205481565b6102146103bb366004611c05565b6112e0565b6102146115aa565b610319731db597fe69ba45c0dd0e3dbe1919231e44b2d40281565b6102146103f1366004611bc0565b61165f565b610248610404366004611bc0565b60086020525f908152604090205481565b610248610423366004611bc0565b60066020525f908152604090205481565b610248610442366004611bc0565b61169e565b600454610319906001600160a01b031681565b600254610319906001600160a01b031681565b60035460405163027cf93b60e31b81523360048201526001600160a01b03909116906313e7c9d890602401602060405180830381865afa1580156104b3573d5f803e3d5ffd5b505050506040513d601f19601f820116820180604052508101906104d79190611c74565b158015610569575060035f9054906101000a90046001600160a01b03166001600160a01b0316638da5cb5b6040518163ffffffff1660e01b8152600401602060405180830381865afa15801561052f573d5f803e3d5ffd5b505050506040513d601f19601f820116820180604052508101906105539190611c93565b6001600160a01b0316336001600160a01b031614155b156105875760405163ea8e4eb560e01b815260040160405180910390fd5b6001600160a01b0383165f908152600660205260409020548211156105bf57604051631e9acf1760e31b815260040160405180910390fd5b6001600160a01b0383165f90815260066020526040812080548492906105e6908490611cc2565b90915550506001600160a01b0383165f9081526008602052604090205461060e906001611cdb565b6001600160a01b0384165f9081526008602052604090205580156107ed575f61271061063c606460c8611cdb565b6106469084611cee565b6106509190611d05565b90505f612710610661606485611cee565b61066b9190611d05565b90505f61271061067c60c886611cee565b6106869190611d05565b90505f6106938486611cc2565b905081600a5f8282546106a69190611cdb565b9091555050600954156106e5576009546106c58364e8d4a51000611cee565b6106cf9190611d05565b600d5f8282546106df9190611cdb565b90915550505b60055481111561070857604051631e9acf1760e31b815260040160405180910390fd5b6001600160a01b0387165f908152600660205260408120805483929061072f908490611cdb565b909155505060025461074b906001600160a01b0316888361170c565b600254610776906001600160a01b0316731db597fe69ba45c0dd0e3dbe1919231e44b2d4028561170c565b81856005546107859190611cc2565b61078f9190611cdb565b60055560408051878152602081018790529081018390524260608201526001600160a01b038816907fe1e22663cd8791964c0fe0c536a5b296f73b419c63e18fcba51728f9270d90a29060800160405180910390a250505050610921565b5f6127106107fc606485611cee565b6108069190611d05565b90505f61271061081760c886611cee565b6108219190611d05565b90505f8161082f8487611cc2565b6108399190611cc2565b905081600a5f82825461084c9190611cdb565b90915550506009541561088b5760095461086b8364e8d4a51000611cee565b6108759190611d05565b600d5f8282546108859190611cdb565b90915550505b8060055f82825461089c9190611cdb565b90915550506002546108cc906001600160a01b0316731db597fe69ba45c0dd0e3dbe1919231e44b2d4028561170c565b604080518681525f60208201529081018390524260608201526001600160a01b038716907fe1e22663cd8791964c0fe0c536a5b296f73b419c63e18fcba51728f9270d90a29060800160405180910390a25050505b6001600160a01b0383165f81815260076020908152604080832043908190556006835292819020548151908152918201929092525f80516020611e7f83398151915291015b60405180910390a2505050565b61097b61176b565b610983611795565b805f036109a35760405163162908e360e11b815260040160405180910390fd5b335f908152600660205260409020548111156109d25760405163bd391e8f60e01b815260040160405180910390fd5b335f90815260076020526040902054611680906109ef9043611cc2565b1115610a0e57604051633009218360e21b815260040160405180910390fd5b600554811115610a3157604051631e9acf1760e31b815260040160405180910390fd5b5f612710610a4060fa84611cee565b610a4a9190611d05565b90505f610a578284611cc2565b335f90815260066020526040812080549293508592909190610a7a908490611cc2565b925050819055508260055f828254610a929190611cc2565b90915550508115610ac857600254610ac8906001600160a01b0316731db597fe69ba45c0dd0e3dbe1919231e44b2d4028461170c565b600254610adf906001600160a01b0316338361170c565b60408051848152602081018390524281830152905133917f650fdf669e93aa6c8ff3defe2da9c12b64f1548e5e1e54e803f4c1beb6466c8e919081900360600190a25050610b2c60018055565b50565b610b3761176b565b610b3f611795565b60035f9054906101000a90046001600160a01b03166001600160a01b031663f887ea406040518163ffffffff1660e01b8152600401602060405180830381865afa158015610b8f573d5f803e3d5ffd5b505050506040513d601f19601f82011682018060405250810190610bb39190611c93565b6001600160a01b0316336001600160a01b031614610be45760405163ea8e4eb560e01b815260040160405180910390fd5b805f03610c045760405163162908e360e11b815260040160405180910390fd5b8060055f828254610c159190611cdb565b90915550506001600160a01b0382165f9081526006602052604081208054839290610c41908490611cdb565b90915550506001600160a01b0382165f9081526007602090815260408083204390556008909152902054610c76906001611cdb565b6001600160a01b0383165f818152600860209081526040918290209390935580518481529283018490524290830152907f36af321ec8d3c75236829c5317affd40ddb308863a1236d2d277a4025cccee1e9060600160405180910390a26001600160a01b0382165f81815260066020526040908190205490515f80516020611e7f83398151915291610d12914390918252602082015260400190565b60405180910390a2610d2360018055565b5050565b610d2f61176b565b610d38336117b8565b610d4160018055565b565b610d4b61192a565b610d4161195c565b610d5b61176b565b610d63611795565b805f03610d835760405163162908e360e11b815260040160405180910390fd5b5f612710610d9260fa84611cee565b610d9c9190611d05565b90505f610da98284611cc2565b90505f6009545f03610dbc575080610dd9565b600554600954610dcc9084611cee565b610dd69190611d05565b90505b600254610df1906001600160a01b03163330876119ad565b8215610e2257600254610e22906001600160a01b0316731db597fe69ba45c0dd0e3dbe1919231e44b2d4028561170c565b8160055f828254610e339190611cdb565b925050819055508060095f828254610e4b9190611cdb565b9091555050335f908152600b602052604081208054839290610e6e908490611cdb565b9091555050600d5464e8d4a5100090610e879083611cee565b610e919190611d05565b335f818152600c60209081526040918290209390935580518781529283018490524290830152907f64b83944e79c3ce8d4c297411de637c3e102d064677aac0c163976ebdcd6f50e906060015b60405180910390a2505050610b2c60018055565b610efa61192a565b610d415f6119ec565b610f0b61192a565b610d41611a44565b610f1b61176b565b805f03610f3b5760405163162908e360e11b815260040160405180910390fd5b335f908152600b6020526040902054811115610f6a57604051633999656760e01b815260040160405180910390fd5b610f73336117b8565b5f60095460055483610f859190611cee565b610f8f9190611d05565b90505f612710610fa060fa84611cee565b610faa9190611d05565b90505f610fb78284611cc2565b90508260055f828254610fca9190611cc2565b925050819055508360095f828254610fe29190611cc2565b9091555050335f908152600b602052604081208054869290611005908490611cc2565b9091555050600d54335f908152600b602052604090205464e8d4a510009161102c91611cee565b6110369190611d05565b335f908152600c6020526040902055811561107657600254611076906001600160a01b0316731db597fe69ba45c0dd0e3dbe1919231e44b2d4028461170c565b60025461108d906001600160a01b0316338361170c565b6040805184815260208101869052429181019190915233907f1dc8bb69df2b8e91fbdcbfcf93d951b3f0000f085a95fe3f7946d6161439245d90606001610ede565b6110d761176b565b6110df611795565b805f036110ff5760405163162908e360e11b815260040160405180910390fd5b600254611117906001600160a01b03163330846119ad565b8060055f8282546111289190611cdb565b9091555050335f908152600660205260408120805483929061114b908490611cdb565b9091555050335f9081526007602090815260408083204390556008909152902054611177906001611cdb565b335f818152600860209081526040918290209390935580518481529283018490524290830152907f36af321ec8d3c75236829c5317affd40ddb308863a1236d2d277a4025cccee1e9060600160405180910390a2335f81815260066020526040908190205490515f80516020611e7f83398151915291611201914390918252602082015260400190565b60405180910390a2610b2c60018055565b60035460405163027cf93b60e31b81523360048201526001600160a01b03909116906313e7c9d890602401602060405180830381865afa158015611258573d5f803e3d5ffd5b505050506040513d601f19601f8201168201806040525081019061127c9190611c74565b6112995760405163ea8e4eb560e01b815260040160405180910390fd5b6001600160a01b0383165f9081526008602052604090205481116112d057604051633ab3447f60e11b815260040160405180910390fd5b6112db838383611a80565b505050565b60035460405163027cf93b60e31b81523360048201526001600160a01b03909116906313e7c9d890602401602060405180830381865afa158015611326573d5f803e3d5ffd5b505050506040513d601f19601f8201168201806040525081019061134a9190611c74565b6113675760405163ea8e4eb560e01b815260040160405180910390fd5b5f819003611388576040516362ab5bf760e01b815260040160405180910390fd5b5f8167ffffffffffffffff8111156113a2576113a2611d24565b6040519080825280602002602001820160405280156113cb578160200160208202803683370190505b5090505f8267ffffffffffffffff8111156113e8576113e8611d24565b604051908082528060200260200182016040528015611411578160200160208202803683370190505b5090505f8367ffffffffffffffff81111561142e5761142e611d24565b604051908082528060200260200182016040528015611457578160200160208202803683370190505b5090505f5b84811015611567575f86868381811061147757611477611d38565b90506060020180360381019061148d9190611d4c565b80516001600160a01b03165f90815260086020526040908190205490820151919250106114cd57604051633ab3447f60e11b815260040160405180910390fd5b6114e3815f015182602001518360400151611a80565b805f01518583815181106114f9576114f9611d38565b60200260200101906001600160a01b031690816001600160a01b031681525050806020015184838151811061153057611530611d38565b602002602001018181525050806040015183838151811061155357611553611d38565b60209081029190910101525060010161145c565b507ff8f81322e831dac612f468d497419064d31cd4fe7e61ca5f801e636ae95cb22583838360405161159b93929190611df2565b60405180910390a15050505050565b6115b261192a565b6115ba611ad5565b6002546040516370a0823160e01b81523060048201525f916001600160a01b0316906370a0823190602401602060405180830381865afa158015611600573d5f803e3d5ffd5b505050506040513d601f19601f820116820180604052508101906116249190611e67565b9050801561164957600454600254611649916001600160a01b0391821691168361170c565b505f60058190556009819055600a819055600d55565b61166761192a565b6001600160a01b03811661169557604051631e4fbdf760e01b81525f60048201526024015b60405180910390fd5b610b2c816119ec565b6001600160a01b0381165f908152600b60205260408120548082036116c557505f92915050565b6001600160a01b0383165f908152600c6020526040902054600d5464e8d4a51000906116f19084611cee565b6116fb9190611d05565b6117059190611cc2565b9392505050565b6040516001600160a01b038381166024830152604482018390526112db91859182169063a9059cbb906064015b604051602081830303815290604052915060e01b6020820180516001600160e01b038381831617835250505050611af7565b60026001540361178e57604051633ee5aeb560e01b815260040160405180910390fd5b6002600155565b5f5460ff1615610d415760405163d93c066560e01b815260040160405180910390fd5b6001600160a01b0381165f908152600b6020526040812054908190036117dc575050565b6001600160a01b0382165f908152600c6020526040812054600d5464e8d4a51000906118089085611cee565b6118129190611d05565b61181c9190611cc2565b905080156112db575f612710611833606484611cee565b61183d9190611d05565b90505f61184a8284611cc2565b905082600a5f82825461185d9190611cc2565b9091555050600d5464e8d4a51000906118769086611cee565b6118809190611d05565b6001600160a01b0386165f908152600c602052604090205581156118c9576002546118c9906001600160a01b0316731db597fe69ba45c0dd0e3dbe1919231e44b2d4028461170c565b6002546118e0906001600160a01b0316868361170c565b604080518281524260208201526001600160a01b038716917fdacbdde355ba930696a362ea6738feb9f8bd52dfb3d81947558fd3217e23e325910160405180910390a25050505050565b5f546001600160a01b03610100909104163314610d415760405163118cdaa760e01b815233600482015260240161168c565b611964611ad5565b5f805460ff191690557f5db9ee0a495bf2e6ff9c91a7834c1ba4fdd244a5e8aa4e537bd38aeae4b073aa335b6040516001600160a01b03909116815260200160405180910390a1565b6040516001600160a01b0384811660248301528381166044830152606482018390526119e69186918216906323b872dd90608401611739565b50505050565b5f80546001600160a01b03838116610100818102610100600160a81b0319851617855560405193049190911692909183917f8be0079c531659141344cd1fd0a4f28419497f9722a3daafe3b4186f6b6457e091a35050565b611a4c611795565b5f805460ff191660011790557f62e78cea01bee320cd4e420270b5ea74000d11b0c9f74754ebdbfc544b05a2586119903390565b6001600160a01b0383165f81815260066020908152604080832086905560078252808320439081905560088352928190208590558051868152918201929092525f80516020611e7f8339815191529101610966565b5f5460ff16610d4157604051638dfc202b60e01b815260040160405180910390fd5b5f8060205f8451602086015f885af180611b16576040513d5f823e3d81fd5b50505f513d91508115611b2d578060011415611b3a565b6001600160a01b0384163b155b156119e657604051635274afe760e01b81526001600160a01b038516600482015260240161168c565b6001600160a01b0381168114610b2c575f80fd5b5f805f60608486031215611b89575f80fd5b8335611b9481611b63565b95602085013595506040909401359392505050565b5f60208284031215611bb9575f80fd5b5035919050565b5f60208284031215611bd0575f80fd5b813561170581611b63565b5f8060408385031215611bec575f80fd5b8235611bf781611b63565b946020939093013593505050565b5f8060208385031215611c16575f80fd5b823567ffffffffffffffff80821115611c2d575f80fd5b818501915085601f830112611c40575f80fd5b813581811115611c4e575f80fd5b866020606083028501011115611c62575f80fd5b60209290920196919550909350505050565b5f60208284031215611c84575f80fd5b81518015158114611705575f80fd5b5f60208284031215611ca3575f80fd5b815161170581611b63565b634e487b7160e01b5f52601160045260245ffd5b81810381811115611cd557611cd5611cae565b92915050565b80820180821115611cd557611cd5611cae565b8082028115828204841417611cd557611cd5611cae565b5f82611d1f57634e487b7160e01b5f52601260045260245ffd5b500490565b634e487b7160e01b5f52604160045260245ffd5b634e487b7160e01b5f52603260045260245ffd5b5f60608284031215611d5c575f80fd5b6040516060810181811067ffffffffffffffff82111715611d8b57634e487b7160e01b5f52604160045260245ffd5b6040528235611d9981611b63565b8152602083810135908201526040928301359281019290925250919050565b5f815180845260208085019450602084015f5b83811015611de757815187529582019590820190600101611dcb565b509495945050505050565b606080825284519082018190525f906020906080840190828801845b82811015611e335781516001600160a01b031684529284019290840190600101611e0e565b5050508381036020850152611e488187611db8565b9150508281036040840152611e5d8185611db8565b9695505050505050565b5f60208284031215611e77575f80fd5b505191905056fe6cd0a1016c3784bb906a087cb3eb498e88d47c84444f80ac7aa803fe89cc39e8a2646970667358221220cde319bed322a149f97721a2b1ace2d597a5920e86463a0e19cde4e992ed4f4564736f6c63430008180033a2646970667358221220d962c11b2de0b4a57b6df0adca50378325d81c26722ee101d0038b6c613aceaa64736f6c63430008180033",
  "linkReferences": {},
  "deployedLinkReferences": {}
}