{
  "_format": "hh-sol-artifact-1",
  "contractName": "CasinoRouter",
  "sourceName": "contracts/CasinoRouter.sol",
  "abi": [
    {
      "inputs": [
        {
          "internalType": "address",
          "name": "_factory",
          "type": "address"
        }
      ],
      "stateMutability": "nonpayable",
      "type": "constructor"
    },
    {
      "inputs": [],
      "name": "InvalidWalletAddress",
      "type": "error"
    },
    {
      "inputs": [],
      "name": "PoolDoesNotExist",
      "type": "error"
    },
    {
      "inputs": [
        {
          "internalType": "address",
          "name": "token",
          "type": "address"
        }
      ],
      "name": "SafeERC20FailedOperation",
      "type": "error"
    },
    {
      "inputs": [
        {
          "internalType": "address",
          "name": "token",
          "type": "address"
        },
        {
          "internalType": "uint256",
          "name": "amount",
          "type": "uint256"
        }
      ],
      "name": "depositToPool",
      "outputs": [],
      "stateMutability": "nonpayable",
      "type": "function"
    },
    {
      "inputs": [],
      "name": "factory",
      "outputs": [
        {
          "internalType": "contract CasinoFactory",
          "name": "",
          "type": "address"
        }
      ],
      "stateMutability": "view",
      "type": "function"
    },
    {
      "inputs": [
        {
          "internalType": "address[]",
          "name": "tokens",
          "type": "address[]"
        }
      ],
      "name": "getPoolBalances",
      "outputs": [
        {
          "internalType": "uint256[]",
          "name": "balances",
          "type": "uint256[]"
        }
      ],
      "stateMutability": "view",
      "type": "function"
    },
    {
      "inputs": [
        {
          "internalType": "address[]",
          "name": "tokens",
          "type": "address[]"
        }
      ],
      "name": "hasActivePools",
      "outputs": [
        {
          "internalType": "bool",
          "name": "hasBalance",
          "type": "bool"
        }
      ],
      "stateMutability": "view",
      "type": "function"
    },
    {
      "inputs": [
        {
          "internalType": "address",
          "name": "token",
          "type": "address"
        },
        {
          "internalType": "uint256",
          "name": "amount",
          "type": "uint256"
        }
      ],
      "name": "withdrawFromPool",
      "outputs": [],
      "stateMutability": "nonpayable",
      "type": "function"
    }
  ],
  "bytecode": "0x60a060405234801561000f575f80fd5b50604051610aeb380380610aeb83398101604081905261002e91610066565b6001600160a01b0381166100555760405163a5f90a1160e01b815260040160405180910390fd5b6001600160a01b0316608052610093565b5f60208284031215610076575f80fd5b81516001600160a01b038116811461008c575f80fd5b9392505050565b608051610a256100c65f395f818160ce0152818161012b0152818161027e0152818161043201526105b50152610a255ff3fe608060405234801561000f575f80fd5b5060043610610055575f3560e01c80632f6d58dc14610059578063331d71d11461006e5780636fb5e42714610096578063c1bf9e58146100b6578063c45a0155146100c9575b5f80fd5b61006c610067366004610876565b610108565b005b61008161007c3660046108a0565b61026f565b60405190151581526020015b60405180910390f35b6100a96100a43660046108a0565b6103dd565b60405161008d919061090f565b61006c6100c4366004610876565b610592565b6100f07f000000000000000000000000000000000000000000000000000000000000000081565b6040516001600160a01b03909116815260200161008d565b60405163bbe4f6db60e01b81526001600160a01b0383811660048301525f9182917f0000000000000000000000000000000000000000000000000000000000000000169063bbe4f6db906024016040805180830381865afa15801561016f573d5f803e3d5ffd5b505050506040513d601f19601f820116820180604052508101906101939190610952565b915091508115806101ab57506001600160a01b038116155b156101c9576040516302721e1f60e61b815260040160405180910390fd5b825f036101e95760405163a5f90a1160e01b815260040160405180910390fd5b836101ff6001600160a01b0382163330876106ae565b6102136001600160a01b038216838661071b565b60405163b6b55f2560e01b8152600481018590526001600160a01b0383169063b6b55f25906024015f604051808303815f87803b158015610252575f80fd5b505af1158015610264573d5f803e3d5ffd5b505050505050505050565b5f805b828110156103d6575f807f00000000000000000000000000000000000000000000000000000000000000006001600160a01b031663bbe4f6db8787868181106102bd576102bd61098e565b90506020020160208101906102d291906109a2565b6040516001600160e01b031960e084901b1681526001600160a01b0390911660048201526024016040805180830381865afa158015610313573d5f803e3d5ffd5b505050506040513d601f19601f820116820180604052508101906103379190610952565b9150915081801561035057506001600160a01b03811615155b156103cc575f816001600160a01b031663abd70aa26040518163ffffffff1660e01b8152600401602060405180830381865afa158015610392573d5f803e3d5ffd5b505050506040513d601f19601f820116820180604052508101906103b691906109c4565b905080156103ca57600194505050506103d6565b505b5050600101610272565b5092915050565b60608167ffffffffffffffff8111156103f8576103f86109db565b604051908082528060200260200182016040528015610421578160200160208202803683370190505b5090505f5b828110156103d6575f807f00000000000000000000000000000000000000000000000000000000000000006001600160a01b031663bbe4f6db8787868181106104715761047161098e565b905060200201602081019061048691906109a2565b6040516001600160e01b031960e084901b1681526001600160a01b0390911660048201526024016040805180830381865afa1580156104c7573d5f803e3d5ffd5b505050506040513d601f19601f820116820180604052508101906104eb9190610952565b9150915081801561050457506001600160a01b03811615155b1561058857806001600160a01b031663abd70aa26040518163ffffffff1660e01b8152600401602060405180830381865afa158015610545573d5f803e3d5ffd5b505050506040513d601f19601f8201168201806040525081019061056991906109c4565b84848151811061057b5761057b61098e565b6020026020010181815250505b5050600101610426565b60405163bbe4f6db60e01b81526001600160a01b0383811660048301525f9182917f0000000000000000000000000000000000000000000000000000000000000000169063bbe4f6db906024016040805180830381865afa1580156105f9573d5f803e3d5ffd5b505050506040513d601f19601f8201168201806040525081019061061d9190610952565b9150915081158061063557506001600160a01b038116155b15610653576040516302721e1f60e61b815260040160405180910390fd5b604051632e1a7d4d60e01b8152600481018490526001600160a01b03821690632e1a7d4d906024015f604051808303815f87803b158015610692575f80fd5b505af11580156106a4573d5f803e3d5ffd5b5050505050505050565b6040516001600160a01b0384811660248301528381166044830152606482018390526107159186918216906323b872dd906084015b604051602081830303815290604052915060e01b6020820180516001600160e01b0383818316178352505050506107a6565b50505050565b604080516001600160a01b038416602482015260448082018490528251808303909101815260649091019091526020810180516001600160e01b031663095ea7b360e01b17905261076c8482610816565b610715576040516001600160a01b0384811660248301525f60448301526107a091869182169063095ea7b3906064016106e3565b61071584825b5f8060205f8451602086015f885af1806107c5576040513d5f823e3d81fd5b50505f513d915081156107dc5780600114156107e9565b6001600160a01b0384163b155b1561071557604051635274afe760e01b81526001600160a01b038516600482015260240160405180910390fd5b5f805f8060205f8651602088015f8a5af192503d91505f519050828015610855575081156108475780600114610855565b5f866001600160a01b03163b115b9695505050505050565b6001600160a01b0381168114610873575f80fd5b50565b5f8060408385031215610887575f80fd5b82356108928161085f565b946020939093013593505050565b5f80602083850312156108b1575f80fd5b823567ffffffffffffffff808211156108c8575f80fd5b818501915085601f8301126108db575f80fd5b8135818111156108e9575f80fd5b8660208260051b85010111156108fd575f80fd5b60209290920196919550909350505050565b602080825282518282018190525f9190848201906040850190845b818110156109465783518352928401929184019160010161092a565b50909695505050505050565b5f8060408385031215610963575f80fd5b82518015158114610972575f80fd5b60208401519092506109838161085f565b809150509250929050565b634e487b7160e01b5f52603260045260245ffd5b5f602082840312156109b2575f80fd5b81356109bd8161085f565b9392505050565b5f602082840312156109d4575f80fd5b5051919050565b634e487b7160e01b5f52604160045260245ffdfea264697066735822122051906632757f9fb0f37d7e052526a66f15ef913d4c4b29483ead19e09a90dcea64736f6c63430008180033",
  "linkReferences": {},
  "deployedLinkReferences": {}
}