{
  "_format": "hh-sol-artifact-1",
  "contractName": "CasinoRouter",
  "sourceName": "contracts/CasinoRouter.sol",
  "abi": [
    {
      "inputs": [
        {
          "internalType": "address",
          "name": "_factory",
          "type": "address"
        }
      ],
      "stateMutability": "nonpayable",
      "type": "constructor"
    },
    {
      "inputs": [],
      "name": "InvalidWalletAddress",
      "type": "error"
    },
    {
      "inputs": [],
      "name": "PoolDoesNotExist",
      "type": "error"
    },
    {
      "inputs": [
        {
          "internalType": "address",
          "name": "token",
          "type": "address"
        }
      ],
      "name": "SafeERC20FailedOperation",
      "type": "error"
    },
    {
      "inputs": [
        {
          "internalType": "address",
          "name": "token",
          "type": "address"
        },
        {
          "internalType": "uint256",
          "name": "amount",
          "type": "uint256"
        }
      ],
      "name": "depositToPool",
      "outputs": [],
      "stateMutability": "nonpayable",
      "type": "function"
    },
    {
      "inputs": [],
      "name": "factory",
      "outputs": [
        {
          "internalType": "contract CasinoFactory",
          "name": "",
          "type": "address"
        }
      ],
      "stateMutability": "view",
      "type": "function"
    },
    {
      "inputs": [
        {
          "internalType": "address[]",
          "name": "tokens",
          "type": "address[]"
        }
      ],
      "name": "getPoolBalances",
      "outputs": [
        {
          "internalType": "uint256[]",
          "name": "balances",
          "type": "uint256[]"
        }
      ],
      "stateMutability": "view",
      "type": "function"
    },
    {
      "inputs": [
        {
          "internalType": "address[]",
          "name": "tokens",
          "type": "address[]"
        }
      ],
      "name": "hasActivePools",
      "outputs": [
        {
          "internalType": "bool",
          "name": "hasBalance",
          "type": "bool"
        }
      ],
      "stateMutability": "view",
      "type": "function"
    },
    {
      "inputs": [
        {
          "internalType": "address",
          "name": "token",
          "type": "address"
        },
        {
          "internalType": "uint256",
          "name": "amount",
          "type": "uint256"
        }
      ],
      "name": "withdrawFromPool",
      "outputs": [],
      "stateMutability": "nonpayable",
      "type": "function"
    }
  ],
  "bytecode": "0x60a060405234801561000f575f80fd5b506040516109fc3803806109fc83398101604081905261002e91610066565b6001600160a01b0381166100555760405163a5f90a1160e01b815260040160405180910390fd5b6001600160a01b0316608052610093565b5f60208284031215610076575f80fd5b81516001600160a01b038116811461008c575f80fd5b9392505050565b6080516109366100c65f395f818160ce0152818161012b015281816102700152818161042401526105a701526109365ff3fe608060405234801561000f575f80fd5b5060043610610055575f3560e01c80632f6d58dc14610059578063331d71d11461006e5780636fb5e42714610096578063c1bf9e58146100b6578063c45a0155146100c9575b5f80fd5b61006c610067366004610787565b610108565b005b61008161007c3660046107b1565b610261565b60405190151581526020015b60405180910390f35b6100a96100a43660046107b1565b6103cf565b60405161008d9190610820565b61006c6100c4366004610787565b610584565b6100f07f000000000000000000000000000000000000000000000000000000000000000081565b6040516001600160a01b03909116815260200161008d565b60405163bbe4f6db60e01b81526001600160a01b0383811660048301525f9182917f0000000000000000000000000000000000000000000000000000000000000000169063bbe4f6db906024016040805180830381865afa15801561016f573d5f803e3d5ffd5b505050506040513d601f19601f820116820180604052508101906101939190610863565b915091508115806101ab57506001600160a01b038116155b156101c9576040516302721e1f60e61b815260040160405180910390fd5b825f036101e95760405163a5f90a1160e01b815260040160405180910390fd5b836101ff6001600160a01b0382163384876106a0565b6040516317a790f160e11b8152336004820152602481018590526001600160a01b03831690632f4f21e2906044015f604051808303815f87803b158015610244575f80fd5b505af1158015610256573d5f803e3d5ffd5b505050505050505050565b5f805b828110156103c8575f807f00000000000000000000000000000000000000000000000000000000000000006001600160a01b031663bbe4f6db8787868181106102af576102af61089f565b90506020020160208101906102c491906108b3565b6040516001600160e01b031960e084901b1681526001600160a01b0390911660048201526024016040805180830381865afa158015610305573d5f803e3d5ffd5b505050506040513d601f19601f820116820180604052508101906103299190610863565b9150915081801561034257506001600160a01b03811615155b156103be575f816001600160a01b031663abd70aa26040518163ffffffff1660e01b8152600401602060405180830381865afa158015610384573d5f803e3d5ffd5b505050506040513d601f19601f820116820180604052508101906103a891906108d5565b905080156103bc57600194505050506103c8565b505b5050600101610264565b5092915050565b60608167ffffffffffffffff8111156103ea576103ea6108ec565b604051908082528060200260200182016040528015610413578160200160208202803683370190505b5090505f5b828110156103c8575f807f00000000000000000000000000000000000000000000000000000000000000006001600160a01b031663bbe4f6db8787868181106104635761046361089f565b905060200201602081019061047891906108b3565b6040516001600160e01b031960e084901b1681526001600160a01b0390911660048201526024016040805180830381865afa1580156104b9573d5f803e3d5ffd5b505050506040513d601f19601f820116820180604052508101906104dd9190610863565b915091508180156104f657506001600160a01b03811615155b1561057a57806001600160a01b031663abd70aa26040518163ffffffff1660e01b8152600401602060405180830381865afa158015610537573d5f803e3d5ffd5b505050506040513d601f19601f8201168201806040525081019061055b91906108d5565b84848151811061056d5761056d61089f565b6020026020010181815250505b5050600101610418565b60405163bbe4f6db60e01b81526001600160a01b0383811660048301525f9182917f0000000000000000000000000000000000000000000000000000000000000000169063bbe4f6db906024016040805180830381865afa1580156105eb573d5f803e3d5ffd5b505050506040513d601f19601f8201168201806040525081019061060f9190610863565b9150915081158061062757506001600160a01b038116155b15610645576040516302721e1f60e61b815260040160405180910390fd5b604051632e1a7d4d60e01b8152600481018490526001600160a01b03821690632e1a7d4d906024015f604051808303815f87803b158015610684575f80fd5b505af1158015610696573d5f803e3d5ffd5b5050505050505050565b604080516001600160a01b0385811660248301528416604482015260648082018490528251808303909101815260849091019091526020810180516001600160e01b03166323b872dd60e01b1790526106fa908590610700565b50505050565b5f8060205f8451602086015f885af18061071f576040513d5f823e3d81fd5b50505f513d91508115610736578060011415610743565b6001600160a01b0384163b155b156106fa57604051635274afe760e01b81526001600160a01b038516600482015260240160405180910390fd5b6001600160a01b0381168114610784575f80fd5b50565b5f8060408385031215610798575f80fd5b82356107a381610770565b946020939093013593505050565b5f80602083850312156107c2575f80fd5b823567ffffffffffffffff808211156107d9575f80fd5b818501915085601f8301126107ec575f80fd5b8135818111156107fa575f80fd5b8660208260051b850101111561080e575f80fd5b60209290920196919550909350505050565b602080825282518282018190525f9190848201906040850190845b818110156108575783518352928401929184019160010161083b565b50909695505050505050565b5f8060408385031215610874575f80fd5b82518015158114610883575f80fd5b602084015190925061089481610770565b809150509250929050565b634e487b7160e01b5f52603260045260245ffd5b5f602082840312156108c3575f80fd5b81356108ce81610770565b9392505050565b5f602082840312156108e5575f80fd5b5051919050565b634e487b7160e01b5f52604160045260245ffdfea2646970667358221220e5039d7de6df4ea32f47845d0b5203a04b66dfe13fce735de2beaf2fa464830864736f6c63430008180033",
  "linkReferences": {},
  "deployedLinkReferences": {}
}